{
	"TestStruct.sol": {
		"TestStruct": {
			"abi": [
				{
					"inputs": [
						{
							"components": [
								{
									"internalType": "string",
									"name": "name",
									"type": "string"
								},
								{
									"internalType": "uint8",
									"name": "age",
									"type": "uint8"
								},
								{
									"components": [
										{
											"internalType": "string",
											"name": "label",
											"type": "string"
										},
										{
											"internalType": "string",
											"name": "value",
											"type": "string"
										}
									],
									"internalType": "struct TestStruct.Hobby[]",
									"name": "hobbies",
									"type": "tuple[]"
								}
							],
							"internalType": "struct TestStruct.Penson",
							"name": "p",
							"type": "tuple"
						}
					],
					"name": "addPenson",
					"outputs": [],
					"stateMutability": "nonpayable",
					"type": "function"
				},
				{
					"inputs": [
						{
							"internalType": "uint256",
							"name": "index",
							"type": "uint256"
						}
					],
					"name": "getHobbies",
					"outputs": [
						{
							"components": [
								{
									"internalType": "string",
									"name": "label",
									"type": "string"
								},
								{
									"internalType": "string",
									"name": "value",
									"type": "string"
								}
							],
							"internalType": "struct TestStruct.Hobby[]",
							"name": "",
							"type": "tuple[]"
						}
					],
					"stateMutability": "view",
					"type": "function"
				},
				{
					"inputs": [],
					"name": "getPersons",
					"outputs": [
						{
							"components": [
								{
									"internalType": "string",
									"name": "name",
									"type": "string"
								},
								{
									"internalType": "uint8",
									"name": "age",
									"type": "uint8"
								},
								{
									"components": [
										{
											"internalType": "string",
											"name": "label",
											"type": "string"
										},
										{
											"internalType": "string",
											"name": "value",
											"type": "string"
										}
									],
									"internalType": "struct TestStruct.Hobby[]",
									"name": "hobbies",
									"type": "tuple[]"
								}
							],
							"internalType": "struct TestStruct.Penson[]",
							"name": "",
							"type": "tuple[]"
						}
					],
					"stateMutability": "view",
					"type": "function"
				},
				{
					"inputs": [
						{
							"internalType": "uint256",
							"name": "",
							"type": "uint256"
						}
					],
					"name": "persons",
					"outputs": [
						{
							"internalType": "string",
							"name": "name",
							"type": "string"
						},
						{
							"internalType": "uint8",
							"name": "age",
							"type": "uint8"
						}
					],
					"stateMutability": "view",
					"type": "function"
				}
			],
			"devdoc": {
				"kind": "dev",
				"methods": {},
				"version": 1
			},
			"evm": {
				"assembly": "    /* \"TestStruct.sol\":60:620  contract TestStruct {... */\n  mstore(0x40, 0x80)\n  callvalue\n  dup1\n  iszero\n  tag_1\n  jumpi\n  revert(0x00, 0x00)\ntag_1:\n  pop\n  dataSize(sub_0)\n  dup1\n  dataOffset(sub_0)\n  0x00\n  codecopy\n  0x00\n  return\nstop\n\nsub_0: assembly {\n        /* \"TestStruct.sol\":60:620  contract TestStruct {... */\n      mstore(0x40, 0x80)\n      callvalue\n      dup1\n      iszero\n      tag_1\n      jumpi\n      revert(0x00, 0x00)\n    tag_1:\n      pop\n      jumpi(tag_2, lt(calldatasize, 0x04))\n      shr(0xe0, calldataload(0x00))\n      dup1\n      0x4c6b6c6f\n      eq\n      tag_3\n      jumpi\n      dup1\n      0xa2f9eac6\n      eq\n      tag_4\n      jumpi\n      dup1\n      0xa94ca736\n      eq\n      tag_5\n      jumpi\n      dup1\n      0xf58252a7\n      eq\n      tag_6\n      jumpi\n    tag_2:\n      revert(0x00, 0x00)\n        /* \"TestStruct.sol\":386:479  function getPersons() public view returns( Penson[] memory) {... */\n    tag_3:\n      tag_7\n      tag_8\n      jump\t// in\n    tag_7:\n      mload(0x40)\n      tag_9\n      swap2\n      swap1\n      tag_10\n      jump\t// in\n    tag_9:\n      mload(0x40)\n      dup1\n      swap2\n      sub\n      swap1\n      return\n        /* \"TestStruct.sol\":262:285  Penson[] public persons */\n    tag_4:\n      tag_11\n      0x04\n      dup1\n      calldatasize\n      sub\n      dup2\n      add\n      swap1\n      tag_12\n      swap2\n      swap1\n      tag_13\n      jump\t// in\n    tag_12:\n      tag_14\n      jump\t// in\n    tag_11:\n      mload(0x40)\n      tag_15\n      swap3\n      swap2\n      swap1\n      tag_16\n      jump\t// in\n    tag_15:\n      mload(0x40)\n      dup1\n      swap2\n      sub\n      swap1\n      return\n        /* \"TestStruct.sol\":490:615  function getHobbies(uint256 index) public view returns (Hobby[] memory) {... */\n    tag_5:\n      tag_17\n      0x04\n      dup1\n      calldatasize\n      sub\n      dup2\n      add\n      swap1\n      tag_18\n      swap2\n      swap1\n      tag_13\n      jump\t// in\n    tag_18:\n      tag_19\n      jump\t// in\n    tag_17:\n      mload(0x40)\n      tag_20\n      swap2\n      swap1\n      tag_21\n      jump\t// in\n    tag_20:\n      mload(0x40)\n      dup1\n      swap2\n      sub\n      swap1\n      return\n        /* \"TestStruct.sol\":294:375  function addPenson (Penson calldata p ) public {... */\n    tag_6:\n      tag_22\n      0x04\n      dup1\n      calldatasize\n      sub\n      dup2\n      add\n      swap1\n      tag_23\n      swap2\n      swap1\n      tag_24\n      jump\t// in\n    tag_23:\n      tag_25\n      jump\t// in\n    tag_22:\n      stop\n        /* \"TestStruct.sol\":386:479  function getPersons() public view returns( Penson[] memory) {... */\n    tag_8:\n        /* \"TestStruct.sol\":429:444  Penson[] memory */\n      0x60\n        /* \"TestStruct.sol\":464:471  persons */\n      0x00\n        /* \"TestStruct.sol\":457:471  return persons */\n      dup1\n      sload\n      dup1\n      0x20\n      mul\n      0x20\n      add\n      mload(0x40)\n      swap1\n      dup2\n      add\n      0x40\n      mstore\n      dup1\n      swap3\n      swap2\n      swap1\n      dup2\n      dup2\n      mstore\n      0x20\n      add\n      0x00\n      swap1\n    tag_27:\n      dup3\n      dup3\n      lt\n      iszero\n      tag_28\n      jumpi\n      dup4\n      dup3\n      swap1\n      0x00\n      mstore\n      keccak256(0x00, 0x20)\n      swap1\n      0x03\n      mul\n      add\n      mload(0x40)\n      dup1\n      0x60\n      add\n      0x40\n      mstore\n      swap1\n      dup2\n      0x00\n      dup3\n      add\n      dup1\n      sload\n      tag_30\n      swap1\n      tag_31\n      jump\t// in\n    tag_30:\n      dup1\n      0x1f\n      add\n      0x20\n      dup1\n      swap2\n      div\n      mul\n      0x20\n      add\n      mload(0x40)\n      swap1\n      dup2\n      add\n      0x40\n      mstore\n      dup1\n      swap3\n      swap2\n      swap1\n      dup2\n      dup2\n      mstore\n      0x20\n      add\n      dup3\n      dup1\n      sload\n      tag_32\n      swap1\n      tag_31\n      jump\t// in\n    tag_32:\n      dup1\n      iszero\n      tag_33\n      jumpi\n      dup1\n      0x1f\n      lt\n      tag_34\n      jumpi\n      0x0100\n      dup1\n      dup4\n      sload\n      div\n      mul\n      dup4\n      mstore\n      swap2\n      0x20\n      add\n      swap2\n      jump(tag_33)\n    tag_34:\n      dup3\n      add\n      swap2\n      swap1\n      0x00\n      mstore\n      keccak256(0x00, 0x20)\n      swap1\n    tag_35:\n      dup2\n      sload\n      dup2\n      mstore\n      swap1\n      0x01\n      add\n      swap1\n      0x20\n      add\n      dup1\n      dup4\n      gt\n      tag_35\n      jumpi\n      dup3\n      swap1\n      sub\n      0x1f\n      and\n      dup3\n      add\n      swap2\n    tag_33:\n      pop\n      pop\n      pop\n      pop\n      pop\n      dup2\n      mstore\n      0x20\n      add\n      0x01\n      dup3\n      add\n      0x00\n      swap1\n      sload\n      swap1\n      0x0100\n      exp\n      swap1\n      div\n      0xff\n      and\n      0xff\n      and\n      0xff\n      and\n      dup2\n      mstore\n      0x20\n      add\n      0x02\n      dup3\n      add\n      dup1\n      sload\n      dup1\n      0x20\n      mul\n      0x20\n      add\n      mload(0x40)\n      swap1\n      dup2\n      add\n      0x40\n      mstore\n      dup1\n      swap3\n      swap2\n      swap1\n      dup2\n      dup2\n      mstore\n      0x20\n      add\n      0x00\n      swap1\n    tag_36:\n      dup3\n      dup3\n      lt\n      iszero\n      tag_37\n      jumpi\n      dup4\n      dup3\n      swap1\n      0x00\n      mstore\n      keccak256(0x00, 0x20)\n      swap1\n      0x02\n      mul\n      add\n      mload(0x40)\n      dup1\n      0x40\n      add\n      0x40\n      mstore\n      swap1\n      dup2\n      0x00\n      dup3\n      add\n      dup1\n      sload\n      tag_39\n      swap1\n      tag_31\n      jump\t// in\n    tag_39:\n      dup1\n      0x1f\n      add\n      0x20\n      dup1\n      swap2\n      div\n      mul\n      0x20\n      add\n      mload(0x40)\n      swap1\n      dup2\n      add\n      0x40\n      mstore\n      dup1\n      swap3\n      swap2\n      swap1\n      dup2\n      dup2\n      mstore\n      0x20\n      add\n      dup3\n      dup1\n      sload\n      tag_40\n      swap1\n      tag_31\n      jump\t// in\n    tag_40:\n      dup1\n      iszero\n      tag_41\n      jumpi\n      dup1\n      0x1f\n      lt\n      tag_42\n      jumpi\n      0x0100\n      dup1\n      dup4\n      sload\n      div\n      mul\n      dup4\n      mstore\n      swap2\n      0x20\n      add\n      swap2\n      jump(tag_41)\n    tag_42:\n      dup3\n      add\n      swap2\n      swap1\n      0x00\n      mstore\n      keccak256(0x00, 0x20)\n      swap1\n    tag_43:\n      dup2\n      sload\n      dup2\n      mstore\n      swap1\n      0x01\n      add\n      swap1\n      0x20\n      add\n      dup1\n      dup4\n      gt\n      tag_43\n      jumpi\n      dup3\n      swap1\n      sub\n      0x1f\n      and\n      dup3\n      add\n      swap2\n    tag_41:\n      pop\n      pop\n      pop\n      pop\n      pop\n      dup2\n      mstore\n      0x20\n      add\n      0x01\n      dup3\n      add\n      dup1\n      sload\n      tag_44\n      swap1\n      tag_31\n      jump\t// in\n    tag_44:\n      dup1\n      0x1f\n      add\n      0x20\n      dup1\n      swap2\n      div\n      mul\n      0x20\n      add\n      mload(0x40)\n      swap1\n      dup2\n      add\n      0x40\n      mstore\n      dup1\n      swap3\n      swap2\n      swap1\n      dup2\n      dup2\n      mstore\n      0x20\n      add\n      dup3\n      dup1\n      sload\n      tag_45\n      swap1\n      tag_31\n      jump\t// in\n    tag_45:\n      dup1\n      iszero\n      tag_46\n      jumpi\n      dup1\n      0x1f\n      lt\n      tag_47\n      jumpi\n      0x0100\n      dup1\n      dup4\n      sload\n      div\n      mul\n      dup4\n      mstore\n      swap2\n      0x20\n      add\n      swap2\n      jump(tag_46)\n    tag_47:\n      dup3\n      add\n      swap2\n      swap1\n      0x00\n      mstore\n      keccak256(0x00, 0x20)\n      swap1\n    tag_48:\n      dup2\n      sload\n      dup2\n      mstore\n      swap1\n      0x01\n      add\n      swap1\n      0x20\n      add\n      dup1\n      dup4\n      gt\n      tag_48\n      jumpi\n      dup3\n      swap1\n      sub\n      0x1f\n      and\n      dup3\n      add\n      swap2\n    tag_46:\n      pop\n      pop\n      pop\n      pop\n      pop\n      dup2\n      mstore\n      pop\n      pop\n      dup2\n      mstore\n      0x20\n      add\n      swap1\n      0x01\n      add\n      swap1\n      jump(tag_36)\n    tag_37:\n      pop\n      pop\n      pop\n      pop\n      dup2\n      mstore\n      pop\n      pop\n      dup2\n      mstore\n      0x20\n      add\n      swap1\n      0x01\n      add\n      swap1\n      jump(tag_27)\n    tag_28:\n      pop\n      pop\n      pop\n      pop\n      swap1\n      pop\n        /* \"TestStruct.sol\":386:479  function getPersons() public view returns( Penson[] memory) {... */\n      swap1\n      jump\t// out\n        /* \"TestStruct.sol\":262:285  Penson[] public persons */\n    tag_14:\n      0x00\n      dup2\n      dup2\n      sload\n      dup2\n      lt\n      tag_49\n      jumpi\n      0x00\n      dup1\n      revert\n    tag_49:\n      swap1\n      0x00\n      mstore\n      keccak256(0x00, 0x20)\n      swap1\n      0x03\n      mul\n      add\n      0x00\n      swap2\n      pop\n      swap1\n      pop\n      dup1\n      0x00\n      add\n      dup1\n      sload\n      tag_51\n      swap1\n      tag_31\n      jump\t// in\n    tag_51:\n      dup1\n      0x1f\n      add\n      0x20\n      dup1\n      swap2\n      div\n      mul\n      0x20\n      add\n      mload(0x40)\n      swap1\n      dup2\n      add\n      0x40\n      mstore\n      dup1\n      swap3\n      swap2\n      swap1\n      dup2\n      dup2\n      mstore\n      0x20\n      add\n      dup3\n      dup1\n      sload\n      tag_52\n      swap1\n      tag_31\n      jump\t// in\n    tag_52:\n      dup1\n      iszero\n      tag_53\n      jumpi\n      dup1\n      0x1f\n      lt\n      tag_54\n      jumpi\n      0x0100\n      dup1\n      dup4\n      sload\n      div\n      mul\n      dup4\n      mstore\n      swap2\n      0x20\n      add\n      swap2\n      jump(tag_53)\n    tag_54:\n      dup3\n      add\n      swap2\n      swap1\n      0x00\n      mstore\n      keccak256(0x00, 0x20)\n      swap1\n    tag_55:\n      dup2\n      sload\n      dup2\n      mstore\n      swap1\n      0x01\n      add\n      swap1\n      0x20\n      add\n      dup1\n      dup4\n      gt\n      tag_55\n      jumpi\n      dup3\n      swap1\n      sub\n      0x1f\n      and\n      dup3\n      add\n      swap2\n    tag_53:\n      pop\n      pop\n      pop\n      pop\n      pop\n      swap1\n      dup1\n      0x01\n      add\n      0x00\n      swap1\n      sload\n      swap1\n      0x0100\n      exp\n      swap1\n      div\n      0xff\n      and\n      swap1\n      pop\n      dup3\n      jump\t// out\n        /* \"TestStruct.sol\":490:615  function getHobbies(uint256 index) public view returns (Hobby[] memory) {... */\n    tag_19:\n        /* \"TestStruct.sol\":546:560  Hobby[] memory */\n      0x60\n        /* \"TestStruct.sol\":580:592  getPersons() */\n      tag_57\n        /* \"TestStruct.sol\":580:590  getPersons */\n      tag_8\n        /* \"TestStruct.sol\":580:592  getPersons() */\n      jump\t// in\n    tag_57:\n        /* \"TestStruct.sol\":593:598  index */\n      dup3\n        /* \"TestStruct.sol\":580:599  getPersons()[index] */\n      dup2\n      mload\n      dup2\n      lt\n      tag_58\n      jumpi\n      tag_59\n      tag_60\n      jump\t// in\n    tag_59:\n    tag_58:\n      0x20\n      mul\n      0x20\n      add\n      add\n      mload\n        /* \"TestStruct.sol\":580:607  getPersons()[index].hobbies */\n      0x40\n      add\n      mload\n        /* \"TestStruct.sol\":573:607  return getPersons()[index].hobbies */\n      swap1\n      pop\n        /* \"TestStruct.sol\":490:615  function getHobbies(uint256 index) public view returns (Hobby[] memory) {... */\n      swap2\n      swap1\n      pop\n      jump\t// out\n        /* \"TestStruct.sol\":294:375  function addPenson (Penson calldata p ) public {... */\n    tag_25:\n        /* \"TestStruct.sol\":352:359  persons */\n      0x00\n        /* \"TestStruct.sol\":365:366  p */\n      dup2\n        /* \"TestStruct.sol\":352:367  persons.push(p) */\n      swap1\n      dup1\n      0x01\n      dup2\n      sload\n      add\n      dup1\n      dup3\n      sstore\n      dup1\n      swap2\n      pop\n      pop\n      0x01\n      swap1\n      sub\n      swap1\n      0x00\n      mstore\n      keccak256(0x00, 0x20)\n      swap1\n      0x03\n      mul\n      add\n      0x00\n      swap1\n      swap2\n      swap1\n      swap2\n      swap1\n      swap2\n      pop\n      dup2\n      dup2\n      tag_63\n      swap2\n      swap1\n      tag_64\n      jump\t// in\n    tag_63:\n      pop\n      pop\n        /* \"TestStruct.sol\":294:375  function addPenson (Penson calldata p ) public {... */\n      pop\n      jump\t// out\n        /* \"#utility.yul\":7:143   */\n    tag_65:\n        /* \"#utility.yul\":96:102   */\n      0x00\n        /* \"#utility.yul\":130:135   */\n      dup2\n        /* \"#utility.yul\":124:136   */\n      mload\n        /* \"#utility.yul\":114:136   */\n      swap1\n      pop\n        /* \"#utility.yul\":7:143   */\n      swap2\n      swap1\n      pop\n      jump\t// out\n        /* \"#utility.yul\":149:355   */\n    tag_66:\n        /* \"#utility.yul\":270:281   */\n      0x00\n        /* \"#utility.yul\":304:310   */\n      dup3\n        /* \"#utility.yul\":299:302   */\n      dup3\n        /* \"#utility.yul\":292:311   */\n      mstore\n        /* \"#utility.yul\":344:348   */\n      0x20\n        /* \"#utility.yul\":339:342   */\n      dup3\n        /* \"#utility.yul\":335:349   */\n      add\n        /* \"#utility.yul\":320:349   */\n      swap1\n      pop\n        /* \"#utility.yul\":149:355   */\n      swap3\n      swap2\n      pop\n      pop\n      jump\t// out\n        /* \"#utility.yul\":361:515   */\n    tag_67:\n        /* \"#utility.yul\":450:454   */\n      0x00\n        /* \"#utility.yul\":473:476   */\n      dup2\n        /* \"#utility.yul\":465:476   */\n      swap1\n      pop\n        /* \"#utility.yul\":503:507   */\n      0x20\n        /* \"#utility.yul\":498:501   */\n      dup3\n        /* \"#utility.yul\":494:508   */\n      add\n        /* \"#utility.yul\":486:508   */\n      swap1\n      pop\n        /* \"#utility.yul\":361:515   */\n      swap2\n      swap1\n      pop\n      jump\t// out\n        /* \"#utility.yul\":521:620   */\n    tag_68:\n        /* \"#utility.yul\":573:579   */\n      0x00\n        /* \"#utility.yul\":607:612   */\n      dup2\n        /* \"#utility.yul\":601:613   */\n      mload\n        /* \"#utility.yul\":591:613   */\n      swap1\n      pop\n        /* \"#utility.yul\":521:620   */\n      swap2\n      swap1\n      pop\n      jump\t// out\n        /* \"#utility.yul\":626:785   */\n    tag_69:\n        /* \"#utility.yul\":700:711   */\n      0x00\n        /* \"#utility.yul\":734:740   */\n      dup3\n        /* \"#utility.yul\":729:732   */\n      dup3\n        /* \"#utility.yul\":722:741   */\n      mstore\n        /* \"#utility.yul\":774:778   */\n      0x20\n        /* \"#utility.yul\":769:772   */\n      dup3\n        /* \"#utility.yul\":765:779   */\n      add\n        /* \"#utility.yul\":750:779   */\n      swap1\n      pop\n        /* \"#utility.yul\":626:785   */\n      swap3\n      swap2\n      pop\n      pop\n      jump\t// out\n        /* \"#utility.yul\":791:930   */\n    tag_70:\n        /* \"#utility.yul\":880:886   */\n      dup3\n        /* \"#utility.yul\":875:878   */\n      dup2\n        /* \"#utility.yul\":870:873   */\n      dup4\n        /* \"#utility.yul\":864:887   */\n      mcopy\n        /* \"#utility.yul\":921:922   */\n      0x00\n        /* \"#utility.yul\":912:918   */\n      dup4\n        /* \"#utility.yul\":907:910   */\n      dup4\n        /* \"#utility.yul\":903:919   */\n      add\n        /* \"#utility.yul\":896:923   */\n      mstore\n        /* \"#utility.yul\":791:930   */\n      pop\n      pop\n      pop\n      jump\t// out\n        /* \"#utility.yul\":936:1038   */\n    tag_71:\n        /* \"#utility.yul\":977:983   */\n      0x00\n        /* \"#utility.yul\":1028:1030   */\n      0x1f\n        /* \"#utility.yul\":1024:1031   */\n      not\n        /* \"#utility.yul\":1019:1021   */\n      0x1f\n        /* \"#utility.yul\":1012:1017   */\n      dup4\n        /* \"#utility.yul\":1008:1022   */\n      add\n        /* \"#utility.yul\":1004:1032   */\n      and\n        /* \"#utility.yul\":994:1032   */\n      swap1\n      pop\n        /* \"#utility.yul\":936:1038   */\n      swap2\n      swap1\n      pop\n      jump\t// out\n        /* \"#utility.yul\":1044:1401   */\n    tag_72:\n        /* \"#utility.yul\":1122:1125   */\n      0x00\n        /* \"#utility.yul\":1150:1189   */\n      tag_168\n        /* \"#utility.yul\":1183:1188   */\n      dup3\n        /* \"#utility.yul\":1150:1189   */\n      tag_68\n      jump\t// in\n    tag_168:\n        /* \"#utility.yul\":1205:1266   */\n      tag_169\n        /* \"#utility.yul\":1259:1265   */\n      dup2\n        /* \"#utility.yul\":1254:1257   */\n      dup6\n        /* \"#utility.yul\":1205:1266   */\n      tag_69\n      jump\t// in\n    tag_169:\n        /* \"#utility.yul\":1198:1266   */\n      swap4\n      pop\n        /* \"#utility.yul\":1275:1340   */\n      tag_170\n        /* \"#utility.yul\":1333:1339   */\n      dup2\n        /* \"#utility.yul\":1328:1331   */\n      dup6\n        /* \"#utility.yul\":1321:1325   */\n      0x20\n        /* \"#utility.yul\":1314:1319   */\n      dup7\n        /* \"#utility.yul\":1310:1326   */\n      add\n        /* \"#utility.yul\":1275:1340   */\n      tag_70\n      jump\t// in\n    tag_170:\n        /* \"#utility.yul\":1365:1394   */\n      tag_171\n        /* \"#utility.yul\":1387:1393   */\n      dup2\n        /* \"#utility.yul\":1365:1394   */\n      tag_71\n      jump\t// in\n    tag_171:\n        /* \"#utility.yul\":1360:1363   */\n      dup5\n        /* \"#utility.yul\":1356:1395   */\n      add\n        /* \"#utility.yul\":1349:1395   */\n      swap2\n      pop\n        /* \"#utility.yul\":1126:1401   */\n      pop\n        /* \"#utility.yul\":1044:1401   */\n      swap3\n      swap2\n      pop\n      pop\n      jump\t// out\n        /* \"#utility.yul\":1407:1493   */\n    tag_73:\n        /* \"#utility.yul\":1442:1449   */\n      0x00\n        /* \"#utility.yul\":1482:1486   */\n      0xff\n        /* \"#utility.yul\":1475:1480   */\n      dup3\n        /* \"#utility.yul\":1471:1487   */\n      and\n        /* \"#utility.yul\":1460:1487   */\n      swap1\n      pop\n        /* \"#utility.yul\":1407:1493   */\n      swap2\n      swap1\n      pop\n      jump\t// out\n        /* \"#utility.yul\":1499:1601   */\n    tag_74:\n        /* \"#utility.yul\":1572:1594   */\n      tag_174\n        /* \"#utility.yul\":1588:1593   */\n      dup2\n        /* \"#utility.yul\":1572:1594   */\n      tag_73\n      jump\t// in\n    tag_174:\n        /* \"#utility.yul\":1567:1570   */\n      dup3\n        /* \"#utility.yul\":1560:1595   */\n      mstore\n        /* \"#utility.yul\":1499:1601   */\n      pop\n      pop\n      jump\t// out\n        /* \"#utility.yul\":1607:1742   */\n    tag_75:\n        /* \"#utility.yul\":1695:1701   */\n      0x00\n        /* \"#utility.yul\":1729:1734   */\n      dup2\n        /* \"#utility.yul\":1723:1735   */\n      mload\n        /* \"#utility.yul\":1713:1735   */\n      swap1\n      pop\n        /* \"#utility.yul\":1607:1742   */\n      swap2\n      swap1\n      pop\n      jump\t// out\n        /* \"#utility.yul\":1748:1943   */\n    tag_76:\n        /* \"#utility.yul\":1858:1869   */\n      0x00\n        /* \"#utility.yul\":1892:1898   */\n      dup3\n        /* \"#utility.yul\":1887:1890   */\n      dup3\n        /* \"#utility.yul\":1880:1899   */\n      mstore\n        /* \"#utility.yul\":1932:1936   */\n      0x20\n        /* \"#utility.yul\":1927:1930   */\n      dup3\n        /* \"#utility.yul\":1923:1937   */\n      add\n        /* \"#utility.yul\":1908:1937   */\n      swap1\n      pop\n        /* \"#utility.yul\":1748:1943   */\n      swap3\n      swap2\n      pop\n      pop\n      jump\t// out\n        /* \"#utility.yul\":1949:2102   */\n    tag_77:\n        /* \"#utility.yul\":2037:2041   */\n      0x00\n        /* \"#utility.yul\":2060:2063   */\n      dup2\n        /* \"#utility.yul\":2052:2063   */\n      swap1\n      pop\n        /* \"#utility.yul\":2090:2094   */\n      0x20\n        /* \"#utility.yul\":2085:2088   */\n      dup3\n        /* \"#utility.yul\":2081:2095   */\n      add\n        /* \"#utility.yul\":2073:2095   */\n      swap1\n      pop\n        /* \"#utility.yul\":1949:2102   */\n      swap2\n      swap1\n      pop\n      jump\t// out\n        /* \"#utility.yul\":2166:2827   */\n    tag_78:\n        /* \"#utility.yul\":2267:2270   */\n      0x00\n        /* \"#utility.yul\":2303:2307   */\n      0x40\n        /* \"#utility.yul\":2298:2301   */\n      dup4\n        /* \"#utility.yul\":2294:2308   */\n      add\n        /* \"#utility.yul\":2391:2395   */\n      0x00\n        /* \"#utility.yul\":2384:2389   */\n      dup4\n        /* \"#utility.yul\":2380:2396   */\n      add\n        /* \"#utility.yul\":2374:2397   */\n      mload\n        /* \"#utility.yul\":2444:2447   */\n      dup5\n        /* \"#utility.yul\":2438:2442   */\n      dup3\n        /* \"#utility.yul\":2434:2448   */\n      sub\n        /* \"#utility.yul\":2427:2431   */\n      0x00\n        /* \"#utility.yul\":2422:2425   */\n      dup7\n        /* \"#utility.yul\":2418:2432   */\n      add\n        /* \"#utility.yul\":2411:2449   */\n      mstore\n        /* \"#utility.yul\":2470:2543   */\n      tag_179\n        /* \"#utility.yul\":2538:2542   */\n      dup3\n        /* \"#utility.yul\":2524:2536   */\n      dup3\n        /* \"#utility.yul\":2470:2543   */\n      tag_72\n      jump\t// in\n    tag_179:\n        /* \"#utility.yul\":2462:2543   */\n      swap2\n      pop\n        /* \"#utility.yul\":2318:2554   */\n      pop\n        /* \"#utility.yul\":2637:2641   */\n      0x20\n        /* \"#utility.yul\":2630:2635   */\n      dup4\n        /* \"#utility.yul\":2626:2642   */\n      add\n        /* \"#utility.yul\":2620:2643   */\n      mload\n        /* \"#utility.yul\":2690:2693   */\n      dup5\n        /* \"#utility.yul\":2684:2688   */\n      dup3\n        /* \"#utility.yul\":2680:2694   */\n      sub\n        /* \"#utility.yul\":2673:2677   */\n      0x20\n        /* \"#utility.yul\":2668:2671   */\n      dup7\n        /* \"#utility.yul\":2664:2678   */\n      add\n        /* \"#utility.yul\":2657:2695   */\n      mstore\n        /* \"#utility.yul\":2716:2789   */\n      tag_180\n        /* \"#utility.yul\":2784:2788   */\n      dup3\n        /* \"#utility.yul\":2770:2782   */\n      dup3\n        /* \"#utility.yul\":2716:2789   */\n      tag_72\n      jump\t// in\n    tag_180:\n        /* \"#utility.yul\":2708:2789   */\n      swap2\n      pop\n        /* \"#utility.yul\":2564:2800   */\n      pop\n        /* \"#utility.yul\":2817:2821   */\n      dup1\n        /* \"#utility.yul\":2810:2821   */\n      swap2\n      pop\n        /* \"#utility.yul\":2272:2827   */\n      pop\n        /* \"#utility.yul\":2166:2827   */\n      swap3\n      swap2\n      pop\n      pop\n      jump\t// out\n        /* \"#utility.yul\":2833:3073   */\n    tag_79:\n        /* \"#utility.yul\":2944:2954   */\n      0x00\n        /* \"#utility.yul\":2979:3067   */\n      tag_182\n        /* \"#utility.yul\":3063:3066   */\n      dup4\n        /* \"#utility.yul\":3055:3061   */\n      dup4\n        /* \"#utility.yul\":2979:3067   */\n      tag_78\n      jump\t// in\n    tag_182:\n        /* \"#utility.yul\":2965:3067   */\n      swap1\n      pop\n        /* \"#utility.yul\":2833:3073   */\n      swap3\n      swap2\n      pop\n      pop\n      jump\t// out\n        /* \"#utility.yul\":3079:3213   */\n    tag_80:\n        /* \"#utility.yul\":3170:3174   */\n      0x00\n        /* \"#utility.yul\":3202:3206   */\n      0x20\n        /* \"#utility.yul\":3197:3200   */\n      dup3\n        /* \"#utility.yul\":3193:3207   */\n      add\n        /* \"#utility.yul\":3185:3207   */\n      swap1\n      pop\n        /* \"#utility.yul\":3079:3213   */\n      swap2\n      swap1\n      pop\n      jump\t// out\n        /* \"#utility.yul\":3281:4340   */\n    tag_81:\n        /* \"#utility.yul\":3432:3435   */\n      0x00\n        /* \"#utility.yul\":3461:3536   */\n      tag_185\n        /* \"#utility.yul\":3530:3535   */\n      dup3\n        /* \"#utility.yul\":3461:3536   */\n      tag_75\n      jump\t// in\n    tag_185:\n        /* \"#utility.yul\":3552:3649   */\n      tag_186\n        /* \"#utility.yul\":3642:3648   */\n      dup2\n        /* \"#utility.yul\":3637:3640   */\n      dup6\n        /* \"#utility.yul\":3552:3649   */\n      tag_76\n      jump\t// in\n    tag_186:\n        /* \"#utility.yul\":3545:3649   */\n      swap4\n      pop\n        /* \"#utility.yul\":3675:3678   */\n      dup4\n        /* \"#utility.yul\":3720:3724   */\n      0x20\n        /* \"#utility.yul\":3712:3718   */\n      dup3\n        /* \"#utility.yul\":3708:3725   */\n      mul\n        /* \"#utility.yul\":3703:3706   */\n      dup6\n        /* \"#utility.yul\":3699:3726   */\n      add\n        /* \"#utility.yul\":3750:3827   */\n      tag_187\n        /* \"#utility.yul\":3821:3826   */\n      dup6\n        /* \"#utility.yul\":3750:3827   */\n      tag_77\n      jump\t// in\n    tag_187:\n        /* \"#utility.yul\":3850:3857   */\n      dup1\n        /* \"#utility.yul\":3881:3882   */\n      0x00\n        /* \"#utility.yul\":3866:4295   */\n    tag_188:\n        /* \"#utility.yul\":3891:3897   */\n      dup6\n        /* \"#utility.yul\":3888:3889   */\n      dup2\n        /* \"#utility.yul\":3885:3898   */\n      lt\n        /* \"#utility.yul\":3866:4295   */\n      iszero\n      tag_190\n      jumpi\n        /* \"#utility.yul\":3962:3971   */\n      dup5\n        /* \"#utility.yul\":3956:3960   */\n      dup5\n        /* \"#utility.yul\":3952:3972   */\n      sub\n        /* \"#utility.yul\":3947:3950   */\n      dup10\n        /* \"#utility.yul\":3940:3973   */\n      mstore\n        /* \"#utility.yul\":4013:4019   */\n      dup2\n        /* \"#utility.yul\":4007:4020   */\n      mload\n        /* \"#utility.yul\":4041:4147   */\n      tag_191\n        /* \"#utility.yul\":4142:4146   */\n      dup6\n        /* \"#utility.yul\":4127:4140   */\n      dup3\n        /* \"#utility.yul\":4041:4147   */\n      tag_79\n      jump\t// in\n    tag_191:\n        /* \"#utility.yul\":4033:4147   */\n      swap5\n      pop\n        /* \"#utility.yul\":4170:4251   */\n      tag_192\n        /* \"#utility.yul\":4244:4250   */\n      dup4\n        /* \"#utility.yul\":4170:4251   */\n      tag_80\n      jump\t// in\n    tag_192:\n        /* \"#utility.yul\":4160:4251   */\n      swap3\n      pop\n        /* \"#utility.yul\":4280:4284   */\n      0x20\n        /* \"#utility.yul\":4275:4278   */\n      dup11\n        /* \"#utility.yul\":4271:4285   */\n      add\n        /* \"#utility.yul\":4264:4285   */\n      swap10\n      pop\n        /* \"#utility.yul\":3926:4295   */\n      pop\n        /* \"#utility.yul\":3913:3914   */\n      0x01\n        /* \"#utility.yul\":3910:3911   */\n      dup2\n        /* \"#utility.yul\":3906:3915   */\n      add\n        /* \"#utility.yul\":3901:3915   */\n      swap1\n      pop\n        /* \"#utility.yul\":3866:4295   */\n      jump(tag_188)\n    tag_190:\n        /* \"#utility.yul\":3870:3884   */\n      pop\n        /* \"#utility.yul\":4311:4315   */\n      dup3\n        /* \"#utility.yul\":4304:4315   */\n      swap8\n      pop\n        /* \"#utility.yul\":4331:4334   */\n      dup8\n        /* \"#utility.yul\":4324:4334   */\n      swap6\n      pop\n        /* \"#utility.yul\":3437:4340   */\n      pop\n      pop\n      pop\n      pop\n      pop\n        /* \"#utility.yul\":3281:4340   */\n      swap3\n      swap2\n      pop\n      pop\n      jump\t// out\n        /* \"#utility.yul\":4406:5311   */\n    tag_82:\n        /* \"#utility.yul\":4509:4512   */\n      0x00\n        /* \"#utility.yul\":4545:4549   */\n      0x60\n        /* \"#utility.yul\":4540:4543   */\n      dup4\n        /* \"#utility.yul\":4536:4550   */\n      add\n        /* \"#utility.yul\":4632:4636   */\n      0x00\n        /* \"#utility.yul\":4625:4630   */\n      dup4\n        /* \"#utility.yul\":4621:4637   */\n      add\n        /* \"#utility.yul\":4615:4638   */\n      mload\n        /* \"#utility.yul\":4685:4688   */\n      dup5\n        /* \"#utility.yul\":4679:4683   */\n      dup3\n        /* \"#utility.yul\":4675:4689   */\n      sub\n        /* \"#utility.yul\":4668:4672   */\n      0x00\n        /* \"#utility.yul\":4663:4666   */\n      dup7\n        /* \"#utility.yul\":4659:4673   */\n      add\n        /* \"#utility.yul\":4652:4690   */\n      mstore\n        /* \"#utility.yul\":4711:4784   */\n      tag_194\n        /* \"#utility.yul\":4779:4783   */\n      dup3\n        /* \"#utility.yul\":4765:4777   */\n      dup3\n        /* \"#utility.yul\":4711:4784   */\n      tag_72\n      jump\t// in\n    tag_194:\n        /* \"#utility.yul\":4703:4784   */\n      swap2\n      pop\n        /* \"#utility.yul\":4560:4795   */\n      pop\n        /* \"#utility.yul\":4876:4880   */\n      0x20\n        /* \"#utility.yul\":4869:4874   */\n      dup4\n        /* \"#utility.yul\":4865:4881   */\n      add\n        /* \"#utility.yul\":4859:4882   */\n      mload\n        /* \"#utility.yul\":4895:4954   */\n      tag_195\n        /* \"#utility.yul\":4948:4952   */\n      0x20\n        /* \"#utility.yul\":4943:4946   */\n      dup7\n        /* \"#utility.yul\":4939:4953   */\n      add\n        /* \"#utility.yul\":4925:4937   */\n      dup3\n        /* \"#utility.yul\":4895:4954   */\n      tag_74\n      jump\t// in\n    tag_195:\n        /* \"#utility.yul\":4805:4964   */\n      pop\n        /* \"#utility.yul\":5049:5053   */\n      0x40\n        /* \"#utility.yul\":5042:5047   */\n      dup4\n        /* \"#utility.yul\":5038:5054   */\n      add\n        /* \"#utility.yul\":5032:5055   */\n      mload\n        /* \"#utility.yul\":5102:5105   */\n      dup5\n        /* \"#utility.yul\":5096:5100   */\n      dup3\n        /* \"#utility.yul\":5092:5106   */\n      sub\n        /* \"#utility.yul\":5085:5089   */\n      0x40\n        /* \"#utility.yul\":5080:5083   */\n      dup7\n        /* \"#utility.yul\":5076:5090   */\n      add\n        /* \"#utility.yul\":5069:5107   */\n      mstore\n        /* \"#utility.yul\":5128:5273   */\n      tag_196\n        /* \"#utility.yul\":5268:5272   */\n      dup3\n        /* \"#utility.yul\":5254:5266   */\n      dup3\n        /* \"#utility.yul\":5128:5273   */\n      tag_81\n      jump\t// in\n    tag_196:\n        /* \"#utility.yul\":5120:5273   */\n      swap2\n      pop\n        /* \"#utility.yul\":4974:5284   */\n      pop\n        /* \"#utility.yul\":5301:5305   */\n      dup1\n        /* \"#utility.yul\":5294:5305   */\n      swap2\n      pop\n        /* \"#utility.yul\":4514:5311   */\n      pop\n        /* \"#utility.yul\":4406:5311   */\n      swap3\n      swap2\n      pop\n      pop\n      jump\t// out\n        /* \"#utility.yul\":5317:5561   */\n    tag_83:\n        /* \"#utility.yul\":5430:5440   */\n      0x00\n        /* \"#utility.yul\":5465:5555   */\n      tag_198\n        /* \"#utility.yul\":5551:5554   */\n      dup4\n        /* \"#utility.yul\":5543:5549   */\n      dup4\n        /* \"#utility.yul\":5465:5555   */\n      tag_82\n      jump\t// in\n    tag_198:\n        /* \"#utility.yul\":5451:5555   */\n      swap1\n      pop\n        /* \"#utility.yul\":5317:5561   */\n      swap3\n      swap2\n      pop\n      pop\n      jump\t// out\n        /* \"#utility.yul\":5567:5702   */\n    tag_84:\n        /* \"#utility.yul\":5659:5663   */\n      0x00\n        /* \"#utility.yul\":5691:5695   */\n      0x20\n        /* \"#utility.yul\":5686:5689   */\n      dup3\n        /* \"#utility.yul\":5682:5696   */\n      add\n        /* \"#utility.yul\":5674:5696   */\n      swap1\n      pop\n        /* \"#utility.yul\":5567:5702   */\n      swap2\n      swap1\n      pop\n      jump\t// out\n        /* \"#utility.yul\":5772:6859   */\n    tag_85:\n        /* \"#utility.yul\":5935:5938   */\n      0x00\n        /* \"#utility.yul\":5964:6040   */\n      tag_201\n        /* \"#utility.yul\":6034:6039   */\n      dup3\n        /* \"#utility.yul\":5964:6040   */\n      tag_65\n      jump\t// in\n    tag_201:\n        /* \"#utility.yul\":6056:6164   */\n      tag_202\n        /* \"#utility.yul\":6157:6163   */\n      dup2\n        /* \"#utility.yul\":6152:6155   */\n      dup6\n        /* \"#utility.yul\":6056:6164   */\n      tag_66\n      jump\t// in\n    tag_202:\n        /* \"#utility.yul\":6049:6164   */\n      swap4\n      pop\n        /* \"#utility.yul\":6190:6193   */\n      dup4\n        /* \"#utility.yul\":6235:6239   */\n      0x20\n        /* \"#utility.yul\":6227:6233   */\n      dup3\n        /* \"#utility.yul\":6223:6240   */\n      mul\n        /* \"#utility.yul\":6218:6221   */\n      dup6\n        /* \"#utility.yul\":6214:6241   */\n      add\n        /* \"#utility.yul\":6265:6343   */\n      tag_203\n        /* \"#utility.yul\":6337:6342   */\n      dup6\n        /* \"#utility.yul\":6265:6343   */\n      tag_67\n      jump\t// in\n    tag_203:\n        /* \"#utility.yul\":6366:6373   */\n      dup1\n        /* \"#utility.yul\":6397:6398   */\n      0x00\n        /* \"#utility.yul\":6382:6814   */\n    tag_204:\n        /* \"#utility.yul\":6407:6413   */\n      dup6\n        /* \"#utility.yul\":6404:6405   */\n      dup2\n        /* \"#utility.yul\":6401:6414   */\n      lt\n        /* \"#utility.yul\":6382:6814   */\n      iszero\n      tag_206\n      jumpi\n        /* \"#utility.yul\":6478:6487   */\n      dup5\n        /* \"#utility.yul\":6472:6476   */\n      dup5\n        /* \"#utility.yul\":6468:6488   */\n      sub\n        /* \"#utility.yul\":6463:6466   */\n      dup10\n        /* \"#utility.yul\":6456:6489   */\n      mstore\n        /* \"#utility.yul\":6529:6535   */\n      dup2\n        /* \"#utility.yul\":6523:6536   */\n      mload\n        /* \"#utility.yul\":6557:6665   */\n      tag_207\n        /* \"#utility.yul\":6660:6664   */\n      dup6\n        /* \"#utility.yul\":6645:6658   */\n      dup3\n        /* \"#utility.yul\":6557:6665   */\n      tag_83\n      jump\t// in\n    tag_207:\n        /* \"#utility.yul\":6549:6665   */\n      swap5\n      pop\n        /* \"#utility.yul\":6688:6770   */\n      tag_208\n        /* \"#utility.yul\":6763:6769   */\n      dup4\n        /* \"#utility.yul\":6688:6770   */\n      tag_84\n      jump\t// in\n    tag_208:\n        /* \"#utility.yul\":6678:6770   */\n      swap3\n      pop\n        /* \"#utility.yul\":6799:6803   */\n      0x20\n        /* \"#utility.yul\":6794:6797   */\n      dup11\n        /* \"#utility.yul\":6790:6804   */\n      add\n        /* \"#utility.yul\":6783:6804   */\n      swap10\n      pop\n        /* \"#utility.yul\":6442:6814   */\n      pop\n        /* \"#utility.yul\":6429:6430   */\n      0x01\n        /* \"#utility.yul\":6426:6427   */\n      dup2\n        /* \"#utility.yul\":6422:6431   */\n      add\n        /* \"#utility.yul\":6417:6431   */\n      swap1\n      pop\n        /* \"#utility.yul\":6382:6814   */\n      jump(tag_204)\n    tag_206:\n        /* \"#utility.yul\":6386:6400   */\n      pop\n        /* \"#utility.yul\":6830:6834   */\n      dup3\n        /* \"#utility.yul\":6823:6834   */\n      swap8\n      pop\n        /* \"#utility.yul\":6850:6853   */\n      dup8\n        /* \"#utility.yul\":6843:6853   */\n      swap6\n      pop\n        /* \"#utility.yul\":5940:6859   */\n      pop\n      pop\n      pop\n      pop\n      pop\n        /* \"#utility.yul\":5772:6859   */\n      swap3\n      swap2\n      pop\n      pop\n      jump\t// out\n        /* \"#utility.yul\":6865:7326   */\n    tag_10:\n        /* \"#utility.yul\":7052:7056   */\n      0x00\n        /* \"#utility.yul\":7090:7092   */\n      0x20\n        /* \"#utility.yul\":7079:7088   */\n      dup3\n        /* \"#utility.yul\":7075:7093   */\n      add\n        /* \"#utility.yul\":7067:7093   */\n      swap1\n      pop\n        /* \"#utility.yul\":7139:7148   */\n      dup2\n        /* \"#utility.yul\":7133:7137   */\n      dup2\n        /* \"#utility.yul\":7129:7149   */\n      sub\n        /* \"#utility.yul\":7125:7126   */\n      0x00\n        /* \"#utility.yul\":7114:7123   */\n      dup4\n        /* \"#utility.yul\":7110:7127   */\n      add\n        /* \"#utility.yul\":7103:7150   */\n      mstore\n        /* \"#utility.yul\":7167:7319   */\n      tag_210\n        /* \"#utility.yul\":7314:7318   */\n      dup2\n        /* \"#utility.yul\":7305:7311   */\n      dup5\n        /* \"#utility.yul\":7167:7319   */\n      tag_85\n      jump\t// in\n    tag_210:\n        /* \"#utility.yul\":7159:7319   */\n      swap1\n      pop\n        /* \"#utility.yul\":6865:7326   */\n      swap3\n      swap2\n      pop\n      pop\n      jump\t// out\n        /* \"#utility.yul\":7413:7530   */\n    tag_87:\n        /* \"#utility.yul\":7522:7523   */\n      0x00\n        /* \"#utility.yul\":7519:7520   */\n      0x00\n        /* \"#utility.yul\":7512:7524   */\n      revert\n        /* \"#utility.yul\":7536:7653   */\n    tag_88:\n        /* \"#utility.yul\":7645:7646   */\n      0x00\n        /* \"#utility.yul\":7642:7643   */\n      0x00\n        /* \"#utility.yul\":7635:7647   */\n      revert\n        /* \"#utility.yul\":7659:7736   */\n    tag_89:\n        /* \"#utility.yul\":7696:7703   */\n      0x00\n        /* \"#utility.yul\":7725:7730   */\n      dup2\n        /* \"#utility.yul\":7714:7730   */\n      swap1\n      pop\n        /* \"#utility.yul\":7659:7736   */\n      swap2\n      swap1\n      pop\n      jump\t// out\n        /* \"#utility.yul\":7742:7864   */\n    tag_90:\n        /* \"#utility.yul\":7815:7839   */\n      tag_216\n        /* \"#utility.yul\":7833:7838   */\n      dup2\n        /* \"#utility.yul\":7815:7839   */\n      tag_89\n      jump\t// in\n    tag_216:\n        /* \"#utility.yul\":7808:7813   */\n      dup2\n        /* \"#utility.yul\":7805:7840   */\n      eq\n        /* \"#utility.yul\":7795:7858   */\n      tag_217\n      jumpi\n        /* \"#utility.yul\":7854:7855   */\n      0x00\n        /* \"#utility.yul\":7851:7852   */\n      0x00\n        /* \"#utility.yul\":7844:7856   */\n      revert\n        /* \"#utility.yul\":7795:7858   */\n    tag_217:\n        /* \"#utility.yul\":7742:7864   */\n      pop\n      jump\t// out\n        /* \"#utility.yul\":7870:8009   */\n    tag_91:\n        /* \"#utility.yul\":7916:7921   */\n      0x00\n        /* \"#utility.yul\":7954:7960   */\n      dup2\n        /* \"#utility.yul\":7941:7961   */\n      calldataload\n        /* \"#utility.yul\":7932:7961   */\n      swap1\n      pop\n        /* \"#utility.yul\":7970:8003   */\n      tag_219\n        /* \"#utility.yul\":7997:8002   */\n      dup2\n        /* \"#utility.yul\":7970:8003   */\n      tag_90\n      jump\t// in\n    tag_219:\n        /* \"#utility.yul\":7870:8009   */\n      swap3\n      swap2\n      pop\n      pop\n      jump\t// out\n        /* \"#utility.yul\":8015:8344   */\n    tag_13:\n        /* \"#utility.yul\":8074:8080   */\n      0x00\n        /* \"#utility.yul\":8123:8125   */\n      0x20\n        /* \"#utility.yul\":8111:8120   */\n      dup3\n        /* \"#utility.yul\":8102:8109   */\n      dup5\n        /* \"#utility.yul\":8098:8121   */\n      sub\n        /* \"#utility.yul\":8094:8126   */\n      slt\n        /* \"#utility.yul\":8091:8210   */\n      iszero\n      tag_221\n      jumpi\n        /* \"#utility.yul\":8129:8208   */\n      tag_222\n      tag_87\n      jump\t// in\n    tag_222:\n        /* \"#utility.yul\":8091:8210   */\n    tag_221:\n        /* \"#utility.yul\":8249:8250   */\n      0x00\n        /* \"#utility.yul\":8274:8327   */\n      tag_223\n        /* \"#utility.yul\":8319:8326   */\n      dup5\n        /* \"#utility.yul\":8310:8316   */\n      dup3\n        /* \"#utility.yul\":8299:8308   */\n      dup6\n        /* \"#utility.yul\":8295:8317   */\n      add\n        /* \"#utility.yul\":8274:8327   */\n      tag_91\n      jump\t// in\n    tag_223:\n        /* \"#utility.yul\":8264:8327   */\n      swap2\n      pop\n        /* \"#utility.yul\":8220:8337   */\n      pop\n        /* \"#utility.yul\":8015:8344   */\n      swap3\n      swap2\n      pop\n      pop\n      jump\t// out\n        /* \"#utility.yul\":8350:8519   */\n    tag_92:\n        /* \"#utility.yul\":8434:8445   */\n      0x00\n        /* \"#utility.yul\":8468:8474   */\n      dup3\n        /* \"#utility.yul\":8463:8466   */\n      dup3\n        /* \"#utility.yul\":8456:8475   */\n      mstore\n        /* \"#utility.yul\":8508:8512   */\n      0x20\n        /* \"#utility.yul\":8503:8506   */\n      dup3\n        /* \"#utility.yul\":8499:8513   */\n      add\n        /* \"#utility.yul\":8484:8513   */\n      swap1\n      pop\n        /* \"#utility.yul\":8350:8519   */\n      swap3\n      swap2\n      pop\n      pop\n      jump\t// out\n        /* \"#utility.yul\":8525:8902   */\n    tag_93:\n        /* \"#utility.yul\":8613:8616   */\n      0x00\n        /* \"#utility.yul\":8641:8680   */\n      tag_226\n        /* \"#utility.yul\":8674:8679   */\n      dup3\n        /* \"#utility.yul\":8641:8680   */\n      tag_68\n      jump\t// in\n    tag_226:\n        /* \"#utility.yul\":8696:8767   */\n      tag_227\n        /* \"#utility.yul\":8760:8766   */\n      dup2\n        /* \"#utility.yul\":8755:8758   */\n      dup6\n        /* \"#utility.yul\":8696:8767   */\n      tag_92\n      jump\t// in\n    tag_227:\n        /* \"#utility.yul\":8689:8767   */\n      swap4\n      pop\n        /* \"#utility.yul\":8776:8841   */\n      tag_228\n        /* \"#utility.yul\":8834:8840   */\n      dup2\n        /* \"#utility.yul\":8829:8832   */\n      dup6\n        /* \"#utility.yul\":8822:8826   */\n      0x20\n        /* \"#utility.yul\":8815:8820   */\n      dup7\n        /* \"#utility.yul\":8811:8827   */\n      add\n        /* \"#utility.yul\":8776:8841   */\n      tag_70\n      jump\t// in\n    tag_228:\n        /* \"#utility.yul\":8866:8895   */\n      tag_229\n        /* \"#utility.yul\":8888:8894   */\n      dup2\n        /* \"#utility.yul\":8866:8895   */\n      tag_71\n      jump\t// in\n    tag_229:\n        /* \"#utility.yul\":8861:8864   */\n      dup5\n        /* \"#utility.yul\":8857:8896   */\n      add\n        /* \"#utility.yul\":8850:8896   */\n      swap2\n      pop\n        /* \"#utility.yul\":8617:8902   */\n      pop\n        /* \"#utility.yul\":8525:8902   */\n      swap3\n      swap2\n      pop\n      pop\n      jump\t// out\n        /* \"#utility.yul\":8908:9020   */\n    tag_94:\n        /* \"#utility.yul\":8991:9013   */\n      tag_231\n        /* \"#utility.yul\":9007:9012   */\n      dup2\n        /* \"#utility.yul\":8991:9013   */\n      tag_73\n      jump\t// in\n    tag_231:\n        /* \"#utility.yul\":8986:8989   */\n      dup3\n        /* \"#utility.yul\":8979:9014   */\n      mstore\n        /* \"#utility.yul\":8908:9020   */\n      pop\n      pop\n      jump\t// out\n        /* \"#utility.yul\":9026:9441   */\n    tag_16:\n        /* \"#utility.yul\":9163:9167   */\n      0x00\n        /* \"#utility.yul\":9201:9203   */\n      0x40\n        /* \"#utility.yul\":9190:9199   */\n      dup3\n        /* \"#utility.yul\":9186:9204   */\n      add\n        /* \"#utility.yul\":9178:9204   */\n      swap1\n      pop\n        /* \"#utility.yul\":9250:9259   */\n      dup2\n        /* \"#utility.yul\":9244:9248   */\n      dup2\n        /* \"#utility.yul\":9240:9260   */\n      sub\n        /* \"#utility.yul\":9236:9237   */\n      0x00\n        /* \"#utility.yul\":9225:9234   */\n      dup4\n        /* \"#utility.yul\":9221:9238   */\n      add\n        /* \"#utility.yul\":9214:9261   */\n      mstore\n        /* \"#utility.yul\":9278:9356   */\n      tag_233\n        /* \"#utility.yul\":9351:9355   */\n      dup2\n        /* \"#utility.yul\":9342:9348   */\n      dup6\n        /* \"#utility.yul\":9278:9356   */\n      tag_93\n      jump\t// in\n    tag_233:\n        /* \"#utility.yul\":9270:9356   */\n      swap1\n      pop\n        /* \"#utility.yul\":9366:9434   */\n      tag_234\n        /* \"#utility.yul\":9430:9432   */\n      0x20\n        /* \"#utility.yul\":9419:9428   */\n      dup4\n        /* \"#utility.yul\":9415:9433   */\n      add\n        /* \"#utility.yul\":9406:9412   */\n      dup5\n        /* \"#utility.yul\":9366:9434   */\n      tag_94\n      jump\t// in\n    tag_234:\n        /* \"#utility.yul\":9026:9441   */\n      swap4\n      swap3\n      pop\n      pop\n      pop\n      jump\t// out\n        /* \"#utility.yul\":9447:9652   */\n    tag_95:\n        /* \"#utility.yul\":9567:9578   */\n      0x00\n        /* \"#utility.yul\":9601:9607   */\n      dup3\n        /* \"#utility.yul\":9596:9599   */\n      dup3\n        /* \"#utility.yul\":9589:9608   */\n      mstore\n        /* \"#utility.yul\":9641:9645   */\n      0x20\n        /* \"#utility.yul\":9636:9639   */\n      dup3\n        /* \"#utility.yul\":9632:9646   */\n      add\n        /* \"#utility.yul\":9617:9646   */\n      swap1\n      pop\n        /* \"#utility.yul\":9447:9652   */\n      swap3\n      swap2\n      pop\n      pop\n      jump\t// out\n        /* \"#utility.yul\":9720:10799   */\n    tag_96:\n        /* \"#utility.yul\":9881:9884   */\n      0x00\n        /* \"#utility.yul\":9910:9985   */\n      tag_237\n        /* \"#utility.yul\":9979:9984   */\n      dup3\n        /* \"#utility.yul\":9910:9985   */\n      tag_75\n      jump\t// in\n    tag_237:\n        /* \"#utility.yul\":10001:10108   */\n      tag_238\n        /* \"#utility.yul\":10101:10107   */\n      dup2\n        /* \"#utility.yul\":10096:10099   */\n      dup6\n        /* \"#utility.yul\":10001:10108   */\n      tag_95\n      jump\t// in\n    tag_238:\n        /* \"#utility.yul\":9994:10108   */\n      swap4\n      pop\n        /* \"#utility.yul\":10134:10137   */\n      dup4\n        /* \"#utility.yul\":10179:10183   */\n      0x20\n        /* \"#utility.yul\":10171:10177   */\n      dup3\n        /* \"#utility.yul\":10167:10184   */\n      mul\n        /* \"#utility.yul\":10162:10165   */\n      dup6\n        /* \"#utility.yul\":10158:10185   */\n      add\n        /* \"#utility.yul\":10209:10286   */\n      tag_239\n        /* \"#utility.yul\":10280:10285   */\n      dup6\n        /* \"#utility.yul\":10209:10286   */\n      tag_77\n      jump\t// in\n    tag_239:\n        /* \"#utility.yul\":10309:10316   */\n      dup1\n        /* \"#utility.yul\":10340:10341   */\n      0x00\n        /* \"#utility.yul\":10325:10754   */\n    tag_240:\n        /* \"#utility.yul\":10350:10356   */\n      dup6\n        /* \"#utility.yul\":10347:10348   */\n      dup2\n        /* \"#utility.yul\":10344:10357   */\n      lt\n        /* \"#utility.yul\":10325:10754   */\n      iszero\n      tag_242\n      jumpi\n        /* \"#utility.yul\":10421:10430   */\n      dup5\n        /* \"#utility.yul\":10415:10419   */\n      dup5\n        /* \"#utility.yul\":10411:10431   */\n      sub\n        /* \"#utility.yul\":10406:10409   */\n      dup10\n        /* \"#utility.yul\":10399:10432   */\n      mstore\n        /* \"#utility.yul\":10472:10478   */\n      dup2\n        /* \"#utility.yul\":10466:10479   */\n      mload\n        /* \"#utility.yul\":10500:10606   */\n      tag_243\n        /* \"#utility.yul\":10601:10605   */\n      dup6\n        /* \"#utility.yul\":10586:10599   */\n      dup3\n        /* \"#utility.yul\":10500:10606   */\n      tag_79\n      jump\t// in\n    tag_243:\n        /* \"#utility.yul\":10492:10606   */\n      swap5\n      pop\n        /* \"#utility.yul\":10629:10710   */\n      tag_244\n        /* \"#utility.yul\":10703:10709   */\n      dup4\n        /* \"#utility.yul\":10629:10710   */\n      tag_80\n      jump\t// in\n    tag_244:\n        /* \"#utility.yul\":10619:10710   */\n      swap3\n      pop\n        /* \"#utility.yul\":10739:10743   */\n      0x20\n        /* \"#utility.yul\":10734:10737   */\n      dup11\n        /* \"#utility.yul\":10730:10744   */\n      add\n        /* \"#utility.yul\":10723:10744   */\n      swap10\n      pop\n        /* \"#utility.yul\":10385:10754   */\n      pop\n        /* \"#utility.yul\":10372:10373   */\n      0x01\n        /* \"#utility.yul\":10369:10370   */\n      dup2\n        /* \"#utility.yul\":10365:10374   */\n      add\n        /* \"#utility.yul\":10360:10374   */\n      swap1\n      pop\n        /* \"#utility.yul\":10325:10754   */\n      jump(tag_240)\n    tag_242:\n        /* \"#utility.yul\":10329:10343   */\n      pop\n        /* \"#utility.yul\":10770:10774   */\n      dup3\n        /* \"#utility.yul\":10763:10774   */\n      swap8\n      pop\n        /* \"#utility.yul\":10790:10793   */\n      dup8\n        /* \"#utility.yul\":10783:10793   */\n      swap6\n      pop\n        /* \"#utility.yul\":9886:10799   */\n      pop\n      pop\n      pop\n      pop\n      pop\n        /* \"#utility.yul\":9720:10799   */\n      swap3\n      swap2\n      pop\n      pop\n      jump\t// out\n        /* \"#utility.yul\":10805:11262   */\n    tag_21:\n        /* \"#utility.yul\":10990:10994   */\n      0x00\n        /* \"#utility.yul\":11028:11030   */\n      0x20\n        /* \"#utility.yul\":11017:11026   */\n      dup3\n        /* \"#utility.yul\":11013:11031   */\n      add\n        /* \"#utility.yul\":11005:11031   */\n      swap1\n      pop\n        /* \"#utility.yul\":11077:11086   */\n      dup2\n        /* \"#utility.yul\":11071:11075   */\n      dup2\n        /* \"#utility.yul\":11067:11087   */\n      sub\n        /* \"#utility.yul\":11063:11064   */\n      0x00\n        /* \"#utility.yul\":11052:11061   */\n      dup4\n        /* \"#utility.yul\":11048:11065   */\n      add\n        /* \"#utility.yul\":11041:11088   */\n      mstore\n        /* \"#utility.yul\":11105:11255   */\n      tag_246\n        /* \"#utility.yul\":11250:11254   */\n      dup2\n        /* \"#utility.yul\":11241:11247   */\n      dup5\n        /* \"#utility.yul\":11105:11255   */\n      tag_96\n      jump\t// in\n    tag_246:\n        /* \"#utility.yul\":11097:11255   */\n      swap1\n      pop\n        /* \"#utility.yul\":10805:11262   */\n      swap3\n      swap2\n      pop\n      pop\n      jump\t// out\n        /* \"#utility.yul\":11268:11385   */\n    tag_97:\n        /* \"#utility.yul\":11377:11378   */\n      0x00\n        /* \"#utility.yul\":11374:11375   */\n      0x00\n        /* \"#utility.yul\":11367:11379   */\n      revert\n        /* \"#utility.yul\":11423:11651   */\n    tag_98:\n        /* \"#utility.yul\":11493:11498   */\n      0x00\n        /* \"#utility.yul\":11534:11536   */\n      0x60\n        /* \"#utility.yul\":11525:11531   */\n      dup3\n        /* \"#utility.yul\":11520:11523   */\n      dup5\n        /* \"#utility.yul\":11516:11532   */\n      sub\n        /* \"#utility.yul\":11512:11537   */\n      slt\n        /* \"#utility.yul\":11509:11621   */\n      iszero\n      tag_249\n      jumpi\n        /* \"#utility.yul\":11540:11619   */\n      tag_250\n      tag_97\n      jump\t// in\n    tag_250:\n        /* \"#utility.yul\":11509:11621   */\n    tag_249:\n        /* \"#utility.yul\":11639:11645   */\n      dup2\n        /* \"#utility.yul\":11630:11645   */\n      swap1\n      pop\n        /* \"#utility.yul\":11423:11651   */\n      swap3\n      swap2\n      pop\n      pop\n      jump\t// out\n        /* \"#utility.yul\":11657:12194   */\n    tag_24:\n        /* \"#utility.yul\":11740:11746   */\n      0x00\n        /* \"#utility.yul\":11789:11791   */\n      0x20\n        /* \"#utility.yul\":11777:11786   */\n      dup3\n        /* \"#utility.yul\":11768:11775   */\n      dup5\n        /* \"#utility.yul\":11764:11787   */\n      sub\n        /* \"#utility.yul\":11760:11792   */\n      slt\n        /* \"#utility.yul\":11757:11876   */\n      iszero\n      tag_252\n      jumpi\n        /* \"#utility.yul\":11795:11874   */\n      tag_253\n      tag_87\n      jump\t// in\n    tag_253:\n        /* \"#utility.yul\":11757:11876   */\n    tag_252:\n        /* \"#utility.yul\":11943:11944   */\n      0x00\n        /* \"#utility.yul\":11932:11941   */\n      dup3\n        /* \"#utility.yul\":11928:11945   */\n      add\n        /* \"#utility.yul\":11915:11946   */\n      calldataload\n        /* \"#utility.yul\":11973:11991   */\n      0xffffffffffffffff\n        /* \"#utility.yul\":11965:11971   */\n      dup2\n        /* \"#utility.yul\":11962:11992   */\n      gt\n        /* \"#utility.yul\":11959:12076   */\n      iszero\n      tag_254\n      jumpi\n        /* \"#utility.yul\":11995:12074   */\n      tag_255\n      tag_88\n      jump\t// in\n    tag_255:\n        /* \"#utility.yul\":11959:12076   */\n    tag_254:\n        /* \"#utility.yul\":12100:12177   */\n      tag_256\n        /* \"#utility.yul\":12169:12176   */\n      dup5\n        /* \"#utility.yul\":12160:12166   */\n      dup3\n        /* \"#utility.yul\":12149:12158   */\n      dup6\n        /* \"#utility.yul\":12145:12167   */\n      add\n        /* \"#utility.yul\":12100:12177   */\n      tag_98\n      jump\t// in\n    tag_256:\n        /* \"#utility.yul\":12090:12177   */\n      swap2\n      pop\n        /* \"#utility.yul\":11886:12187   */\n      pop\n        /* \"#utility.yul\":11657:12194   */\n      swap3\n      swap2\n      pop\n      pop\n      jump\t// out\n        /* \"#utility.yul\":12200:12380   */\n    tag_99:\n        /* \"#utility.yul\":12248:12325   */\n      0x4e487b7100000000000000000000000000000000000000000000000000000000\n        /* \"#utility.yul\":12245:12246   */\n      0x00\n        /* \"#utility.yul\":12238:12326   */\n      mstore\n        /* \"#utility.yul\":12345:12349   */\n      0x22\n        /* \"#utility.yul\":12342:12343   */\n      0x04\n        /* \"#utility.yul\":12335:12350   */\n      mstore\n        /* \"#utility.yul\":12369:12373   */\n      0x24\n        /* \"#utility.yul\":12366:12367   */\n      0x00\n        /* \"#utility.yul\":12359:12374   */\n      revert\n        /* \"#utility.yul\":12386:12706   */\n    tag_31:\n        /* \"#utility.yul\":12430:12436   */\n      0x00\n        /* \"#utility.yul\":12467:12468   */\n      0x02\n        /* \"#utility.yul\":12461:12465   */\n      dup3\n        /* \"#utility.yul\":12457:12469   */\n      div\n        /* \"#utility.yul\":12447:12469   */\n      swap1\n      pop\n        /* \"#utility.yul\":12514:12515   */\n      0x01\n        /* \"#utility.yul\":12508:12512   */\n      dup3\n        /* \"#utility.yul\":12504:12516   */\n      and\n        /* \"#utility.yul\":12535:12553   */\n      dup1\n        /* \"#utility.yul\":12525:12606   */\n      tag_259\n      jumpi\n        /* \"#utility.yul\":12591:12595   */\n      0x7f\n        /* \"#utility.yul\":12583:12589   */\n      dup3\n        /* \"#utility.yul\":12579:12596   */\n      and\n        /* \"#utility.yul\":12569:12596   */\n      swap2\n      pop\n        /* \"#utility.yul\":12525:12606   */\n    tag_259:\n        /* \"#utility.yul\":12653:12655   */\n      0x20\n        /* \"#utility.yul\":12645:12651   */\n      dup3\n        /* \"#utility.yul\":12642:12656   */\n      lt\n        /* \"#utility.yul\":12622:12640   */\n      dup2\n        /* \"#utility.yul\":12619:12657   */\n      sub\n        /* \"#utility.yul\":12616:12700   */\n      tag_260\n      jumpi\n        /* \"#utility.yul\":12672:12690   */\n      tag_261\n      tag_99\n      jump\t// in\n    tag_261:\n        /* \"#utility.yul\":12616:12700   */\n    tag_260:\n        /* \"#utility.yul\":12437:12706   */\n      pop\n        /* \"#utility.yul\":12386:12706   */\n      swap2\n      swap1\n      pop\n      jump\t// out\n        /* \"#utility.yul\":12712:12892   */\n    tag_60:\n        /* \"#utility.yul\":12760:12837   */\n      0x4e487b7100000000000000000000000000000000000000000000000000000000\n        /* \"#utility.yul\":12757:12758   */\n      0x00\n        /* \"#utility.yul\":12750:12838   */\n      mstore\n        /* \"#utility.yul\":12857:12861   */\n      0x32\n        /* \"#utility.yul\":12854:12855   */\n      0x04\n        /* \"#utility.yul\":12847:12862   */\n      mstore\n        /* \"#utility.yul\":12881:12885   */\n      0x24\n        /* \"#utility.yul\":12878:12879   */\n      0x00\n        /* \"#utility.yul\":12871:12886   */\n      revert\n        /* \"#utility.yul\":12898:13078   */\n    tag_100:\n        /* \"#utility.yul\":12946:13023   */\n      0x4e487b7100000000000000000000000000000000000000000000000000000000\n        /* \"#utility.yul\":12943:12944   */\n      0x00\n        /* \"#utility.yul\":12936:13024   */\n      mstore\n        /* \"#utility.yul\":13043:13047   */\n      0x00\n        /* \"#utility.yul\":13040:13041   */\n      0x04\n        /* \"#utility.yul\":13033:13048   */\n      mstore\n        /* \"#utility.yul\":13067:13071   */\n      0x24\n        /* \"#utility.yul\":13064:13065   */\n      0x00\n        /* \"#utility.yul\":13057:13072   */\n      revert\n        /* \"#utility.yul\":13084:13201   */\n    tag_101:\n        /* \"#utility.yul\":13193:13194   */\n      0x00\n        /* \"#utility.yul\":13190:13191   */\n      0x00\n        /* \"#utility.yul\":13183:13195   */\n      revert\n        /* \"#utility.yul\":13207:13324   */\n    tag_102:\n        /* \"#utility.yul\":13316:13317   */\n      0x00\n        /* \"#utility.yul\":13313:13314   */\n      0x00\n        /* \"#utility.yul\":13306:13318   */\n      revert\n        /* \"#utility.yul\":13330:13447   */\n    tag_103:\n        /* \"#utility.yul\":13439:13440   */\n      0x00\n        /* \"#utility.yul\":13436:13437   */\n      0x00\n        /* \"#utility.yul\":13429:13441   */\n      revert\n        /* \"#utility.yul\":13453:14178   */\n    tag_104:\n        /* \"#utility.yul\":13531:13535   */\n      0x00\n        /* \"#utility.yul\":13537:13543   */\n      0x00\n        /* \"#utility.yul\":13593:13604   */\n      dup4\n        /* \"#utility.yul\":13580:13605   */\n      calldataload\n        /* \"#utility.yul\":13693:13694   */\n      0x01\n        /* \"#utility.yul\":13687:13691   */\n      0x20\n        /* \"#utility.yul\":13683:13695   */\n      sub\n        /* \"#utility.yul\":13672:13680   */\n      dup5\n        /* \"#utility.yul\":13656:13670   */\n      calldatasize\n        /* \"#utility.yul\":13652:13681   */\n      sub\n        /* \"#utility.yul\":13648:13696   */\n      sub\n        /* \"#utility.yul\":13628:13646   */\n      dup2\n        /* \"#utility.yul\":13624:13697   */\n      slt\n        /* \"#utility.yul\":13614:13782   */\n      tag_268\n      jumpi\n        /* \"#utility.yul\":13701:13780   */\n      tag_269\n      tag_101\n      jump\t// in\n    tag_269:\n        /* \"#utility.yul\":13614:13782   */\n    tag_268:\n        /* \"#utility.yul\":13813:13831   */\n      dup1\n        /* \"#utility.yul\":13803:13811   */\n      dup5\n        /* \"#utility.yul\":13799:13832   */\n      add\n        /* \"#utility.yul\":13791:13832   */\n      swap3\n      pop\n        /* \"#utility.yul\":13865:13869   */\n      dup3\n        /* \"#utility.yul\":13852:13870   */\n      calldataload\n        /* \"#utility.yul\":13842:13870   */\n      swap2\n      pop\n        /* \"#utility.yul\":13893:13911   */\n      0xffffffffffffffff\n        /* \"#utility.yul\":13885:13891   */\n      dup3\n        /* \"#utility.yul\":13882:13912   */\n      gt\n        /* \"#utility.yul\":13879:13996   */\n      iszero\n      tag_270\n      jumpi\n        /* \"#utility.yul\":13915:13994   */\n      tag_271\n      tag_102\n      jump\t// in\n    tag_271:\n        /* \"#utility.yul\":13879:13996   */\n    tag_270:\n        /* \"#utility.yul\":14023:14025   */\n      0x20\n        /* \"#utility.yul\":14017:14021   */\n      dup4\n        /* \"#utility.yul\":14013:14026   */\n      add\n        /* \"#utility.yul\":14005:14026   */\n      swap3\n      pop\n        /* \"#utility.yul\":14080:14084   */\n      0x01\n        /* \"#utility.yul\":14072:14078   */\n      dup3\n        /* \"#utility.yul\":14068:14085   */\n      mul\n        /* \"#utility.yul\":14052:14066   */\n      calldatasize\n        /* \"#utility.yul\":14048:14086   */\n      sub\n        /* \"#utility.yul\":14042:14046   */\n      dup4\n        /* \"#utility.yul\":14038:14087   */\n      sgt\n        /* \"#utility.yul\":14035:14171   */\n      iszero\n      tag_272\n      jumpi\n        /* \"#utility.yul\":14090:14169   */\n      tag_273\n      tag_103\n      jump\t// in\n    tag_273:\n        /* \"#utility.yul\":14035:14171   */\n    tag_272:\n        /* \"#utility.yul\":13544:14178   */\n      pop\n        /* \"#utility.yul\":13453:14178   */\n      swap3\n      pop\n      swap3\n      swap1\n      pop\n      jump\t// out\n        /* \"#utility.yul\":14184:14281   */\n    tag_105:\n        /* \"#utility.yul\":14243:14249   */\n      0x00\n        /* \"#utility.yul\":14271:14274   */\n      dup3\n        /* \"#utility.yul\":14261:14274   */\n      swap1\n      pop\n        /* \"#utility.yul\":14184:14281   */\n      swap3\n      swap2\n      pop\n      pop\n      jump\t// out\n        /* \"#utility.yul\":14287:14467   */\n    tag_106:\n        /* \"#utility.yul\":14335:14412   */\n      0x4e487b7100000000000000000000000000000000000000000000000000000000\n        /* \"#utility.yul\":14332:14333   */\n      0x00\n        /* \"#utility.yul\":14325:14413   */\n      mstore\n        /* \"#utility.yul\":14432:14436   */\n      0x41\n        /* \"#utility.yul\":14429:14430   */\n      0x04\n        /* \"#utility.yul\":14422:14437   */\n      mstore\n        /* \"#utility.yul\":14456:14460   */\n      0x24\n        /* \"#utility.yul\":14453:14454   */\n      0x00\n        /* \"#utility.yul\":14446:14461   */\n      revert\n        /* \"#utility.yul\":14473:14614   */\n    tag_107:\n        /* \"#utility.yul\":14522:14526   */\n      0x00\n        /* \"#utility.yul\":14545:14548   */\n      dup2\n        /* \"#utility.yul\":14537:14548   */\n      swap1\n      pop\n        /* \"#utility.yul\":14568:14571   */\n      dup2\n        /* \"#utility.yul\":14565:14566   */\n      0x00\n        /* \"#utility.yul\":14558:14572   */\n      mstore\n        /* \"#utility.yul\":14602:14606   */\n      0x20\n        /* \"#utility.yul\":14599:14600   */\n      0x00\n        /* \"#utility.yul\":14589:14607   */\n      keccak256\n        /* \"#utility.yul\":14581:14607   */\n      swap1\n      pop\n        /* \"#utility.yul\":14473:14614   */\n      swap2\n      swap1\n      pop\n      jump\t// out\n        /* \"#utility.yul\":14620:14713   */\n    tag_108:\n        /* \"#utility.yul\":14657:14663   */\n      0x00\n        /* \"#utility.yul\":14704:14706   */\n      0x20\n        /* \"#utility.yul\":14699:14701   */\n      0x1f\n        /* \"#utility.yul\":14692:14697   */\n      dup4\n        /* \"#utility.yul\":14688:14702   */\n      add\n        /* \"#utility.yul\":14684:14707   */\n      div\n        /* \"#utility.yul\":14674:14707   */\n      swap1\n      pop\n        /* \"#utility.yul\":14620:14713   */\n      swap2\n      swap1\n      pop\n      jump\t// out\n        /* \"#utility.yul\":14719:14826   */\n    tag_109:\n        /* \"#utility.yul\":14763:14771   */\n      0x00\n        /* \"#utility.yul\":14813:14818   */\n      dup3\n        /* \"#utility.yul\":14807:14811   */\n      dup3\n        /* \"#utility.yul\":14803:14819   */\n      shl\n        /* \"#utility.yul\":14782:14819   */\n      swap1\n      pop\n        /* \"#utility.yul\":14719:14826   */\n      swap3\n      swap2\n      pop\n      pop\n      jump\t// out\n        /* \"#utility.yul\":14832:15225   */\n    tag_110:\n        /* \"#utility.yul\":14901:14907   */\n      0x00\n        /* \"#utility.yul\":14951:14952   */\n      0x08\n        /* \"#utility.yul\":14939:14949   */\n      dup4\n        /* \"#utility.yul\":14935:14953   */\n      mul\n        /* \"#utility.yul\":14974:15071   */\n      tag_280\n        /* \"#utility.yul\":15004:15070   */\n      0xffffffffffffffffffffffffffffffffffffffffffffffffffffffffffffffff\n        /* \"#utility.yul\":14993:15002   */\n      dup3\n        /* \"#utility.yul\":14974:15071   */\n      tag_109\n      jump\t// in\n    tag_280:\n        /* \"#utility.yul\":15092:15131   */\n      tag_281\n        /* \"#utility.yul\":15122:15130   */\n      dup7\n        /* \"#utility.yul\":15111:15120   */\n      dup4\n        /* \"#utility.yul\":15092:15131   */\n      tag_109\n      jump\t// in\n    tag_281:\n        /* \"#utility.yul\":15080:15131   */\n      swap6\n      pop\n        /* \"#utility.yul\":15164:15168   */\n      dup1\n        /* \"#utility.yul\":15160:15169   */\n      not\n        /* \"#utility.yul\":15153:15158   */\n      dup5\n        /* \"#utility.yul\":15149:15170   */\n      and\n        /* \"#utility.yul\":15140:15170   */\n      swap4\n      pop\n        /* \"#utility.yul\":15213:15217   */\n      dup1\n        /* \"#utility.yul\":15203:15211   */\n      dup7\n        /* \"#utility.yul\":15199:15218   */\n      and\n        /* \"#utility.yul\":15192:15197   */\n      dup5\n        /* \"#utility.yul\":15189:15219   */\n      or\n        /* \"#utility.yul\":15179:15219   */\n      swap3\n      pop\n        /* \"#utility.yul\":14908:15225   */\n      pop\n      pop\n        /* \"#utility.yul\":14832:15225   */\n      swap4\n      swap3\n      pop\n      pop\n      pop\n      jump\t// out\n        /* \"#utility.yul\":15231:15291   */\n    tag_111:\n        /* \"#utility.yul\":15259:15262   */\n      0x00\n        /* \"#utility.yul\":15280:15285   */\n      dup2\n        /* \"#utility.yul\":15273:15285   */\n      swap1\n      pop\n        /* \"#utility.yul\":15231:15291   */\n      swap2\n      swap1\n      pop\n      jump\t// out\n        /* \"#utility.yul\":15297:15439   */\n    tag_112:\n        /* \"#utility.yul\":15347:15356   */\n      0x00\n        /* \"#utility.yul\":15380:15433   */\n      tag_284\n        /* \"#utility.yul\":15398:15432   */\n      tag_285\n        /* \"#utility.yul\":15407:15431   */\n      tag_286\n        /* \"#utility.yul\":15425:15430   */\n      dup5\n        /* \"#utility.yul\":15407:15431   */\n      tag_89\n      jump\t// in\n    tag_286:\n        /* \"#utility.yul\":15398:15432   */\n      tag_111\n      jump\t// in\n    tag_285:\n        /* \"#utility.yul\":15380:15433   */\n      tag_89\n      jump\t// in\n    tag_284:\n        /* \"#utility.yul\":15367:15433   */\n      swap1\n      pop\n        /* \"#utility.yul\":15297:15439   */\n      swap2\n      swap1\n      pop\n      jump\t// out\n        /* \"#utility.yul\":15445:15520   */\n    tag_113:\n        /* \"#utility.yul\":15488:15491   */\n      0x00\n        /* \"#utility.yul\":15509:15514   */\n      dup2\n        /* \"#utility.yul\":15502:15514   */\n      swap1\n      pop\n        /* \"#utility.yul\":15445:15520   */\n      swap2\n      swap1\n      pop\n      jump\t// out\n        /* \"#utility.yul\":15526:15795   */\n    tag_114:\n        /* \"#utility.yul\":15636:15675   */\n      tag_289\n        /* \"#utility.yul\":15667:15674   */\n      dup4\n        /* \"#utility.yul\":15636:15675   */\n      tag_112\n      jump\t// in\n    tag_289:\n        /* \"#utility.yul\":15697:15788   */\n      tag_290\n        /* \"#utility.yul\":15746:15787   */\n      tag_291\n        /* \"#utility.yul\":15770:15786   */\n      dup3\n        /* \"#utility.yul\":15746:15787   */\n      tag_113\n      jump\t// in\n    tag_291:\n        /* \"#utility.yul\":15738:15744   */\n      dup5\n        /* \"#utility.yul\":15731:15735   */\n      dup5\n        /* \"#utility.yul\":15725:15736   */\n      sload\n        /* \"#utility.yul\":15697:15788   */\n      tag_110\n      jump\t// in\n    tag_290:\n        /* \"#utility.yul\":15691:15695   */\n      dup3\n        /* \"#utility.yul\":15684:15789   */\n      sstore\n        /* \"#utility.yul\":15602:15795   */\n      pop\n        /* \"#utility.yul\":15526:15795   */\n      pop\n      pop\n      pop\n      jump\t// out\n        /* \"#utility.yul\":15801:15874   */\n    tag_115:\n        /* \"#utility.yul\":15846:15849   */\n      0x00\n        /* \"#utility.yul\":15867:15868   */\n      0x00\n        /* \"#utility.yul\":15860:15868   */\n      swap1\n      pop\n        /* \"#utility.yul\":15801:15874   */\n      swap1\n      jump\t// out\n        /* \"#utility.yul\":15880:16069   */\n    tag_116:\n        /* \"#utility.yul\":15957:15989   */\n      tag_294\n      tag_115\n      jump\t// in\n    tag_294:\n        /* \"#utility.yul\":15998:16063   */\n      tag_295\n        /* \"#utility.yul\":16056:16062   */\n      dup2\n        /* \"#utility.yul\":16048:16054   */\n      dup5\n        /* \"#utility.yul\":16042:16046   */\n      dup5\n        /* \"#utility.yul\":15998:16063   */\n      tag_114\n      jump\t// in\n    tag_295:\n        /* \"#utility.yul\":15933:16069   */\n      pop\n        /* \"#utility.yul\":15880:16069   */\n      pop\n      pop\n      jump\t// out\n        /* \"#utility.yul\":16075:16261   */\n    tag_117:\n        /* \"#utility.yul\":16135:16255   */\n    tag_297:\n        /* \"#utility.yul\":16152:16155   */\n      dup2\n        /* \"#utility.yul\":16145:16150   */\n      dup2\n        /* \"#utility.yul\":16142:16156   */\n      lt\n        /* \"#utility.yul\":16135:16255   */\n      iszero\n      tag_299\n      jumpi\n        /* \"#utility.yul\":16206:16245   */\n      tag_300\n        /* \"#utility.yul\":16243:16244   */\n      0x00\n        /* \"#utility.yul\":16236:16241   */\n      dup3\n        /* \"#utility.yul\":16206:16245   */\n      tag_116\n      jump\t// in\n    tag_300:\n        /* \"#utility.yul\":16179:16180   */\n      0x01\n        /* \"#utility.yul\":16172:16177   */\n      dup2\n        /* \"#utility.yul\":16168:16181   */\n      add\n        /* \"#utility.yul\":16159:16181   */\n      swap1\n      pop\n        /* \"#utility.yul\":16135:16255   */\n      jump(tag_297)\n    tag_299:\n        /* \"#utility.yul\":16075:16261   */\n      pop\n      pop\n      jump\t// out\n        /* \"#utility.yul\":16267:16810   */\n    tag_118:\n        /* \"#utility.yul\":16368:16370   */\n      0x1f\n        /* \"#utility.yul\":16363:16366   */\n      dup3\n        /* \"#utility.yul\":16360:16371   */\n      gt\n        /* \"#utility.yul\":16357:16803   */\n      iszero\n      tag_302\n      jumpi\n        /* \"#utility.yul\":16402:16440   */\n      tag_303\n        /* \"#utility.yul\":16434:16439   */\n      dup2\n        /* \"#utility.yul\":16402:16440   */\n      tag_107\n      jump\t// in\n    tag_303:\n        /* \"#utility.yul\":16486:16515   */\n      tag_304\n        /* \"#utility.yul\":16504:16514   */\n      dup5\n        /* \"#utility.yul\":16486:16515   */\n      tag_108\n      jump\t// in\n    tag_304:\n        /* \"#utility.yul\":16476:16484   */\n      dup2\n        /* \"#utility.yul\":16472:16516   */\n      add\n        /* \"#utility.yul\":16669:16671   */\n      0x20\n        /* \"#utility.yul\":16657:16667   */\n      dup6\n        /* \"#utility.yul\":16654:16672   */\n      lt\n        /* \"#utility.yul\":16651:16700   */\n      iszero\n      tag_305\n      jumpi\n        /* \"#utility.yul\":16690:16698   */\n      dup2\n        /* \"#utility.yul\":16675:16698   */\n      swap1\n      pop\n        /* \"#utility.yul\":16651:16700   */\n    tag_305:\n        /* \"#utility.yul\":16713:16793   */\n      tag_306\n        /* \"#utility.yul\":16769:16791   */\n      tag_307\n        /* \"#utility.yul\":16787:16790   */\n      dup6\n        /* \"#utility.yul\":16769:16791   */\n      tag_108\n      jump\t// in\n    tag_307:\n        /* \"#utility.yul\":16759:16767   */\n      dup4\n        /* \"#utility.yul\":16755:16792   */\n      add\n        /* \"#utility.yul\":16742:16753   */\n      dup3\n        /* \"#utility.yul\":16713:16793   */\n      tag_117\n      jump\t// in\n    tag_306:\n        /* \"#utility.yul\":16372:16803   */\n      pop\n      pop\n        /* \"#utility.yul\":16357:16803   */\n    tag_302:\n        /* \"#utility.yul\":16267:16810   */\n      pop\n      pop\n      pop\n      jump\t// out\n        /* \"#utility.yul\":16816:16933   */\n    tag_119:\n        /* \"#utility.yul\":16870:16878   */\n      0x00\n        /* \"#utility.yul\":16920:16925   */\n      dup3\n        /* \"#utility.yul\":16914:16918   */\n      dup3\n        /* \"#utility.yul\":16910:16926   */\n      shr\n        /* \"#utility.yul\":16889:16926   */\n      swap1\n      pop\n        /* \"#utility.yul\":16816:16933   */\n      swap3\n      swap2\n      pop\n      pop\n      jump\t// out\n        /* \"#utility.yul\":16939:17108   */\n    tag_120:\n        /* \"#utility.yul\":16983:16989   */\n      0x00\n        /* \"#utility.yul\":17016:17067   */\n      tag_310\n        /* \"#utility.yul\":17064:17065   */\n      0x00\n        /* \"#utility.yul\":17060:17066   */\n      not\n        /* \"#utility.yul\":17052:17057   */\n      dup5\n        /* \"#utility.yul\":17049:17050   */\n      0x08\n        /* \"#utility.yul\":17045:17058   */\n      mul\n        /* \"#utility.yul\":17016:17067   */\n      tag_119\n      jump\t// in\n    tag_310:\n        /* \"#utility.yul\":17012:17068   */\n      not\n        /* \"#utility.yul\":17097:17101   */\n      dup1\n        /* \"#utility.yul\":17091:17095   */\n      dup4\n        /* \"#utility.yul\":17087:17102   */\n      and\n        /* \"#utility.yul\":17077:17102   */\n      swap2\n      pop\n        /* \"#utility.yul\":16990:17108   */\n      pop\n        /* \"#utility.yul\":16939:17108   */\n      swap3\n      swap2\n      pop\n      pop\n      jump\t// out\n        /* \"#utility.yul\":17113:17408   */\n    tag_121:\n        /* \"#utility.yul\":17189:17193   */\n      0x00\n        /* \"#utility.yul\":17335:17364   */\n      tag_312\n        /* \"#utility.yul\":17360:17363   */\n      dup4\n        /* \"#utility.yul\":17354:17358   */\n      dup4\n        /* \"#utility.yul\":17335:17364   */\n      tag_120\n      jump\t// in\n    tag_312:\n        /* \"#utility.yul\":17327:17364   */\n      swap2\n      pop\n        /* \"#utility.yul\":17397:17400   */\n      dup3\n        /* \"#utility.yul\":17394:17395   */\n      0x02\n        /* \"#utility.yul\":17390:17401   */\n      mul\n        /* \"#utility.yul\":17384:17388   */\n      dup3\n        /* \"#utility.yul\":17381:17402   */\n      or\n        /* \"#utility.yul\":17373:17402   */\n      swap1\n      pop\n        /* \"#utility.yul\":17113:17408   */\n      swap3\n      swap2\n      pop\n      pop\n      jump\t// out\n        /* \"#utility.yul\":17413:18816   */\n    tag_122:\n        /* \"#utility.yul\":17537:17581   */\n      tag_314\n        /* \"#utility.yul\":17577:17580   */\n      dup4\n        /* \"#utility.yul\":17572:17575   */\n      dup4\n        /* \"#utility.yul\":17537:17581   */\n      tag_105\n      jump\t// in\n    tag_314:\n        /* \"#utility.yul\":17646:17664   */\n      0xffffffffffffffff\n        /* \"#utility.yul\":17638:17644   */\n      dup2\n        /* \"#utility.yul\":17635:17665   */\n      gt\n        /* \"#utility.yul\":17632:17688   */\n      iszero\n      tag_315\n      jumpi\n        /* \"#utility.yul\":17668:17686   */\n      tag_316\n      tag_106\n      jump\t// in\n    tag_316:\n        /* \"#utility.yul\":17632:17688   */\n    tag_315:\n        /* \"#utility.yul\":17712:17750   */\n      tag_317\n        /* \"#utility.yul\":17744:17748   */\n      dup3\n        /* \"#utility.yul\":17738:17749   */\n      sload\n        /* \"#utility.yul\":17712:17750   */\n      tag_31\n      jump\t// in\n    tag_317:\n        /* \"#utility.yul\":17797:17864   */\n      tag_318\n        /* \"#utility.yul\":17857:17863   */\n      dup3\n        /* \"#utility.yul\":17849:17855   */\n      dup3\n        /* \"#utility.yul\":17843:17847   */\n      dup6\n        /* \"#utility.yul\":17797:17864   */\n      tag_118\n      jump\t// in\n    tag_318:\n        /* \"#utility.yul\":17891:17892   */\n      0x00\n        /* \"#utility.yul\":17920:17922   */\n      0x1f\n        /* \"#utility.yul\":17912:17918   */\n      dup4\n        /* \"#utility.yul\":17909:17923   */\n      gt\n        /* \"#utility.yul\":17937:17938   */\n      0x01\n        /* \"#utility.yul\":17932:18564   */\n      dup2\n      eq\n      tag_320\n      jumpi\n        /* \"#utility.yul\":18608:18609   */\n      0x00\n        /* \"#utility.yul\":18625:18631   */\n      dup5\n        /* \"#utility.yul\":18622:18706   */\n      iszero\n      tag_321\n      jumpi\n        /* \"#utility.yul\":18681:18690   */\n      dup3\n        /* \"#utility.yul\":18676:18679   */\n      dup8\n        /* \"#utility.yul\":18672:18691   */\n      add\n        /* \"#utility.yul\":18659:18692   */\n      calldataload\n        /* \"#utility.yul\":18650:18692   */\n      swap1\n      pop\n        /* \"#utility.yul\":18622:18706   */\n    tag_321:\n        /* \"#utility.yul\":18732:18799   */\n      tag_322\n        /* \"#utility.yul\":18792:18798   */\n      dup6\n        /* \"#utility.yul\":18785:18790   */\n      dup3\n        /* \"#utility.yul\":18732:18799   */\n      tag_121\n      jump\t// in\n    tag_322:\n        /* \"#utility.yul\":18726:18730   */\n      dup7\n        /* \"#utility.yul\":18719:18800   */\n      sstore\n        /* \"#utility.yul\":18581:18810   */\n      pop\n        /* \"#utility.yul\":17902:18810   */\n      jump(tag_319)\n        /* \"#utility.yul\":17932:18564   */\n    tag_320:\n        /* \"#utility.yul\":17984:17988   */\n      0x1f\n        /* \"#utility.yul\":17980:17989   */\n      not\n        /* \"#utility.yul\":17972:17978   */\n      dup5\n        /* \"#utility.yul\":17968:17990   */\n      and\n        /* \"#utility.yul\":18018:18055   */\n      tag_323\n        /* \"#utility.yul\":18050:18054   */\n      dup7\n        /* \"#utility.yul\":18018:18055   */\n      tag_107\n      jump\t// in\n    tag_323:\n        /* \"#utility.yul\":18077:18078   */\n      0x00\n        /* \"#utility.yul\":18091:18306   */\n    tag_324:\n        /* \"#utility.yul\":18105:18112   */\n      dup3\n        /* \"#utility.yul\":18102:18103   */\n      dup2\n        /* \"#utility.yul\":18099:18113   */\n      lt\n        /* \"#utility.yul\":18091:18306   */\n      iszero\n      tag_326\n      jumpi\n        /* \"#utility.yul\":18191:18200   */\n      dup5\n        /* \"#utility.yul\":18186:18189   */\n      dup10\n        /* \"#utility.yul\":18182:18201   */\n      add\n        /* \"#utility.yul\":18169:18202   */\n      calldataload\n        /* \"#utility.yul\":18161:18167   */\n      dup3\n        /* \"#utility.yul\":18154:18203   */\n      sstore\n        /* \"#utility.yul\":18242:18243   */\n      0x01\n        /* \"#utility.yul\":18234:18240   */\n      dup3\n        /* \"#utility.yul\":18230:18244   */\n      add\n        /* \"#utility.yul\":18220:18244   */\n      swap2\n      pop\n        /* \"#utility.yul\":18289:18291   */\n      0x20\n        /* \"#utility.yul\":18278:18287   */\n      dup6\n        /* \"#utility.yul\":18274:18292   */\n      add\n        /* \"#utility.yul\":18261:18292   */\n      swap5\n      pop\n        /* \"#utility.yul\":18128:18132   */\n      0x20\n        /* \"#utility.yul\":18125:18126   */\n      dup2\n        /* \"#utility.yul\":18121:18133   */\n      add\n        /* \"#utility.yul\":18116:18133   */\n      swap1\n      pop\n        /* \"#utility.yul\":18091:18306   */\n      jump(tag_324)\n    tag_326:\n        /* \"#utility.yul\":18334:18340   */\n      dup7\n        /* \"#utility.yul\":18325:18332   */\n      dup4\n        /* \"#utility.yul\":18322:18341   */\n      lt\n        /* \"#utility.yul\":18319:18505   */\n      iszero\n      tag_327\n      jumpi\n        /* \"#utility.yul\":18399:18408   */\n      dup5\n        /* \"#utility.yul\":18394:18397   */\n      dup10\n        /* \"#utility.yul\":18390:18409   */\n      add\n        /* \"#utility.yul\":18377:18410   */\n      calldataload\n        /* \"#utility.yul\":18442:18490   */\n      tag_328\n        /* \"#utility.yul\":18484:18488   */\n      0x1f\n        /* \"#utility.yul\":18476:18482   */\n      dup10\n        /* \"#utility.yul\":18472:18489   */\n      and\n        /* \"#utility.yul\":18461:18470   */\n      dup3\n        /* \"#utility.yul\":18442:18490   */\n      tag_120\n      jump\t// in\n    tag_328:\n        /* \"#utility.yul\":18434:18440   */\n      dup4\n        /* \"#utility.yul\":18427:18491   */\n      sstore\n        /* \"#utility.yul\":18342:18505   */\n      pop\n        /* \"#utility.yul\":18319:18505   */\n    tag_327:\n        /* \"#utility.yul\":18551:18552   */\n      0x01\n        /* \"#utility.yul\":18547:18548   */\n      0x02\n        /* \"#utility.yul\":18539:18545   */\n      dup9\n        /* \"#utility.yul\":18535:18549   */\n      mul\n        /* \"#utility.yul\":18531:18553   */\n      add\n        /* \"#utility.yul\":18525:18529   */\n      dup9\n        /* \"#utility.yul\":18518:18554   */\n      sstore\n        /* \"#utility.yul\":17939:18564   */\n      pop\n      pop\n      pop\n        /* \"#utility.yul\":17902:18810   */\n    tag_319:\n      pop\n        /* \"#utility.yul\":17512:18816   */\n      pop\n      pop\n      pop\n        /* \"#utility.yul\":17413:18816   */\n      pop\n      pop\n      pop\n      jump\t// out\n        /* \"#utility.yul\":18822:19041   */\n    tag_123:\n        /* \"#utility.yul\":18938:19035   */\n      tag_330\n        /* \"#utility.yul\":19027:19034   */\n      dup4\n        /* \"#utility.yul\":19018:19025   */\n      dup4\n        /* \"#utility.yul\":19012:19016   */\n      dup4\n        /* \"#utility.yul\":18938:19035   */\n      tag_122\n      jump\t// in\n    tag_330:\n        /* \"#utility.yul\":18822:19041   */\n      pop\n      pop\n      pop\n      jump\t// out\n        /* \"#utility.yul\":19047:19165   */\n    tag_124:\n        /* \"#utility.yul\":19118:19140   */\n      tag_332\n        /* \"#utility.yul\":19134:19139   */\n      dup2\n        /* \"#utility.yul\":19118:19140   */\n      tag_73\n      jump\t// in\n    tag_332:\n        /* \"#utility.yul\":19111:19116   */\n      dup2\n        /* \"#utility.yul\":19108:19141   */\n      eq\n        /* \"#utility.yul\":19098:19159   */\n      tag_333\n      jumpi\n        /* \"#utility.yul\":19155:19156   */\n      0x00\n        /* \"#utility.yul\":19152:19153   */\n      0x00\n        /* \"#utility.yul\":19145:19157   */\n      revert\n        /* \"#utility.yul\":19098:19159   */\n    tag_333:\n        /* \"#utility.yul\":19047:19165   */\n      pop\n      jump\t// out\n        /* \"#utility.yul\":19171:19353   */\n    tag_125:\n        /* \"#utility.yul\":19214:19225   */\n      0x00\n        /* \"#utility.yul\":19263:19266   */\n      dup2\n        /* \"#utility.yul\":19250:19267   */\n      calldataload\n        /* \"#utility.yul\":19276:19307   */\n      tag_335\n        /* \"#utility.yul\":19301:19306   */\n      dup2\n        /* \"#utility.yul\":19276:19307   */\n      tag_124\n      jump\t// in\n    tag_335:\n        /* \"#utility.yul\":19341:19346   */\n      dup1\n        /* \"#utility.yul\":19317:19346   */\n      swap2\n      pop\n        /* \"#utility.yul\":19226:19353   */\n      pop\n        /* \"#utility.yul\":19171:19353   */\n      swap2\n      swap1\n      pop\n      jump\t// out\n        /* \"#utility.yul\":19359:19451   */\n    tag_126:\n        /* \"#utility.yul\":19391:19399   */\n      0x00\n        /* \"#utility.yul\":19438:19443   */\n      dup2\n        /* \"#utility.yul\":19435:19436   */\n      0x00\n        /* \"#utility.yul\":19431:19444   */\n      shl\n        /* \"#utility.yul\":19410:19444   */\n      swap1\n      pop\n        /* \"#utility.yul\":19359:19451   */\n      swap2\n      swap1\n      pop\n      jump\t// out\n        /* \"#utility.yul\":19457:19683   */\n    tag_127:\n        /* \"#utility.yul\":19514:19520   */\n      0x00\n        /* \"#utility.yul\":19543:19546   */\n      0xff\n        /* \"#utility.yul\":19567:19589   */\n      tag_338\n        /* \"#utility.yul\":19580:19588   */\n      dup5\n        /* \"#utility.yul\":19567:19589   */\n      tag_126\n      jump\t// in\n    tag_338:\n        /* \"#utility.yul\":19555:19589   */\n      swap4\n      pop\n        /* \"#utility.yul\":19622:19626   */\n      dup1\n        /* \"#utility.yul\":19618:19627   */\n      not\n        /* \"#utility.yul\":19611:19616   */\n      dup4\n        /* \"#utility.yul\":19607:19628   */\n      and\n        /* \"#utility.yul\":19598:19628   */\n      swap3\n      pop\n        /* \"#utility.yul\":19671:19675   */\n      dup1\n        /* \"#utility.yul\":19661:19669   */\n      dup5\n        /* \"#utility.yul\":19657:19676   */\n      and\n        /* \"#utility.yul\":19650:19655   */\n      dup4\n        /* \"#utility.yul\":19647:19677   */\n      or\n        /* \"#utility.yul\":19637:19677   */\n      swap2\n      pop\n        /* \"#utility.yul\":19521:19683   */\n      pop\n        /* \"#utility.yul\":19457:19683   */\n      swap3\n      swap2\n      pop\n      pop\n      jump\t// out\n        /* \"#utility.yul\":19689:19823   */\n    tag_128:\n        /* \"#utility.yul\":19735:19744   */\n      0x00\n        /* \"#utility.yul\":19768:19817   */\n      tag_340\n        /* \"#utility.yul\":19784:19816   */\n      tag_341\n        /* \"#utility.yul\":19793:19815   */\n      tag_342\n        /* \"#utility.yul\":19809:19814   */\n      dup5\n        /* \"#utility.yul\":19793:19815   */\n      tag_73\n      jump\t// in\n    tag_342:\n        /* \"#utility.yul\":19784:19816   */\n      tag_111\n      jump\t// in\n    tag_341:\n        /* \"#utility.yul\":19768:19817   */\n      tag_73\n      jump\t// in\n    tag_340:\n        /* \"#utility.yul\":19755:19817   */\n      swap1\n      pop\n        /* \"#utility.yul\":19689:19823   */\n      swap2\n      swap1\n      pop\n      jump\t// out\n        /* \"#utility.yul\":19829:19902   */\n    tag_129:\n        /* \"#utility.yul\":19870:19873   */\n      0x00\n        /* \"#utility.yul\":19891:19896   */\n      dup2\n        /* \"#utility.yul\":19884:19896   */\n      swap1\n      pop\n        /* \"#utility.yul\":19829:19902   */\n      swap2\n      swap1\n      pop\n      jump\t// out\n        /* \"#utility.yul\":19908:20160   */\n    tag_130:\n        /* \"#utility.yul\":20015:20050   */\n      tag_345\n        /* \"#utility.yul\":20042:20049   */\n      dup3\n        /* \"#utility.yul\":20015:20050   */\n      tag_128\n      jump\t// in\n    tag_345:\n        /* \"#utility.yul\":20072:20153   */\n      tag_346\n        /* \"#utility.yul\":20113:20152   */\n      tag_347\n        /* \"#utility.yul\":20135:20151   */\n      dup3\n        /* \"#utility.yul\":20113:20152   */\n      tag_129\n      jump\t// in\n    tag_347:\n        /* \"#utility.yul\":20106:20110   */\n      dup4\n        /* \"#utility.yul\":20100:20111   */\n      sload\n        /* \"#utility.yul\":20072:20153   */\n      tag_127\n      jump\t// in\n    tag_346:\n        /* \"#utility.yul\":20066:20070   */\n      dup3\n        /* \"#utility.yul\":20059:20154   */\n      sstore\n        /* \"#utility.yul\":19981:20160   */\n      pop\n        /* \"#utility.yul\":19908:20160   */\n      pop\n      pop\n      jump\t// out\n        /* \"#utility.yul\":20166:20929   */\n    tag_131:\n        /* \"#utility.yul\":20282:20286   */\n      0x00\n        /* \"#utility.yul\":20288:20294   */\n      0x00\n        /* \"#utility.yul\":20344:20355   */\n      dup4\n        /* \"#utility.yul\":20331:20356   */\n      calldataload\n        /* \"#utility.yul\":20444:20445   */\n      0x01\n        /* \"#utility.yul\":20438:20442   */\n      0x20\n        /* \"#utility.yul\":20434:20446   */\n      sub\n        /* \"#utility.yul\":20423:20431   */\n      dup5\n        /* \"#utility.yul\":20407:20421   */\n      calldatasize\n        /* \"#utility.yul\":20403:20432   */\n      sub\n        /* \"#utility.yul\":20399:20447   */\n      sub\n        /* \"#utility.yul\":20379:20397   */\n      dup2\n        /* \"#utility.yul\":20375:20448   */\n      slt\n        /* \"#utility.yul\":20365:20533   */\n      tag_349\n      jumpi\n        /* \"#utility.yul\":20452:20531   */\n      tag_350\n      tag_101\n      jump\t// in\n    tag_350:\n        /* \"#utility.yul\":20365:20533   */\n    tag_349:\n        /* \"#utility.yul\":20564:20582   */\n      dup1\n        /* \"#utility.yul\":20554:20562   */\n      dup5\n        /* \"#utility.yul\":20550:20583   */\n      add\n        /* \"#utility.yul\":20542:20583   */\n      swap3\n      pop\n        /* \"#utility.yul\":20616:20620   */\n      dup3\n        /* \"#utility.yul\":20603:20621   */\n      calldataload\n        /* \"#utility.yul\":20593:20621   */\n      swap2\n      pop\n        /* \"#utility.yul\":20644:20662   */\n      0xffffffffffffffff\n        /* \"#utility.yul\":20636:20642   */\n      dup3\n        /* \"#utility.yul\":20633:20663   */\n      gt\n        /* \"#utility.yul\":20630:20747   */\n      iszero\n      tag_351\n      jumpi\n        /* \"#utility.yul\":20666:20745   */\n      tag_352\n      tag_102\n      jump\t// in\n    tag_352:\n        /* \"#utility.yul\":20630:20747   */\n    tag_351:\n        /* \"#utility.yul\":20774:20776   */\n      0x20\n        /* \"#utility.yul\":20768:20772   */\n      dup4\n        /* \"#utility.yul\":20764:20777   */\n      add\n        /* \"#utility.yul\":20756:20777   */\n      swap3\n      pop\n        /* \"#utility.yul\":20831:20835   */\n      0x20\n        /* \"#utility.yul\":20823:20829   */\n      dup3\n        /* \"#utility.yul\":20819:20836   */\n      mul\n        /* \"#utility.yul\":20803:20817   */\n      calldatasize\n        /* \"#utility.yul\":20799:20837   */\n      sub\n        /* \"#utility.yul\":20793:20797   */\n      dup4\n        /* \"#utility.yul\":20789:20838   */\n      sgt\n        /* \"#utility.yul\":20786:20922   */\n      iszero\n      tag_353\n      jumpi\n        /* \"#utility.yul\":20841:20920   */\n      tag_354\n      tag_103\n      jump\t// in\n    tag_354:\n        /* \"#utility.yul\":20786:20922   */\n    tag_353:\n        /* \"#utility.yul\":20295:20929   */\n      pop\n        /* \"#utility.yul\":20166:20929   */\n      swap3\n      pop\n      swap3\n      swap1\n      pop\n      jump\t// out\n        /* \"#utility.yul\":20935:21060   */\n    tag_132:\n        /* \"#utility.yul\":21027:21031   */\n      0x00\n        /* \"#utility.yul\":21050:21053   */\n      dup2\n        /* \"#utility.yul\":21042:21053   */\n      swap1\n      pop\n        /* \"#utility.yul\":20935:21060   */\n      swap2\n      swap1\n      pop\n      jump\t// out\n        /* \"#utility.yul\":21066:21455   */\n    tag_133:\n        /* \"#utility.yul\":21155:21159   */\n      0x00\n        /* \"#utility.yul\":21209:21220   */\n      dup3\n        /* \"#utility.yul\":21196:21221   */\n      calldataload\n        /* \"#utility.yul\":21309:21310   */\n      0x01\n        /* \"#utility.yul\":21303:21307   */\n      0x40\n        /* \"#utility.yul\":21299:21311   */\n      sub\n        /* \"#utility.yul\":21288:21296   */\n      dup4\n        /* \"#utility.yul\":21272:21286   */\n      calldatasize\n        /* \"#utility.yul\":21268:21297   */\n      sub\n        /* \"#utility.yul\":21264:21312   */\n      sub\n        /* \"#utility.yul\":21244:21262   */\n      dup2\n        /* \"#utility.yul\":21240:21313   */\n      slt\n        /* \"#utility.yul\":21230:21398   */\n      tag_357\n      jumpi\n        /* \"#utility.yul\":21317:21396   */\n      tag_358\n      tag_101\n      jump\t// in\n    tag_358:\n        /* \"#utility.yul\":21230:21398   */\n    tag_357:\n        /* \"#utility.yul\":21429:21447   */\n      dup1\n        /* \"#utility.yul\":21419:21427   */\n      dup4\n        /* \"#utility.yul\":21415:21448   */\n      add\n        /* \"#utility.yul\":21407:21448   */\n      swap2\n      pop\n        /* \"#utility.yul\":21160:21455   */\n      pop\n        /* \"#utility.yul\":21066:21455   */\n      swap3\n      swap2\n      pop\n      pop\n      jump\t// out\n        /* \"#utility.yul\":21461:21590   */\n    tag_134:\n        /* \"#utility.yul\":21543:21549   */\n      0x00\n        /* \"#utility.yul\":21577:21582   */\n      dup2\n        /* \"#utility.yul\":21571:21583   */\n      sload\n        /* \"#utility.yul\":21561:21583   */\n      swap1\n      pop\n        /* \"#utility.yul\":21461:21590   */\n      swap2\n      swap1\n      pop\n      jump\t// out\n        /* \"#utility.yul\":21596:21776   */\n    tag_135:\n        /* \"#utility.yul\":21644:21721   */\n      0x4e487b7100000000000000000000000000000000000000000000000000000000\n        /* \"#utility.yul\":21641:21642   */\n      0x00\n        /* \"#utility.yul\":21634:21722   */\n      mstore\n        /* \"#utility.yul\":21741:21745   */\n      0x11\n        /* \"#utility.yul\":21738:21739   */\n      0x04\n        /* \"#utility.yul\":21731:21746   */\n      mstore\n        /* \"#utility.yul\":21765:21769   */\n      0x24\n        /* \"#utility.yul\":21762:21763   */\n      0x00\n        /* \"#utility.yul\":21755:21770   */\n      revert\n        /* \"#utility.yul\":21782:22192   */\n    tag_136:\n        /* \"#utility.yul\":21822:21829   */\n      0x00\n        /* \"#utility.yul\":21845:21865   */\n      tag_362\n        /* \"#utility.yul\":21863:21864   */\n      dup3\n        /* \"#utility.yul\":21845:21865   */\n      tag_89\n      jump\t// in\n    tag_362:\n        /* \"#utility.yul\":21840:21865   */\n      swap2\n      pop\n        /* \"#utility.yul\":21879:21899   */\n      tag_363\n        /* \"#utility.yul\":21897:21898   */\n      dup4\n        /* \"#utility.yul\":21879:21899   */\n      tag_89\n      jump\t// in\n    tag_363:\n        /* \"#utility.yul\":21874:21899   */\n      swap3\n      pop\n        /* \"#utility.yul\":21934:21935   */\n      dup3\n        /* \"#utility.yul\":21931:21932   */\n      dup3\n        /* \"#utility.yul\":21927:21936   */\n      mul\n        /* \"#utility.yul\":21956:21986   */\n      tag_364\n        /* \"#utility.yul\":21974:21985   */\n      dup2\n        /* \"#utility.yul\":21956:21986   */\n      tag_89\n      jump\t// in\n    tag_364:\n        /* \"#utility.yul\":21945:21986   */\n      swap2\n      pop\n        /* \"#utility.yul\":22135:22136   */\n      dup3\n        /* \"#utility.yul\":22126:22133   */\n      dup3\n        /* \"#utility.yul\":22122:22137   */\n      div\n        /* \"#utility.yul\":22119:22120   */\n      dup5\n        /* \"#utility.yul\":22116:22138   */\n      eq\n        /* \"#utility.yul\":22096:22097   */\n      dup4\n        /* \"#utility.yul\":22089:22098   */\n      iszero\n        /* \"#utility.yul\":22069:22152   */\n      or\n        /* \"#utility.yul\":22046:22185   */\n      tag_365\n      jumpi\n        /* \"#utility.yul\":22165:22183   */\n      tag_366\n      tag_135\n      jump\t// in\n    tag_366:\n        /* \"#utility.yul\":22046:22185   */\n    tag_365:\n        /* \"#utility.yul\":21830:22192   */\n      pop\n        /* \"#utility.yul\":21782:22192   */\n      swap3\n      swap2\n      pop\n      pop\n      jump\t// out\n        /* \"#utility.yul\":22198:22383   */\n    tag_137:\n        /* \"#utility.yul\":22297:22301   */\n      0x00\n        /* \"#utility.yul\":22320:22326   */\n      dup2\n        /* \"#utility.yul\":22312:22326   */\n      swap1\n      pop\n        /* \"#utility.yul\":22344:22376   */\n      tag_368\n        /* \"#utility.yul\":22369:22375   */\n      dup3\n        /* \"#utility.yul\":22366:22367   */\n      0x02\n        /* \"#utility.yul\":22344:22376   */\n      tag_136\n      jump\t// in\n    tag_368:\n        /* \"#utility.yul\":22336:22376   */\n      swap1\n      pop\n        /* \"#utility.yul\":22198:22383   */\n      swap2\n      swap1\n      pop\n      jump\t// out\n        /* \"#utility.yul\":22388:22562   */\n    tag_138:\n        /* \"#utility.yul\":22470:22474   */\n      0x00\n        /* \"#utility.yul\":22493:22496   */\n      dup2\n        /* \"#utility.yul\":22485:22496   */\n      swap1\n      pop\n        /* \"#utility.yul\":22516:22519   */\n      dup2\n        /* \"#utility.yul\":22513:22514   */\n      0x00\n        /* \"#utility.yul\":22506:22520   */\n      mstore\n        /* \"#utility.yul\":22550:22554   */\n      0x20\n        /* \"#utility.yul\":22547:22548   */\n      0x00\n        /* \"#utility.yul\":22537:22555   */\n      keccak256\n        /* \"#utility.yul\":22529:22555   */\n      swap1\n      pop\n        /* \"#utility.yul\":22388:22562   */\n      swap2\n      swap1\n      pop\n      jump\t// out\n        /* \"#utility.yul\":22568:22812   */\n    tag_139:\n        /* \"#utility.yul\":22640:22761   */\n      tag_371\n        /* \"#utility.yul\":22694:22760   */\n      0xffffffffffffffffffffffffffffffffffffffffffffffffffffffffffffffff\n        /* \"#utility.yul\":22684:22690   */\n      dup4\n        /* \"#utility.yul\":22680:22682   */\n      0x20\n        /* \"#utility.yul\":22676:22691   */\n      sub\n        /* \"#utility.yul\":22673:22674   */\n      0x08\n        /* \"#utility.yul\":22669:22692   */\n      mul\n        /* \"#utility.yul\":22640:22761   */\n      tag_119\n      jump\t// in\n    tag_371:\n        /* \"#utility.yul\":22799:22803   */\n      dup2\n        /* \"#utility.yul\":22793:22804   */\n      sload\n        /* \"#utility.yul\":22787:22791   */\n      dup2\n        /* \"#utility.yul\":22783:22805   */\n      and\n        /* \"#utility.yul\":22777:22781   */\n      dup3\n        /* \"#utility.yul\":22770:22806   */\n      sstore\n        /* \"#utility.yul\":22618:22812   */\n      pop\n        /* \"#utility.yul\":22568:22812   */\n      pop\n      pop\n      jump\t// out\n        /* \"#utility.yul\":22818:23248   */\n    tag_140:\n        /* \"#utility.yul\":23055:23093   */\n      tag_373\n        /* \"#utility.yul\":23087:23092   */\n      dup2\n        /* \"#utility.yul\":23055:23093   */\n      tag_107\n      jump\t// in\n    tag_373:\n        /* \"#utility.yul\":23114:23187   */\n      tag_374\n        /* \"#utility.yul\":23183:23186   */\n      dup4\n        /* \"#utility.yul\":23173:23180   */\n      dup3\n        /* \"#utility.yul\":23167:23181   */\n      sload\n        /* \"#utility.yul\":23114:23187   */\n      tag_121\n      jump\t// in\n    tag_374:\n        /* \"#utility.yul\":23210:23214   */\n      dup1\n        /* \"#utility.yul\":23203:23208   */\n      dup4\n        /* \"#utility.yul\":23196:23215   */\n      sstore\n        /* \"#utility.yul\":23240:23241   */\n      0x00\n        /* \"#utility.yul\":23231:23238   */\n      dup3\n        /* \"#utility.yul\":23224:23242   */\n      sstore\n        /* \"#utility.yul\":22889:23248   */\n      pop\n      pop\n        /* \"#utility.yul\":22818:23248   */\n      pop\n      pop\n      jump\t// out\n        /* \"#utility.yul\":23253:24492   */\n    tag_141:\n        /* \"#utility.yul\":23361:23363   */\n      0x20\n        /* \"#utility.yul\":23353:23359   */\n      dup5\n        /* \"#utility.yul\":23350:23364   */\n      lt\n        /* \"#utility.yul\":23379:23380   */\n      0x00\n        /* \"#utility.yul\":23373:23894   */\n      dup2\n      eq\n      tag_377\n      jumpi\n        /* \"#utility.yul\":23943:23945   */\n      0x1f\n        /* \"#utility.yul\":23935:23941   */\n      dup5\n        /* \"#utility.yul\":23932:23946   */\n      gt\n        /* \"#utility.yul\":23964:23965   */\n      0x01\n        /* \"#utility.yul\":23959:24342   */\n      dup2\n      eq\n      tag_379\n      jumpi\n        /* \"#utility.yul\":24395:24461   */\n      tag_380\n        /* \"#utility.yul\":24454:24460   */\n      dup7\n        /* \"#utility.yul\":24448:24452   */\n      dup6\n        /* \"#utility.yul\":24395:24461   */\n      tag_121\n      jump\t// in\n    tag_380:\n        /* \"#utility.yul\":24388:24393   */\n      dup4\n        /* \"#utility.yul\":24381:24462   */\n      sstore\n        /* \"#utility.yul\":23925:24476   */\n      jump(tag_378)\n        /* \"#utility.yul\":23959:24342   */\n    tag_379:\n        /* \"#utility.yul\":24006:24044   */\n      tag_381\n        /* \"#utility.yul\":24038:24043   */\n      dup4\n        /* \"#utility.yul\":24006:24044   */\n      tag_107\n      jump\t// in\n    tag_381:\n        /* \"#utility.yul\":24147:24247   */\n      tag_382\n        /* \"#utility.yul\":24220:24245   */\n      tag_383\n        /* \"#utility.yul\":24238:24244   */\n      dup8\n        /* \"#utility.yul\":24220:24245   */\n      tag_108\n      jump\t// in\n    tag_383:\n        /* \"#utility.yul\":24204:24218   */\n      dup3\n        /* \"#utility.yul\":24200:24246   */\n      add\n        /* \"#utility.yul\":24196:24197   */\n      0x01\n        /* \"#utility.yul\":24180:24194   */\n      dup4\n        /* \"#utility.yul\":24176:24198   */\n      add\n        /* \"#utility.yul\":24147:24247   */\n      tag_117\n      jump\t// in\n    tag_382:\n        /* \"#utility.yul\":24264:24328   */\n      tag_384\n        /* \"#utility.yul\":24321:24327   */\n      dup8\n        /* \"#utility.yul\":24314:24319   */\n      dup6\n        /* \"#utility.yul\":24264:24328   */\n      tag_140\n      jump\t// in\n    tag_384:\n        /* \"#utility.yul\":23966:24342   */\n      pop\n        /* \"#utility.yul\":23925:24476   */\n    tag_378:\n      pop\n        /* \"#utility.yul\":23343:24486   */\n      jump(tag_376)\n        /* \"#utility.yul\":23373:23894   */\n    tag_377:\n        /* \"#utility.yul\":23417:23455   */\n      tag_385\n        /* \"#utility.yul\":23449:23454   */\n      dup3\n        /* \"#utility.yul\":23417:23455   */\n      tag_107\n      jump\t// in\n    tag_385:\n        /* \"#utility.yul\":23507:23532   */\n      tag_386\n        /* \"#utility.yul\":23525:23531   */\n      dup7\n        /* \"#utility.yul\":23507:23532   */\n      tag_108\n      jump\t// in\n    tag_386:\n        /* \"#utility.yul\":23491:23505   */\n      dup2\n        /* \"#utility.yul\":23487:23533   */\n      add\n        /* \"#utility.yul\":23644:23648   */\n      0x1f\n        /* \"#utility.yul\":23636:23642   */\n      dup8\n        /* \"#utility.yul\":23632:23649   */\n      and\n        /* \"#utility.yul\":23665:23671   */\n      dup1\n        /* \"#utility.yul\":23662:23731   */\n      iszero\n      tag_387\n      jumpi\n        /* \"#utility.yul\":23674:23729   */\n      tag_388\n        /* \"#utility.yul\":23722:23728   */\n      dup2\n        /* \"#utility.yul\":23718:23719   */\n      0x01\n        /* \"#utility.yul\":23705:23716   */\n      dup5\n        /* \"#utility.yul\":23701:23720   */\n      sub\n        /* \"#utility.yul\":23674:23729   */\n      tag_139\n      jump\t// in\n    tag_388:\n        /* \"#utility.yul\":23662:23731   */\n    tag_387:\n        /* \"#utility.yul\":23745:23834   */\n      tag_389\n        /* \"#utility.yul\":23807:23832   */\n      tag_390\n        /* \"#utility.yul\":23825:23831   */\n      dup9\n        /* \"#utility.yul\":23807:23832   */\n      tag_108\n      jump\t// in\n    tag_390:\n        /* \"#utility.yul\":23791:23805   */\n      dup5\n        /* \"#utility.yul\":23787:23833   */\n      add\n        /* \"#utility.yul\":23774:23785   */\n      dup4\n        /* \"#utility.yul\":23745:23834   */\n      tag_117\n      jump\t// in\n    tag_389:\n        /* \"#utility.yul\":23881:23882   */\n      0x01\n        /* \"#utility.yul\":23872:23878   */\n      dup9\n        /* \"#utility.yul\":23869:23870   */\n      0x02\n        /* \"#utility.yul\":23865:23879   */\n      mul\n        /* \"#utility.yul\":23862:23883   */\n      or\n        /* \"#utility.yul\":23855:23860   */\n      dup6\n        /* \"#utility.yul\":23848:23884   */\n      sstore\n        /* \"#utility.yul\":23381:23894   */\n      pop\n      pop\n      pop\n        /* \"#utility.yul\":23343:24486   */\n    tag_376:\n      pop\n        /* \"#utility.yul\":23253:24492   */\n      pop\n      pop\n      pop\n      pop\n      jump\t// out\n        /* \"#utility.yul\":24497:25413   */\n    tag_142:\n        /* \"#utility.yul\":24602:24622   */\n      0x010000000000000000\n        /* \"#utility.yul\":24594:24600   */\n      dup5\n        /* \"#utility.yul\":24591:24623   */\n      gt\n        /* \"#utility.yul\":24588:24646   */\n      iszero\n      tag_392\n      jumpi\n        /* \"#utility.yul\":24626:24644   */\n      tag_393\n      tag_106\n      jump\t// in\n    tag_393:\n        /* \"#utility.yul\":24588:24646   */\n    tag_392:\n        /* \"#utility.yul\":24674:24676   */\n      0x20\n        /* \"#utility.yul\":24666:24672   */\n      dup4\n        /* \"#utility.yul\":24663:24677   */\n      lt\n        /* \"#utility.yul\":24691:24692   */\n      0x00\n        /* \"#utility.yul\":24686:24830   */\n      dup2\n      eq\n      tag_395\n      jumpi\n        /* \"#utility.yul\":24879:24881   */\n      0x20\n        /* \"#utility.yul\":24871:24877   */\n      dup6\n        /* \"#utility.yul\":24868:24882   */\n      lt\n        /* \"#utility.yul\":24900:24901   */\n      0x00\n        /* \"#utility.yul\":24895:25186   */\n      dup2\n      eq\n      tag_397\n      jumpi\n        /* \"#utility.yul\":25315:25381   */\n      tag_398\n        /* \"#utility.yul\":25374:25380   */\n      dup7\n        /* \"#utility.yul\":25368:25372   */\n      dup6\n        /* \"#utility.yul\":25315:25381   */\n      tag_121\n      jump\t// in\n    tag_398:\n        /* \"#utility.yul\":25308:25313   */\n      dup4\n        /* \"#utility.yul\":25301:25382   */\n      sstore\n        /* \"#utility.yul\":24861:25396   */\n      jump(tag_396)\n        /* \"#utility.yul\":24895:25186   */\n    tag_397:\n        /* \"#utility.yul\":25044:25048   */\n      dup4\n        /* \"#utility.yul\":25037:25041   */\n      0xff\n        /* \"#utility.yul\":25033:25042   */\n      not\n        /* \"#utility.yul\":25029:25049   */\n      and\n        /* \"#utility.yul\":25021:25049   */\n      swap4\n      pop\n        /* \"#utility.yul\":25113:25117   */\n      dup4\n        /* \"#utility.yul\":25073:25111   */\n      tag_399\n        /* \"#utility.yul\":25105:25110   */\n      dup5\n        /* \"#utility.yul\":25073:25111   */\n      tag_107\n      jump\t// in\n    tag_399:\n        /* \"#utility.yul\":25066:25118   */\n      sstore\n        /* \"#utility.yul\":25169:25170   */\n      0x01\n        /* \"#utility.yul\":25160:25166   */\n      dup7\n        /* \"#utility.yul\":25157:25158   */\n      0x02\n        /* \"#utility.yul\":25153:25167   */\n      mul\n        /* \"#utility.yul\":25149:25171   */\n      add\n        /* \"#utility.yul\":25142:25147   */\n      dup4\n        /* \"#utility.yul\":25135:25172   */\n      sstore\n        /* \"#utility.yul\":24861:25396   */\n    tag_396:\n      pop\n        /* \"#utility.yul\":24656:25406   */\n      jump(tag_394)\n        /* \"#utility.yul\":24686:24830   */\n    tag_395:\n        /* \"#utility.yul\":24817:24818   */\n      0x01\n        /* \"#utility.yul\":24808:24814   */\n      dup6\n        /* \"#utility.yul\":24805:24806   */\n      0x02\n        /* \"#utility.yul\":24801:24815   */\n      mul\n        /* \"#utility.yul\":24797:24819   */\n      add\n        /* \"#utility.yul\":24790:24795   */\n      dup3\n        /* \"#utility.yul\":24783:24820   */\n      sstore\n        /* \"#utility.yul\":24656:25406   */\n    tag_394:\n      pop\n        /* \"#utility.yul\":24497:25413   */\n      pop\n      pop\n      pop\n      pop\n      jump\t// out\n        /* \"#utility.yul\":25419:25821   */\n    tag_143:\n        /* \"#utility.yul\":25502:25507   */\n      dup1\n        /* \"#utility.yul\":25496:25508   */\n      sload\n        /* \"#utility.yul\":25531:25562   */\n      tag_401\n        /* \"#utility.yul\":25557:25561   */\n      dup2\n        /* \"#utility.yul\":25531:25562   */\n      tag_31\n      jump\t// in\n    tag_401:\n        /* \"#utility.yul\":25586:25592   */\n      dup1\n        /* \"#utility.yul\":25578:25584   */\n      dup5\n        /* \"#utility.yul\":25575:25593   */\n      gt\n        /* \"#utility.yul\":25572:25688   */\n      iszero\n      tag_402\n      jumpi\n        /* \"#utility.yul\":25608:25678   */\n      tag_403\n        /* \"#utility.yul\":25671:25677   */\n      dup5\n        /* \"#utility.yul\":25663:25669   */\n      dup3\n        /* \"#utility.yul\":25657:25661   */\n      dup5\n        /* \"#utility.yul\":25650:25655   */\n      dup7\n        /* \"#utility.yul\":25608:25678   */\n      tag_142\n      jump\t// in\n    tag_403:\n        /* \"#utility.yul\":25572:25688   */\n    tag_402:\n        /* \"#utility.yul\":25712:25718   */\n      dup1\n        /* \"#utility.yul\":25704:25710   */\n      dup5\n        /* \"#utility.yul\":25701:25719   */\n      lt\n        /* \"#utility.yul\":25698:25814   */\n      iszero\n      tag_404\n      jumpi\n        /* \"#utility.yul\":25734:25804   */\n      tag_405\n        /* \"#utility.yul\":25797:25803   */\n      dup5\n        /* \"#utility.yul\":25789:25795   */\n      dup3\n        /* \"#utility.yul\":25783:25787   */\n      dup5\n        /* \"#utility.yul\":25776:25781   */\n      dup7\n        /* \"#utility.yul\":25734:25804   */\n      tag_141\n      jump\t// in\n    tag_405:\n        /* \"#utility.yul\":25698:25814   */\n    tag_404:\n        /* \"#utility.yul\":25473:25821   */\n      pop\n      pop\n        /* \"#utility.yul\":25419:25821   */\n      pop\n      pop\n      jump\t// out\n        /* \"#utility.yul\":25888:26008   */\n    tag_407:\n        /* \"#utility.yul\":25905:25908   */\n      dup2\n        /* \"#utility.yul\":25898:25903   */\n      dup2\n        /* \"#utility.yul\":25895:25909   */\n      lt\n        /* \"#utility.yul\":25888:26008   */\n      iszero\n      tag_409\n      jumpi\n        /* \"#utility.yul\":25959:25998   */\n      tag_410\n        /* \"#utility.yul\":25996:25997   */\n      0x00\n        /* \"#utility.yul\":25989:25994   */\n      dup3\n        /* \"#utility.yul\":25959:25998   */\n      tag_116\n      jump\t// in\n    tag_410:\n        /* \"#utility.yul\":25932:25933   */\n      0x01\n        /* \"#utility.yul\":25925:25930   */\n      dup2\n        /* \"#utility.yul\":25921:25934   */\n      add\n        /* \"#utility.yul\":25912:25934   */\n      swap1\n      pop\n        /* \"#utility.yul\":25888:26008   */\n      jump(tag_407)\n    tag_409:\n        /* \"#utility.yul\":25827:26014   */\n      pop\n      pop\n      jump\t// out\n        /* \"#utility.yul\":26215:26323   */\n    tag_146:\n        /* \"#utility.yul\":26278:26316   */\n      tag_413\n        /* \"#utility.yul\":26314:26315   */\n      0x00\n        /* \"#utility.yul\":26308:26312   */\n      dup3\n        /* \"#utility.yul\":26278:26316   */\n      tag_143\n      jump\t// in\n    tag_413:\n        /* \"#utility.yul\":26215:26323   */\n      pop\n      jump\t// out\n        /* \"#utility.yul\":26329:26503   */\n    tag_147:\n        /* \"#utility.yul\":26420:26421   */\n      0x00\n        /* \"#utility.yul\":26412:26418   */\n      dup3\n        /* \"#utility.yul\":26409:26422   */\n      eq\n        /* \"#utility.yul\":26399:26446   */\n      tag_415\n      jumpi\n        /* \"#utility.yul\":26426:26444   */\n      tag_416\n      tag_100\n      jump\t// in\n    tag_416:\n        /* \"#utility.yul\":26399:26446   */\n    tag_415:\n        /* \"#utility.yul\":26455:26497   */\n      tag_417\n        /* \"#utility.yul\":26492:26496   */\n      dup2\n        /* \"#utility.yul\":26455:26497   */\n      tag_146\n      jump\t// in\n    tag_417:\n        /* \"#utility.yul\":26329:26503   */\n      pop\n      pop\n      jump\t// out\n        /* \"#utility.yul\":26509:26707   */\n    tag_148:\n        /* \"#utility.yul\":26584:26637   */\n      tag_419\n        /* \"#utility.yul\":26635:26636   */\n      0x00\n        /* \"#utility.yul\":26631:26632   */\n      0x00\n        /* \"#utility.yul\":26625:26629   */\n      dup4\n        /* \"#utility.yul\":26621:26633   */\n      add\n        /* \"#utility.yul\":26584:26637   */\n      tag_147\n      jump\t// in\n    tag_419:\n        /* \"#utility.yul\":26647:26700   */\n      tag_420\n        /* \"#utility.yul\":26698:26699   */\n      0x00\n        /* \"#utility.yul\":26694:26695   */\n      0x01\n        /* \"#utility.yul\":26688:26692   */\n      dup4\n        /* \"#utility.yul\":26684:26696   */\n      add\n        /* \"#utility.yul\":26647:26700   */\n      tag_147\n      jump\t// in\n    tag_420:\n        /* \"#utility.yul\":26509:26707   */\n      pop\n      jump\t// out\n        /* \"#utility.yul\":26713:26910   */\n    tag_149:\n        /* \"#utility.yul\":26815:26816   */\n      0x00\n        /* \"#utility.yul\":26807:26813   */\n      dup3\n        /* \"#utility.yul\":26804:26817   */\n      eq\n        /* \"#utility.yul\":26794:26841   */\n      tag_422\n      jumpi\n        /* \"#utility.yul\":26821:26839   */\n      tag_423\n      tag_100\n      jump\t// in\n    tag_423:\n        /* \"#utility.yul\":26794:26841   */\n    tag_422:\n        /* \"#utility.yul\":26850:26904   */\n      tag_424\n        /* \"#utility.yul\":26899:26903   */\n      dup2\n        /* \"#utility.yul\":26850:26904   */\n      tag_148\n      jump\t// in\n    tag_424:\n        /* \"#utility.yul\":26713:26910   */\n      pop\n      pop\n      jump\t// out\n        /* \"#utility.yul\":26916:27139   */\n    tag_150:\n        /* \"#utility.yul\":26995:27133   */\n    tag_426:\n        /* \"#utility.yul\":27012:27015   */\n      dup2\n        /* \"#utility.yul\":27005:27010   */\n      dup2\n        /* \"#utility.yul\":27002:27016   */\n      lt\n        /* \"#utility.yul\":26995:27133   */\n      iszero\n      tag_428\n      jumpi\n        /* \"#utility.yul\":27066:27123   */\n      tag_429\n        /* \"#utility.yul\":27121:27122   */\n      0x00\n        /* \"#utility.yul\":27114:27119   */\n      dup3\n        /* \"#utility.yul\":27066:27123   */\n      tag_149\n      jump\t// in\n    tag_429:\n        /* \"#utility.yul\":27039:27040   */\n      0x02\n        /* \"#utility.yul\":27032:27037   */\n      dup2\n        /* \"#utility.yul\":27028:27041   */\n      add\n        /* \"#utility.yul\":27019:27041   */\n      swap1\n      pop\n        /* \"#utility.yul\":26995:27133   */\n      jump(tag_426)\n    tag_428:\n        /* \"#utility.yul\":26916:27139   */\n      pop\n      pop\n      jump\t// out\n        /* \"#utility.yul\":27145:27916   */\n    tag_151:\n        /* \"#utility.yul\":27283:27286   */\n      dup2\n        /* \"#utility.yul\":27271:27281   */\n      dup4\n        /* \"#utility.yul\":27268:27287   */\n      lt\n        /* \"#utility.yul\":27265:27909   */\n      iszero\n      tag_431\n      jumpi\n        /* \"#utility.yul\":27374:27457   */\n      tag_432\n        /* \"#utility.yul\":27453:27456   */\n      dup3\n        /* \"#utility.yul\":27374:27457   */\n      tag_137\n      jump\t// in\n    tag_432:\n        /* \"#utility.yul\":27490:27580   */\n      tag_433\n        /* \"#utility.yul\":27569:27579   */\n      dup5\n        /* \"#utility.yul\":27490:27580   */\n      tag_137\n      jump\t// in\n    tag_433:\n        /* \"#utility.yul\":27615:27686   */\n      tag_434\n        /* \"#utility.yul\":27680:27685   */\n      dup4\n        /* \"#utility.yul\":27615:27686   */\n      tag_138\n      jump\t// in\n    tag_434:\n        /* \"#utility.yul\":27738:27750   */\n      dup2\n        /* \"#utility.yul\":27722:27736   */\n      dup2\n        /* \"#utility.yul\":27718:27751   */\n      add\n        /* \"#utility.yul\":27801:27813   */\n      dup4\n        /* \"#utility.yul\":27785:27799   */\n      dup3\n        /* \"#utility.yul\":27781:27814   */\n      add\n        /* \"#utility.yul\":27828:27899   */\n      tag_435\n        /* \"#utility.yul\":27889:27898   */\n      dup2\n        /* \"#utility.yul\":27876:27887   */\n      dup4\n        /* \"#utility.yul\":27828:27899   */\n      tag_150\n      jump\t// in\n    tag_435:\n        /* \"#utility.yul\":27288:27909   */\n      pop\n      pop\n      pop\n      pop\n      pop\n        /* \"#utility.yul\":27265:27909   */\n    tag_431:\n        /* \"#utility.yul\":27145:27916   */\n      pop\n      pop\n      pop\n      jump\t// out\n        /* \"#utility.yul\":27922:28364   */\n    tag_152:\n        /* \"#utility.yul\":28033:28053   */\n      0x010000000000000000\n        /* \"#utility.yul\":28025:28031   */\n      dup3\n        /* \"#utility.yul\":28022:28054   */\n      gt\n        /* \"#utility.yul\":28019:28097   */\n      iszero\n      tag_437\n      jumpi\n        /* \"#utility.yul\":28069:28087   */\n      tag_438\n      tag_106\n      jump\t// in\n    tag_438:\n        /* \"#utility.yul\":28019:28097   */\n    tag_437:\n        /* \"#utility.yul\":28121:28190   */\n      tag_439\n        /* \"#utility.yul\":28184:28189   */\n      dup2\n        /* \"#utility.yul\":28121:28190   */\n      tag_134\n      jump\t// in\n    tag_439:\n        /* \"#utility.yul\":28242:28248   */\n      dup3\n        /* \"#utility.yul\":28235:28240   */\n      dup3\n        /* \"#utility.yul\":28228:28249   */\n      sstore\n        /* \"#utility.yul\":28259:28357   */\n      tag_440\n        /* \"#utility.yul\":28350:28356   */\n      dup4\n        /* \"#utility.yul\":28342:28348   */\n      dup3\n        /* \"#utility.yul\":28335:28340   */\n      dup5\n        /* \"#utility.yul\":28259:28357   */\n      tag_151\n      jump\t// in\n    tag_440:\n        /* \"#utility.yul\":28009:28364   */\n      pop\n        /* \"#utility.yul\":27922:28364   */\n      pop\n      pop\n      jump\t// out\n        /* \"#utility.yul\":28369:28504   */\n    tag_153:\n        /* \"#utility.yul\":28466:28472   */\n      0x00\n        /* \"#utility.yul\":28494:28497   */\n      dup3\n        /* \"#utility.yul\":28484:28497   */\n      swap1\n      pop\n        /* \"#utility.yul\":28369:28504   */\n      swap3\n      swap2\n      pop\n      pop\n      jump\t// out\n        /* \"#utility.yul\":28510:29363   */\n    tag_154:\n        /* \"#utility.yul\":28678:28679   */\n      0x00\n        /* \"#utility.yul\":28672:28676   */\n      dup2\n        /* \"#utility.yul\":28668:28680   */\n      add\n        /* \"#utility.yul\":28724:28725   */\n      0x00\n        /* \"#utility.yul\":28717:28722   */\n      dup4\n        /* \"#utility.yul\":28713:28726   */\n      add\n        /* \"#utility.yul\":28789:28852   */\n      tag_443\n        /* \"#utility.yul\":28839:28851   */\n      dup2\n        /* \"#utility.yul\":28832:28837   */\n      dup6\n        /* \"#utility.yul\":28789:28852   */\n      tag_104\n      jump\t// in\n    tag_443:\n        /* \"#utility.yul\":28866:28979   */\n      tag_444\n        /* \"#utility.yul\":28965:28978   */\n      dup2\n        /* \"#utility.yul\":28950:28963   */\n      dup4\n        /* \"#utility.yul\":28938:28948   */\n      dup7\n        /* \"#utility.yul\":28866:28979   */\n      tag_123\n      jump\t// in\n    tag_444:\n        /* \"#utility.yul\":28635:28990   */\n      pop\n      pop\n      pop\n      pop\n        /* \"#utility.yul\":29043:29044   */\n      0x01\n        /* \"#utility.yul\":29037:29041   */\n      dup2\n        /* \"#utility.yul\":29033:29045   */\n      add\n        /* \"#utility.yul\":29089:29091   */\n      0x20\n        /* \"#utility.yul\":29082:29087   */\n      dup4\n        /* \"#utility.yul\":29078:29092   */\n      add\n        /* \"#utility.yul\":29155:29218   */\n      tag_445\n        /* \"#utility.yul\":29205:29217   */\n      dup2\n        /* \"#utility.yul\":29198:29203   */\n      dup6\n        /* \"#utility.yul\":29155:29218   */\n      tag_104\n      jump\t// in\n    tag_445:\n        /* \"#utility.yul\":29232:29345   */\n      tag_446\n        /* \"#utility.yul\":29331:29344   */\n      dup2\n        /* \"#utility.yul\":29316:29329   */\n      dup4\n        /* \"#utility.yul\":29304:29314   */\n      dup7\n        /* \"#utility.yul\":29232:29345   */\n      tag_123\n      jump\t// in\n    tag_446:\n        /* \"#utility.yul\":29000:29356   */\n      pop\n      pop\n      pop\n      pop\n        /* \"#utility.yul\":28510:29363   */\n      pop\n      pop\n      jump\t// out\n        /* \"#utility.yul\":29369:29610   */\n    tag_155:\n        /* \"#utility.yul\":29498:29604   */\n      tag_448\n        /* \"#utility.yul\":29596:29603   */\n      dup3\n        /* \"#utility.yul\":29590:29594   */\n      dup3\n        /* \"#utility.yul\":29498:29604   */\n      tag_154\n      jump\t// in\n    tag_448:\n        /* \"#utility.yul\":29369:29610   */\n      pop\n      pop\n      jump\t// out\n        /* \"#utility.yul\":29616:30593   */\n    tag_156:\n        /* \"#utility.yul\":29808:29892   */\n      tag_450\n        /* \"#utility.yul\":29888:29891   */\n      dup4\n        /* \"#utility.yul\":29881:29886   */\n      dup4\n        /* \"#utility.yul\":29808:29892   */\n      tag_153\n      jump\t// in\n    tag_450:\n        /* \"#utility.yul\":29902:29978   */\n      tag_451\n        /* \"#utility.yul\":29971:29977   */\n      dup2\n        /* \"#utility.yul\":29965:29969   */\n      dup4\n        /* \"#utility.yul\":29902:29978   */\n      tag_152\n      jump\t// in\n    tag_451:\n        /* \"#utility.yul\":30002:30083   */\n      tag_452\n        /* \"#utility.yul\":30077:30082   */\n      dup4\n        /* \"#utility.yul\":30002:30083   */\n      tag_132\n      jump\t// in\n    tag_452:\n        /* \"#utility.yul\":30112:30182   */\n      tag_453\n        /* \"#utility.yul\":30177:30181   */\n      dup4\n        /* \"#utility.yul\":30112:30182   */\n      tag_138\n      jump\t// in\n    tag_453:\n        /* \"#utility.yul\":30207:30208   */\n      0x00\n        /* \"#utility.yul\":30192:30587   */\n    tag_454:\n        /* \"#utility.yul\":30217:30223   */\n      dup4\n        /* \"#utility.yul\":30214:30215   */\n      dup2\n        /* \"#utility.yul\":30211:30224   */\n      lt\n        /* \"#utility.yul\":30192:30587   */\n      iszero\n      tag_456\n      jumpi\n        /* \"#utility.yul\":30289:30357   */\n      tag_457\n        /* \"#utility.yul\":30350:30356   */\n      dup4\n        /* \"#utility.yul\":30343:30348   */\n      dup8\n        /* \"#utility.yul\":30289:30357   */\n      tag_133\n      jump\t// in\n    tag_457:\n        /* \"#utility.yul\":30371:30490   */\n      tag_458\n        /* \"#utility.yul\":30478:30489   */\n      dup2\n        /* \"#utility.yul\":30465:30476   */\n      dup5\n        /* \"#utility.yul\":30371:30490   */\n      tag_155\n      jump\t// in\n    tag_458:\n        /* \"#utility.yul\":30526:30528   */\n      0x20\n        /* \"#utility.yul\":30518:30524   */\n      dup5\n        /* \"#utility.yul\":30514:30529   */\n      add\n        /* \"#utility.yul\":30504:30529   */\n      swap4\n      pop\n        /* \"#utility.yul\":30575:30576   */\n      0x02\n        /* \"#utility.yul\":30562:30573   */\n      dup4\n        /* \"#utility.yul\":30558:30577   */\n      add\n        /* \"#utility.yul\":30543:30577   */\n      swap3\n      pop\n        /* \"#utility.yul\":30242:30587   */\n      pop\n        /* \"#utility.yul\":30238:30239   */\n      0x01\n        /* \"#utility.yul\":30235:30236   */\n      dup2\n        /* \"#utility.yul\":30231:30240   */\n      add\n        /* \"#utility.yul\":30226:30240   */\n      swap1\n      pop\n        /* \"#utility.yul\":30192:30587   */\n      jump(tag_454)\n    tag_456:\n        /* \"#utility.yul\":30196:30210   */\n      pop\n        /* \"#utility.yul\":29783:30593   */\n      pop\n      pop\n      pop\n        /* \"#utility.yul\":29616:30593   */\n      pop\n      pop\n      pop\n      jump\t// out\n        /* \"#utility.yul\":30599:30955   */\n    tag_157:\n        /* \"#utility.yul\":30786:30949   */\n      tag_460\n        /* \"#utility.yul\":30941:30948   */\n      dup4\n        /* \"#utility.yul\":30932:30939   */\n      dup4\n        /* \"#utility.yul\":30926:30930   */\n      dup4\n        /* \"#utility.yul\":30786:30949   */\n      tag_156\n      jump\t// in\n    tag_460:\n        /* \"#utility.yul\":30599:30955   */\n      pop\n      pop\n      pop\n      jump\t// out\n        /* \"#utility.yul\":30961:32258   */\n    tag_158:\n        /* \"#utility.yul\":31131:31132   */\n      0x00\n        /* \"#utility.yul\":31125:31129   */\n      dup2\n        /* \"#utility.yul\":31121:31133   */\n      add\n        /* \"#utility.yul\":31177:31178   */\n      0x00\n        /* \"#utility.yul\":31170:31175   */\n      dup4\n        /* \"#utility.yul\":31166:31179   */\n      add\n        /* \"#utility.yul\":31242:31305   */\n      tag_462\n        /* \"#utility.yul\":31292:31304   */\n      dup2\n        /* \"#utility.yul\":31285:31290   */\n      dup6\n        /* \"#utility.yul\":31242:31305   */\n      tag_104\n      jump\t// in\n    tag_462:\n        /* \"#utility.yul\":31319:31432   */\n      tag_463\n        /* \"#utility.yul\":31418:31431   */\n      dup2\n        /* \"#utility.yul\":31403:31416   */\n      dup4\n        /* \"#utility.yul\":31391:31401   */\n      dup7\n        /* \"#utility.yul\":31319:31432   */\n      tag_123\n      jump\t// in\n    tag_463:\n        /* \"#utility.yul\":31088:31443   */\n      pop\n      pop\n      pop\n      pop\n        /* \"#utility.yul\":31496:31497   */\n      0x01\n        /* \"#utility.yul\":31490:31494   */\n      dup2\n        /* \"#utility.yul\":31486:31498   */\n      add\n        /* \"#utility.yul\":31542:31544   */\n      0x20\n        /* \"#utility.yul\":31535:31540   */\n      dup4\n        /* \"#utility.yul\":31531:31545   */\n      add\n        /* \"#utility.yul\":31593:31605   */\n      dup1\n        /* \"#utility.yul\":31636:31676   */\n      tag_464\n        /* \"#utility.yul\":31662:31675   */\n      dup2\n        /* \"#utility.yul\":31636:31676   */\n      tag_125\n      jump\t// in\n    tag_464:\n        /* \"#utility.yul\":31619:31676   */\n      swap1\n      pop\n        /* \"#utility.yul\":31690:31765   */\n      tag_465\n        /* \"#utility.yul\":31751:31764   */\n      dup2\n        /* \"#utility.yul\":31739:31749   */\n      dup5\n        /* \"#utility.yul\":31690:31765   */\n      tag_130\n      jump\t// in\n    tag_465:\n        /* \"#utility.yul\":31453:31776   */\n      pop\n      pop\n      pop\n        /* \"#utility.yul\":31829:31830   */\n      0x02\n        /* \"#utility.yul\":31823:31827   */\n      dup2\n        /* \"#utility.yul\":31819:31831   */\n      add\n        /* \"#utility.yul\":31875:31877   */\n      0x40\n        /* \"#utility.yul\":31868:31873   */\n      dup4\n        /* \"#utility.yul\":31864:31878   */\n      add\n        /* \"#utility.yul\":31941:32042   */\n      tag_466\n        /* \"#utility.yul\":32029:32041   */\n      dup2\n        /* \"#utility.yul\":32022:32027   */\n      dup6\n        /* \"#utility.yul\":31941:32042   */\n      tag_131\n      jump\t// in\n    tag_466:\n        /* \"#utility.yul\":32056:32240   */\n      tag_467\n        /* \"#utility.yul\":32226:32239   */\n      dup2\n        /* \"#utility.yul\":32211:32224   */\n      dup4\n        /* \"#utility.yul\":32199:32209   */\n      dup7\n        /* \"#utility.yul\":32056:32240   */\n      tag_157\n      jump\t// in\n    tag_467:\n        /* \"#utility.yul\":31786:32251   */\n      pop\n      pop\n      pop\n      pop\n        /* \"#utility.yul\":30961:32258   */\n      pop\n      pop\n      jump\t// out\n        /* \"#utility.yul\":32264:32509   */\n    tag_64:\n        /* \"#utility.yul\":32395:32503   */\n      tag_469\n        /* \"#utility.yul\":32495:32502   */\n      dup3\n        /* \"#utility.yul\":32489:32493   */\n      dup3\n        /* \"#utility.yul\":32395:32503   */\n      tag_158\n      jump\t// in\n    tag_469:\n        /* \"#utility.yul\":32264:32509   */\n      pop\n      pop\n      jump\t// out\n\n    auxdata: 0xa26469706673582212209c1187ada6cd5a87a3629d01dacde55f876541e37a76769861ff47c52722df9964736f6c634300081e0033\n}\n",
				"bytecode": {
					"linkReferences": {},
					"object": "6080604052348015600e575f5ffd5b5061133a8061001c5f395ff3fe608060405234801561000f575f5ffd5b506004361061004a575f3560e01c80634c6b6c6f1461004e578063a2f9eac61461006c578063a94ca7361461009d578063f58252a7146100cd575b5f5ffd5b6100566100e9565b6040516100639190610728565b60405180910390f35b61008660048036038101906100819190610783565b61036a565b604051610094929190610805565b60405180910390f35b6100b760048036038101906100b29190610783565b61042a565b6040516100c491906108b6565b60405180910390f35b6100e760048036038101906100e291906108f8565b610459565b005b60605f805480602002602001604051908101604052809291908181526020015f905b82821015610361578382905f5260205f2090600302016040518060600160405290815f8201805461013b9061096c565b80601f01602080910402602001604051908101604052809291908181526020018280546101679061096c565b80156101b25780601f10610189576101008083540402835291602001916101b2565b820191905f5260205f20905b81548152906001019060200180831161019557829003601f168201915b50505050508152602001600182015f9054906101000a900460ff1660ff1660ff16815260200160028201805480602002602001604051908101604052809291908181526020015f905b8282101561034a578382905f5260205f2090600202016040518060400160405290815f8201805461022b9061096c565b80601f01602080910402602001604051908101604052809291908181526020018280546102579061096c565b80156102a25780601f10610279576101008083540402835291602001916102a2565b820191905f5260205f20905b81548152906001019060200180831161028557829003601f168201915b505050505081526020016001820180546102bb9061096c565b80601f01602080910402602001604051908101604052809291908181526020018280546102e79061096c565b80156103325780601f1061030957610100808354040283529160200191610332565b820191905f5260205f20905b81548152906001019060200180831161031557829003601f168201915b505050505081525050815260200190600101906101fb565b50505050815250508152602001906001019061010b565b50505050905090565b5f8181548110610378575f80fd5b905f5260205f2090600302015f91509050805f0180546103979061096c565b80601f01602080910402602001604051908101604052809291908181526020018280546103c39061096c565b801561040e5780601f106103e55761010080835404028352916020019161040e565b820191905f5260205f20905b8154815290600101906020018083116103f157829003601f168201915b505050505090806001015f9054906101000a900460ff16905082565b60606104346100e9565b82815181106104465761044561099c565b5b6020026020010151604001519050919050565b5f81908060018154018082558091505060019003905f5260205f2090600302015f90919091909150818161048d91906112f6565b505050565b5f81519050919050565b5f82825260208201905092915050565b5f819050602082019050919050565b5f81519050919050565b5f82825260208201905092915050565b8281835e5f83830152505050565b5f601f19601f8301169050919050565b5f6104fd826104bb565b61050781856104c5565b93506105178185602086016104d5565b610520816104e3565b840191505092915050565b5f60ff82169050919050565b6105408161052b565b82525050565b5f81519050919050565b5f82825260208201905092915050565b5f819050602082019050919050565b5f604083015f8301518482035f86015261058982826104f3565b915050602083015184820360208601526105a382826104f3565b9150508091505092915050565b5f6105bb838361056f565b905092915050565b5f602082019050919050565b5f6105d982610546565b6105e38185610550565b9350836020820285016105f585610560565b805f5b85811015610630578484038952815161061185826105b0565b945061061c836105c3565b925060208a019950506001810190506105f8565b50829750879550505050505092915050565b5f606083015f8301518482035f86015261065c82826104f3565b91505060208301516106716020860182610537565b506040830151848203604086015261068982826105cf565b9150508091505092915050565b5f6106a18383610642565b905092915050565b5f602082019050919050565b5f6106bf82610492565b6106c9818561049c565b9350836020820285016106db856104ac565b805f5b8581101561071657848403895281516106f78582610696565b9450610702836106a9565b925060208a019950506001810190506106de565b50829750879550505050505092915050565b5f6020820190508181035f83015261074081846106b5565b905092915050565b5f5ffd5b5f5ffd5b5f819050919050565b61076281610750565b811461076c575f5ffd5b50565b5f8135905061077d81610759565b92915050565b5f6020828403121561079857610797610748565b5b5f6107a58482850161076f565b91505092915050565b5f82825260208201905092915050565b5f6107c8826104bb565b6107d281856107ae565b93506107e28185602086016104d5565b6107eb816104e3565b840191505092915050565b6107ff8161052b565b82525050565b5f6040820190508181035f83015261081d81856107be565b905061082c60208301846107f6565b9392505050565b5f82825260208201905092915050565b5f61084d82610546565b6108578185610833565b93508360208202850161086985610560565b805f5b858110156108a4578484038952815161088585826105b0565b9450610890836105c3565b925060208a0199505060018101905061086c565b50829750879550505050505092915050565b5f6020820190508181035f8301526108ce8184610843565b905092915050565b5f5ffd5b5f606082840312156108ef576108ee6108d6565b5b81905092915050565b5f6020828403121561090d5761090c610748565b5b5f82013567ffffffffffffffff81111561092a5761092961074c565b5b610936848285016108da565b91505092915050565b7f4e487b71000000000000000000000000000000000000000000000000000000005f52602260045260245ffd5b5f600282049050600182168061098357607f821691505b6020821081036109965761099561093f565b5b50919050565b7f4e487b71000000000000000000000000000000000000000000000000000000005f52603260045260245ffd5b7f4e487b71000000000000000000000000000000000000000000000000000000005f525f60045260245ffd5b5f5ffd5b5f5ffd5b5f5ffd5b5f5f83356001602003843603038112610a1d57610a1c6109f5565b5b80840192508235915067ffffffffffffffff821115610a3f57610a3e6109f9565b5b602083019250600182023603831315610a5b57610a5a6109fd565b5b509250929050565b5f82905092915050565b7f4e487b71000000000000000000000000000000000000000000000000000000005f52604160045260245ffd5b5f819050815f5260205f209050919050565b5f6020601f8301049050919050565b5f82821b905092915050565b5f60088302610af67fffffffffffffffffffffffffffffffffffffffffffffffffffffffffffffffff82610abb565b610b008683610abb565b95508019841693508086168417925050509392505050565b5f819050919050565b5f610b3b610b36610b3184610750565b610b18565b610750565b9050919050565b5f819050919050565b610b5483610b21565b610b68610b6082610b42565b848454610ac7565b825550505050565b5f5f905090565b610b7f610b70565b610b8a818484610b4b565b505050565b5b81811015610bad57610ba25f82610b77565b600181019050610b90565b5050565b601f821115610bf257610bc381610a9a565b610bcc84610aac565b81016020851015610bdb578190505b610bef610be785610aac565b830182610b8f565b50505b505050565b5f82821c905092915050565b5f610c125f1984600802610bf7565b1980831691505092915050565b5f610c2a8383610c03565b9150826002028217905092915050565b610c448383610a63565b67ffffffffffffffff811115610c5d57610c5c610a6d565b5b610c67825461096c565b610c72828285610bb1565b5f601f831160018114610c9f575f8415610c8d578287013590505b610c978582610c1f565b865550610cfe565b601f198416610cad86610a9a565b5f5b82811015610cd457848901358255600182019150602085019450602081019050610caf565b86831015610cf15784890135610ced601f891682610c03565b8355505b6001600288020188555050505b50505050505050565b610d12838383610c3a565b505050565b610d208161052b565b8114610d2a575f5ffd5b50565b5f8135610d3981610d17565b80915050919050565b5f815f1b9050919050565b5f60ff610d5984610d42565b9350801983169250808416831791505092915050565b5f610d89610d84610d7f8461052b565b610b18565b61052b565b9050919050565b5f819050919050565b610da282610d6f565b610db5610dae82610d90565b8354610d4d565b8255505050565b5f5f83356001602003843603038112610dd857610dd76109f5565b5b80840192508235915067ffffffffffffffff821115610dfa57610df96109f9565b5b602083019250602082023603831315610e1657610e156109fd565b5b509250929050565b5f819050919050565b5f82356001604003833603038112610e4257610e416109f5565b5b80830191505092915050565b5f81549050919050565b7f4e487b71000000000000000000000000000000000000000000000000000000005f52601160045260245ffd5b5f610e8f82610750565b9150610e9a83610750565b9250828202610ea881610750565b91508282048414831517610ebf57610ebe610e58565b5b5092915050565b5f819050610ed5826002610e85565b9050919050565b5f819050815f5260205f209050919050565b610f1e7fffffffffffffffffffffffffffffffffffffffffffffffffffffffffffffffff83602003600802610bf7565b815481168255505050565b610f3281610a9a565b610f3d838254610c1f565b8083555f825550505050565b602084105f8114610fa357601f841160018114610f7157610f6a8685610c1f565b8355610f9d565b610f7a83610a9a565b610f91610f8687610aac565b820160018301610b8f565b610f9b8785610f29565b505b50610ff0565b610fac82610a9a565b610fb586610aac565b8101601f87168015610fcf57610fce8160018403610eee565b5b610fe3610fdb88610aac565b840183610b8f565b6001886002021785555050505b5050505050565b6801000000000000000084111561101157611010610a6d565b5b602083105f811461105a57602085105f8114611038576110318685610c1f565b8355611054565b8360ff191693508361104984610a9a565b556001866002020183555b50611064565b6001856002020182555b5050505050565b80546110768161096c565b8084111561108b5761108a84828486610ff7565b5b808410156110a05761109f84828486610f49565b5b50505050565b818110156110c3576110b85f82610b77565b6001810190506110a6565b5050565b6110d15f8261106b565b50565b5f82146110e4576110e36109c9565b5b6110ed816110c7565b5050565b6110fd5f5f83016110d4565b61110a5f600183016110d4565b50565b5f821461111d5761111c6109c9565b5b611126816110f1565b5050565b5b818110156111485761113d5f8261110d565b60028101905061112b565b5050565b818310156111855761115d82610ec6565b61116684610ec6565b61116f83610edc565b81810183820161117f818361112a565b50505050505b505050565b680100000000000000008211156111a4576111a3610a6d565b5b6111ad81610e4e565b8282556111bb83828461114c565b505050565b5f82905092915050565b5f81015f83016111da8185610a01565b6111e5818386610d07565b5050505060018101602083016111fb8185610a01565b611206818386610d07565b505050505050565b61121882826111ca565b5050565b61122683836111c0565b611230818361118a565b61123983610e1e565b61124283610edc565b5f5b83811015611278576112568387610e27565b611260818461120e565b60208401935060028301925050600181019050611244565b50505050505050565b61128c83838361121c565b505050565b5f81015f83016112a18185610a01565b6112ac818386610d07565b505050506001810160208301806112c281610d2d565b90506112ce8184610d99565b50505060028101604083016112e38185610dbc565b6112ee818386611281565b505050505050565b6113008282611291565b505056fea26469706673582212209c1187ada6cd5a87a3629d01dacde55f876541e37a76769861ff47c52722df9964736f6c634300081e0033",
					"opcodes": "PUSH1 0x80 PUSH1 0x40 MSTORE CALLVALUE DUP1 ISZERO PUSH1 0xE JUMPI PUSH0 PUSH0 REVERT JUMPDEST POP PUSH2 0x133A DUP1 PUSH2 0x1C PUSH0 CODECOPY PUSH0 RETURN INVALID PUSH1 0x80 PUSH1 0x40 MSTORE CALLVALUE DUP1 ISZERO PUSH2 0xF JUMPI PUSH0 PUSH0 REVERT JUMPDEST POP PUSH1 0x4 CALLDATASIZE LT PUSH2 0x4A JUMPI PUSH0 CALLDATALOAD PUSH1 0xE0 SHR DUP1 PUSH4 0x4C6B6C6F EQ PUSH2 0x4E JUMPI DUP1 PUSH4 0xA2F9EAC6 EQ PUSH2 0x6C JUMPI DUP1 PUSH4 0xA94CA736 EQ PUSH2 0x9D JUMPI DUP1 PUSH4 0xF58252A7 EQ PUSH2 0xCD JUMPI JUMPDEST PUSH0 PUSH0 REVERT JUMPDEST PUSH2 0x56 PUSH2 0xE9 JUMP JUMPDEST PUSH1 0x40 MLOAD PUSH2 0x63 SWAP2 SWAP1 PUSH2 0x728 JUMP JUMPDEST PUSH1 0x40 MLOAD DUP1 SWAP2 SUB SWAP1 RETURN JUMPDEST PUSH2 0x86 PUSH1 0x4 DUP1 CALLDATASIZE SUB DUP2 ADD SWAP1 PUSH2 0x81 SWAP2 SWAP1 PUSH2 0x783 JUMP JUMPDEST PUSH2 0x36A JUMP JUMPDEST PUSH1 0x40 MLOAD PUSH2 0x94 SWAP3 SWAP2 SWAP1 PUSH2 0x805 JUMP JUMPDEST PUSH1 0x40 MLOAD DUP1 SWAP2 SUB SWAP1 RETURN JUMPDEST PUSH2 0xB7 PUSH1 0x4 DUP1 CALLDATASIZE SUB DUP2 ADD SWAP1 PUSH2 0xB2 SWAP2 SWAP1 PUSH2 0x783 JUMP JUMPDEST PUSH2 0x42A JUMP JUMPDEST PUSH1 0x40 MLOAD PUSH2 0xC4 SWAP2 SWAP1 PUSH2 0x8B6 JUMP JUMPDEST PUSH1 0x40 MLOAD DUP1 SWAP2 SUB SWAP1 RETURN JUMPDEST PUSH2 0xE7 PUSH1 0x4 DUP1 CALLDATASIZE SUB DUP2 ADD SWAP1 PUSH2 0xE2 SWAP2 SWAP1 PUSH2 0x8F8 JUMP JUMPDEST PUSH2 0x459 JUMP JUMPDEST STOP JUMPDEST PUSH1 0x60 PUSH0 DUP1 SLOAD DUP1 PUSH1 0x20 MUL PUSH1 0x20 ADD PUSH1 0x40 MLOAD SWAP1 DUP2 ADD PUSH1 0x40 MSTORE DUP1 SWAP3 SWAP2 SWAP1 DUP2 DUP2 MSTORE PUSH1 0x20 ADD PUSH0 SWAP1 JUMPDEST DUP3 DUP3 LT ISZERO PUSH2 0x361 JUMPI DUP4 DUP3 SWAP1 PUSH0 MSTORE PUSH1 0x20 PUSH0 KECCAK256 SWAP1 PUSH1 0x3 MUL ADD PUSH1 0x40 MLOAD DUP1 PUSH1 0x60 ADD PUSH1 0x40 MSTORE SWAP1 DUP2 PUSH0 DUP3 ADD DUP1 SLOAD PUSH2 0x13B SWAP1 PUSH2 0x96C JUMP JUMPDEST DUP1 PUSH1 0x1F ADD PUSH1 0x20 DUP1 SWAP2 DIV MUL PUSH1 0x20 ADD PUSH1 0x40 MLOAD SWAP1 DUP2 ADD PUSH1 0x40 MSTORE DUP1 SWAP3 SWAP2 SWAP1 DUP2 DUP2 MSTORE PUSH1 0x20 ADD DUP3 DUP1 SLOAD PUSH2 0x167 SWAP1 PUSH2 0x96C JUMP JUMPDEST DUP1 ISZERO PUSH2 0x1B2 JUMPI DUP1 PUSH1 0x1F LT PUSH2 0x189 JUMPI PUSH2 0x100 DUP1 DUP4 SLOAD DIV MUL DUP4 MSTORE SWAP2 PUSH1 0x20 ADD SWAP2 PUSH2 0x1B2 JUMP JUMPDEST DUP3 ADD SWAP2 SWAP1 PUSH0 MSTORE PUSH1 0x20 PUSH0 KECCAK256 SWAP1 JUMPDEST DUP2 SLOAD DUP2 MSTORE SWAP1 PUSH1 0x1 ADD SWAP1 PUSH1 0x20 ADD DUP1 DUP4 GT PUSH2 0x195 JUMPI DUP3 SWAP1 SUB PUSH1 0x1F AND DUP3 ADD SWAP2 JUMPDEST POP POP POP POP POP DUP2 MSTORE PUSH1 0x20 ADD PUSH1 0x1 DUP3 ADD PUSH0 SWAP1 SLOAD SWAP1 PUSH2 0x100 EXP SWAP1 DIV PUSH1 0xFF AND PUSH1 0xFF AND PUSH1 0xFF AND DUP2 MSTORE PUSH1 0x20 ADD PUSH1 0x2 DUP3 ADD DUP1 SLOAD DUP1 PUSH1 0x20 MUL PUSH1 0x20 ADD PUSH1 0x40 MLOAD SWAP1 DUP2 ADD PUSH1 0x40 MSTORE DUP1 SWAP3 SWAP2 SWAP1 DUP2 DUP2 MSTORE PUSH1 0x20 ADD PUSH0 SWAP1 JUMPDEST DUP3 DUP3 LT ISZERO PUSH2 0x34A JUMPI DUP4 DUP3 SWAP1 PUSH0 MSTORE PUSH1 0x20 PUSH0 KECCAK256 SWAP1 PUSH1 0x2 MUL ADD PUSH1 0x40 MLOAD DUP1 PUSH1 0x40 ADD PUSH1 0x40 MSTORE SWAP1 DUP2 PUSH0 DUP3 ADD DUP1 SLOAD PUSH2 0x22B SWAP1 PUSH2 0x96C JUMP JUMPDEST DUP1 PUSH1 0x1F ADD PUSH1 0x20 DUP1 SWAP2 DIV MUL PUSH1 0x20 ADD PUSH1 0x40 MLOAD SWAP1 DUP2 ADD PUSH1 0x40 MSTORE DUP1 SWAP3 SWAP2 SWAP1 DUP2 DUP2 MSTORE PUSH1 0x20 ADD DUP3 DUP1 SLOAD PUSH2 0x257 SWAP1 PUSH2 0x96C JUMP JUMPDEST DUP1 ISZERO PUSH2 0x2A2 JUMPI DUP1 PUSH1 0x1F LT PUSH2 0x279 JUMPI PUSH2 0x100 DUP1 DUP4 SLOAD DIV MUL DUP4 MSTORE SWAP2 PUSH1 0x20 ADD SWAP2 PUSH2 0x2A2 JUMP JUMPDEST DUP3 ADD SWAP2 SWAP1 PUSH0 MSTORE PUSH1 0x20 PUSH0 KECCAK256 SWAP1 JUMPDEST DUP2 SLOAD DUP2 MSTORE SWAP1 PUSH1 0x1 ADD SWAP1 PUSH1 0x20 ADD DUP1 DUP4 GT PUSH2 0x285 JUMPI DUP3 SWAP1 SUB PUSH1 0x1F AND DUP3 ADD SWAP2 JUMPDEST POP POP POP POP POP DUP2 MSTORE PUSH1 0x20 ADD PUSH1 0x1 DUP3 ADD DUP1 SLOAD PUSH2 0x2BB SWAP1 PUSH2 0x96C JUMP JUMPDEST DUP1 PUSH1 0x1F ADD PUSH1 0x20 DUP1 SWAP2 DIV MUL PUSH1 0x20 ADD PUSH1 0x40 MLOAD SWAP1 DUP2 ADD PUSH1 0x40 MSTORE DUP1 SWAP3 SWAP2 SWAP1 DUP2 DUP2 MSTORE PUSH1 0x20 ADD DUP3 DUP1 SLOAD PUSH2 0x2E7 SWAP1 PUSH2 0x96C JUMP JUMPDEST DUP1 ISZERO PUSH2 0x332 JUMPI DUP1 PUSH1 0x1F LT PUSH2 0x309 JUMPI PUSH2 0x100 DUP1 DUP4 SLOAD DIV MUL DUP4 MSTORE SWAP2 PUSH1 0x20 ADD SWAP2 PUSH2 0x332 JUMP JUMPDEST DUP3 ADD SWAP2 SWAP1 PUSH0 MSTORE PUSH1 0x20 PUSH0 KECCAK256 SWAP1 JUMPDEST DUP2 SLOAD DUP2 MSTORE SWAP1 PUSH1 0x1 ADD SWAP1 PUSH1 0x20 ADD DUP1 DUP4 GT PUSH2 0x315 JUMPI DUP3 SWAP1 SUB PUSH1 0x1F AND DUP3 ADD SWAP2 JUMPDEST POP POP POP POP POP DUP2 MSTORE POP POP DUP2 MSTORE PUSH1 0x20 ADD SWAP1 PUSH1 0x1 ADD SWAP1 PUSH2 0x1FB JUMP JUMPDEST POP POP POP POP DUP2 MSTORE POP POP DUP2 MSTORE PUSH1 0x20 ADD SWAP1 PUSH1 0x1 ADD SWAP1 PUSH2 0x10B JUMP JUMPDEST POP POP POP POP SWAP1 POP SWAP1 JUMP JUMPDEST PUSH0 DUP2 DUP2 SLOAD DUP2 LT PUSH2 0x378 JUMPI PUSH0 DUP1 REVERT JUMPDEST SWAP1 PUSH0 MSTORE PUSH1 0x20 PUSH0 KECCAK256 SWAP1 PUSH1 0x3 MUL ADD PUSH0 SWAP2 POP SWAP1 POP DUP1 PUSH0 ADD DUP1 SLOAD PUSH2 0x397 SWAP1 PUSH2 0x96C JUMP JUMPDEST DUP1 PUSH1 0x1F ADD PUSH1 0x20 DUP1 SWAP2 DIV MUL PUSH1 0x20 ADD PUSH1 0x40 MLOAD SWAP1 DUP2 ADD PUSH1 0x40 MSTORE DUP1 SWAP3 SWAP2 SWAP1 DUP2 DUP2 MSTORE PUSH1 0x20 ADD DUP3 DUP1 SLOAD PUSH2 0x3C3 SWAP1 PUSH2 0x96C JUMP JUMPDEST DUP1 ISZERO PUSH2 0x40E JUMPI DUP1 PUSH1 0x1F LT PUSH2 0x3E5 JUMPI PUSH2 0x100 DUP1 DUP4 SLOAD DIV MUL DUP4 MSTORE SWAP2 PUSH1 0x20 ADD SWAP2 PUSH2 0x40E JUMP JUMPDEST DUP3 ADD SWAP2 SWAP1 PUSH0 MSTORE PUSH1 0x20 PUSH0 KECCAK256 SWAP1 JUMPDEST DUP2 SLOAD DUP2 MSTORE SWAP1 PUSH1 0x1 ADD SWAP1 PUSH1 0x20 ADD DUP1 DUP4 GT PUSH2 0x3F1 JUMPI DUP3 SWAP1 SUB PUSH1 0x1F AND DUP3 ADD SWAP2 JUMPDEST POP POP POP POP POP SWAP1 DUP1 PUSH1 0x1 ADD PUSH0 SWAP1 SLOAD SWAP1 PUSH2 0x100 EXP SWAP1 DIV PUSH1 0xFF AND SWAP1 POP DUP3 JUMP JUMPDEST PUSH1 0x60 PUSH2 0x434 PUSH2 0xE9 JUMP JUMPDEST DUP3 DUP2 MLOAD DUP2 LT PUSH2 0x446 JUMPI PUSH2 0x445 PUSH2 0x99C JUMP JUMPDEST JUMPDEST PUSH1 0x20 MUL PUSH1 0x20 ADD ADD MLOAD PUSH1 0x40 ADD MLOAD SWAP1 POP SWAP2 SWAP1 POP JUMP JUMPDEST PUSH0 DUP2 SWAP1 DUP1 PUSH1 0x1 DUP2 SLOAD ADD DUP1 DUP3 SSTORE DUP1 SWAP2 POP POP PUSH1 0x1 SWAP1 SUB SWAP1 PUSH0 MSTORE PUSH1 0x20 PUSH0 KECCAK256 SWAP1 PUSH1 0x3 MUL ADD PUSH0 SWAP1 SWAP2 SWAP1 SWAP2 SWAP1 SWAP2 POP DUP2 DUP2 PUSH2 0x48D SWAP2 SWAP1 PUSH2 0x12F6 JUMP JUMPDEST POP POP POP JUMP JUMPDEST PUSH0 DUP2 MLOAD SWAP1 POP SWAP2 SWAP1 POP JUMP JUMPDEST PUSH0 DUP3 DUP3 MSTORE PUSH1 0x20 DUP3 ADD SWAP1 POP SWAP3 SWAP2 POP POP JUMP JUMPDEST PUSH0 DUP2 SWAP1 POP PUSH1 0x20 DUP3 ADD SWAP1 POP SWAP2 SWAP1 POP JUMP JUMPDEST PUSH0 DUP2 MLOAD SWAP1 POP SWAP2 SWAP1 POP JUMP JUMPDEST PUSH0 DUP3 DUP3 MSTORE PUSH1 0x20 DUP3 ADD SWAP1 POP SWAP3 SWAP2 POP POP JUMP JUMPDEST DUP3 DUP2 DUP4 MCOPY PUSH0 DUP4 DUP4 ADD MSTORE POP POP POP JUMP JUMPDEST PUSH0 PUSH1 0x1F NOT PUSH1 0x1F DUP4 ADD AND SWAP1 POP SWAP2 SWAP1 POP JUMP JUMPDEST PUSH0 PUSH2 0x4FD DUP3 PUSH2 0x4BB JUMP JUMPDEST PUSH2 0x507 DUP2 DUP6 PUSH2 0x4C5 JUMP JUMPDEST SWAP4 POP PUSH2 0x517 DUP2 DUP6 PUSH1 0x20 DUP7 ADD PUSH2 0x4D5 JUMP JUMPDEST PUSH2 0x520 DUP2 PUSH2 0x4E3 JUMP JUMPDEST DUP5 ADD SWAP2 POP POP SWAP3 SWAP2 POP POP JUMP JUMPDEST PUSH0 PUSH1 0xFF DUP3 AND SWAP1 POP SWAP2 SWAP1 POP JUMP JUMPDEST PUSH2 0x540 DUP2 PUSH2 0x52B JUMP JUMPDEST DUP3 MSTORE POP POP JUMP JUMPDEST PUSH0 DUP2 MLOAD SWAP1 POP SWAP2 SWAP1 POP JUMP JUMPDEST PUSH0 DUP3 DUP3 MSTORE PUSH1 0x20 DUP3 ADD SWAP1 POP SWAP3 SWAP2 POP POP JUMP JUMPDEST PUSH0 DUP2 SWAP1 POP PUSH1 0x20 DUP3 ADD SWAP1 POP SWAP2 SWAP1 POP JUMP JUMPDEST PUSH0 PUSH1 0x40 DUP4 ADD PUSH0 DUP4 ADD MLOAD DUP5 DUP3 SUB PUSH0 DUP7 ADD MSTORE PUSH2 0x589 DUP3 DUP3 PUSH2 0x4F3 JUMP JUMPDEST SWAP2 POP POP PUSH1 0x20 DUP4 ADD MLOAD DUP5 DUP3 SUB PUSH1 0x20 DUP7 ADD MSTORE PUSH2 0x5A3 DUP3 DUP3 PUSH2 0x4F3 JUMP JUMPDEST SWAP2 POP POP DUP1 SWAP2 POP POP SWAP3 SWAP2 POP POP JUMP JUMPDEST PUSH0 PUSH2 0x5BB DUP4 DUP4 PUSH2 0x56F JUMP JUMPDEST SWAP1 POP SWAP3 SWAP2 POP POP JUMP JUMPDEST PUSH0 PUSH1 0x20 DUP3 ADD SWAP1 POP SWAP2 SWAP1 POP JUMP JUMPDEST PUSH0 PUSH2 0x5D9 DUP3 PUSH2 0x546 JUMP JUMPDEST PUSH2 0x5E3 DUP2 DUP6 PUSH2 0x550 JUMP JUMPDEST SWAP4 POP DUP4 PUSH1 0x20 DUP3 MUL DUP6 ADD PUSH2 0x5F5 DUP6 PUSH2 0x560 JUMP JUMPDEST DUP1 PUSH0 JUMPDEST DUP6 DUP2 LT ISZERO PUSH2 0x630 JUMPI DUP5 DUP5 SUB DUP10 MSTORE DUP2 MLOAD PUSH2 0x611 DUP6 DUP3 PUSH2 0x5B0 JUMP JUMPDEST SWAP5 POP PUSH2 0x61C DUP4 PUSH2 0x5C3 JUMP JUMPDEST SWAP3 POP PUSH1 0x20 DUP11 ADD SWAP10 POP POP PUSH1 0x1 DUP2 ADD SWAP1 POP PUSH2 0x5F8 JUMP JUMPDEST POP DUP3 SWAP8 POP DUP8 SWAP6 POP POP POP POP POP POP SWAP3 SWAP2 POP POP JUMP JUMPDEST PUSH0 PUSH1 0x60 DUP4 ADD PUSH0 DUP4 ADD MLOAD DUP5 DUP3 SUB PUSH0 DUP7 ADD MSTORE PUSH2 0x65C DUP3 DUP3 PUSH2 0x4F3 JUMP JUMPDEST SWAP2 POP POP PUSH1 0x20 DUP4 ADD MLOAD PUSH2 0x671 PUSH1 0x20 DUP7 ADD DUP3 PUSH2 0x537 JUMP JUMPDEST POP PUSH1 0x40 DUP4 ADD MLOAD DUP5 DUP3 SUB PUSH1 0x40 DUP7 ADD MSTORE PUSH2 0x689 DUP3 DUP3 PUSH2 0x5CF JUMP JUMPDEST SWAP2 POP POP DUP1 SWAP2 POP POP SWAP3 SWAP2 POP POP JUMP JUMPDEST PUSH0 PUSH2 0x6A1 DUP4 DUP4 PUSH2 0x642 JUMP JUMPDEST SWAP1 POP SWAP3 SWAP2 POP POP JUMP JUMPDEST PUSH0 PUSH1 0x20 DUP3 ADD SWAP1 POP SWAP2 SWAP1 POP JUMP JUMPDEST PUSH0 PUSH2 0x6BF DUP3 PUSH2 0x492 JUMP JUMPDEST PUSH2 0x6C9 DUP2 DUP6 PUSH2 0x49C JUMP JUMPDEST SWAP4 POP DUP4 PUSH1 0x20 DUP3 MUL DUP6 ADD PUSH2 0x6DB DUP6 PUSH2 0x4AC JUMP JUMPDEST DUP1 PUSH0 JUMPDEST DUP6 DUP2 LT ISZERO PUSH2 0x716 JUMPI DUP5 DUP5 SUB DUP10 MSTORE DUP2 MLOAD PUSH2 0x6F7 DUP6 DUP3 PUSH2 0x696 JUMP JUMPDEST SWAP5 POP PUSH2 0x702 DUP4 PUSH2 0x6A9 JUMP JUMPDEST SWAP3 POP PUSH1 0x20 DUP11 ADD SWAP10 POP POP PUSH1 0x1 DUP2 ADD SWAP1 POP PUSH2 0x6DE JUMP JUMPDEST POP DUP3 SWAP8 POP DUP8 SWAP6 POP POP POP POP POP POP SWAP3 SWAP2 POP POP JUMP JUMPDEST PUSH0 PUSH1 0x20 DUP3 ADD SWAP1 POP DUP2 DUP2 SUB PUSH0 DUP4 ADD MSTORE PUSH2 0x740 DUP2 DUP5 PUSH2 0x6B5 JUMP JUMPDEST SWAP1 POP SWAP3 SWAP2 POP POP JUMP JUMPDEST PUSH0 PUSH0 REVERT JUMPDEST PUSH0 PUSH0 REVERT JUMPDEST PUSH0 DUP2 SWAP1 POP SWAP2 SWAP1 POP JUMP JUMPDEST PUSH2 0x762 DUP2 PUSH2 0x750 JUMP JUMPDEST DUP2 EQ PUSH2 0x76C JUMPI PUSH0 PUSH0 REVERT JUMPDEST POP JUMP JUMPDEST PUSH0 DUP2 CALLDATALOAD SWAP1 POP PUSH2 0x77D DUP2 PUSH2 0x759 JUMP JUMPDEST SWAP3 SWAP2 POP POP JUMP JUMPDEST PUSH0 PUSH1 0x20 DUP3 DUP5 SUB SLT ISZERO PUSH2 0x798 JUMPI PUSH2 0x797 PUSH2 0x748 JUMP JUMPDEST JUMPDEST PUSH0 PUSH2 0x7A5 DUP5 DUP3 DUP6 ADD PUSH2 0x76F JUMP JUMPDEST SWAP2 POP POP SWAP3 SWAP2 POP POP JUMP JUMPDEST PUSH0 DUP3 DUP3 MSTORE PUSH1 0x20 DUP3 ADD SWAP1 POP SWAP3 SWAP2 POP POP JUMP JUMPDEST PUSH0 PUSH2 0x7C8 DUP3 PUSH2 0x4BB JUMP JUMPDEST PUSH2 0x7D2 DUP2 DUP6 PUSH2 0x7AE JUMP JUMPDEST SWAP4 POP PUSH2 0x7E2 DUP2 DUP6 PUSH1 0x20 DUP7 ADD PUSH2 0x4D5 JUMP JUMPDEST PUSH2 0x7EB DUP2 PUSH2 0x4E3 JUMP JUMPDEST DUP5 ADD SWAP2 POP POP SWAP3 SWAP2 POP POP JUMP JUMPDEST PUSH2 0x7FF DUP2 PUSH2 0x52B JUMP JUMPDEST DUP3 MSTORE POP POP JUMP JUMPDEST PUSH0 PUSH1 0x40 DUP3 ADD SWAP1 POP DUP2 DUP2 SUB PUSH0 DUP4 ADD MSTORE PUSH2 0x81D DUP2 DUP6 PUSH2 0x7BE JUMP JUMPDEST SWAP1 POP PUSH2 0x82C PUSH1 0x20 DUP4 ADD DUP5 PUSH2 0x7F6 JUMP JUMPDEST SWAP4 SWAP3 POP POP POP JUMP JUMPDEST PUSH0 DUP3 DUP3 MSTORE PUSH1 0x20 DUP3 ADD SWAP1 POP SWAP3 SWAP2 POP POP JUMP JUMPDEST PUSH0 PUSH2 0x84D DUP3 PUSH2 0x546 JUMP JUMPDEST PUSH2 0x857 DUP2 DUP6 PUSH2 0x833 JUMP JUMPDEST SWAP4 POP DUP4 PUSH1 0x20 DUP3 MUL DUP6 ADD PUSH2 0x869 DUP6 PUSH2 0x560 JUMP JUMPDEST DUP1 PUSH0 JUMPDEST DUP6 DUP2 LT ISZERO PUSH2 0x8A4 JUMPI DUP5 DUP5 SUB DUP10 MSTORE DUP2 MLOAD PUSH2 0x885 DUP6 DUP3 PUSH2 0x5B0 JUMP JUMPDEST SWAP5 POP PUSH2 0x890 DUP4 PUSH2 0x5C3 JUMP JUMPDEST SWAP3 POP PUSH1 0x20 DUP11 ADD SWAP10 POP POP PUSH1 0x1 DUP2 ADD SWAP1 POP PUSH2 0x86C JUMP JUMPDEST POP DUP3 SWAP8 POP DUP8 SWAP6 POP POP POP POP POP POP SWAP3 SWAP2 POP POP JUMP JUMPDEST PUSH0 PUSH1 0x20 DUP3 ADD SWAP1 POP DUP2 DUP2 SUB PUSH0 DUP4 ADD MSTORE PUSH2 0x8CE DUP2 DUP5 PUSH2 0x843 JUMP JUMPDEST SWAP1 POP SWAP3 SWAP2 POP POP JUMP JUMPDEST PUSH0 PUSH0 REVERT JUMPDEST PUSH0 PUSH1 0x60 DUP3 DUP5 SUB SLT ISZERO PUSH2 0x8EF JUMPI PUSH2 0x8EE PUSH2 0x8D6 JUMP JUMPDEST JUMPDEST DUP2 SWAP1 POP SWAP3 SWAP2 POP POP JUMP JUMPDEST PUSH0 PUSH1 0x20 DUP3 DUP5 SUB SLT ISZERO PUSH2 0x90D JUMPI PUSH2 0x90C PUSH2 0x748 JUMP JUMPDEST JUMPDEST PUSH0 DUP3 ADD CALLDATALOAD PUSH8 0xFFFFFFFFFFFFFFFF DUP2 GT ISZERO PUSH2 0x92A JUMPI PUSH2 0x929 PUSH2 0x74C JUMP JUMPDEST JUMPDEST PUSH2 0x936 DUP5 DUP3 DUP6 ADD PUSH2 0x8DA JUMP JUMPDEST SWAP2 POP POP SWAP3 SWAP2 POP POP JUMP JUMPDEST PUSH32 0x4E487B7100000000000000000000000000000000000000000000000000000000 PUSH0 MSTORE PUSH1 0x22 PUSH1 0x4 MSTORE PUSH1 0x24 PUSH0 REVERT JUMPDEST PUSH0 PUSH1 0x2 DUP3 DIV SWAP1 POP PUSH1 0x1 DUP3 AND DUP1 PUSH2 0x983 JUMPI PUSH1 0x7F DUP3 AND SWAP2 POP JUMPDEST PUSH1 0x20 DUP3 LT DUP2 SUB PUSH2 0x996 JUMPI PUSH2 0x995 PUSH2 0x93F JUMP JUMPDEST JUMPDEST POP SWAP2 SWAP1 POP JUMP JUMPDEST PUSH32 0x4E487B7100000000000000000000000000000000000000000000000000000000 PUSH0 MSTORE PUSH1 0x32 PUSH1 0x4 MSTORE PUSH1 0x24 PUSH0 REVERT JUMPDEST PUSH32 0x4E487B7100000000000000000000000000000000000000000000000000000000 PUSH0 MSTORE PUSH0 PUSH1 0x4 MSTORE PUSH1 0x24 PUSH0 REVERT JUMPDEST PUSH0 PUSH0 REVERT JUMPDEST PUSH0 PUSH0 REVERT JUMPDEST PUSH0 PUSH0 REVERT JUMPDEST PUSH0 PUSH0 DUP4 CALLDATALOAD PUSH1 0x1 PUSH1 0x20 SUB DUP5 CALLDATASIZE SUB SUB DUP2 SLT PUSH2 0xA1D JUMPI PUSH2 0xA1C PUSH2 0x9F5 JUMP JUMPDEST JUMPDEST DUP1 DUP5 ADD SWAP3 POP DUP3 CALLDATALOAD SWAP2 POP PUSH8 0xFFFFFFFFFFFFFFFF DUP3 GT ISZERO PUSH2 0xA3F JUMPI PUSH2 0xA3E PUSH2 0x9F9 JUMP JUMPDEST JUMPDEST PUSH1 0x20 DUP4 ADD SWAP3 POP PUSH1 0x1 DUP3 MUL CALLDATASIZE SUB DUP4 SGT ISZERO PUSH2 0xA5B JUMPI PUSH2 0xA5A PUSH2 0x9FD JUMP JUMPDEST JUMPDEST POP SWAP3 POP SWAP3 SWAP1 POP JUMP JUMPDEST PUSH0 DUP3 SWAP1 POP SWAP3 SWAP2 POP POP JUMP JUMPDEST PUSH32 0x4E487B7100000000000000000000000000000000000000000000000000000000 PUSH0 MSTORE PUSH1 0x41 PUSH1 0x4 MSTORE PUSH1 0x24 PUSH0 REVERT JUMPDEST PUSH0 DUP2 SWAP1 POP DUP2 PUSH0 MSTORE PUSH1 0x20 PUSH0 KECCAK256 SWAP1 POP SWAP2 SWAP1 POP JUMP JUMPDEST PUSH0 PUSH1 0x20 PUSH1 0x1F DUP4 ADD DIV SWAP1 POP SWAP2 SWAP1 POP JUMP JUMPDEST PUSH0 DUP3 DUP3 SHL SWAP1 POP SWAP3 SWAP2 POP POP JUMP JUMPDEST PUSH0 PUSH1 0x8 DUP4 MUL PUSH2 0xAF6 PUSH32 0xFFFFFFFFFFFFFFFFFFFFFFFFFFFFFFFFFFFFFFFFFFFFFFFFFFFFFFFFFFFFFFFF DUP3 PUSH2 0xABB JUMP JUMPDEST PUSH2 0xB00 DUP7 DUP4 PUSH2 0xABB JUMP JUMPDEST SWAP6 POP DUP1 NOT DUP5 AND SWAP4 POP DUP1 DUP7 AND DUP5 OR SWAP3 POP POP POP SWAP4 SWAP3 POP POP POP JUMP JUMPDEST PUSH0 DUP2 SWAP1 POP SWAP2 SWAP1 POP JUMP JUMPDEST PUSH0 PUSH2 0xB3B PUSH2 0xB36 PUSH2 0xB31 DUP5 PUSH2 0x750 JUMP JUMPDEST PUSH2 0xB18 JUMP JUMPDEST PUSH2 0x750 JUMP JUMPDEST SWAP1 POP SWAP2 SWAP1 POP JUMP JUMPDEST PUSH0 DUP2 SWAP1 POP SWAP2 SWAP1 POP JUMP JUMPDEST PUSH2 0xB54 DUP4 PUSH2 0xB21 JUMP JUMPDEST PUSH2 0xB68 PUSH2 0xB60 DUP3 PUSH2 0xB42 JUMP JUMPDEST DUP5 DUP5 SLOAD PUSH2 0xAC7 JUMP JUMPDEST DUP3 SSTORE POP POP POP POP JUMP JUMPDEST PUSH0 PUSH0 SWAP1 POP SWAP1 JUMP JUMPDEST PUSH2 0xB7F PUSH2 0xB70 JUMP JUMPDEST PUSH2 0xB8A DUP2 DUP5 DUP5 PUSH2 0xB4B JUMP JUMPDEST POP POP POP JUMP JUMPDEST JUMPDEST DUP2 DUP2 LT ISZERO PUSH2 0xBAD JUMPI PUSH2 0xBA2 PUSH0 DUP3 PUSH2 0xB77 JUMP JUMPDEST PUSH1 0x1 DUP2 ADD SWAP1 POP PUSH2 0xB90 JUMP JUMPDEST POP POP JUMP JUMPDEST PUSH1 0x1F DUP3 GT ISZERO PUSH2 0xBF2 JUMPI PUSH2 0xBC3 DUP2 PUSH2 0xA9A JUMP JUMPDEST PUSH2 0xBCC DUP5 PUSH2 0xAAC JUMP JUMPDEST DUP2 ADD PUSH1 0x20 DUP6 LT ISZERO PUSH2 0xBDB JUMPI DUP2 SWAP1 POP JUMPDEST PUSH2 0xBEF PUSH2 0xBE7 DUP6 PUSH2 0xAAC JUMP JUMPDEST DUP4 ADD DUP3 PUSH2 0xB8F JUMP JUMPDEST POP POP JUMPDEST POP POP POP JUMP JUMPDEST PUSH0 DUP3 DUP3 SHR SWAP1 POP SWAP3 SWAP2 POP POP JUMP JUMPDEST PUSH0 PUSH2 0xC12 PUSH0 NOT DUP5 PUSH1 0x8 MUL PUSH2 0xBF7 JUMP JUMPDEST NOT DUP1 DUP4 AND SWAP2 POP POP SWAP3 SWAP2 POP POP JUMP JUMPDEST PUSH0 PUSH2 0xC2A DUP4 DUP4 PUSH2 0xC03 JUMP JUMPDEST SWAP2 POP DUP3 PUSH1 0x2 MUL DUP3 OR SWAP1 POP SWAP3 SWAP2 POP POP JUMP JUMPDEST PUSH2 0xC44 DUP4 DUP4 PUSH2 0xA63 JUMP JUMPDEST PUSH8 0xFFFFFFFFFFFFFFFF DUP2 GT ISZERO PUSH2 0xC5D JUMPI PUSH2 0xC5C PUSH2 0xA6D JUMP JUMPDEST JUMPDEST PUSH2 0xC67 DUP3 SLOAD PUSH2 0x96C JUMP JUMPDEST PUSH2 0xC72 DUP3 DUP3 DUP6 PUSH2 0xBB1 JUMP JUMPDEST PUSH0 PUSH1 0x1F DUP4 GT PUSH1 0x1 DUP2 EQ PUSH2 0xC9F JUMPI PUSH0 DUP5 ISZERO PUSH2 0xC8D JUMPI DUP3 DUP8 ADD CALLDATALOAD SWAP1 POP JUMPDEST PUSH2 0xC97 DUP6 DUP3 PUSH2 0xC1F JUMP JUMPDEST DUP7 SSTORE POP PUSH2 0xCFE JUMP JUMPDEST PUSH1 0x1F NOT DUP5 AND PUSH2 0xCAD DUP7 PUSH2 0xA9A JUMP JUMPDEST PUSH0 JUMPDEST DUP3 DUP2 LT ISZERO PUSH2 0xCD4 JUMPI DUP5 DUP10 ADD CALLDATALOAD DUP3 SSTORE PUSH1 0x1 DUP3 ADD SWAP2 POP PUSH1 0x20 DUP6 ADD SWAP5 POP PUSH1 0x20 DUP2 ADD SWAP1 POP PUSH2 0xCAF JUMP JUMPDEST DUP7 DUP4 LT ISZERO PUSH2 0xCF1 JUMPI DUP5 DUP10 ADD CALLDATALOAD PUSH2 0xCED PUSH1 0x1F DUP10 AND DUP3 PUSH2 0xC03 JUMP JUMPDEST DUP4 SSTORE POP JUMPDEST PUSH1 0x1 PUSH1 0x2 DUP9 MUL ADD DUP9 SSTORE POP POP POP JUMPDEST POP POP POP POP POP POP POP JUMP JUMPDEST PUSH2 0xD12 DUP4 DUP4 DUP4 PUSH2 0xC3A JUMP JUMPDEST POP POP POP JUMP JUMPDEST PUSH2 0xD20 DUP2 PUSH2 0x52B JUMP JUMPDEST DUP2 EQ PUSH2 0xD2A JUMPI PUSH0 PUSH0 REVERT JUMPDEST POP JUMP JUMPDEST PUSH0 DUP2 CALLDATALOAD PUSH2 0xD39 DUP2 PUSH2 0xD17 JUMP JUMPDEST DUP1 SWAP2 POP POP SWAP2 SWAP1 POP JUMP JUMPDEST PUSH0 DUP2 PUSH0 SHL SWAP1 POP SWAP2 SWAP1 POP JUMP JUMPDEST PUSH0 PUSH1 0xFF PUSH2 0xD59 DUP5 PUSH2 0xD42 JUMP JUMPDEST SWAP4 POP DUP1 NOT DUP4 AND SWAP3 POP DUP1 DUP5 AND DUP4 OR SWAP2 POP POP SWAP3 SWAP2 POP POP JUMP JUMPDEST PUSH0 PUSH2 0xD89 PUSH2 0xD84 PUSH2 0xD7F DUP5 PUSH2 0x52B JUMP JUMPDEST PUSH2 0xB18 JUMP JUMPDEST PUSH2 0x52B JUMP JUMPDEST SWAP1 POP SWAP2 SWAP1 POP JUMP JUMPDEST PUSH0 DUP2 SWAP1 POP SWAP2 SWAP1 POP JUMP JUMPDEST PUSH2 0xDA2 DUP3 PUSH2 0xD6F JUMP JUMPDEST PUSH2 0xDB5 PUSH2 0xDAE DUP3 PUSH2 0xD90 JUMP JUMPDEST DUP4 SLOAD PUSH2 0xD4D JUMP JUMPDEST DUP3 SSTORE POP POP POP JUMP JUMPDEST PUSH0 PUSH0 DUP4 CALLDATALOAD PUSH1 0x1 PUSH1 0x20 SUB DUP5 CALLDATASIZE SUB SUB DUP2 SLT PUSH2 0xDD8 JUMPI PUSH2 0xDD7 PUSH2 0x9F5 JUMP JUMPDEST JUMPDEST DUP1 DUP5 ADD SWAP3 POP DUP3 CALLDATALOAD SWAP2 POP PUSH8 0xFFFFFFFFFFFFFFFF DUP3 GT ISZERO PUSH2 0xDFA JUMPI PUSH2 0xDF9 PUSH2 0x9F9 JUMP JUMPDEST JUMPDEST PUSH1 0x20 DUP4 ADD SWAP3 POP PUSH1 0x20 DUP3 MUL CALLDATASIZE SUB DUP4 SGT ISZERO PUSH2 0xE16 JUMPI PUSH2 0xE15 PUSH2 0x9FD JUMP JUMPDEST JUMPDEST POP SWAP3 POP SWAP3 SWAP1 POP JUMP JUMPDEST PUSH0 DUP2 SWAP1 POP SWAP2 SWAP1 POP JUMP JUMPDEST PUSH0 DUP3 CALLDATALOAD PUSH1 0x1 PUSH1 0x40 SUB DUP4 CALLDATASIZE SUB SUB DUP2 SLT PUSH2 0xE42 JUMPI PUSH2 0xE41 PUSH2 0x9F5 JUMP JUMPDEST JUMPDEST DUP1 DUP4 ADD SWAP2 POP POP SWAP3 SWAP2 POP POP JUMP JUMPDEST PUSH0 DUP2 SLOAD SWAP1 POP SWAP2 SWAP1 POP JUMP JUMPDEST PUSH32 0x4E487B7100000000000000000000000000000000000000000000000000000000 PUSH0 MSTORE PUSH1 0x11 PUSH1 0x4 MSTORE PUSH1 0x24 PUSH0 REVERT JUMPDEST PUSH0 PUSH2 0xE8F DUP3 PUSH2 0x750 JUMP JUMPDEST SWAP2 POP PUSH2 0xE9A DUP4 PUSH2 0x750 JUMP JUMPDEST SWAP3 POP DUP3 DUP3 MUL PUSH2 0xEA8 DUP2 PUSH2 0x750 JUMP JUMPDEST SWAP2 POP DUP3 DUP3 DIV DUP5 EQ DUP4 ISZERO OR PUSH2 0xEBF JUMPI PUSH2 0xEBE PUSH2 0xE58 JUMP JUMPDEST JUMPDEST POP SWAP3 SWAP2 POP POP JUMP JUMPDEST PUSH0 DUP2 SWAP1 POP PUSH2 0xED5 DUP3 PUSH1 0x2 PUSH2 0xE85 JUMP JUMPDEST SWAP1 POP SWAP2 SWAP1 POP JUMP JUMPDEST PUSH0 DUP2 SWAP1 POP DUP2 PUSH0 MSTORE PUSH1 0x20 PUSH0 KECCAK256 SWAP1 POP SWAP2 SWAP1 POP JUMP JUMPDEST PUSH2 0xF1E PUSH32 0xFFFFFFFFFFFFFFFFFFFFFFFFFFFFFFFFFFFFFFFFFFFFFFFFFFFFFFFFFFFFFFFF DUP4 PUSH1 0x20 SUB PUSH1 0x8 MUL PUSH2 0xBF7 JUMP JUMPDEST DUP2 SLOAD DUP2 AND DUP3 SSTORE POP POP POP JUMP JUMPDEST PUSH2 0xF32 DUP2 PUSH2 0xA9A JUMP JUMPDEST PUSH2 0xF3D DUP4 DUP3 SLOAD PUSH2 0xC1F JUMP JUMPDEST DUP1 DUP4 SSTORE PUSH0 DUP3 SSTORE POP POP POP POP JUMP JUMPDEST PUSH1 0x20 DUP5 LT PUSH0 DUP2 EQ PUSH2 0xFA3 JUMPI PUSH1 0x1F DUP5 GT PUSH1 0x1 DUP2 EQ PUSH2 0xF71 JUMPI PUSH2 0xF6A DUP7 DUP6 PUSH2 0xC1F JUMP JUMPDEST DUP4 SSTORE PUSH2 0xF9D JUMP JUMPDEST PUSH2 0xF7A DUP4 PUSH2 0xA9A JUMP JUMPDEST PUSH2 0xF91 PUSH2 0xF86 DUP8 PUSH2 0xAAC JUMP JUMPDEST DUP3 ADD PUSH1 0x1 DUP4 ADD PUSH2 0xB8F JUMP JUMPDEST PUSH2 0xF9B DUP8 DUP6 PUSH2 0xF29 JUMP JUMPDEST POP JUMPDEST POP PUSH2 0xFF0 JUMP JUMPDEST PUSH2 0xFAC DUP3 PUSH2 0xA9A JUMP JUMPDEST PUSH2 0xFB5 DUP7 PUSH2 0xAAC JUMP JUMPDEST DUP2 ADD PUSH1 0x1F DUP8 AND DUP1 ISZERO PUSH2 0xFCF JUMPI PUSH2 0xFCE DUP2 PUSH1 0x1 DUP5 SUB PUSH2 0xEEE JUMP JUMPDEST JUMPDEST PUSH2 0xFE3 PUSH2 0xFDB DUP9 PUSH2 0xAAC JUMP JUMPDEST DUP5 ADD DUP4 PUSH2 0xB8F JUMP JUMPDEST PUSH1 0x1 DUP9 PUSH1 0x2 MUL OR DUP6 SSTORE POP POP POP JUMPDEST POP POP POP POP POP JUMP JUMPDEST PUSH9 0x10000000000000000 DUP5 GT ISZERO PUSH2 0x1011 JUMPI PUSH2 0x1010 PUSH2 0xA6D JUMP JUMPDEST JUMPDEST PUSH1 0x20 DUP4 LT PUSH0 DUP2 EQ PUSH2 0x105A JUMPI PUSH1 0x20 DUP6 LT PUSH0 DUP2 EQ PUSH2 0x1038 JUMPI PUSH2 0x1031 DUP7 DUP6 PUSH2 0xC1F JUMP JUMPDEST DUP4 SSTORE PUSH2 0x1054 JUMP JUMPDEST DUP4 PUSH1 0xFF NOT AND SWAP4 POP DUP4 PUSH2 0x1049 DUP5 PUSH2 0xA9A JUMP JUMPDEST SSTORE PUSH1 0x1 DUP7 PUSH1 0x2 MUL ADD DUP4 SSTORE JUMPDEST POP PUSH2 0x1064 JUMP JUMPDEST PUSH1 0x1 DUP6 PUSH1 0x2 MUL ADD DUP3 SSTORE JUMPDEST POP POP POP POP POP JUMP JUMPDEST DUP1 SLOAD PUSH2 0x1076 DUP2 PUSH2 0x96C JUMP JUMPDEST DUP1 DUP5 GT ISZERO PUSH2 0x108B JUMPI PUSH2 0x108A DUP5 DUP3 DUP5 DUP7 PUSH2 0xFF7 JUMP JUMPDEST JUMPDEST DUP1 DUP5 LT ISZERO PUSH2 0x10A0 JUMPI PUSH2 0x109F DUP5 DUP3 DUP5 DUP7 PUSH2 0xF49 JUMP JUMPDEST JUMPDEST POP POP POP POP JUMP JUMPDEST DUP2 DUP2 LT ISZERO PUSH2 0x10C3 JUMPI PUSH2 0x10B8 PUSH0 DUP3 PUSH2 0xB77 JUMP JUMPDEST PUSH1 0x1 DUP2 ADD SWAP1 POP PUSH2 0x10A6 JUMP JUMPDEST POP POP JUMP JUMPDEST PUSH2 0x10D1 PUSH0 DUP3 PUSH2 0x106B JUMP JUMPDEST POP JUMP JUMPDEST PUSH0 DUP3 EQ PUSH2 0x10E4 JUMPI PUSH2 0x10E3 PUSH2 0x9C9 JUMP JUMPDEST JUMPDEST PUSH2 0x10ED DUP2 PUSH2 0x10C7 JUMP JUMPDEST POP POP JUMP JUMPDEST PUSH2 0x10FD PUSH0 PUSH0 DUP4 ADD PUSH2 0x10D4 JUMP JUMPDEST PUSH2 0x110A PUSH0 PUSH1 0x1 DUP4 ADD PUSH2 0x10D4 JUMP JUMPDEST POP JUMP JUMPDEST PUSH0 DUP3 EQ PUSH2 0x111D JUMPI PUSH2 0x111C PUSH2 0x9C9 JUMP JUMPDEST JUMPDEST PUSH2 0x1126 DUP2 PUSH2 0x10F1 JUMP JUMPDEST POP POP JUMP JUMPDEST JUMPDEST DUP2 DUP2 LT ISZERO PUSH2 0x1148 JUMPI PUSH2 0x113D PUSH0 DUP3 PUSH2 0x110D JUMP JUMPDEST PUSH1 0x2 DUP2 ADD SWAP1 POP PUSH2 0x112B JUMP JUMPDEST POP POP JUMP JUMPDEST DUP2 DUP4 LT ISZERO PUSH2 0x1185 JUMPI PUSH2 0x115D DUP3 PUSH2 0xEC6 JUMP JUMPDEST PUSH2 0x1166 DUP5 PUSH2 0xEC6 JUMP JUMPDEST PUSH2 0x116F DUP4 PUSH2 0xEDC JUMP JUMPDEST DUP2 DUP2 ADD DUP4 DUP3 ADD PUSH2 0x117F DUP2 DUP4 PUSH2 0x112A JUMP JUMPDEST POP POP POP POP POP JUMPDEST POP POP POP JUMP JUMPDEST PUSH9 0x10000000000000000 DUP3 GT ISZERO PUSH2 0x11A4 JUMPI PUSH2 0x11A3 PUSH2 0xA6D JUMP JUMPDEST JUMPDEST PUSH2 0x11AD DUP2 PUSH2 0xE4E JUMP JUMPDEST DUP3 DUP3 SSTORE PUSH2 0x11BB DUP4 DUP3 DUP5 PUSH2 0x114C JUMP JUMPDEST POP POP POP JUMP JUMPDEST PUSH0 DUP3 SWAP1 POP SWAP3 SWAP2 POP POP JUMP JUMPDEST PUSH0 DUP2 ADD PUSH0 DUP4 ADD PUSH2 0x11DA DUP2 DUP6 PUSH2 0xA01 JUMP JUMPDEST PUSH2 0x11E5 DUP2 DUP4 DUP7 PUSH2 0xD07 JUMP JUMPDEST POP POP POP POP PUSH1 0x1 DUP2 ADD PUSH1 0x20 DUP4 ADD PUSH2 0x11FB DUP2 DUP6 PUSH2 0xA01 JUMP JUMPDEST PUSH2 0x1206 DUP2 DUP4 DUP7 PUSH2 0xD07 JUMP JUMPDEST POP POP POP POP POP POP JUMP JUMPDEST PUSH2 0x1218 DUP3 DUP3 PUSH2 0x11CA JUMP JUMPDEST POP POP JUMP JUMPDEST PUSH2 0x1226 DUP4 DUP4 PUSH2 0x11C0 JUMP JUMPDEST PUSH2 0x1230 DUP2 DUP4 PUSH2 0x118A JUMP JUMPDEST PUSH2 0x1239 DUP4 PUSH2 0xE1E JUMP JUMPDEST PUSH2 0x1242 DUP4 PUSH2 0xEDC JUMP JUMPDEST PUSH0 JUMPDEST DUP4 DUP2 LT ISZERO PUSH2 0x1278 JUMPI PUSH2 0x1256 DUP4 DUP8 PUSH2 0xE27 JUMP JUMPDEST PUSH2 0x1260 DUP2 DUP5 PUSH2 0x120E JUMP JUMPDEST PUSH1 0x20 DUP5 ADD SWAP4 POP PUSH1 0x2 DUP4 ADD SWAP3 POP POP PUSH1 0x1 DUP2 ADD SWAP1 POP PUSH2 0x1244 JUMP JUMPDEST POP POP POP POP POP POP POP JUMP JUMPDEST PUSH2 0x128C DUP4 DUP4 DUP4 PUSH2 0x121C JUMP JUMPDEST POP POP POP JUMP JUMPDEST PUSH0 DUP2 ADD PUSH0 DUP4 ADD PUSH2 0x12A1 DUP2 DUP6 PUSH2 0xA01 JUMP JUMPDEST PUSH2 0x12AC DUP2 DUP4 DUP7 PUSH2 0xD07 JUMP JUMPDEST POP POP POP POP PUSH1 0x1 DUP2 ADD PUSH1 0x20 DUP4 ADD DUP1 PUSH2 0x12C2 DUP2 PUSH2 0xD2D JUMP JUMPDEST SWAP1 POP PUSH2 0x12CE DUP2 DUP5 PUSH2 0xD99 JUMP JUMPDEST POP POP POP PUSH1 0x2 DUP2 ADD PUSH1 0x40 DUP4 ADD PUSH2 0x12E3 DUP2 DUP6 PUSH2 0xDBC JUMP JUMPDEST PUSH2 0x12EE DUP2 DUP4 DUP7 PUSH2 0x1281 JUMP JUMPDEST POP POP POP POP POP POP JUMP JUMPDEST PUSH2 0x1300 DUP3 DUP3 PUSH2 0x1291 JUMP JUMPDEST POP POP JUMP INVALID LOG2 PUSH5 0x6970667358 0x22 SLT KECCAK256 SWAP13 GT DUP8 0xAD 0xA6 0xCD GAS DUP8 LOG3 PUSH3 0x9D01DA 0xCD JUMPF 0x5F87 PUSH6 0x41E37A767698 PUSH2 0xFF47 0xC5 0x27 0x22 0xDF SWAP10 PUSH5 0x736F6C6343 STOP ADDMOD 0x1E STOP CALLER "
				},
				"gasEstimates": {
					"creation": {
						"codeDepositCost": "984400",
						"executionCost": "1019",
						"totalCost": "985419"
					},
					"external": {
						"addPenson((string,uint8,(string,string)[]))": "infinite",
						"getHobbies(uint256)": "infinite",
						"getPersons()": "infinite",
						"persons(uint256)": "infinite"
					}
				},
				"methodIdentifiers": {
					"addPenson((string,uint8,(string,string)[]))": "f58252a7",
					"getHobbies(uint256)": "a94ca736",
					"getPersons()": "4c6b6c6f",
					"persons(uint256)": "a2f9eac6"
				}
			},
			"storageLayout": {
				"storage": [
					{
						"astId": 19,
						"contract": "TestStruct.sol:TestStruct",
						"label": "persons",
						"offset": 0,
						"slot": "0",
						"type": "t_array(t_struct(Penson)10_storage)dyn_storage"
					}
				],
				"types": {
					"t_array(t_struct(Hobby)15_storage)dyn_storage": {
						"base": "t_struct(Hobby)15_storage",
						"encoding": "dynamic_array",
						"label": "struct TestStruct.Hobby[]",
						"numberOfBytes": "32"
					},
					"t_array(t_struct(Penson)10_storage)dyn_storage": {
						"base": "t_struct(Penson)10_storage",
						"encoding": "dynamic_array",
						"label": "struct TestStruct.Penson[]",
						"numberOfBytes": "32"
					},
					"t_string_storage": {
						"encoding": "bytes",
						"label": "string",
						"numberOfBytes": "32"
					},
					"t_struct(Hobby)15_storage": {
						"encoding": "inplace",
						"label": "struct TestStruct.Hobby",
						"members": [
							{
								"astId": 12,
								"contract": "TestStruct.sol:TestStruct",
								"label": "label",
								"offset": 0,
								"slot": "0",
								"type": "t_string_storage"
							},
							{
								"astId": 14,
								"contract": "TestStruct.sol:TestStruct",
								"label": "value",
								"offset": 0,
								"slot": "1",
								"type": "t_string_storage"
							}
						],
						"numberOfBytes": "64"
					},
					"t_struct(Penson)10_storage": {
						"encoding": "inplace",
						"label": "struct TestStruct.Penson",
						"members": [
							{
								"astId": 3,
								"contract": "TestStruct.sol:TestStruct",
								"label": "name",
								"offset": 0,
								"slot": "0",
								"type": "t_string_storage"
							},
							{
								"astId": 5,
								"contract": "TestStruct.sol:TestStruct",
								"label": "age",
								"offset": 0,
								"slot": "1",
								"type": "t_uint8"
							},
							{
								"astId": 9,
								"contract": "TestStruct.sol:TestStruct",
								"label": "hobbies",
								"offset": 0,
								"slot": "2",
								"type": "t_array(t_struct(Hobby)15_storage)dyn_storage"
							}
						],
						"numberOfBytes": "96"
					},
					"t_uint8": {
						"encoding": "inplace",
						"label": "uint8",
						"numberOfBytes": "1"
					}
				}
			},
			"userdoc": {
				"kind": "user",
				"methods": {},
				"version": 1
			}
		}
	}
}