{
	"TestWithdrawMoney.sol": {
		"TestWithdrawMoney": {
			"abi": [
				{
					"inputs": [],
					"stateMutability": "nonpayable",
					"type": "constructor"
				},
				{
					"inputs": [],
					"name": "getBalance",
					"outputs": [
						{
							"internalType": "uint256",
							"name": "",
							"type": "uint256"
						}
					],
					"stateMutability": "view",
					"type": "function"
				},
				{
					"inputs": [],
					"name": "withDrawMoney",
					"outputs": [],
					"stateMutability": "nonpayable",
					"type": "function"
				},
				{
					"stateMutability": "payable",
					"type": "receive"
				}
			],
			"devdoc": {
				"kind": "dev",
				"methods": {},
				"version": 1
			},
			"evm": {
				"assembly": "    /* \"TestWithdrawMoney.sol\":57:546  contract TestWithdrawMoney {... */\n  mstore(0x40, 0x80)\n    /* \"TestWithdrawMoney.sol\":110:159  constructor() {... */\n  callvalue\n  dup1\n  iszero\n  tag_1\n  jumpi\n  revert(0x00, 0x00)\ntag_1:\n  pop\n    /* \"TestWithdrawMoney.sol\":142:152  msg.sender */\n  caller\n    /* \"TestWithdrawMoney.sol\":134:139  owner */\n  0x00\n  0x00\n    /* \"TestWithdrawMoney.sol\":134:152  owner = msg.sender */\n  0x0100\n  exp\n  dup2\n  sload\n  dup2\n  0xffffffffffffffffffffffffffffffffffffffff\n  mul\n  not\n  and\n  swap1\n  dup4\n  0xffffffffffffffffffffffffffffffffffffffff\n  and\n  mul\n  or\n  swap1\n  sstore\n  pop\n    /* \"TestWithdrawMoney.sol\":57:546  contract TestWithdrawMoney {... */\n  dataSize(sub_0)\n  dup1\n  dataOffset(sub_0)\n  0x00\n  codecopy\n  0x00\n  return\nstop\n\nsub_0: assembly {\n        /* \"TestWithdrawMoney.sol\":57:546  contract TestWithdrawMoney {... */\n      mstore(0x40, 0x80)\n      jumpi(tag_1, lt(calldatasize, 0x04))\n      shr(0xe0, calldataload(0x00))\n      dup1\n      0x12065fe0\n      eq\n      tag_3\n      jumpi\n      dup1\n      0x176e5f32\n      eq\n      tag_4\n      jumpi\n      jump(tag_2)\n    tag_1:\n      jumpi(tag_2, calldatasize)\n      stop\n    tag_2:\n      revert(0x00, 0x00)\n        /* \"TestWithdrawMoney.sol\":200:297  function getBalance() public view returns (uint256) {... */\n    tag_3:\n      callvalue\n      dup1\n      iszero\n      tag_7\n      jumpi\n      revert(0x00, 0x00)\n    tag_7:\n      pop\n      tag_8\n      tag_9\n      jump\t// in\n    tag_8:\n      mload(0x40)\n      tag_10\n      swap2\n      swap1\n      tag_11\n      jump\t// in\n    tag_10:\n      mload(0x40)\n      dup1\n      swap2\n      sub\n      swap1\n      return\n        /* \"TestWithdrawMoney.sol\":303:544  function withDrawMoney() external {... */\n    tag_4:\n      callvalue\n      dup1\n      iszero\n      tag_12\n      jumpi\n      revert(0x00, 0x00)\n    tag_12:\n      pop\n      tag_13\n      tag_14\n      jump\t// in\n    tag_13:\n      stop\n        /* \"TestWithdrawMoney.sol\":200:297  function getBalance() public view returns (uint256) {... */\n    tag_9:\n        /* \"TestWithdrawMoney.sol\":243:250  uint256 */\n      0x00\n        /* \"TestWithdrawMoney.sol\":269:290  address(this).balance */\n      selfbalance\n        /* \"TestWithdrawMoney.sol\":262:290  return address(this).balance */\n      swap1\n      pop\n        /* \"TestWithdrawMoney.sol\":200:297  function getBalance() public view returns (uint256) {... */\n      swap1\n      jump\t// out\n        /* \"TestWithdrawMoney.sol\":303:544  function withDrawMoney() external {... */\n    tag_14:\n        /* \"TestWithdrawMoney.sol\":369:374  owner */\n      0x00\n      0x00\n      swap1\n      sload\n      swap1\n      0x0100\n      exp\n      swap1\n      div\n      0xffffffffffffffffffffffffffffffffffffffff\n      and\n        /* \"TestWithdrawMoney.sol\":355:374  msg.sender == owner */\n      0xffffffffffffffffffffffffffffffffffffffff\n      and\n        /* \"TestWithdrawMoney.sol\":355:365  msg.sender */\n      caller\n        /* \"TestWithdrawMoney.sol\":355:374  msg.sender == owner */\n      0xffffffffffffffffffffffffffffffffffffffff\n      and\n      eq\n        /* \"TestWithdrawMoney.sol\":347:388  require(msg.sender == owner, \"not owner\") */\n      tag_17\n      jumpi\n      mload(0x40)\n      0x08c379a000000000000000000000000000000000000000000000000000000000\n      dup2\n      mstore\n      0x04\n      add\n      tag_18\n      swap1\n      tag_19\n      jump\t// in\n    tag_18:\n      mload(0x40)\n      dup1\n      swap2\n      sub\n      swap1\n      revert\n    tag_17:\n        /* \"TestWithdrawMoney.sol\":399:411  bool success */\n      0x00\n        /* \"TestWithdrawMoney.sol\":425:430  owner */\n      0x00\n      0x00\n      swap1\n      sload\n      swap1\n      0x0100\n      exp\n      swap1\n      div\n      0xffffffffffffffffffffffffffffffffffffffff\n      and\n        /* \"TestWithdrawMoney.sol\":417:436  payable(owner).call */\n      0xffffffffffffffffffffffffffffffffffffffff\n      and\n        /* \"TestWithdrawMoney.sol\":444:465  address(this).balance */\n      selfbalance\n        /* \"TestWithdrawMoney.sol\":417:492  payable(owner).call{value: address(this).balance}(... */\n      mload(0x40)\n      tag_20\n      swap1\n      tag_21\n      jump\t// in\n    tag_20:\n      0x00\n      mload(0x40)\n      dup1\n      dup4\n      sub\n      dup2\n      dup6\n      dup8\n      gas\n      call\n      swap3\n      pop\n      pop\n      pop\n      returndatasize\n      dup1\n      0x00\n      dup2\n      eq\n      tag_24\n      jumpi\n      mload(0x40)\n      swap2\n      pop\n      and(add(returndatasize, 0x3f), not(0x1f))\n      dup3\n      add\n      0x40\n      mstore\n      returndatasize\n      dup3\n      mstore\n      returndatasize\n      0x00\n      0x20\n      dup5\n      add\n      returndatacopy\n      jump(tag_23)\n    tag_24:\n      0x60\n      swap2\n      pop\n    tag_23:\n      pop\n        /* \"TestWithdrawMoney.sol\":398:492  (bool success, ) = payable(owner).call{value: address(this).balance}(... */\n      pop\n      swap1\n      pop\n        /* \"TestWithdrawMoney.sol\":510:517  success */\n      dup1\n        /* \"TestWithdrawMoney.sol\":502:537  require(success, \"withdraw failed\") */\n      tag_25\n      jumpi\n      mload(0x40)\n      0x08c379a000000000000000000000000000000000000000000000000000000000\n      dup2\n      mstore\n      0x04\n      add\n      tag_26\n      swap1\n      tag_27\n      jump\t// in\n    tag_26:\n      mload(0x40)\n      dup1\n      swap2\n      sub\n      swap1\n      revert\n    tag_25:\n        /* \"TestWithdrawMoney.sol\":337:544  {... */\n      pop\n        /* \"TestWithdrawMoney.sol\":303:544  function withDrawMoney() external {... */\n      jump\t// out\n        /* \"#utility.yul\":7:84   */\n    tag_28:\n        /* \"#utility.yul\":44:51   */\n      0x00\n        /* \"#utility.yul\":73:78   */\n      dup2\n        /* \"#utility.yul\":62:78   */\n      swap1\n      pop\n        /* \"#utility.yul\":7:84   */\n      swap2\n      swap1\n      pop\n      jump\t// out\n        /* \"#utility.yul\":90:208   */\n    tag_29:\n        /* \"#utility.yul\":177:201   */\n      tag_41\n        /* \"#utility.yul\":195:200   */\n      dup2\n        /* \"#utility.yul\":177:201   */\n      tag_28\n      jump\t// in\n    tag_41:\n        /* \"#utility.yul\":172:175   */\n      dup3\n        /* \"#utility.yul\":165:202   */\n      mstore\n        /* \"#utility.yul\":90:208   */\n      pop\n      pop\n      jump\t// out\n        /* \"#utility.yul\":214:436   */\n    tag_11:\n        /* \"#utility.yul\":307:311   */\n      0x00\n        /* \"#utility.yul\":345:347   */\n      0x20\n        /* \"#utility.yul\":334:343   */\n      dup3\n        /* \"#utility.yul\":330:348   */\n      add\n        /* \"#utility.yul\":322:348   */\n      swap1\n      pop\n        /* \"#utility.yul\":358:429   */\n      tag_43\n        /* \"#utility.yul\":426:427   */\n      0x00\n        /* \"#utility.yul\":415:424   */\n      dup4\n        /* \"#utility.yul\":411:428   */\n      add\n        /* \"#utility.yul\":402:408   */\n      dup5\n        /* \"#utility.yul\":358:429   */\n      tag_29\n      jump\t// in\n    tag_43:\n        /* \"#utility.yul\":214:436   */\n      swap3\n      swap2\n      pop\n      pop\n      jump\t// out\n        /* \"#utility.yul\":442:611   */\n    tag_30:\n        /* \"#utility.yul\":526:537   */\n      0x00\n        /* \"#utility.yul\":560:566   */\n      dup3\n        /* \"#utility.yul\":555:558   */\n      dup3\n        /* \"#utility.yul\":548:567   */\n      mstore\n        /* \"#utility.yul\":600:604   */\n      0x20\n        /* \"#utility.yul\":595:598   */\n      dup3\n        /* \"#utility.yul\":591:605   */\n      add\n        /* \"#utility.yul\":576:605   */\n      swap1\n      pop\n        /* \"#utility.yul\":442:611   */\n      swap3\n      swap2\n      pop\n      pop\n      jump\t// out\n        /* \"#utility.yul\":617:776   */\n    tag_31:\n        /* \"#utility.yul\":757:768   */\n      0x6e6f74206f776e65720000000000000000000000000000000000000000000000\n        /* \"#utility.yul\":753:754   */\n      0x00\n        /* \"#utility.yul\":745:751   */\n      dup3\n        /* \"#utility.yul\":741:755   */\n      add\n        /* \"#utility.yul\":734:769   */\n      mstore\n        /* \"#utility.yul\":617:776   */\n      pop\n      jump\t// out\n        /* \"#utility.yul\":782:1147   */\n    tag_32:\n        /* \"#utility.yul\":924:927   */\n      0x00\n        /* \"#utility.yul\":945:1011   */\n      tag_47\n        /* \"#utility.yul\":1009:1010   */\n      0x09\n        /* \"#utility.yul\":1004:1007   */\n      dup4\n        /* \"#utility.yul\":945:1011   */\n      tag_30\n      jump\t// in\n    tag_47:\n        /* \"#utility.yul\":938:1011   */\n      swap2\n      pop\n        /* \"#utility.yul\":1020:1113   */\n      tag_48\n        /* \"#utility.yul\":1109:1112   */\n      dup3\n        /* \"#utility.yul\":1020:1113   */\n      tag_31\n      jump\t// in\n    tag_48:\n        /* \"#utility.yul\":1138:1140   */\n      0x20\n        /* \"#utility.yul\":1133:1136   */\n      dup3\n        /* \"#utility.yul\":1129:1141   */\n      add\n        /* \"#utility.yul\":1122:1141   */\n      swap1\n      pop\n        /* \"#utility.yul\":782:1147   */\n      swap2\n      swap1\n      pop\n      jump\t// out\n        /* \"#utility.yul\":1153:1572   */\n    tag_19:\n        /* \"#utility.yul\":1319:1323   */\n      0x00\n        /* \"#utility.yul\":1357:1359   */\n      0x20\n        /* \"#utility.yul\":1346:1355   */\n      dup3\n        /* \"#utility.yul\":1342:1360   */\n      add\n        /* \"#utility.yul\":1334:1360   */\n      swap1\n      pop\n        /* \"#utility.yul\":1406:1415   */\n      dup2\n        /* \"#utility.yul\":1400:1404   */\n      dup2\n        /* \"#utility.yul\":1396:1416   */\n      sub\n        /* \"#utility.yul\":1392:1393   */\n      0x00\n        /* \"#utility.yul\":1381:1390   */\n      dup4\n        /* \"#utility.yul\":1377:1394   */\n      add\n        /* \"#utility.yul\":1370:1417   */\n      mstore\n        /* \"#utility.yul\":1434:1565   */\n      tag_50\n        /* \"#utility.yul\":1560:1564   */\n      dup2\n        /* \"#utility.yul\":1434:1565   */\n      tag_32\n      jump\t// in\n    tag_50:\n        /* \"#utility.yul\":1426:1565   */\n      swap1\n      pop\n        /* \"#utility.yul\":1153:1572   */\n      swap2\n      swap1\n      pop\n      jump\t// out\n        /* \"#utility.yul\":1578:1725   */\n    tag_33:\n        /* \"#utility.yul\":1679:1690   */\n      0x00\n        /* \"#utility.yul\":1716:1719   */\n      dup2\n        /* \"#utility.yul\":1701:1719   */\n      swap1\n      pop\n        /* \"#utility.yul\":1578:1725   */\n      swap3\n      swap2\n      pop\n      pop\n      jump\t// out\n        /* \"#utility.yul\":1731:1845   */\n    tag_34:\n      pop\n      jump\t// out\n        /* \"#utility.yul\":1851:2249   */\n    tag_35:\n        /* \"#utility.yul\":2010:2013   */\n      0x00\n        /* \"#utility.yul\":2031:2114   */\n      tag_54\n        /* \"#utility.yul\":2112:2113   */\n      0x00\n        /* \"#utility.yul\":2107:2110   */\n      dup4\n        /* \"#utility.yul\":2031:2114   */\n      tag_33\n      jump\t// in\n    tag_54:\n        /* \"#utility.yul\":2024:2114   */\n      swap2\n      pop\n        /* \"#utility.yul\":2123:2216   */\n      tag_55\n        /* \"#utility.yul\":2212:2215   */\n      dup3\n        /* \"#utility.yul\":2123:2216   */\n      tag_34\n      jump\t// in\n    tag_55:\n        /* \"#utility.yul\":2241:2242   */\n      0x00\n        /* \"#utility.yul\":2236:2239   */\n      dup3\n        /* \"#utility.yul\":2232:2243   */\n      add\n        /* \"#utility.yul\":2225:2243   */\n      swap1\n      pop\n        /* \"#utility.yul\":1851:2249   */\n      swap2\n      swap1\n      pop\n      jump\t// out\n        /* \"#utility.yul\":2255:2634   */\n    tag_21:\n        /* \"#utility.yul\":2439:2442   */\n      0x00\n        /* \"#utility.yul\":2461:2608   */\n      tag_57\n        /* \"#utility.yul\":2604:2607   */\n      dup3\n        /* \"#utility.yul\":2461:2608   */\n      tag_35\n      jump\t// in\n    tag_57:\n        /* \"#utility.yul\":2454:2608   */\n      swap2\n      pop\n        /* \"#utility.yul\":2625:2628   */\n      dup2\n        /* \"#utility.yul\":2618:2628   */\n      swap1\n      pop\n        /* \"#utility.yul\":2255:2634   */\n      swap2\n      swap1\n      pop\n      jump\t// out\n        /* \"#utility.yul\":2640:2805   */\n    tag_36:\n        /* \"#utility.yul\":2780:2797   */\n      0x7769746864726177206661696c65640000000000000000000000000000000000\n        /* \"#utility.yul\":2776:2777   */\n      0x00\n        /* \"#utility.yul\":2768:2774   */\n      dup3\n        /* \"#utility.yul\":2764:2778   */\n      add\n        /* \"#utility.yul\":2757:2798   */\n      mstore\n        /* \"#utility.yul\":2640:2805   */\n      pop\n      jump\t// out\n        /* \"#utility.yul\":2811:3177   */\n    tag_37:\n        /* \"#utility.yul\":2953:2956   */\n      0x00\n        /* \"#utility.yul\":2974:3041   */\n      tag_60\n        /* \"#utility.yul\":3038:3040   */\n      0x0f\n        /* \"#utility.yul\":3033:3036   */\n      dup4\n        /* \"#utility.yul\":2974:3041   */\n      tag_30\n      jump\t// in\n    tag_60:\n        /* \"#utility.yul\":2967:3041   */\n      swap2\n      pop\n        /* \"#utility.yul\":3050:3143   */\n      tag_61\n        /* \"#utility.yul\":3139:3142   */\n      dup3\n        /* \"#utility.yul\":3050:3143   */\n      tag_36\n      jump\t// in\n    tag_61:\n        /* \"#utility.yul\":3168:3170   */\n      0x20\n        /* \"#utility.yul\":3163:3166   */\n      dup3\n        /* \"#utility.yul\":3159:3171   */\n      add\n        /* \"#utility.yul\":3152:3171   */\n      swap1\n      pop\n        /* \"#utility.yul\":2811:3177   */\n      swap2\n      swap1\n      pop\n      jump\t// out\n        /* \"#utility.yul\":3183:3602   */\n    tag_27:\n        /* \"#utility.yul\":3349:3353   */\n      0x00\n        /* \"#utility.yul\":3387:3389   */\n      0x20\n        /* \"#utility.yul\":3376:3385   */\n      dup3\n        /* \"#utility.yul\":3372:3390   */\n      add\n        /* \"#utility.yul\":3364:3390   */\n      swap1\n      pop\n        /* \"#utility.yul\":3436:3445   */\n      dup2\n        /* \"#utility.yul\":3430:3434   */\n      dup2\n        /* \"#utility.yul\":3426:3446   */\n      sub\n        /* \"#utility.yul\":3422:3423   */\n      0x00\n        /* \"#utility.yul\":3411:3420   */\n      dup4\n        /* \"#utility.yul\":3407:3424   */\n      add\n        /* \"#utility.yul\":3400:3447   */\n      mstore\n        /* \"#utility.yul\":3464:3595   */\n      tag_63\n        /* \"#utility.yul\":3590:3594   */\n      dup2\n        /* \"#utility.yul\":3464:3595   */\n      tag_37\n      jump\t// in\n    tag_63:\n        /* \"#utility.yul\":3456:3595   */\n      swap1\n      pop\n        /* \"#utility.yul\":3183:3602   */\n      swap2\n      swap1\n      pop\n      jump\t// out\n\n    auxdata: 0xa26469706673582212206cbe9ccfe0522505217ddf5fd76dc3f54b4865a83cfbbd6841ae278ab1b7d28064736f6c634300081e0033\n}\n",
				"bytecode": {
					"linkReferences": {},
					"object": "6080604052348015600e575f5ffd5b50335f5f6101000a81548173ffffffffffffffffffffffffffffffffffffffff021916908373ffffffffffffffffffffffffffffffffffffffff16021790555061035f8061005b5f395ff3fe60806040526004361061002c575f3560e01c806312065fe014610037578063176e5f321461006157610033565b3661003357005b5f5ffd5b348015610042575f5ffd5b5061004b610077565b60405161005891906101ef565b60405180910390f35b34801561006c575f5ffd5b5061007561007e565b005b5f47905090565b5f5f9054906101000a900473ffffffffffffffffffffffffffffffffffffffff1673ffffffffffffffffffffffffffffffffffffffff163373ffffffffffffffffffffffffffffffffffffffff161461010c576040517f08c379a000000000000000000000000000000000000000000000000000000000815260040161010390610262565b60405180910390fd5b5f5f5f9054906101000a900473ffffffffffffffffffffffffffffffffffffffff1673ffffffffffffffffffffffffffffffffffffffff1647604051610151906102ad565b5f6040518083038185875af1925050503d805f811461018b576040519150601f19603f3d011682016040523d82523d5f602084013e610190565b606091505b50509050806101d4576040517f08c379a00000000000000000000000000000000000000000000000000000000081526004016101cb9061030b565b60405180910390fd5b50565b5f819050919050565b6101e9816101d7565b82525050565b5f6020820190506102025f8301846101e0565b92915050565b5f82825260208201905092915050565b7f6e6f74206f776e657200000000000000000000000000000000000000000000005f82015250565b5f61024c600983610208565b915061025782610218565b602082019050919050565b5f6020820190508181035f83015261027981610240565b9050919050565b5f81905092915050565b50565b5f6102985f83610280565b91506102a38261028a565b5f82019050919050565b5f6102b78261028d565b9150819050919050565b7f7769746864726177206661696c656400000000000000000000000000000000005f82015250565b5f6102f5600f83610208565b9150610300826102c1565b602082019050919050565b5f6020820190508181035f830152610322816102e9565b905091905056fea26469706673582212206cbe9ccfe0522505217ddf5fd76dc3f54b4865a83cfbbd6841ae278ab1b7d28064736f6c634300081e0033",
					"opcodes": "PUSH1 0x80 PUSH1 0x40 MSTORE CALLVALUE DUP1 ISZERO PUSH1 0xE JUMPI PUSH0 PUSH0 REVERT JUMPDEST POP CALLER PUSH0 PUSH0 PUSH2 0x100 EXP DUP2 SLOAD DUP2 PUSH20 0xFFFFFFFFFFFFFFFFFFFFFFFFFFFFFFFFFFFFFFFF MUL NOT AND SWAP1 DUP4 PUSH20 0xFFFFFFFFFFFFFFFFFFFFFFFFFFFFFFFFFFFFFFFF AND MUL OR SWAP1 SSTORE POP PUSH2 0x35F DUP1 PUSH2 0x5B PUSH0 CODECOPY PUSH0 RETURN INVALID PUSH1 0x80 PUSH1 0x40 MSTORE PUSH1 0x4 CALLDATASIZE LT PUSH2 0x2C JUMPI PUSH0 CALLDATALOAD PUSH1 0xE0 SHR DUP1 PUSH4 0x12065FE0 EQ PUSH2 0x37 JUMPI DUP1 PUSH4 0x176E5F32 EQ PUSH2 0x61 JUMPI PUSH2 0x33 JUMP JUMPDEST CALLDATASIZE PUSH2 0x33 JUMPI STOP JUMPDEST PUSH0 PUSH0 REVERT JUMPDEST CALLVALUE DUP1 ISZERO PUSH2 0x42 JUMPI PUSH0 PUSH0 REVERT JUMPDEST POP PUSH2 0x4B PUSH2 0x77 JUMP JUMPDEST PUSH1 0x40 MLOAD PUSH2 0x58 SWAP2 SWAP1 PUSH2 0x1EF JUMP JUMPDEST PUSH1 0x40 MLOAD DUP1 SWAP2 SUB SWAP1 RETURN JUMPDEST CALLVALUE DUP1 ISZERO PUSH2 0x6C JUMPI PUSH0 PUSH0 REVERT JUMPDEST POP PUSH2 0x75 PUSH2 0x7E JUMP JUMPDEST STOP JUMPDEST PUSH0 SELFBALANCE SWAP1 POP SWAP1 JUMP JUMPDEST PUSH0 PUSH0 SWAP1 SLOAD SWAP1 PUSH2 0x100 EXP SWAP1 DIV PUSH20 0xFFFFFFFFFFFFFFFFFFFFFFFFFFFFFFFFFFFFFFFF AND PUSH20 0xFFFFFFFFFFFFFFFFFFFFFFFFFFFFFFFFFFFFFFFF AND CALLER PUSH20 0xFFFFFFFFFFFFFFFFFFFFFFFFFFFFFFFFFFFFFFFF AND EQ PUSH2 0x10C JUMPI PUSH1 0x40 MLOAD PUSH32 0x8C379A000000000000000000000000000000000000000000000000000000000 DUP2 MSTORE PUSH1 0x4 ADD PUSH2 0x103 SWAP1 PUSH2 0x262 JUMP JUMPDEST PUSH1 0x40 MLOAD DUP1 SWAP2 SUB SWAP1 REVERT JUMPDEST PUSH0 PUSH0 PUSH0 SWAP1 SLOAD SWAP1 PUSH2 0x100 EXP SWAP1 DIV PUSH20 0xFFFFFFFFFFFFFFFFFFFFFFFFFFFFFFFFFFFFFFFF AND PUSH20 0xFFFFFFFFFFFFFFFFFFFFFFFFFFFFFFFFFFFFFFFF AND SELFBALANCE PUSH1 0x40 MLOAD PUSH2 0x151 SWAP1 PUSH2 0x2AD JUMP JUMPDEST PUSH0 PUSH1 0x40 MLOAD DUP1 DUP4 SUB DUP2 DUP6 DUP8 GAS CALL SWAP3 POP POP POP RETURNDATASIZE DUP1 PUSH0 DUP2 EQ PUSH2 0x18B JUMPI PUSH1 0x40 MLOAD SWAP2 POP PUSH1 0x1F NOT PUSH1 0x3F RETURNDATASIZE ADD AND DUP3 ADD PUSH1 0x40 MSTORE RETURNDATASIZE DUP3 MSTORE RETURNDATASIZE PUSH0 PUSH1 0x20 DUP5 ADD RETURNDATACOPY PUSH2 0x190 JUMP JUMPDEST PUSH1 0x60 SWAP2 POP JUMPDEST POP POP SWAP1 POP DUP1 PUSH2 0x1D4 JUMPI PUSH1 0x40 MLOAD PUSH32 0x8C379A000000000000000000000000000000000000000000000000000000000 DUP2 MSTORE PUSH1 0x4 ADD PUSH2 0x1CB SWAP1 PUSH2 0x30B JUMP JUMPDEST PUSH1 0x40 MLOAD DUP1 SWAP2 SUB SWAP1 REVERT JUMPDEST POP JUMP JUMPDEST PUSH0 DUP2 SWAP1 POP SWAP2 SWAP1 POP JUMP JUMPDEST PUSH2 0x1E9 DUP2 PUSH2 0x1D7 JUMP JUMPDEST DUP3 MSTORE POP POP JUMP JUMPDEST PUSH0 PUSH1 0x20 DUP3 ADD SWAP1 POP PUSH2 0x202 PUSH0 DUP4 ADD DUP5 PUSH2 0x1E0 JUMP JUMPDEST SWAP3 SWAP2 POP POP JUMP JUMPDEST PUSH0 DUP3 DUP3 MSTORE PUSH1 0x20 DUP3 ADD SWAP1 POP SWAP3 SWAP2 POP POP JUMP JUMPDEST PUSH32 0x6E6F74206F776E65720000000000000000000000000000000000000000000000 PUSH0 DUP3 ADD MSTORE POP JUMP JUMPDEST PUSH0 PUSH2 0x24C PUSH1 0x9 DUP4 PUSH2 0x208 JUMP JUMPDEST SWAP2 POP PUSH2 0x257 DUP3 PUSH2 0x218 JUMP JUMPDEST PUSH1 0x20 DUP3 ADD SWAP1 POP SWAP2 SWAP1 POP JUMP JUMPDEST PUSH0 PUSH1 0x20 DUP3 ADD SWAP1 POP DUP2 DUP2 SUB PUSH0 DUP4 ADD MSTORE PUSH2 0x279 DUP2 PUSH2 0x240 JUMP JUMPDEST SWAP1 POP SWAP2 SWAP1 POP JUMP JUMPDEST PUSH0 DUP2 SWAP1 POP SWAP3 SWAP2 POP POP JUMP JUMPDEST POP JUMP JUMPDEST PUSH0 PUSH2 0x298 PUSH0 DUP4 PUSH2 0x280 JUMP JUMPDEST SWAP2 POP PUSH2 0x2A3 DUP3 PUSH2 0x28A JUMP JUMPDEST PUSH0 DUP3 ADD SWAP1 POP SWAP2 SWAP1 POP JUMP JUMPDEST PUSH0 PUSH2 0x2B7 DUP3 PUSH2 0x28D JUMP JUMPDEST SWAP2 POP DUP2 SWAP1 POP SWAP2 SWAP1 POP JUMP JUMPDEST PUSH32 0x7769746864726177206661696C65640000000000000000000000000000000000 PUSH0 DUP3 ADD MSTORE POP JUMP JUMPDEST PUSH0 PUSH2 0x2F5 PUSH1 0xF DUP4 PUSH2 0x208 JUMP JUMPDEST SWAP2 POP PUSH2 0x300 DUP3 PUSH2 0x2C1 JUMP JUMPDEST PUSH1 0x20 DUP3 ADD SWAP1 POP SWAP2 SWAP1 POP JUMP JUMPDEST PUSH0 PUSH1 0x20 DUP3 ADD SWAP1 POP DUP2 DUP2 SUB PUSH0 DUP4 ADD MSTORE PUSH2 0x322 DUP2 PUSH2 0x2E9 JUMP JUMPDEST SWAP1 POP SWAP2 SWAP1 POP JUMP INVALID LOG2 PUSH5 0x6970667358 0x22 SLT KECCAK256 PUSH13 0xBE9CCFE0522505217DDF5FD76D 0xC3 CREATE2 0x4B BASEFEE PUSH6 0xA83CFBBD6841 0xAE 0x27 DUP11 0xB1 0xB7 0xD2 DUP1 PUSH5 0x736F6C6343 STOP ADDMOD 0x1E STOP CALLER "
				},
				"gasEstimates": {
					"creation": {
						"codeDepositCost": "172600",
						"executionCost": "24476",
						"totalCost": "197076"
					},
					"external": {
						"getBalance()": "312",
						"withDrawMoney()": "infinite"
					}
				},
				"methodIdentifiers": {
					"getBalance()": "12065fe0",
					"withDrawMoney()": "176e5f32"
				}
			},
			"storageLayout": {
				"storage": [
					{
						"astId": 3,
						"contract": "TestWithdrawMoney.sol:TestWithdrawMoney",
						"label": "owner",
						"offset": 0,
						"slot": "0",
						"type": "t_address"
					}
				],
				"types": {
					"t_address": {
						"encoding": "inplace",
						"label": "address",
						"numberOfBytes": "20"
					}
				}
			},
			"userdoc": {
				"kind": "user",
				"methods": {},
				"version": 1
			}
		}
	}
}