{
	"testLoop.sol": {
		"TestLoop": {
			"abi": [
				{
					"inputs": [],
					"name": "loop",
					"outputs": [
						{
							"internalType": "uint256",
							"name": "",
							"type": "uint256"
						}
					],
					"stateMutability": "pure",
					"type": "function"
				},
				{
					"inputs": [],
					"name": "loop2",
					"outputs": [
						{
							"internalType": "uint256",
							"name": "",
							"type": "uint256"
						}
					],
					"stateMutability": "pure",
					"type": "function"
				},
				{
					"inputs": [],
					"name": "loop3",
					"outputs": [
						{
							"internalType": "uint256",
							"name": "",
							"type": "uint256"
						}
					],
					"stateMutability": "pure",
					"type": "function"
				}
			],
			"devdoc": {
				"kind": "dev",
				"methods": {},
				"version": 1
			},
			"evm": {
				"assembly": "    /* \"testLoop.sol\":57:744  contract TestLoop {... */\n  mstore(0x40, 0x80)\n  callvalue\n  dup1\n  iszero\n  tag_1\n  jumpi\n  revert(0x00, 0x00)\ntag_1:\n  pop\n  dataSize(sub_0)\n  dup1\n  dataOffset(sub_0)\n  0x00\n  codecopy\n  0x00\n  return\nstop\n\nsub_0: assembly {\n        /* \"testLoop.sol\":57:744  contract TestLoop {... */\n      mstore(0x40, 0x80)\n      callvalue\n      dup1\n      iszero\n      tag_1\n      jumpi\n      revert(0x00, 0x00)\n    tag_1:\n      pop\n      jumpi(tag_2, lt(calldatasize, 0x04))\n      shr(0xe0, calldataload(0x00))\n      dup1\n      0x9dfeea2b\n      eq\n      tag_3\n      jumpi\n      dup1\n      0xa89edd59\n      eq\n      tag_4\n      jumpi\n      dup1\n      0xa92100cb\n      eq\n      tag_5\n      jumpi\n    tag_2:\n      revert(0x00, 0x00)\n        /* \"testLoop.sol\":542:742  function loop3() public pure returns (uint256) {... */\n    tag_3:\n      tag_6\n      tag_7\n      jump\t// in\n    tag_6:\n      mload(0x40)\n      tag_8\n      swap2\n      swap1\n      tag_9\n      jump\t// in\n    tag_8:\n      mload(0x40)\n      dup1\n      swap2\n      sub\n      swap1\n      return\n        /* \"testLoop.sol\":340:536  function loop2() public pure returns (uint256) {... */\n    tag_4:\n      tag_10\n      tag_11\n      jump\t// in\n    tag_10:\n      mload(0x40)\n      tag_12\n      swap2\n      swap1\n      tag_9\n      jump\t// in\n    tag_12:\n      mload(0x40)\n      dup1\n      swap2\n      sub\n      swap1\n      return\n        /* \"testLoop.sol\":81:334  function loop() public pure returns (uint256) {... */\n    tag_5:\n      tag_13\n      tag_14\n      jump\t// in\n    tag_13:\n      mload(0x40)\n      tag_15\n      swap2\n      swap1\n      tag_9\n      jump\t// in\n    tag_15:\n      mload(0x40)\n      dup1\n      swap2\n      sub\n      swap1\n      return\n        /* \"testLoop.sol\":542:742  function loop3() public pure returns (uint256) {... */\n    tag_7:\n        /* \"testLoop.sol\":580:587  uint256 */\n      0x00\n        /* \"testLoop.sol\":599:610  uint256 sum */\n      0x00\n        /* \"testLoop.sol\":613:614  0 */\n      0x00\n        /* \"testLoop.sol\":599:614  uint256 sum = 0 */\n      swap1\n      pop\n        /* \"testLoop.sol\":624:633  uint256 i */\n      0x00\n        /* \"testLoop.sol\":636:637  0 */\n      0x00\n        /* \"testLoop.sol\":624:637  uint256 i = 0 */\n      swap1\n      pop\n        /* \"testLoop.sol\":647:716  do {... */\n    tag_17:\n        /* \"testLoop.sol\":671:672  i */\n      dup1\n        /* \"testLoop.sol\":664:672  sum += i */\n      dup3\n      tag_20\n      swap2\n      swap1\n      tag_21\n      jump\t// in\n    tag_20:\n      swap2\n      pop\n        /* \"testLoop.sol\":686:689  i++ */\n      dup1\n      dup1\n      tag_22\n      swap1\n      tag_23\n      jump\t// in\n    tag_22:\n      swap2\n      pop\n      pop\n        /* \"testLoop.sol\":712:714  10 */\n      0x0a\n        /* \"testLoop.sol\":708:709  i */\n      dup2\n        /* \"testLoop.sol\":708:714  i < 10 */\n      lt\n        /* \"testLoop.sol\":647:716  do {... */\n      tag_17\n      jumpi\n        /* \"testLoop.sol\":732:735  sum */\n      dup2\n        /* \"testLoop.sol\":725:735  return sum */\n      swap3\n      pop\n      pop\n      pop\n        /* \"testLoop.sol\":542:742  function loop3() public pure returns (uint256) {... */\n      swap1\n      jump\t// out\n        /* \"testLoop.sol\":340:536  function loop2() public pure returns (uint256) {... */\n    tag_11:\n        /* \"testLoop.sol\":378:385  uint256 */\n      0x00\n        /* \"testLoop.sol\":397:408  uint256 sum */\n      0x00\n        /* \"testLoop.sol\":411:412  0 */\n      0x00\n        /* \"testLoop.sol\":397:412  uint256 sum = 0 */\n      swap1\n      pop\n        /* \"testLoop.sol\":422:431  uint256 i */\n      0x00\n        /* \"testLoop.sol\":434:435  0 */\n      0x00\n        /* \"testLoop.sol\":422:435  uint256 i = 0 */\n      swap1\n      pop\n        /* \"testLoop.sol\":445:510  while (i < 10) {... */\n    tag_25:\n        /* \"testLoop.sol\":456:458  10 */\n      0x0a\n        /* \"testLoop.sol\":452:453  i */\n      dup2\n        /* \"testLoop.sol\":452:458  i < 10 */\n      lt\n        /* \"testLoop.sol\":445:510  while (i < 10) {... */\n      iszero\n      tag_26\n      jumpi\n        /* \"testLoop.sol\":481:482  i */\n      dup1\n        /* \"testLoop.sol\":474:482  sum += i */\n      dup3\n      tag_27\n      swap2\n      swap1\n      tag_21\n      jump\t// in\n    tag_27:\n      swap2\n      pop\n        /* \"testLoop.sol\":496:499  i++ */\n      dup1\n      dup1\n      tag_28\n      swap1\n      tag_23\n      jump\t// in\n    tag_28:\n      swap2\n      pop\n      pop\n        /* \"testLoop.sol\":445:510  while (i < 10) {... */\n      jump(tag_25)\n    tag_26:\n        /* \"testLoop.sol\":526:529  sum */\n      dup2\n        /* \"testLoop.sol\":519:529  return sum */\n      swap3\n      pop\n      pop\n      pop\n        /* \"testLoop.sol\":340:536  function loop2() public pure returns (uint256) {... */\n      swap1\n      jump\t// out\n        /* \"testLoop.sol\":81:334  function loop() public pure returns (uint256) {... */\n    tag_14:\n        /* \"testLoop.sol\":118:125  uint256 */\n      0x00\n        /* \"testLoop.sol\":137:148  uint256 sum */\n      0x00\n        /* \"testLoop.sol\":151:152  0 */\n      0x00\n        /* \"testLoop.sol\":137:152  uint256 sum = 0 */\n      swap1\n      pop\n        /* \"testLoop.sol\":162:171  uint256 i */\n      0x00\n        /* \"testLoop.sol\":174:175  0 */\n      0x00\n        /* \"testLoop.sol\":162:175  uint256 i = 0 */\n      swap1\n      pop\n        /* \"testLoop.sol\":185:308  for (;;) {... */\n    tag_30:\n        /* \"testLoop.sol\":217:219  10 */\n      0x0a\n        /* \"testLoop.sol\":212:213  i */\n      dup2\n        /* \"testLoop.sol\":212:219  i >= 10 */\n      lt\n        /* \"testLoop.sol\":208:259  if (i >= 10) {... */\n      iszero\n        /* \"testLoop.sol\":239:244  break */\n      tag_31\n        /* \"testLoop.sol\":208:259  if (i >= 10) {... */\n      jumpi\n        /* \"testLoop.sol\":279:280  i */\n      dup1\n        /* \"testLoop.sol\":272:280  sum += i */\n      dup3\n      tag_34\n      swap2\n      swap1\n      tag_21\n      jump\t// in\n    tag_34:\n      swap2\n      pop\n        /* \"testLoop.sol\":294:297  i++ */\n      dup1\n      dup1\n      tag_35\n      swap1\n      tag_23\n      jump\t// in\n    tag_35:\n      swap2\n      pop\n      pop\n        /* \"testLoop.sol\":185:308  for (;;) {... */\n      jump(tag_30)\n    tag_31:\n        /* \"testLoop.sol\":324:327  sum */\n      dup2\n        /* \"testLoop.sol\":317:327  return sum */\n      swap3\n      pop\n      pop\n      pop\n        /* \"testLoop.sol\":81:334  function loop() public pure returns (uint256) {... */\n      swap1\n      jump\t// out\n        /* \"#utility.yul\":7:84   */\n    tag_36:\n        /* \"#utility.yul\":44:51   */\n      0x00\n        /* \"#utility.yul\":73:78   */\n      dup2\n        /* \"#utility.yul\":62:78   */\n      swap1\n      pop\n        /* \"#utility.yul\":7:84   */\n      swap2\n      swap1\n      pop\n      jump\t// out\n        /* \"#utility.yul\":90:208   */\n    tag_37:\n        /* \"#utility.yul\":177:201   */\n      tag_42\n        /* \"#utility.yul\":195:200   */\n      dup2\n        /* \"#utility.yul\":177:201   */\n      tag_36\n      jump\t// in\n    tag_42:\n        /* \"#utility.yul\":172:175   */\n      dup3\n        /* \"#utility.yul\":165:202   */\n      mstore\n        /* \"#utility.yul\":90:208   */\n      pop\n      pop\n      jump\t// out\n        /* \"#utility.yul\":214:436   */\n    tag_9:\n        /* \"#utility.yul\":307:311   */\n      0x00\n        /* \"#utility.yul\":345:347   */\n      0x20\n        /* \"#utility.yul\":334:343   */\n      dup3\n        /* \"#utility.yul\":330:348   */\n      add\n        /* \"#utility.yul\":322:348   */\n      swap1\n      pop\n        /* \"#utility.yul\":358:429   */\n      tag_44\n        /* \"#utility.yul\":426:427   */\n      0x00\n        /* \"#utility.yul\":415:424   */\n      dup4\n        /* \"#utility.yul\":411:428   */\n      add\n        /* \"#utility.yul\":402:408   */\n      dup5\n        /* \"#utility.yul\":358:429   */\n      tag_37\n      jump\t// in\n    tag_44:\n        /* \"#utility.yul\":214:436   */\n      swap3\n      swap2\n      pop\n      pop\n      jump\t// out\n        /* \"#utility.yul\":442:622   */\n    tag_38:\n        /* \"#utility.yul\":490:567   */\n      0x4e487b7100000000000000000000000000000000000000000000000000000000\n        /* \"#utility.yul\":487:488   */\n      0x00\n        /* \"#utility.yul\":480:568   */\n      mstore\n        /* \"#utility.yul\":587:591   */\n      0x11\n        /* \"#utility.yul\":584:585   */\n      0x04\n        /* \"#utility.yul\":577:592   */\n      mstore\n        /* \"#utility.yul\":611:615   */\n      0x24\n        /* \"#utility.yul\":608:609   */\n      0x00\n        /* \"#utility.yul\":601:616   */\n      revert\n        /* \"#utility.yul\":628:819   */\n    tag_21:\n        /* \"#utility.yul\":668:671   */\n      0x00\n        /* \"#utility.yul\":687:707   */\n      tag_47\n        /* \"#utility.yul\":705:706   */\n      dup3\n        /* \"#utility.yul\":687:707   */\n      tag_36\n      jump\t// in\n    tag_47:\n        /* \"#utility.yul\":682:707   */\n      swap2\n      pop\n        /* \"#utility.yul\":721:741   */\n      tag_48\n        /* \"#utility.yul\":739:740   */\n      dup4\n        /* \"#utility.yul\":721:741   */\n      tag_36\n      jump\t// in\n    tag_48:\n        /* \"#utility.yul\":716:741   */\n      swap3\n      pop\n        /* \"#utility.yul\":764:765   */\n      dup3\n        /* \"#utility.yul\":761:762   */\n      dup3\n        /* \"#utility.yul\":757:766   */\n      add\n        /* \"#utility.yul\":750:766   */\n      swap1\n      pop\n        /* \"#utility.yul\":785:788   */\n      dup1\n        /* \"#utility.yul\":782:783   */\n      dup3\n        /* \"#utility.yul\":779:789   */\n      gt\n        /* \"#utility.yul\":776:812   */\n      iszero\n      tag_49\n      jumpi\n        /* \"#utility.yul\":792:810   */\n      tag_50\n      tag_38\n      jump\t// in\n    tag_50:\n        /* \"#utility.yul\":776:812   */\n    tag_49:\n        /* \"#utility.yul\":628:819   */\n      swap3\n      swap2\n      pop\n      pop\n      jump\t// out\n        /* \"#utility.yul\":825:1058   */\n    tag_23:\n        /* \"#utility.yul\":864:867   */\n      0x00\n        /* \"#utility.yul\":887:911   */\n      tag_52\n        /* \"#utility.yul\":905:910   */\n      dup3\n        /* \"#utility.yul\":887:911   */\n      tag_36\n      jump\t// in\n    tag_52:\n        /* \"#utility.yul\":878:911   */\n      swap2\n      pop\n        /* \"#utility.yul\":933:999   */\n      0xffffffffffffffffffffffffffffffffffffffffffffffffffffffffffffffff\n        /* \"#utility.yul\":926:931   */\n      dup3\n        /* \"#utility.yul\":923:1000   */\n      sub\n        /* \"#utility.yul\":920:1023   */\n      tag_53\n      jumpi\n        /* \"#utility.yul\":1003:1021   */\n      tag_54\n      tag_38\n      jump\t// in\n    tag_54:\n        /* \"#utility.yul\":920:1023   */\n    tag_53:\n        /* \"#utility.yul\":1050:1051   */\n      0x01\n        /* \"#utility.yul\":1043:1048   */\n      dup3\n        /* \"#utility.yul\":1039:1052   */\n      add\n        /* \"#utility.yul\":1032:1052   */\n      swap1\n      pop\n        /* \"#utility.yul\":825:1058   */\n      swap2\n      swap1\n      pop\n      jump\t// out\n\n    auxdata: 0xa26469706673582212204282b91594877507b12541c5ffb9eb450e7503b4869736e632818bb0df1117e264736f6c634300081e0033\n}\n",
				"bytecode": {
					"linkReferences": {},
					"object": "6080604052348015600e575f5ffd5b506102598061001c5f395ff3fe608060405234801561000f575f5ffd5b506004361061003f575f3560e01c80639dfeea2b14610043578063a89edd5914610061578063a92100cb1461007f575b5f5ffd5b61004b61009d565b6040516100589190610163565b60405180910390f35b6100696100d3565b6040516100769190610163565b60405180910390f35b61008761010f565b6040516100949190610163565b60405180910390f35b5f5f5f90505f5f90505b80826100b391906101a9565b915080806100c0906101dc565b915050600a81106100a757819250505090565b5f5f5f90505f5f90505b600a8110156101075780826100f291906101a9565b915080806100ff906101dc565b9150506100dd565b819250505090565b5f5f5f90505f5f90505b600a81101561014357808261012e91906101a9565b9150808061013b906101dc565b915050610119565b819250505090565b5f819050919050565b61015d8161014b565b82525050565b5f6020820190506101765f830184610154565b92915050565b7f4e487b71000000000000000000000000000000000000000000000000000000005f52601160045260245ffd5b5f6101b38261014b565b91506101be8361014b565b92508282019050808211156101d6576101d561017c565b5b92915050565b5f6101e68261014b565b91507fffffffffffffffffffffffffffffffffffffffffffffffffffffffffffffffff82036102185761021761017c565b5b60018201905091905056fea26469706673582212204282b91594877507b12541c5ffb9eb450e7503b4869736e632818bb0df1117e264736f6c634300081e0033",
					"opcodes": "PUSH1 0x80 PUSH1 0x40 MSTORE CALLVALUE DUP1 ISZERO PUSH1 0xE JUMPI PUSH0 PUSH0 REVERT JUMPDEST POP PUSH2 0x259 DUP1 PUSH2 0x1C PUSH0 CODECOPY PUSH0 RETURN INVALID PUSH1 0x80 PUSH1 0x40 MSTORE CALLVALUE DUP1 ISZERO PUSH2 0xF JUMPI PUSH0 PUSH0 REVERT JUMPDEST POP PUSH1 0x4 CALLDATASIZE LT PUSH2 0x3F JUMPI PUSH0 CALLDATALOAD PUSH1 0xE0 SHR DUP1 PUSH4 0x9DFEEA2B EQ PUSH2 0x43 JUMPI DUP1 PUSH4 0xA89EDD59 EQ PUSH2 0x61 JUMPI DUP1 PUSH4 0xA92100CB EQ PUSH2 0x7F JUMPI JUMPDEST PUSH0 PUSH0 REVERT JUMPDEST PUSH2 0x4B PUSH2 0x9D JUMP JUMPDEST PUSH1 0x40 MLOAD PUSH2 0x58 SWAP2 SWAP1 PUSH2 0x163 JUMP JUMPDEST PUSH1 0x40 MLOAD DUP1 SWAP2 SUB SWAP1 RETURN JUMPDEST PUSH2 0x69 PUSH2 0xD3 JUMP JUMPDEST PUSH1 0x40 MLOAD PUSH2 0x76 SWAP2 SWAP1 PUSH2 0x163 JUMP JUMPDEST PUSH1 0x40 MLOAD DUP1 SWAP2 SUB SWAP1 RETURN JUMPDEST PUSH2 0x87 PUSH2 0x10F JUMP JUMPDEST PUSH1 0x40 MLOAD PUSH2 0x94 SWAP2 SWAP1 PUSH2 0x163 JUMP JUMPDEST PUSH1 0x40 MLOAD DUP1 SWAP2 SUB SWAP1 RETURN JUMPDEST PUSH0 PUSH0 PUSH0 SWAP1 POP PUSH0 PUSH0 SWAP1 POP JUMPDEST DUP1 DUP3 PUSH2 0xB3 SWAP2 SWAP1 PUSH2 0x1A9 JUMP JUMPDEST SWAP2 POP DUP1 DUP1 PUSH2 0xC0 SWAP1 PUSH2 0x1DC JUMP JUMPDEST SWAP2 POP POP PUSH1 0xA DUP2 LT PUSH2 0xA7 JUMPI DUP2 SWAP3 POP POP POP SWAP1 JUMP JUMPDEST PUSH0 PUSH0 PUSH0 SWAP1 POP PUSH0 PUSH0 SWAP1 POP JUMPDEST PUSH1 0xA DUP2 LT ISZERO PUSH2 0x107 JUMPI DUP1 DUP3 PUSH2 0xF2 SWAP2 SWAP1 PUSH2 0x1A9 JUMP JUMPDEST SWAP2 POP DUP1 DUP1 PUSH2 0xFF SWAP1 PUSH2 0x1DC JUMP JUMPDEST SWAP2 POP POP PUSH2 0xDD JUMP JUMPDEST DUP2 SWAP3 POP POP POP SWAP1 JUMP JUMPDEST PUSH0 PUSH0 PUSH0 SWAP1 POP PUSH0 PUSH0 SWAP1 POP JUMPDEST PUSH1 0xA DUP2 LT ISZERO PUSH2 0x143 JUMPI DUP1 DUP3 PUSH2 0x12E SWAP2 SWAP1 PUSH2 0x1A9 JUMP JUMPDEST SWAP2 POP DUP1 DUP1 PUSH2 0x13B SWAP1 PUSH2 0x1DC JUMP JUMPDEST SWAP2 POP POP PUSH2 0x119 JUMP JUMPDEST DUP2 SWAP3 POP POP POP SWAP1 JUMP JUMPDEST PUSH0 DUP2 SWAP1 POP SWAP2 SWAP1 POP JUMP JUMPDEST PUSH2 0x15D DUP2 PUSH2 0x14B JUMP JUMPDEST DUP3 MSTORE POP POP JUMP JUMPDEST PUSH0 PUSH1 0x20 DUP3 ADD SWAP1 POP PUSH2 0x176 PUSH0 DUP4 ADD DUP5 PUSH2 0x154 JUMP JUMPDEST SWAP3 SWAP2 POP POP JUMP JUMPDEST PUSH32 0x4E487B7100000000000000000000000000000000000000000000000000000000 PUSH0 MSTORE PUSH1 0x11 PUSH1 0x4 MSTORE PUSH1 0x24 PUSH0 REVERT JUMPDEST PUSH0 PUSH2 0x1B3 DUP3 PUSH2 0x14B JUMP JUMPDEST SWAP2 POP PUSH2 0x1BE DUP4 PUSH2 0x14B JUMP JUMPDEST SWAP3 POP DUP3 DUP3 ADD SWAP1 POP DUP1 DUP3 GT ISZERO PUSH2 0x1D6 JUMPI PUSH2 0x1D5 PUSH2 0x17C JUMP JUMPDEST JUMPDEST SWAP3 SWAP2 POP POP JUMP JUMPDEST PUSH0 PUSH2 0x1E6 DUP3 PUSH2 0x14B JUMP JUMPDEST SWAP2 POP PUSH32 0xFFFFFFFFFFFFFFFFFFFFFFFFFFFFFFFFFFFFFFFFFFFFFFFFFFFFFFFFFFFFFFFF DUP3 SUB PUSH2 0x218 JUMPI PUSH2 0x217 PUSH2 0x17C JUMP JUMPDEST JUMPDEST PUSH1 0x1 DUP3 ADD SWAP1 POP SWAP2 SWAP1 POP JUMP INVALID LOG2 PUSH5 0x6970667358 0x22 SLT KECCAK256 TIMESTAMP DUP3 0xB9 ISZERO SWAP5 DUP8 PUSH22 0x7B12541C5FFB9EB450E7503B4869736E632818BB0DF GT OR 0xE2 PUSH5 0x736F6C6343 STOP ADDMOD 0x1E STOP CALLER "
				},
				"gasEstimates": {
					"creation": {
						"codeDepositCost": "120200",
						"executionCost": "163",
						"totalCost": "120363"
					},
					"external": {
						"loop()": "infinite",
						"loop2()": "infinite",
						"loop3()": "infinite"
					}
				},
				"methodIdentifiers": {
					"loop()": "a92100cb",
					"loop2()": "a89edd59",
					"loop3()": "9dfeea2b"
				}
			},
			"storageLayout": {
				"storage": [],
				"types": null
			},
			"userdoc": {
				"kind": "user",
				"methods": {},
				"version": 1
			}
		}
	}
}