{
	"TestCondition.sol": {
		"TryCatchContract": {
			"abi": [
				{
					"inputs": [],
					"stateMutability": "nonpayable",
					"type": "constructor"
				},
				{
					"inputs": [],
					"name": "testCondition",
					"outputs": [
						{
							"internalType": "contract TestCondition",
							"name": "",
							"type": "address"
						}
					],
					"stateMutability": "view",
					"type": "function"
				},
				{
					"inputs": [
						{
							"internalType": "bool",
							"name": "condition",
							"type": "bool"
						}
					],
					"name": "tyrcatch",
					"outputs": [
						{
							"internalType": "string",
							"name": "",
							"type": "string"
						}
					],
					"stateMutability": "view",
					"type": "function"
				}
			],
			"devdoc": {
				"kind": "dev",
				"methods": {},
				"version": 1
			},
			"evm": {
				"assembly": "    /* \"TestCondition.sol\":1257:2302  contract TryCatchContract {... */\n  mstore(0x40, 0x80)\n    /* \"TestCondition.sol\":1330:1396  constructor() {... */\n  callvalue\n  dup1\n  iszero\n  tag_1\n  jumpi\n  revert(0x00, 0x00)\ntag_1:\n  pop\n    /* \"TestCondition.sol\":1370:1389  new TestCondition() */\n  mload(0x40)\n  tag_4\n  swap1\n  tag_5\n  jump\t// in\ntag_4:\n  mload(0x40)\n  dup1\n  swap2\n  sub\n  swap1\n  0x00\n  create\n  dup1\n  iszero\n  dup1\n  iszero\n  tag_6\n  jumpi\n  returndatacopy(0x00, 0x00, returndatasize)\n  revert(0x00, returndatasize)\ntag_6:\n  pop\n    /* \"TestCondition.sol\":1354:1367  testCondition */\n  0x00\n  0x00\n    /* \"TestCondition.sol\":1354:1389  testCondition = new TestCondition() */\n  0x0100\n  exp\n  dup2\n  sload\n  dup2\n  0xffffffffffffffffffffffffffffffffffffffff\n  mul\n  not\n  and\n  swap1\n  dup4\n  0xffffffffffffffffffffffffffffffffffffffff\n  and\n  mul\n  or\n  swap1\n  sstore\n  pop\n    /* \"TestCondition.sol\":1257:2302  contract TryCatchContract {... */\n  jump(tag_7)\ntag_5:\n  dataSize(sub_1)\n  dup1\n  dataOffset(sub_1)\n  dup4\n  codecopy\n  add\n  swap1\n  jump\t// out\ntag_7:\n  dataSize(sub_0)\n  dup1\n  dataOffset(sub_0)\n  0x00\n  codecopy\n  0x00\n  return\nstop\n\nsub_0: assembly {\n        /* \"TestCondition.sol\":1257:2302  contract TryCatchContract {... */\n      mstore(0x40, 0x80)\n      callvalue\n      dup1\n      iszero\n      tag_1\n      jumpi\n      revert(0x00, 0x00)\n    tag_1:\n      pop\n      jumpi(tag_2, lt(calldatasize, 0x04))\n      shr(0xe0, calldataload(0x00))\n      dup1\n      0x3e1cdf28\n      eq\n      tag_3\n      jumpi\n      dup1\n      0xe9ba88e6\n      eq\n      tag_4\n      jumpi\n    tag_2:\n      revert(0x00, 0x00)\n        /* \"TestCondition.sol\":1402:2300  function tyrcatch(bool condition) public view returns (string memory) {... */\n    tag_3:\n      tag_5\n      0x04\n      dup1\n      calldatasize\n      sub\n      dup2\n      add\n      swap1\n      tag_6\n      swap2\n      swap1\n      tag_7\n      jump\t// in\n    tag_6:\n      tag_8\n      jump\t// in\n    tag_5:\n      mload(0x40)\n      tag_9\n      swap2\n      swap1\n      tag_10\n      jump\t// in\n    tag_9:\n      mload(0x40)\n      dup1\n      swap2\n      sub\n      swap1\n      return\n        /* \"TestCondition.sol\":1289:1323  TestCondition public testCondition */\n    tag_4:\n      tag_11\n      tag_12\n      jump\t// in\n    tag_11:\n      mload(0x40)\n      tag_13\n      swap2\n      swap1\n      tag_14\n      jump\t// in\n    tag_13:\n      mload(0x40)\n      dup1\n      swap2\n      sub\n      swap1\n      return\n        /* \"TestCondition.sol\":1402:2300  function tyrcatch(bool condition) public view returns (string memory) {... */\n    tag_8:\n        /* \"TestCondition.sol\":1457:1470  string memory */\n      0x60\n        /* \"TestCondition.sol\":1486:1499  testCondition */\n      0x00\n      0x00\n      swap1\n      sload\n      swap1\n      0x0100\n      exp\n      swap1\n      div\n      0xffffffffffffffffffffffffffffffffffffffff\n      and\n        /* \"TestCondition.sol\":1486:1512  testCondition.revertError2 */\n      0xffffffffffffffffffffffffffffffffffffffff\n      and\n      0x362af9ab\n        /* \"TestCondition.sol\":1513:1522  condition */\n      dup4\n        /* \"TestCondition.sol\":1486:1523  testCondition.revertError2(condition) */\n      mload(0x40)\n      dup3\n      0xffffffff\n      and\n      0xe0\n      shl\n      dup2\n      mstore\n      0x04\n      add\n      tag_16\n      swap2\n      swap1\n      tag_17\n      jump\t// in\n    tag_16:\n      0x20\n      mload(0x40)\n      dup1\n      dup4\n      sub\n      dup2\n      dup7\n      gas\n      staticcall\n      swap3\n      pop\n      pop\n      pop\n      dup1\n      iszero\n      tag_18\n      jumpi\n      pop\n      mload(0x40)\n      returndatasize\n      not(0x1f)\n      0x1f\n      dup3\n      add\n      and\n      dup3\n      add\n      dup1\n      0x40\n      mstore\n      pop\n      dup2\n      add\n      swap1\n      tag_19\n      swap2\n      swap1\n      tag_20\n      jump\t// in\n    tag_19:\n      0x01\n    tag_18:\n        /* \"TestCondition.sol\":1482:2294  try testCondition.revertError2(condition) returns (uint256) {... */\n      tag_21\n      jumpi\n      tag_25\n      tag_26\n      jump\t// in\n    tag_25:\n      dup1\n      0x08c379a0\n      sub\n      tag_24\n      jumpi\n      pop\n      tag_27\n      tag_28\n      jump\t// in\n    tag_27:\n      dup1\n      tag_29\n      jumpi\n      pop\n      jump(tag_23)\n    tag_29:\n        /* \"TestCondition.sol\":1877:1883  reason */\n      dup1\n        /* \"TestCondition.sol\":1850:1884  string.concat(\"reason:::\", reason) */\n      add(0x20, mload(0x40))\n      tag_30\n      swap2\n      swap1\n      tag_31\n      jump\t// in\n    tag_30:\n      mload(0x40)\n      0x20\n      dup2\n      dup4\n      sub\n      sub\n      dup2\n      mstore\n      swap1\n      0x40\n      mstore\n        /* \"TestCondition.sol\":1843:1884  return string.concat(\"reason:::\", reason) */\n      swap2\n      pop\n      pop\n      jump(tag_15)\n        /* \"TestCondition.sol\":1482:2294  try testCondition.revertError2(condition) returns (uint256) {... */\n    tag_24:\n      0x4e487b71\n      sub\n      tag_23\n      jumpi\n      tag_32\n      tag_33\n      jump\t// in\n    tag_32:\n      swap1\n      tag_34\n      jumpi\n      pop\n      jump(tag_23)\n    tag_34:\n        /* \"TestCondition.sol\":2052:2066  return \"panic\" */\n      mload(0x40)\n      dup1\n      0x40\n      add\n      0x40\n      mstore\n      dup1\n      0x05\n      dup2\n      mstore\n      0x20\n      add\n      0x70616e6963000000000000000000000000000000000000000000000000000000\n      dup2\n      mstore\n      pop\n      swap2\n      pop\n      pop\n      jump(tag_15)\n        /* \"TestCondition.sol\":1482:2294  try testCondition.revertError2(condition) returns (uint256) {... */\n    tag_23:\n      returndatasize\n      dup1\n      0x00\n      dup2\n      eq\n      tag_36\n      jumpi\n      mload(0x40)\n      swap2\n      pop\n      and(add(returndatasize, 0x3f), not(0x1f))\n      dup3\n      add\n      0x40\n      mstore\n      returndatasize\n      dup3\n      mstore\n      returndatasize\n      0x00\n      0x20\n      dup5\n      add\n      returndatacopy\n      jump(tag_35)\n    tag_36:\n      0x60\n      swap2\n      pop\n    tag_35:\n      pop\n        /* \"TestCondition.sol\":2269:2281  lowLevelData */\n      dup1\n        /* \"TestCondition.sol\":2228:2283  string.concat(\"lowLevelData::: \", string(lowLevelData)) */\n      add(0x20, mload(0x40))\n      tag_37\n      swap2\n      swap1\n      tag_38\n      jump\t// in\n    tag_37:\n      mload(0x40)\n      0x20\n      dup2\n      dup4\n      sub\n      sub\n      dup2\n      mstore\n      swap1\n      0x40\n      mstore\n        /* \"TestCondition.sol\":2221:2283  return string.concat(\"lowLevelData::: \", string(lowLevelData)) */\n      swap2\n      pop\n      pop\n      jump(tag_15)\n        /* \"TestCondition.sol\":1482:2294  try testCondition.revertError2(condition) returns (uint256) {... */\n    tag_21:\n        /* \"TestCondition.sol\":1646:1662  return \"success\" */\n      mload(0x40)\n      dup1\n      0x40\n      add\n      0x40\n      mstore\n      dup1\n      0x07\n      dup2\n      mstore\n      0x20\n      add\n      0x7375636365737300000000000000000000000000000000000000000000000000\n      dup2\n      mstore\n      pop\n      swap2\n      pop\n      pop\n        /* \"TestCondition.sol\":1402:2300  function tyrcatch(bool condition) public view returns (string memory) {... */\n    tag_15:\n      swap2\n      swap1\n      pop\n      jump\t// out\n        /* \"TestCondition.sol\":1289:1323  TestCondition public testCondition */\n    tag_12:\n      0x00\n      0x00\n      swap1\n      sload\n      swap1\n      0x0100\n      exp\n      swap1\n      div\n      0xffffffffffffffffffffffffffffffffffffffff\n      and\n      dup2\n      jump\t// out\n        /* \"#utility.yul\":7:82   */\n    tag_40:\n        /* \"#utility.yul\":40:46   */\n      0x00\n        /* \"#utility.yul\":73:75   */\n      0x40\n        /* \"#utility.yul\":67:76   */\n      mload\n        /* \"#utility.yul\":57:76   */\n      swap1\n      pop\n        /* \"#utility.yul\":7:82   */\n      swap1\n      jump\t// out\n        /* \"#utility.yul\":88:205   */\n    tag_41:\n        /* \"#utility.yul\":197:198   */\n      0x00\n        /* \"#utility.yul\":194:195   */\n      0x00\n        /* \"#utility.yul\":187:199   */\n      revert\n        /* \"#utility.yul\":334:424   */\n    tag_43:\n        /* \"#utility.yul\":368:375   */\n      0x00\n        /* \"#utility.yul\":411:416   */\n      dup2\n        /* \"#utility.yul\":404:417   */\n      iszero\n        /* \"#utility.yul\":397:418   */\n      iszero\n        /* \"#utility.yul\":386:418   */\n      swap1\n      pop\n        /* \"#utility.yul\":334:424   */\n      swap2\n      swap1\n      pop\n      jump\t// out\n        /* \"#utility.yul\":430:546   */\n    tag_44:\n        /* \"#utility.yul\":500:521   */\n      tag_74\n        /* \"#utility.yul\":515:520   */\n      dup2\n        /* \"#utility.yul\":500:521   */\n      tag_43\n      jump\t// in\n    tag_74:\n        /* \"#utility.yul\":493:498   */\n      dup2\n        /* \"#utility.yul\":490:522   */\n      eq\n        /* \"#utility.yul\":480:540   */\n      tag_75\n      jumpi\n        /* \"#utility.yul\":536:537   */\n      0x00\n        /* \"#utility.yul\":533:534   */\n      0x00\n        /* \"#utility.yul\":526:538   */\n      revert\n        /* \"#utility.yul\":480:540   */\n    tag_75:\n        /* \"#utility.yul\":430:546   */\n      pop\n      jump\t// out\n        /* \"#utility.yul\":552:685   */\n    tag_45:\n        /* \"#utility.yul\":595:600   */\n      0x00\n        /* \"#utility.yul\":633:639   */\n      dup2\n        /* \"#utility.yul\":620:640   */\n      calldataload\n        /* \"#utility.yul\":611:640   */\n      swap1\n      pop\n        /* \"#utility.yul\":649:679   */\n      tag_77\n        /* \"#utility.yul\":673:678   */\n      dup2\n        /* \"#utility.yul\":649:679   */\n      tag_44\n      jump\t// in\n    tag_77:\n        /* \"#utility.yul\":552:685   */\n      swap3\n      swap2\n      pop\n      pop\n      jump\t// out\n        /* \"#utility.yul\":691:1014   */\n    tag_7:\n        /* \"#utility.yul\":747:753   */\n      0x00\n        /* \"#utility.yul\":796:798   */\n      0x20\n        /* \"#utility.yul\":784:793   */\n      dup3\n        /* \"#utility.yul\":775:782   */\n      dup5\n        /* \"#utility.yul\":771:794   */\n      sub\n        /* \"#utility.yul\":767:799   */\n      slt\n        /* \"#utility.yul\":764:883   */\n      iszero\n      tag_79\n      jumpi\n        /* \"#utility.yul\":802:881   */\n      tag_80\n      tag_41\n      jump\t// in\n    tag_80:\n        /* \"#utility.yul\":764:883   */\n    tag_79:\n        /* \"#utility.yul\":922:923   */\n      0x00\n        /* \"#utility.yul\":947:997   */\n      tag_81\n        /* \"#utility.yul\":989:996   */\n      dup5\n        /* \"#utility.yul\":980:986   */\n      dup3\n        /* \"#utility.yul\":969:978   */\n      dup6\n        /* \"#utility.yul\":965:987   */\n      add\n        /* \"#utility.yul\":947:997   */\n      tag_45\n      jump\t// in\n    tag_81:\n        /* \"#utility.yul\":937:997   */\n      swap2\n      pop\n        /* \"#utility.yul\":893:1007   */\n      pop\n        /* \"#utility.yul\":691:1014   */\n      swap3\n      swap2\n      pop\n      pop\n      jump\t// out\n        /* \"#utility.yul\":1020:1119   */\n    tag_46:\n        /* \"#utility.yul\":1072:1078   */\n      0x00\n        /* \"#utility.yul\":1106:1111   */\n      dup2\n        /* \"#utility.yul\":1100:1112   */\n      mload\n        /* \"#utility.yul\":1090:1112   */\n      swap1\n      pop\n        /* \"#utility.yul\":1020:1119   */\n      swap2\n      swap1\n      pop\n      jump\t// out\n        /* \"#utility.yul\":1125:1294   */\n    tag_47:\n        /* \"#utility.yul\":1209:1220   */\n      0x00\n        /* \"#utility.yul\":1243:1249   */\n      dup3\n        /* \"#utility.yul\":1238:1241   */\n      dup3\n        /* \"#utility.yul\":1231:1250   */\n      mstore\n        /* \"#utility.yul\":1283:1287   */\n      0x20\n        /* \"#utility.yul\":1278:1281   */\n      dup3\n        /* \"#utility.yul\":1274:1288   */\n      add\n        /* \"#utility.yul\":1259:1288   */\n      swap1\n      pop\n        /* \"#utility.yul\":1125:1294   */\n      swap3\n      swap2\n      pop\n      pop\n      jump\t// out\n        /* \"#utility.yul\":1300:1439   */\n    tag_48:\n        /* \"#utility.yul\":1389:1395   */\n      dup3\n        /* \"#utility.yul\":1384:1387   */\n      dup2\n        /* \"#utility.yul\":1379:1382   */\n      dup4\n        /* \"#utility.yul\":1373:1396   */\n      mcopy\n        /* \"#utility.yul\":1430:1431   */\n      0x00\n        /* \"#utility.yul\":1421:1427   */\n      dup4\n        /* \"#utility.yul\":1416:1419   */\n      dup4\n        /* \"#utility.yul\":1412:1428   */\n      add\n        /* \"#utility.yul\":1405:1432   */\n      mstore\n        /* \"#utility.yul\":1300:1439   */\n      pop\n      pop\n      pop\n      jump\t// out\n        /* \"#utility.yul\":1445:1547   */\n    tag_49:\n        /* \"#utility.yul\":1486:1492   */\n      0x00\n        /* \"#utility.yul\":1537:1539   */\n      0x1f\n        /* \"#utility.yul\":1533:1540   */\n      not\n        /* \"#utility.yul\":1528:1530   */\n      0x1f\n        /* \"#utility.yul\":1521:1526   */\n      dup4\n        /* \"#utility.yul\":1517:1531   */\n      add\n        /* \"#utility.yul\":1513:1541   */\n      and\n        /* \"#utility.yul\":1503:1541   */\n      swap1\n      pop\n        /* \"#utility.yul\":1445:1547   */\n      swap2\n      swap1\n      pop\n      jump\t// out\n        /* \"#utility.yul\":1553:1930   */\n    tag_50:\n        /* \"#utility.yul\":1641:1644   */\n      0x00\n        /* \"#utility.yul\":1669:1708   */\n      tag_87\n        /* \"#utility.yul\":1702:1707   */\n      dup3\n        /* \"#utility.yul\":1669:1708   */\n      tag_46\n      jump\t// in\n    tag_87:\n        /* \"#utility.yul\":1724:1795   */\n      tag_88\n        /* \"#utility.yul\":1788:1794   */\n      dup2\n        /* \"#utility.yul\":1783:1786   */\n      dup6\n        /* \"#utility.yul\":1724:1795   */\n      tag_47\n      jump\t// in\n    tag_88:\n        /* \"#utility.yul\":1717:1795   */\n      swap4\n      pop\n        /* \"#utility.yul\":1804:1869   */\n      tag_89\n        /* \"#utility.yul\":1862:1868   */\n      dup2\n        /* \"#utility.yul\":1857:1860   */\n      dup6\n        /* \"#utility.yul\":1850:1854   */\n      0x20\n        /* \"#utility.yul\":1843:1848   */\n      dup7\n        /* \"#utility.yul\":1839:1855   */\n      add\n        /* \"#utility.yul\":1804:1869   */\n      tag_48\n      jump\t// in\n    tag_89:\n        /* \"#utility.yul\":1894:1923   */\n      tag_90\n        /* \"#utility.yul\":1916:1922   */\n      dup2\n        /* \"#utility.yul\":1894:1923   */\n      tag_49\n      jump\t// in\n    tag_90:\n        /* \"#utility.yul\":1889:1892   */\n      dup5\n        /* \"#utility.yul\":1885:1924   */\n      add\n        /* \"#utility.yul\":1878:1924   */\n      swap2\n      pop\n        /* \"#utility.yul\":1645:1930   */\n      pop\n        /* \"#utility.yul\":1553:1930   */\n      swap3\n      swap2\n      pop\n      pop\n      jump\t// out\n        /* \"#utility.yul\":1936:2249   */\n    tag_10:\n        /* \"#utility.yul\":2049:2053   */\n      0x00\n        /* \"#utility.yul\":2087:2089   */\n      0x20\n        /* \"#utility.yul\":2076:2085   */\n      dup3\n        /* \"#utility.yul\":2072:2090   */\n      add\n        /* \"#utility.yul\":2064:2090   */\n      swap1\n      pop\n        /* \"#utility.yul\":2136:2145   */\n      dup2\n        /* \"#utility.yul\":2130:2134   */\n      dup2\n        /* \"#utility.yul\":2126:2146   */\n      sub\n        /* \"#utility.yul\":2122:2123   */\n      0x00\n        /* \"#utility.yul\":2111:2120   */\n      dup4\n        /* \"#utility.yul\":2107:2124   */\n      add\n        /* \"#utility.yul\":2100:2147   */\n      mstore\n        /* \"#utility.yul\":2164:2242   */\n      tag_92\n        /* \"#utility.yul\":2237:2241   */\n      dup2\n        /* \"#utility.yul\":2228:2234   */\n      dup5\n        /* \"#utility.yul\":2164:2242   */\n      tag_50\n      jump\t// in\n    tag_92:\n        /* \"#utility.yul\":2156:2242   */\n      swap1\n      pop\n        /* \"#utility.yul\":1936:2249   */\n      swap3\n      swap2\n      pop\n      pop\n      jump\t// out\n        /* \"#utility.yul\":2255:2381   */\n    tag_51:\n        /* \"#utility.yul\":2292:2299   */\n      0x00\n        /* \"#utility.yul\":2332:2374   */\n      0xffffffffffffffffffffffffffffffffffffffff\n        /* \"#utility.yul\":2325:2330   */\n      dup3\n        /* \"#utility.yul\":2321:2375   */\n      and\n        /* \"#utility.yul\":2310:2375   */\n      swap1\n      pop\n        /* \"#utility.yul\":2255:2381   */\n      swap2\n      swap1\n      pop\n      jump\t// out\n        /* \"#utility.yul\":2387:2447   */\n    tag_52:\n        /* \"#utility.yul\":2415:2418   */\n      0x00\n        /* \"#utility.yul\":2436:2441   */\n      dup2\n        /* \"#utility.yul\":2429:2441   */\n      swap1\n      pop\n        /* \"#utility.yul\":2387:2447   */\n      swap2\n      swap1\n      pop\n      jump\t// out\n        /* \"#utility.yul\":2453:2595   */\n    tag_53:\n        /* \"#utility.yul\":2503:2512   */\n      0x00\n        /* \"#utility.yul\":2536:2589   */\n      tag_96\n        /* \"#utility.yul\":2554:2588   */\n      tag_97\n        /* \"#utility.yul\":2563:2587   */\n      tag_98\n        /* \"#utility.yul\":2581:2586   */\n      dup5\n        /* \"#utility.yul\":2563:2587   */\n      tag_51\n      jump\t// in\n    tag_98:\n        /* \"#utility.yul\":2554:2588   */\n      tag_52\n      jump\t// in\n    tag_97:\n        /* \"#utility.yul\":2536:2589   */\n      tag_51\n      jump\t// in\n    tag_96:\n        /* \"#utility.yul\":2523:2589   */\n      swap1\n      pop\n        /* \"#utility.yul\":2453:2595   */\n      swap2\n      swap1\n      pop\n      jump\t// out\n        /* \"#utility.yul\":2601:2727   */\n    tag_54:\n        /* \"#utility.yul\":2651:2660   */\n      0x00\n        /* \"#utility.yul\":2684:2721   */\n      tag_100\n        /* \"#utility.yul\":2715:2720   */\n      dup3\n        /* \"#utility.yul\":2684:2721   */\n      tag_53\n      jump\t// in\n    tag_100:\n        /* \"#utility.yul\":2671:2721   */\n      swap1\n      pop\n        /* \"#utility.yul\":2601:2727   */\n      swap2\n      swap1\n      pop\n      jump\t// out\n        /* \"#utility.yul\":2733:2880   */\n    tag_55:\n        /* \"#utility.yul\":2804:2813   */\n      0x00\n        /* \"#utility.yul\":2837:2874   */\n      tag_102\n        /* \"#utility.yul\":2868:2873   */\n      dup3\n        /* \"#utility.yul\":2837:2874   */\n      tag_54\n      jump\t// in\n    tag_102:\n        /* \"#utility.yul\":2824:2874   */\n      swap1\n      pop\n        /* \"#utility.yul\":2733:2880   */\n      swap2\n      swap1\n      pop\n      jump\t// out\n        /* \"#utility.yul\":2886:3059   */\n    tag_56:\n        /* \"#utility.yul\":2994:3052   */\n      tag_104\n        /* \"#utility.yul\":3046:3051   */\n      dup2\n        /* \"#utility.yul\":2994:3052   */\n      tag_55\n      jump\t// in\n    tag_104:\n        /* \"#utility.yul\":2989:2992   */\n      dup3\n        /* \"#utility.yul\":2982:3053   */\n      mstore\n        /* \"#utility.yul\":2886:3059   */\n      pop\n      pop\n      jump\t// out\n        /* \"#utility.yul\":3065:3329   */\n    tag_14:\n        /* \"#utility.yul\":3179:3183   */\n      0x00\n        /* \"#utility.yul\":3217:3219   */\n      0x20\n        /* \"#utility.yul\":3206:3215   */\n      dup3\n        /* \"#utility.yul\":3202:3220   */\n      add\n        /* \"#utility.yul\":3194:3220   */\n      swap1\n      pop\n        /* \"#utility.yul\":3230:3322   */\n      tag_106\n        /* \"#utility.yul\":3319:3320   */\n      0x00\n        /* \"#utility.yul\":3308:3317   */\n      dup4\n        /* \"#utility.yul\":3304:3321   */\n      add\n        /* \"#utility.yul\":3295:3301   */\n      dup5\n        /* \"#utility.yul\":3230:3322   */\n      tag_56\n      jump\t// in\n    tag_106:\n        /* \"#utility.yul\":3065:3329   */\n      swap3\n      swap2\n      pop\n      pop\n      jump\t// out\n        /* \"#utility.yul\":3335:3444   */\n    tag_57:\n        /* \"#utility.yul\":3416:3437   */\n      tag_108\n        /* \"#utility.yul\":3431:3436   */\n      dup2\n        /* \"#utility.yul\":3416:3437   */\n      tag_43\n      jump\t// in\n    tag_108:\n        /* \"#utility.yul\":3411:3414   */\n      dup3\n        /* \"#utility.yul\":3404:3438   */\n      mstore\n        /* \"#utility.yul\":3335:3444   */\n      pop\n      pop\n      jump\t// out\n        /* \"#utility.yul\":3450:3660   */\n    tag_17:\n        /* \"#utility.yul\":3537:3541   */\n      0x00\n        /* \"#utility.yul\":3575:3577   */\n      0x20\n        /* \"#utility.yul\":3564:3573   */\n      dup3\n        /* \"#utility.yul\":3560:3578   */\n      add\n        /* \"#utility.yul\":3552:3578   */\n      swap1\n      pop\n        /* \"#utility.yul\":3588:3653   */\n      tag_110\n        /* \"#utility.yul\":3650:3651   */\n      0x00\n        /* \"#utility.yul\":3639:3648   */\n      dup4\n        /* \"#utility.yul\":3635:3652   */\n      add\n        /* \"#utility.yul\":3626:3632   */\n      dup5\n        /* \"#utility.yul\":3588:3653   */\n      tag_57\n      jump\t// in\n    tag_110:\n        /* \"#utility.yul\":3450:3660   */\n      swap3\n      swap2\n      pop\n      pop\n      jump\t// out\n        /* \"#utility.yul\":3666:3743   */\n    tag_58:\n        /* \"#utility.yul\":3703:3710   */\n      0x00\n        /* \"#utility.yul\":3732:3737   */\n      dup2\n        /* \"#utility.yul\":3721:3737   */\n      swap1\n      pop\n        /* \"#utility.yul\":3666:3743   */\n      swap2\n      swap1\n      pop\n      jump\t// out\n        /* \"#utility.yul\":3749:3871   */\n    tag_59:\n        /* \"#utility.yul\":3822:3846   */\n      tag_113\n        /* \"#utility.yul\":3840:3845   */\n      dup2\n        /* \"#utility.yul\":3822:3846   */\n      tag_58\n      jump\t// in\n    tag_113:\n        /* \"#utility.yul\":3815:3820   */\n      dup2\n        /* \"#utility.yul\":3812:3847   */\n      eq\n        /* \"#utility.yul\":3802:3865   */\n      tag_114\n      jumpi\n        /* \"#utility.yul\":3861:3862   */\n      0x00\n        /* \"#utility.yul\":3858:3859   */\n      0x00\n        /* \"#utility.yul\":3851:3863   */\n      revert\n        /* \"#utility.yul\":3802:3865   */\n    tag_114:\n        /* \"#utility.yul\":3749:3871   */\n      pop\n      jump\t// out\n        /* \"#utility.yul\":3877:4020   */\n    tag_60:\n        /* \"#utility.yul\":3934:3939   */\n      0x00\n        /* \"#utility.yul\":3965:3971   */\n      dup2\n        /* \"#utility.yul\":3959:3972   */\n      mload\n        /* \"#utility.yul\":3950:3972   */\n      swap1\n      pop\n        /* \"#utility.yul\":3981:4014   */\n      tag_116\n        /* \"#utility.yul\":4008:4013   */\n      dup2\n        /* \"#utility.yul\":3981:4014   */\n      tag_59\n      jump\t// in\n    tag_116:\n        /* \"#utility.yul\":3877:4020   */\n      swap3\n      swap2\n      pop\n      pop\n      jump\t// out\n        /* \"#utility.yul\":4026:4377   */\n    tag_20:\n        /* \"#utility.yul\":4096:4102   */\n      0x00\n        /* \"#utility.yul\":4145:4147   */\n      0x20\n        /* \"#utility.yul\":4133:4142   */\n      dup3\n        /* \"#utility.yul\":4124:4131   */\n      dup5\n        /* \"#utility.yul\":4120:4143   */\n      sub\n        /* \"#utility.yul\":4116:4148   */\n      slt\n        /* \"#utility.yul\":4113:4232   */\n      iszero\n      tag_118\n      jumpi\n        /* \"#utility.yul\":4151:4230   */\n      tag_119\n      tag_41\n      jump\t// in\n    tag_119:\n        /* \"#utility.yul\":4113:4232   */\n    tag_118:\n        /* \"#utility.yul\":4271:4272   */\n      0x00\n        /* \"#utility.yul\":4296:4360   */\n      tag_120\n        /* \"#utility.yul\":4352:4359   */\n      dup5\n        /* \"#utility.yul\":4343:4349   */\n      dup3\n        /* \"#utility.yul\":4332:4341   */\n      dup6\n        /* \"#utility.yul\":4328:4350   */\n      add\n        /* \"#utility.yul\":4296:4360   */\n      tag_60\n      jump\t// in\n    tag_120:\n        /* \"#utility.yul\":4286:4360   */\n      swap2\n      pop\n        /* \"#utility.yul\":4242:4370   */\n      pop\n        /* \"#utility.yul\":4026:4377   */\n      swap3\n      swap2\n      pop\n      pop\n      jump\t// out\n        /* \"#utility.yul\":4383:4489   */\n    tag_61:\n        /* \"#utility.yul\":4427:4435   */\n      0x00\n        /* \"#utility.yul\":4476:4481   */\n      dup2\n        /* \"#utility.yul\":4471:4474   */\n      0xe0\n        /* \"#utility.yul\":4467:4482   */\n      shr\n        /* \"#utility.yul\":4446:4482   */\n      swap1\n      pop\n        /* \"#utility.yul\":4383:4489   */\n      swap2\n      swap1\n      pop\n      jump\t// out\n        /* \"#utility.yul\":4495:4678   */\n    tag_26:\n        /* \"#utility.yul\":4530:4533   */\n      0x00\n        /* \"#utility.yul\":4568:4569   */\n      0x03\n        /* \"#utility.yul\":4550:4566   */\n      returndatasize\n        /* \"#utility.yul\":4547:4570   */\n      gt\n        /* \"#utility.yul\":4544:4672   */\n      iszero\n      tag_123\n      jumpi\n        /* \"#utility.yul\":4606:4607   */\n      0x04\n        /* \"#utility.yul\":4603:4604   */\n      0x00\n        /* \"#utility.yul\":4600:4601   */\n      0x00\n        /* \"#utility.yul\":4585:4608   */\n      returndatacopy\n        /* \"#utility.yul\":4628:4662   */\n      tag_124\n        /* \"#utility.yul\":4659:4660   */\n      0x00\n        /* \"#utility.yul\":4653:4661   */\n      mload\n        /* \"#utility.yul\":4628:4662   */\n      tag_61\n      jump\t// in\n    tag_124:\n        /* \"#utility.yul\":4621:4662   */\n      swap1\n      pop\n        /* \"#utility.yul\":4544:4672   */\n    tag_123:\n        /* \"#utility.yul\":4495:4678   */\n      swap1\n      jump\t// out\n        /* \"#utility.yul\":4684:4864   */\n    tag_62:\n        /* \"#utility.yul\":4732:4809   */\n      0x4e487b7100000000000000000000000000000000000000000000000000000000\n        /* \"#utility.yul\":4729:4730   */\n      0x00\n        /* \"#utility.yul\":4722:4810   */\n      mstore\n        /* \"#utility.yul\":4829:4833   */\n      0x41\n        /* \"#utility.yul\":4826:4827   */\n      0x04\n        /* \"#utility.yul\":4819:4834   */\n      mstore\n        /* \"#utility.yul\":4853:4857   */\n      0x24\n        /* \"#utility.yul\":4850:4851   */\n      0x00\n        /* \"#utility.yul\":4843:4858   */\n      revert\n        /* \"#utility.yul\":4870:5151   */\n    tag_63:\n        /* \"#utility.yul\":4953:4980   */\n      tag_127\n        /* \"#utility.yul\":4975:4979   */\n      dup3\n        /* \"#utility.yul\":4953:4980   */\n      tag_49\n      jump\t// in\n    tag_127:\n        /* \"#utility.yul\":4945:4951   */\n      dup2\n        /* \"#utility.yul\":4941:4981   */\n      add\n        /* \"#utility.yul\":5083:5089   */\n      dup2\n        /* \"#utility.yul\":5071:5081   */\n      dup2\n        /* \"#utility.yul\":5068:5090   */\n      lt\n        /* \"#utility.yul\":5047:5065   */\n      0xffffffffffffffff\n        /* \"#utility.yul\":5035:5045   */\n      dup3\n        /* \"#utility.yul\":5032:5066   */\n      gt\n        /* \"#utility.yul\":5029:5091   */\n      or\n        /* \"#utility.yul\":5026:5114   */\n      iszero\n      tag_128\n      jumpi\n        /* \"#utility.yul\":5094:5112   */\n      tag_129\n      tag_62\n      jump\t// in\n    tag_129:\n        /* \"#utility.yul\":5026:5114   */\n    tag_128:\n        /* \"#utility.yul\":5134:5144   */\n      dup1\n        /* \"#utility.yul\":5130:5132   */\n      0x40\n        /* \"#utility.yul\":5123:5145   */\n      mstore\n        /* \"#utility.yul\":4913:5151   */\n      pop\n        /* \"#utility.yul\":4870:5151   */\n      pop\n      pop\n      jump\t// out\n        /* \"#utility.yul\":5157:5868   */\n    tag_28:\n        /* \"#utility.yul\":5196:5199   */\n      0x00\n        /* \"#utility.yul\":5234:5238   */\n      0x44\n        /* \"#utility.yul\":5216:5232   */\n      returndatasize\n        /* \"#utility.yul\":5213:5239   */\n      lt\n        /* \"#utility.yul\":5242:5247   */\n      tag_130\n        /* \"#utility.yul\":5210:5249   */\n      jumpi\n        /* \"#utility.yul\":5271:5291   */\n      tag_132\n      tag_40\n      jump\t// in\n    tag_132:\n        /* \"#utility.yul\":5346:5347   */\n      0x04\n        /* \"#utility.yul\":5328:5344   */\n      returndatasize\n        /* \"#utility.yul\":5324:5348   */\n      sub\n        /* \"#utility.yul\":5321:5322   */\n      0x04\n        /* \"#utility.yul\":5315:5319   */\n      dup3\n        /* \"#utility.yul\":5300:5349   */\n      returndatacopy\n        /* \"#utility.yul\":5379:5383   */\n      dup1\n        /* \"#utility.yul\":5373:5384   */\n      mload\n        /* \"#utility.yul\":5478:5494   */\n      returndatasize\n        /* \"#utility.yul\":5471:5475   */\n      0x24\n        /* \"#utility.yul\":5463:5469   */\n      dup3\n        /* \"#utility.yul\":5459:5476   */\n      add\n        /* \"#utility.yul\":5456:5495   */\n      gt\n        /* \"#utility.yul\":5423:5441   */\n      0xffffffffffffffff\n        /* \"#utility.yul\":5415:5421   */\n      dup3\n        /* \"#utility.yul\":5412:5442   */\n      gt\n        /* \"#utility.yul\":5396:5509   */\n      or\n        /* \"#utility.yul\":5393:5539   */\n      iszero\n      tag_133\n      jumpi\n        /* \"#utility.yul\":5524:5529   */\n      pop\n      pop\n      jump(tag_130)\n        /* \"#utility.yul\":5393:5539   */\n    tag_133:\n        /* \"#utility.yul\":5570:5576   */\n      dup1\n        /* \"#utility.yul\":5564:5568   */\n      dup3\n        /* \"#utility.yul\":5560:5577   */\n      add\n        /* \"#utility.yul\":5606:5609   */\n      dup1\n        /* \"#utility.yul\":5600:5610   */\n      mload\n        /* \"#utility.yul\":5633:5651   */\n      0xffffffffffffffff\n        /* \"#utility.yul\":5625:5631   */\n      dup2\n        /* \"#utility.yul\":5622:5652   */\n      gt\n        /* \"#utility.yul\":5619:5662   */\n      iszero\n      tag_134\n      jumpi\n        /* \"#utility.yul\":5655:5660   */\n      pop\n      pop\n      pop\n      pop\n      jump(tag_130)\n        /* \"#utility.yul\":5619:5662   */\n    tag_134:\n        /* \"#utility.yul\":5703:5709   */\n      dup1\n        /* \"#utility.yul\":5696:5700   */\n      0x20\n        /* \"#utility.yul\":5691:5694   */\n      dup4\n        /* \"#utility.yul\":5687:5701   */\n      add\n        /* \"#utility.yul\":5683:5710   */\n      add\n        /* \"#utility.yul\":5762:5763   */\n      0x04\n        /* \"#utility.yul\":5744:5760   */\n      returndatasize\n        /* \"#utility.yul\":5740:5764   */\n      sub\n        /* \"#utility.yul\":5734:5738   */\n      dup6\n        /* \"#utility.yul\":5730:5765   */\n      add\n        /* \"#utility.yul\":5725:5728   */\n      dup2\n        /* \"#utility.yul\":5722:5766   */\n      gt\n        /* \"#utility.yul\":5719:5776   */\n      iszero\n      tag_135\n      jumpi\n        /* \"#utility.yul\":5769:5774   */\n      pop\n      pop\n      pop\n      pop\n      pop\n      jump(tag_130)\n        /* \"#utility.yul\":5719:5776   */\n    tag_135:\n        /* \"#utility.yul\":5786:5843   */\n      tag_136\n        /* \"#utility.yul\":5834:5840   */\n      dup3\n        /* \"#utility.yul\":5828:5832   */\n      0x20\n        /* \"#utility.yul\":5824:5841   */\n      add\n        /* \"#utility.yul\":5816:5822   */\n      dup6\n        /* \"#utility.yul\":5812:5842   */\n      add\n        /* \"#utility.yul\":5806:5810   */\n      dup7\n        /* \"#utility.yul\":5786:5843   */\n      tag_63\n      jump\t// in\n    tag_136:\n        /* \"#utility.yul\":5859:5862   */\n      dup3\n        /* \"#utility.yul\":5852:5862   */\n      swap6\n      pop\n        /* \"#utility.yul\":5200:5868   */\n      pop\n      pop\n      pop\n      pop\n      pop\n        /* \"#utility.yul\":5157:5868   */\n    tag_130:\n      swap1\n      jump\t// out\n        /* \"#utility.yul\":5874:6060   */\n    tag_64:\n        /* \"#utility.yul\":6042:6053   */\n      0x726561736f6e3a3a3a0000000000000000000000000000000000000000000000\n        /* \"#utility.yul\":6037:6040   */\n      dup2\n        /* \"#utility.yul\":6030:6054   */\n      mstore\n        /* \"#utility.yul\":5874:6060   */\n      pop\n      jump\t// out\n        /* \"#utility.yul\":6066:6214   */\n    tag_65:\n        /* \"#utility.yul\":6168:6179   */\n      0x00\n        /* \"#utility.yul\":6205:6208   */\n      dup2\n        /* \"#utility.yul\":6190:6208   */\n      swap1\n      pop\n        /* \"#utility.yul\":6066:6214   */\n      swap3\n      swap2\n      pop\n      pop\n      jump\t// out\n        /* \"#utility.yul\":6220:6610   */\n    tag_66:\n        /* \"#utility.yul\":6326:6329   */\n      0x00\n        /* \"#utility.yul\":6354:6393   */\n      tag_140\n        /* \"#utility.yul\":6387:6392   */\n      dup3\n        /* \"#utility.yul\":6354:6393   */\n      tag_46\n      jump\t// in\n    tag_140:\n        /* \"#utility.yul\":6409:6498   */\n      tag_141\n        /* \"#utility.yul\":6491:6497   */\n      dup2\n        /* \"#utility.yul\":6486:6489   */\n      dup6\n        /* \"#utility.yul\":6409:6498   */\n      tag_65\n      jump\t// in\n    tag_141:\n        /* \"#utility.yul\":6402:6498   */\n      swap4\n      pop\n        /* \"#utility.yul\":6507:6572   */\n      tag_142\n        /* \"#utility.yul\":6565:6571   */\n      dup2\n        /* \"#utility.yul\":6560:6563   */\n      dup6\n        /* \"#utility.yul\":6553:6557   */\n      0x20\n        /* \"#utility.yul\":6546:6551   */\n      dup7\n        /* \"#utility.yul\":6542:6558   */\n      add\n        /* \"#utility.yul\":6507:6572   */\n      tag_48\n      jump\t// in\n    tag_142:\n        /* \"#utility.yul\":6597:6603   */\n      dup1\n        /* \"#utility.yul\":6592:6595   */\n      dup5\n        /* \"#utility.yul\":6588:6604   */\n      add\n        /* \"#utility.yul\":6581:6604   */\n      swap2\n      pop\n        /* \"#utility.yul\":6330:6610   */\n      pop\n        /* \"#utility.yul\":6220:6610   */\n      swap3\n      swap2\n      pop\n      pop\n      jump\t// out\n        /* \"#utility.yul\":6616:7155   */\n    tag_31:\n        /* \"#utility.yul\":6838:6841   */\n      0x00\n        /* \"#utility.yul\":6853:6990   */\n      tag_144\n        /* \"#utility.yul\":6986:6989   */\n      dup3\n        /* \"#utility.yul\":6853:6990   */\n      tag_64\n      jump\t// in\n    tag_144:\n        /* \"#utility.yul\":7015:7016   */\n      0x09\n        /* \"#utility.yul\":7010:7013   */\n      dup3\n        /* \"#utility.yul\":7006:7017   */\n      add\n        /* \"#utility.yul\":6999:7017   */\n      swap2\n      pop\n        /* \"#utility.yul\":7034:7129   */\n      tag_145\n        /* \"#utility.yul\":7125:7128   */\n      dup3\n        /* \"#utility.yul\":7116:7122   */\n      dup5\n        /* \"#utility.yul\":7034:7129   */\n      tag_66\n      jump\t// in\n    tag_145:\n        /* \"#utility.yul\":7027:7129   */\n      swap2\n      pop\n        /* \"#utility.yul\":7146:7149   */\n      dup2\n        /* \"#utility.yul\":7139:7149   */\n      swap1\n      pop\n        /* \"#utility.yul\":6616:7155   */\n      swap3\n      swap2\n      pop\n      pop\n      jump\t// out\n        /* \"#utility.yul\":7161:7361   */\n    tag_33:\n        /* \"#utility.yul\":7197:7204   */\n      0x00\n        /* \"#utility.yul\":7206:7210   */\n      0x00\n        /* \"#utility.yul\":7245:7249   */\n      0x23\n        /* \"#utility.yul\":7227:7243   */\n      returndatasize\n        /* \"#utility.yul\":7224:7250   */\n      gt\n        /* \"#utility.yul\":7221:7355   */\n      iszero\n      tag_147\n      jumpi\n        /* \"#utility.yul\":7286:7290   */\n      0x20\n        /* \"#utility.yul\":7283:7284   */\n      0x04\n        /* \"#utility.yul\":7280:7281   */\n      0x00\n        /* \"#utility.yul\":7265:7291   */\n      returndatacopy\n        /* \"#utility.yul\":7315:7316   */\n      0x01\n        /* \"#utility.yul\":7304:7316   */\n      swap2\n      pop\n        /* \"#utility.yul\":7343:7344   */\n      0x00\n        /* \"#utility.yul\":7337:7345   */\n      mload\n        /* \"#utility.yul\":7329:7345   */\n      swap1\n      pop\n        /* \"#utility.yul\":7221:7355   */\n    tag_147:\n        /* \"#utility.yul\":7161:7361   */\n      swap1\n      swap2\n      jump\t// out\n        /* \"#utility.yul\":7367:7561   */\n    tag_67:\n        /* \"#utility.yul\":7536:7554   */\n      0x6c6f774c6576656c446174613a3a3a2000000000000000000000000000000000\n        /* \"#utility.yul\":7531:7534   */\n      dup2\n        /* \"#utility.yul\":7524:7555   */\n      mstore\n        /* \"#utility.yul\":7367:7561   */\n      pop\n      jump\t// out\n        /* \"#utility.yul\":7567:8109   */\n    tag_38:\n        /* \"#utility.yul\":7790:7793   */\n      0x00\n        /* \"#utility.yul\":7805:7943   */\n      tag_150\n        /* \"#utility.yul\":7939:7942   */\n      dup3\n        /* \"#utility.yul\":7805:7943   */\n      tag_67\n      jump\t// in\n    tag_150:\n        /* \"#utility.yul\":7968:7970   */\n      0x10\n        /* \"#utility.yul\":7963:7966   */\n      dup3\n        /* \"#utility.yul\":7959:7971   */\n      add\n        /* \"#utility.yul\":7952:7971   */\n      swap2\n      pop\n        /* \"#utility.yul\":7988:8083   */\n      tag_151\n        /* \"#utility.yul\":8079:8082   */\n      dup3\n        /* \"#utility.yul\":8070:8076   */\n      dup5\n        /* \"#utility.yul\":7988:8083   */\n      tag_66\n      jump\t// in\n    tag_151:\n        /* \"#utility.yul\":7981:8083   */\n      swap2\n      pop\n        /* \"#utility.yul\":8100:8103   */\n      dup2\n        /* \"#utility.yul\":8093:8103   */\n      swap1\n      pop\n        /* \"#utility.yul\":7567:8109   */\n      swap3\n      swap2\n      pop\n      pop\n      jump\t// out\n\n    auxdata: 0xa264697066735822122018a665644cd7926bf260565eda735fd7ac88811e38df962682244a4d185d093c64736f6c634300081e0033\n}\n\nsub_1: assembly {\n        /* \"TestCondition.sol\":57:1255  contract TestCondition {... */\n      mstore(0x40, 0x80)\n      callvalue\n      dup1\n      iszero\n      tag_1\n      jumpi\n      revert(0x00, 0x00)\n    tag_1:\n      pop\n      dataSize(sub_0)\n      dup1\n      dataOffset(sub_0)\n      0x00\n      codecopy\n      0x00\n      return\n    stop\n\n    sub_0: assembly {\n            /* \"TestCondition.sol\":57:1255  contract TestCondition {... */\n          mstore(0x40, 0x80)\n          callvalue\n          dup1\n          iszero\n          tag_1\n          jumpi\n          revert(0x00, 0x00)\n        tag_1:\n          pop\n          jumpi(tag_2, lt(calldatasize, 0x04))\n          shr(0xe0, calldataload(0x00))\n          dup1\n          0x362af9ab\n          eq\n          tag_3\n          jumpi\n          dup1\n          0x3c104699\n          eq\n          tag_4\n          jumpi\n          dup1\n          0x3fc38a57\n          eq\n          tag_5\n          jumpi\n          dup1\n          0x779d3efc\n          eq\n          tag_6\n          jumpi\n          dup1\n          0xf98ec922\n          eq\n          tag_7\n          jumpi\n        tag_2:\n          revert(0x00, 0x00)\n            /* \"TestCondition.sol\":815:965  function revertError2(bool condition) public pure returns (uint256) {... */\n        tag_3:\n          tag_8\n          0x04\n          dup1\n          calldatasize\n          sub\n          dup2\n          add\n          swap1\n          tag_9\n          swap2\n          swap1\n          tag_10\n          jump\t// in\n        tag_9:\n          tag_11\n          jump\t// in\n        tag_8:\n          mload(0x40)\n          tag_12\n          swap2\n          swap1\n          tag_13\n          jump\t// in\n        tag_12:\n          mload(0x40)\n          dup1\n          swap2\n          sub\n          swap1\n          return\n            /* \"TestCondition.sol\":397:539  function requireError(bool condition) public pure returns (uint256) {... */\n        tag_4:\n          tag_14\n          0x04\n          dup1\n          calldatasize\n          sub\n          dup2\n          add\n          swap1\n          tag_15\n          swap2\n          swap1\n          tag_10\n          jump\t// in\n        tag_15:\n          tag_16\n          jump\t// in\n        tag_14:\n          mload(0x40)\n          tag_17\n          swap2\n          swap1\n          tag_13\n          jump\t// in\n        tag_17:\n          mload(0x40)\n          dup1\n          swap2\n          sub\n          swap1\n          return\n            /* \"TestCondition.sol\":971:1253  function revertError3(bool condition) public view returns (uint256) {... */\n        tag_5:\n          tag_18\n          0x04\n          dup1\n          calldatasize\n          sub\n          dup2\n          add\n          swap1\n          tag_19\n          swap2\n          swap1\n          tag_10\n          jump\t// in\n        tag_19:\n          tag_20\n          jump\t// in\n        tag_18:\n          mload(0x40)\n          tag_21\n          swap2\n          swap1\n          tag_13\n          jump\t// in\n        tag_21:\n          mload(0x40)\n          dup1\n          swap2\n          sub\n          swap1\n          return\n            /* \"TestCondition.sol\":670:809  function revertError(bool condition) public pure returns (uint256) {... */\n        tag_6:\n          tag_22\n          0x04\n          dup1\n          calldatasize\n          sub\n          dup2\n          add\n          swap1\n          tag_23\n          swap2\n          swap1\n          tag_10\n          jump\t// in\n        tag_23:\n          tag_24\n          jump\t// in\n        tag_22:\n          mload(0x40)\n          tag_25\n          swap2\n          swap1\n          tag_13\n          jump\t// in\n        tag_25:\n          mload(0x40)\n          dup1\n          swap2\n          sub\n          swap1\n          return\n            /* \"TestCondition.sol\":545:664  function assertError(bool condition) public pure returns (uint256) {... */\n        tag_7:\n          tag_26\n          0x04\n          dup1\n          calldatasize\n          sub\n          dup2\n          add\n          swap1\n          tag_27\n          swap2\n          swap1\n          tag_10\n          jump\t// in\n        tag_27:\n          tag_28\n          jump\t// in\n        tag_26:\n          mload(0x40)\n          tag_29\n          swap2\n          swap1\n          tag_13\n          jump\t// in\n        tag_29:\n          mload(0x40)\n          dup1\n          swap2\n          sub\n          swap1\n          return\n            /* \"TestCondition.sol\":815:965  function revertError2(bool condition) public pure returns (uint256) {... */\n        tag_11:\n            /* \"TestCondition.sol\":874:881  uint256 */\n          0x00\n            /* \"TestCondition.sol\":898:907  condition */\n          dup2\n            /* \"TestCondition.sol\":893:940  if (!condition) revert(\"revert::: some reason\") */\n          tag_31\n          jumpi\n            /* \"TestCondition.sol\":909:940  revert(\"revert::: some reason\") */\n          mload(0x40)\n          0x08c379a000000000000000000000000000000000000000000000000000000000\n          dup2\n          mstore\n          0x04\n          add\n          tag_32\n          swap1\n          tag_33\n          jump\t// in\n        tag_32:\n          mload(0x40)\n          dup1\n          swap2\n          sub\n          swap1\n          revert\n            /* \"TestCondition.sol\":893:940  if (!condition) revert(\"revert::: some reason\") */\n        tag_31:\n            /* \"TestCondition.sol\":957:958  3 */\n          0x03\n            /* \"TestCondition.sol\":950:958  return 3 */\n          swap1\n          pop\n            /* \"TestCondition.sol\":815:965  function revertError2(bool condition) public pure returns (uint256) {... */\n          swap2\n          swap1\n          pop\n          jump\t// out\n            /* \"TestCondition.sol\":397:539  function requireError(bool condition) public pure returns (uint256) {... */\n        tag_16:\n            /* \"TestCondition.sol\":456:463  uint256 */\n          0x00\n            /* \"TestCondition.sol\":483:492  condition */\n          dup2\n            /* \"TestCondition.sol\":475:514  require(condition, \"Input is not true\") */\n          tag_35\n          jumpi\n          mload(0x40)\n          0x08c379a000000000000000000000000000000000000000000000000000000000\n          dup2\n          mstore\n          0x04\n          add\n          tag_36\n          swap1\n          tag_37\n          jump\t// in\n        tag_36:\n          mload(0x40)\n          dup1\n          swap2\n          sub\n          swap1\n          revert\n        tag_35:\n            /* \"TestCondition.sol\":531:532  1 */\n          0x01\n            /* \"TestCondition.sol\":524:532  return 1 */\n          swap1\n          pop\n            /* \"TestCondition.sol\":397:539  function requireError(bool condition) public pure returns (uint256) {... */\n          swap2\n          swap1\n          pop\n          jump\t// out\n            /* \"TestCondition.sol\":971:1253  function revertError3(bool condition) public view returns (uint256) {... */\n        tag_20:\n            /* \"TestCondition.sol\":1030:1037  uint256 */\n          0x00\n            /* \"TestCondition.sol\":1054:1063  condition */\n          dup2\n            /* \"TestCondition.sol\":1049:1228  if (!condition)... */\n          tag_39\n          jumpi\n            /* \"TestCondition.sol\":1116:1126  msg.sender */\n          caller\n            /* \"TestCondition.sol\":1144:1153  tx.origin */\n          origin\n            /* \"TestCondition.sol\":1171:1174  888 */\n          0x0378\n            /* \"TestCondition.sol\":1084:1228  TransferFailed(... */\n          mload(0x40)\n          0x8459163200000000000000000000000000000000000000000000000000000000\n          dup2\n          mstore\n          0x04\n          add\n          tag_40\n          swap4\n          swap3\n          swap2\n          swap1\n          tag_41\n          jump\t// in\n        tag_40:\n          mload(0x40)\n          dup1\n          swap2\n          sub\n          swap1\n          revert\n            /* \"TestCondition.sol\":1049:1228  if (!condition)... */\n        tag_39:\n            /* \"TestCondition.sol\":1245:1246  3 */\n          0x03\n            /* \"TestCondition.sol\":1238:1246  return 3 */\n          swap1\n          pop\n            /* \"TestCondition.sol\":971:1253  function revertError3(bool condition) public view returns (uint256) {... */\n          swap2\n          swap1\n          pop\n          jump\t// out\n            /* \"TestCondition.sol\":670:809  function revertError(bool condition) public pure returns (uint256) {... */\n        tag_24:\n            /* \"TestCondition.sol\":728:735  uint256 */\n          0x00\n            /* \"TestCondition.sol\":752:761  condition */\n          dup2\n            /* \"TestCondition.sol\":747:784  if (!condition) revert Unauthorized() */\n          tag_43\n          jumpi\n            /* \"TestCondition.sol\":770:784  Unauthorized() */\n          mload(0x40)\n          0x82b4290000000000000000000000000000000000000000000000000000000000\n          dup2\n          mstore\n          0x04\n          add\n          mload(0x40)\n          dup1\n          swap2\n          sub\n          swap1\n          revert\n            /* \"TestCondition.sol\":747:784  if (!condition) revert Unauthorized() */\n        tag_43:\n            /* \"TestCondition.sol\":801:802  3 */\n          0x03\n            /* \"TestCondition.sol\":794:802  return 3 */\n          swap1\n          pop\n            /* \"TestCondition.sol\":670:809  function revertError(bool condition) public pure returns (uint256) {... */\n          swap2\n          swap1\n          pop\n          jump\t// out\n            /* \"TestCondition.sol\":545:664  function assertError(bool condition) public pure returns (uint256) {... */\n        tag_28:\n            /* \"TestCondition.sol\":603:610  uint256 */\n          0x00\n            /* \"TestCondition.sol\":629:638  condition */\n          dup2\n            /* \"TestCondition.sol\":622:639  assert(condition) */\n          tag_45\n          jumpi\n          tag_46\n          tag_47\n          jump\t// in\n        tag_46:\n        tag_45:\n            /* \"TestCondition.sol\":656:657  2 */\n          0x02\n            /* \"TestCondition.sol\":649:657  return 2 */\n          swap1\n          pop\n            /* \"TestCondition.sol\":545:664  function assertError(bool condition) public pure returns (uint256) {... */\n          swap2\n          swap1\n          pop\n          jump\t// out\n            /* \"#utility.yul\":88:205   */\n        tag_49:\n            /* \"#utility.yul\":197:198   */\n          0x00\n            /* \"#utility.yul\":194:195   */\n          0x00\n            /* \"#utility.yul\":187:199   */\n          revert\n            /* \"#utility.yul\":334:424   */\n        tag_51:\n            /* \"#utility.yul\":368:375   */\n          0x00\n            /* \"#utility.yul\":411:416   */\n          dup2\n            /* \"#utility.yul\":404:417   */\n          iszero\n            /* \"#utility.yul\":397:418   */\n          iszero\n            /* \"#utility.yul\":386:418   */\n          swap1\n          pop\n            /* \"#utility.yul\":334:424   */\n          swap2\n          swap1\n          pop\n          jump\t// out\n            /* \"#utility.yul\":430:546   */\n        tag_52:\n            /* \"#utility.yul\":500:521   */\n          tag_76\n            /* \"#utility.yul\":515:520   */\n          dup2\n            /* \"#utility.yul\":500:521   */\n          tag_51\n          jump\t// in\n        tag_76:\n            /* \"#utility.yul\":493:498   */\n          dup2\n            /* \"#utility.yul\":490:522   */\n          eq\n            /* \"#utility.yul\":480:540   */\n          tag_77\n          jumpi\n            /* \"#utility.yul\":536:537   */\n          0x00\n            /* \"#utility.yul\":533:534   */\n          0x00\n            /* \"#utility.yul\":526:538   */\n          revert\n            /* \"#utility.yul\":480:540   */\n        tag_77:\n            /* \"#utility.yul\":430:546   */\n          pop\n          jump\t// out\n            /* \"#utility.yul\":552:685   */\n        tag_53:\n            /* \"#utility.yul\":595:600   */\n          0x00\n            /* \"#utility.yul\":633:639   */\n          dup2\n            /* \"#utility.yul\":620:640   */\n          calldataload\n            /* \"#utility.yul\":611:640   */\n          swap1\n          pop\n            /* \"#utility.yul\":649:679   */\n          tag_79\n            /* \"#utility.yul\":673:678   */\n          dup2\n            /* \"#utility.yul\":649:679   */\n          tag_52\n          jump\t// in\n        tag_79:\n            /* \"#utility.yul\":552:685   */\n          swap3\n          swap2\n          pop\n          pop\n          jump\t// out\n            /* \"#utility.yul\":691:1014   */\n        tag_10:\n            /* \"#utility.yul\":747:753   */\n          0x00\n            /* \"#utility.yul\":796:798   */\n          0x20\n            /* \"#utility.yul\":784:793   */\n          dup3\n            /* \"#utility.yul\":775:782   */\n          dup5\n            /* \"#utility.yul\":771:794   */\n          sub\n            /* \"#utility.yul\":767:799   */\n          slt\n            /* \"#utility.yul\":764:883   */\n          iszero\n          tag_81\n          jumpi\n            /* \"#utility.yul\":802:881   */\n          tag_82\n          tag_49\n          jump\t// in\n        tag_82:\n            /* \"#utility.yul\":764:883   */\n        tag_81:\n            /* \"#utility.yul\":922:923   */\n          0x00\n            /* \"#utility.yul\":947:997   */\n          tag_83\n            /* \"#utility.yul\":989:996   */\n          dup5\n            /* \"#utility.yul\":980:986   */\n          dup3\n            /* \"#utility.yul\":969:978   */\n          dup6\n            /* \"#utility.yul\":965:987   */\n          add\n            /* \"#utility.yul\":947:997   */\n          tag_53\n          jump\t// in\n        tag_83:\n            /* \"#utility.yul\":937:997   */\n          swap2\n          pop\n            /* \"#utility.yul\":893:1007   */\n          pop\n            /* \"#utility.yul\":691:1014   */\n          swap3\n          swap2\n          pop\n          pop\n          jump\t// out\n            /* \"#utility.yul\":1020:1097   */\n        tag_54:\n            /* \"#utility.yul\":1057:1064   */\n          0x00\n            /* \"#utility.yul\":1086:1091   */\n          dup2\n            /* \"#utility.yul\":1075:1091   */\n          swap1\n          pop\n            /* \"#utility.yul\":1020:1097   */\n          swap2\n          swap1\n          pop\n          jump\t// out\n            /* \"#utility.yul\":1103:1221   */\n        tag_55:\n            /* \"#utility.yul\":1190:1214   */\n          tag_86\n            /* \"#utility.yul\":1208:1213   */\n          dup2\n            /* \"#utility.yul\":1190:1214   */\n          tag_54\n          jump\t// in\n        tag_86:\n            /* \"#utility.yul\":1185:1188   */\n          dup3\n            /* \"#utility.yul\":1178:1215   */\n          mstore\n            /* \"#utility.yul\":1103:1221   */\n          pop\n          pop\n          jump\t// out\n            /* \"#utility.yul\":1227:1449   */\n        tag_13:\n            /* \"#utility.yul\":1320:1324   */\n          0x00\n            /* \"#utility.yul\":1358:1360   */\n          0x20\n            /* \"#utility.yul\":1347:1356   */\n          dup3\n            /* \"#utility.yul\":1343:1361   */\n          add\n            /* \"#utility.yul\":1335:1361   */\n          swap1\n          pop\n            /* \"#utility.yul\":1371:1442   */\n          tag_88\n            /* \"#utility.yul\":1439:1440   */\n          0x00\n            /* \"#utility.yul\":1428:1437   */\n          dup4\n            /* \"#utility.yul\":1424:1441   */\n          add\n            /* \"#utility.yul\":1415:1421   */\n          dup5\n            /* \"#utility.yul\":1371:1442   */\n          tag_55\n          jump\t// in\n        tag_88:\n            /* \"#utility.yul\":1227:1449   */\n          swap3\n          swap2\n          pop\n          pop\n          jump\t// out\n            /* \"#utility.yul\":1455:1624   */\n        tag_56:\n            /* \"#utility.yul\":1539:1550   */\n          0x00\n            /* \"#utility.yul\":1573:1579   */\n          dup3\n            /* \"#utility.yul\":1568:1571   */\n          dup3\n            /* \"#utility.yul\":1561:1580   */\n          mstore\n            /* \"#utility.yul\":1613:1617   */\n          0x20\n            /* \"#utility.yul\":1608:1611   */\n          dup3\n            /* \"#utility.yul\":1604:1618   */\n          add\n            /* \"#utility.yul\":1589:1618   */\n          swap1\n          pop\n            /* \"#utility.yul\":1455:1624   */\n          swap3\n          swap2\n          pop\n          pop\n          jump\t// out\n            /* \"#utility.yul\":1630:1801   */\n        tag_57:\n            /* \"#utility.yul\":1770:1793   */\n          0x7265766572743a3a3a20736f6d6520726561736f6e0000000000000000000000\n            /* \"#utility.yul\":1766:1767   */\n          0x00\n            /* \"#utility.yul\":1758:1764   */\n          dup3\n            /* \"#utility.yul\":1754:1768   */\n          add\n            /* \"#utility.yul\":1747:1794   */\n          mstore\n            /* \"#utility.yul\":1630:1801   */\n          pop\n          jump\t// out\n            /* \"#utility.yul\":1807:2173   */\n        tag_58:\n            /* \"#utility.yul\":1949:1952   */\n          0x00\n            /* \"#utility.yul\":1970:2037   */\n          tag_92\n            /* \"#utility.yul\":2034:2036   */\n          0x15\n            /* \"#utility.yul\":2029:2032   */\n          dup4\n            /* \"#utility.yul\":1970:2037   */\n          tag_56\n          jump\t// in\n        tag_92:\n            /* \"#utility.yul\":1963:2037   */\n          swap2\n          pop\n            /* \"#utility.yul\":2046:2139   */\n          tag_93\n            /* \"#utility.yul\":2135:2138   */\n          dup3\n            /* \"#utility.yul\":2046:2139   */\n          tag_57\n          jump\t// in\n        tag_93:\n            /* \"#utility.yul\":2164:2166   */\n          0x20\n            /* \"#utility.yul\":2159:2162   */\n          dup3\n            /* \"#utility.yul\":2155:2167   */\n          add\n            /* \"#utility.yul\":2148:2167   */\n          swap1\n          pop\n            /* \"#utility.yul\":1807:2173   */\n          swap2\n          swap1\n          pop\n          jump\t// out\n            /* \"#utility.yul\":2179:2598   */\n        tag_33:\n            /* \"#utility.yul\":2345:2349   */\n          0x00\n            /* \"#utility.yul\":2383:2385   */\n          0x20\n            /* \"#utility.yul\":2372:2381   */\n          dup3\n            /* \"#utility.yul\":2368:2386   */\n          add\n            /* \"#utility.yul\":2360:2386   */\n          swap1\n          pop\n            /* \"#utility.yul\":2432:2441   */\n          dup2\n            /* \"#utility.yul\":2426:2430   */\n          dup2\n            /* \"#utility.yul\":2422:2442   */\n          sub\n            /* \"#utility.yul\":2418:2419   */\n          0x00\n            /* \"#utility.yul\":2407:2416   */\n          dup4\n            /* \"#utility.yul\":2403:2420   */\n          add\n            /* \"#utility.yul\":2396:2443   */\n          mstore\n            /* \"#utility.yul\":2460:2591   */\n          tag_95\n            /* \"#utility.yul\":2586:2590   */\n          dup2\n            /* \"#utility.yul\":2460:2591   */\n          tag_58\n          jump\t// in\n        tag_95:\n            /* \"#utility.yul\":2452:2591   */\n          swap1\n          pop\n            /* \"#utility.yul\":2179:2598   */\n          swap2\n          swap1\n          pop\n          jump\t// out\n            /* \"#utility.yul\":2604:2771   */\n        tag_59:\n            /* \"#utility.yul\":2744:2763   */\n          0x496e707574206973206e6f742074727565000000000000000000000000000000\n            /* \"#utility.yul\":2740:2741   */\n          0x00\n            /* \"#utility.yul\":2732:2738   */\n          dup3\n            /* \"#utility.yul\":2728:2742   */\n          add\n            /* \"#utility.yul\":2721:2764   */\n          mstore\n            /* \"#utility.yul\":2604:2771   */\n          pop\n          jump\t// out\n            /* \"#utility.yul\":2777:3143   */\n        tag_60:\n            /* \"#utility.yul\":2919:2922   */\n          0x00\n            /* \"#utility.yul\":2940:3007   */\n          tag_98\n            /* \"#utility.yul\":3004:3006   */\n          0x11\n            /* \"#utility.yul\":2999:3002   */\n          dup4\n            /* \"#utility.yul\":2940:3007   */\n          tag_56\n          jump\t// in\n        tag_98:\n            /* \"#utility.yul\":2933:3007   */\n          swap2\n          pop\n            /* \"#utility.yul\":3016:3109   */\n          tag_99\n            /* \"#utility.yul\":3105:3108   */\n          dup3\n            /* \"#utility.yul\":3016:3109   */\n          tag_59\n          jump\t// in\n        tag_99:\n            /* \"#utility.yul\":3134:3136   */\n          0x20\n            /* \"#utility.yul\":3129:3132   */\n          dup3\n            /* \"#utility.yul\":3125:3137   */\n          add\n            /* \"#utility.yul\":3118:3137   */\n          swap1\n          pop\n            /* \"#utility.yul\":2777:3143   */\n          swap2\n          swap1\n          pop\n          jump\t// out\n            /* \"#utility.yul\":3149:3568   */\n        tag_37:\n            /* \"#utility.yul\":3315:3319   */\n          0x00\n            /* \"#utility.yul\":3353:3355   */\n          0x20\n            /* \"#utility.yul\":3342:3351   */\n          dup3\n            /* \"#utility.yul\":3338:3356   */\n          add\n            /* \"#utility.yul\":3330:3356   */\n          swap1\n          pop\n            /* \"#utility.yul\":3402:3411   */\n          dup2\n            /* \"#utility.yul\":3396:3400   */\n          dup2\n            /* \"#utility.yul\":3392:3412   */\n          sub\n            /* \"#utility.yul\":3388:3389   */\n          0x00\n            /* \"#utility.yul\":3377:3386   */\n          dup4\n            /* \"#utility.yul\":3373:3390   */\n          add\n            /* \"#utility.yul\":3366:3413   */\n          mstore\n            /* \"#utility.yul\":3430:3561   */\n          tag_101\n            /* \"#utility.yul\":3556:3560   */\n          dup2\n            /* \"#utility.yul\":3430:3561   */\n          tag_60\n          jump\t// in\n        tag_101:\n            /* \"#utility.yul\":3422:3561   */\n          swap1\n          pop\n            /* \"#utility.yul\":3149:3568   */\n          swap2\n          swap1\n          pop\n          jump\t// out\n            /* \"#utility.yul\":3574:3700   */\n        tag_61:\n            /* \"#utility.yul\":3611:3618   */\n          0x00\n            /* \"#utility.yul\":3651:3693   */\n          0xffffffffffffffffffffffffffffffffffffffff\n            /* \"#utility.yul\":3644:3649   */\n          dup3\n            /* \"#utility.yul\":3640:3694   */\n          and\n            /* \"#utility.yul\":3629:3694   */\n          swap1\n          pop\n            /* \"#utility.yul\":3574:3700   */\n          swap2\n          swap1\n          pop\n          jump\t// out\n            /* \"#utility.yul\":3706:3802   */\n        tag_62:\n            /* \"#utility.yul\":3743:3750   */\n          0x00\n            /* \"#utility.yul\":3772:3796   */\n          tag_104\n            /* \"#utility.yul\":3790:3795   */\n          dup3\n            /* \"#utility.yul\":3772:3796   */\n          tag_61\n          jump\t// in\n        tag_104:\n            /* \"#utility.yul\":3761:3796   */\n          swap1\n          pop\n            /* \"#utility.yul\":3706:3802   */\n          swap2\n          swap1\n          pop\n          jump\t// out\n            /* \"#utility.yul\":3808:3926   */\n        tag_63:\n            /* \"#utility.yul\":3895:3919   */\n          tag_106\n            /* \"#utility.yul\":3913:3918   */\n          dup2\n            /* \"#utility.yul\":3895:3919   */\n          tag_62\n          jump\t// in\n        tag_106:\n            /* \"#utility.yul\":3890:3893   */\n          dup3\n            /* \"#utility.yul\":3883:3920   */\n          mstore\n            /* \"#utility.yul\":3808:3926   */\n          pop\n          pop\n          jump\t// out\n            /* \"#utility.yul\":3932:4019   */\n        tag_64:\n            /* \"#utility.yul\":3979:3986   */\n          0x00\n            /* \"#utility.yul\":4008:4013   */\n          dup2\n            /* \"#utility.yul\":3997:4013   */\n          swap1\n          pop\n            /* \"#utility.yul\":3932:4019   */\n          swap2\n          swap1\n          pop\n          jump\t// out\n            /* \"#utility.yul\":4025:4085   */\n        tag_65:\n            /* \"#utility.yul\":4053:4056   */\n          0x00\n            /* \"#utility.yul\":4074:4079   */\n          dup2\n            /* \"#utility.yul\":4067:4079   */\n          swap1\n          pop\n            /* \"#utility.yul\":4025:4085   */\n          swap2\n          swap1\n          pop\n          jump\t// out\n            /* \"#utility.yul\":4091:4253   */\n        tag_66:\n            /* \"#utility.yul\":4151:4160   */\n          0x00\n            /* \"#utility.yul\":4184:4247   */\n          tag_110\n            /* \"#utility.yul\":4202:4246   */\n          tag_111\n            /* \"#utility.yul\":4211:4245   */\n          tag_112\n            /* \"#utility.yul\":4239:4244   */\n          dup5\n            /* \"#utility.yul\":4211:4245   */\n          tag_64\n          jump\t// in\n        tag_112:\n            /* \"#utility.yul\":4202:4246   */\n          tag_65\n          jump\t// in\n        tag_111:\n            /* \"#utility.yul\":4184:4247   */\n          tag_54\n          jump\t// in\n        tag_110:\n            /* \"#utility.yul\":4171:4247   */\n          swap1\n          pop\n            /* \"#utility.yul\":4091:4253   */\n          swap2\n          swap1\n          pop\n          jump\t// out\n            /* \"#utility.yul\":4259:4410   */\n        tag_67:\n            /* \"#utility.yul\":4356:4403   */\n          tag_114\n            /* \"#utility.yul\":4397:4402   */\n          dup2\n            /* \"#utility.yul\":4356:4403   */\n          tag_66\n          jump\t// in\n        tag_114:\n            /* \"#utility.yul\":4351:4354   */\n          dup3\n            /* \"#utility.yul\":4344:4404   */\n          mstore\n            /* \"#utility.yul\":4259:4410   */\n          pop\n          pop\n          jump\t// out\n            /* \"#utility.yul\":4416:4586   */\n        tag_68:\n            /* \"#utility.yul\":4556:4578   */\n          0x616d6f756e74206973206e6f7420656e6f756768000000000000000000000000\n            /* \"#utility.yul\":4552:4553   */\n          0x00\n            /* \"#utility.yul\":4544:4550   */\n          dup3\n            /* \"#utility.yul\":4540:4554   */\n          add\n            /* \"#utility.yul\":4533:4579   */\n          mstore\n            /* \"#utility.yul\":4416:4586   */\n          pop\n          jump\t// out\n            /* \"#utility.yul\":4592:4958   */\n        tag_69:\n            /* \"#utility.yul\":4734:4737   */\n          0x00\n            /* \"#utility.yul\":4755:4822   */\n          tag_117\n            /* \"#utility.yul\":4819:4821   */\n          0x14\n            /* \"#utility.yul\":4814:4817   */\n          dup4\n            /* \"#utility.yul\":4755:4822   */\n          tag_56\n          jump\t// in\n        tag_117:\n            /* \"#utility.yul\":4748:4822   */\n          swap2\n          pop\n            /* \"#utility.yul\":4831:4924   */\n          tag_118\n            /* \"#utility.yul\":4920:4923   */\n          dup3\n            /* \"#utility.yul\":4831:4924   */\n          tag_68\n          jump\t// in\n        tag_118:\n            /* \"#utility.yul\":4949:4951   */\n          0x20\n            /* \"#utility.yul\":4944:4947   */\n          dup3\n            /* \"#utility.yul\":4940:4952   */\n          add\n            /* \"#utility.yul\":4933:4952   */\n          swap1\n          pop\n            /* \"#utility.yul\":4592:4958   */\n          swap2\n          swap1\n          pop\n          jump\t// out\n            /* \"#utility.yul\":4964:5734   */\n        tag_41:\n            /* \"#utility.yul\":5224:5228   */\n          0x00\n            /* \"#utility.yul\":5262:5265   */\n          0x80\n            /* \"#utility.yul\":5251:5260   */\n          dup3\n            /* \"#utility.yul\":5247:5266   */\n          add\n            /* \"#utility.yul\":5239:5266   */\n          swap1\n          pop\n            /* \"#utility.yul\":5276:5347   */\n          tag_120\n            /* \"#utility.yul\":5344:5345   */\n          0x00\n            /* \"#utility.yul\":5333:5342   */\n          dup4\n            /* \"#utility.yul\":5329:5346   */\n          add\n            /* \"#utility.yul\":5320:5326   */\n          dup7\n            /* \"#utility.yul\":5276:5347   */\n          tag_63\n          jump\t// in\n        tag_120:\n            /* \"#utility.yul\":5357:5429   */\n          tag_121\n            /* \"#utility.yul\":5425:5427   */\n          0x20\n            /* \"#utility.yul\":5414:5423   */\n          dup4\n            /* \"#utility.yul\":5410:5428   */\n          add\n            /* \"#utility.yul\":5401:5407   */\n          dup6\n            /* \"#utility.yul\":5357:5429   */\n          tag_63\n          jump\t// in\n        tag_121:\n            /* \"#utility.yul\":5439:5521   */\n          tag_122\n            /* \"#utility.yul\":5517:5519   */\n          0x40\n            /* \"#utility.yul\":5506:5515   */\n          dup4\n            /* \"#utility.yul\":5502:5520   */\n          add\n            /* \"#utility.yul\":5493:5499   */\n          dup5\n            /* \"#utility.yul\":5439:5521   */\n          tag_67\n          jump\t// in\n        tag_122:\n            /* \"#utility.yul\":5568:5577   */\n          dup2\n            /* \"#utility.yul\":5562:5566   */\n          dup2\n            /* \"#utility.yul\":5558:5578   */\n          sub\n            /* \"#utility.yul\":5553:5555   */\n          0x60\n            /* \"#utility.yul\":5542:5551   */\n          dup4\n            /* \"#utility.yul\":5538:5556   */\n          add\n            /* \"#utility.yul\":5531:5579   */\n          mstore\n            /* \"#utility.yul\":5596:5727   */\n          tag_123\n            /* \"#utility.yul\":5722:5726   */\n          dup2\n            /* \"#utility.yul\":5596:5727   */\n          tag_69\n          jump\t// in\n        tag_123:\n            /* \"#utility.yul\":5588:5727   */\n          swap1\n          pop\n            /* \"#utility.yul\":4964:5734   */\n          swap5\n          swap4\n          pop\n          pop\n          pop\n          pop\n          jump\t// out\n            /* \"#utility.yul\":5740:5920   */\n        tag_47:\n            /* \"#utility.yul\":5788:5865   */\n          0x4e487b7100000000000000000000000000000000000000000000000000000000\n            /* \"#utility.yul\":5785:5786   */\n          0x00\n            /* \"#utility.yul\":5778:5866   */\n          mstore\n            /* \"#utility.yul\":5885:5889   */\n          0x01\n            /* \"#utility.yul\":5882:5883   */\n          0x04\n            /* \"#utility.yul\":5875:5890   */\n          mstore\n            /* \"#utility.yul\":5909:5913   */\n          0x24\n            /* \"#utility.yul\":5906:5907   */\n          0x00\n            /* \"#utility.yul\":5899:5914   */\n          revert\n\n        auxdata: 0xa2646970667358221220b8238a1dbe950de4dc5e2d34f045bec5880e388fb42470eaf10c0809b41ec34a64736f6c634300081e0033\n    }\n}\n",
				"bytecode": {
					"linkReferences": {},
					"object": "6080604052348015600e575f5ffd5b506040516019906074565b604051809103905ff0801580156031573d5f5f3e3d5ffd5b505f5f6101000a81548173ffffffffffffffffffffffffffffffffffffffff021916908373ffffffffffffffffffffffffffffffffffffffff1602179055506081565b61058f8061076483390190565b6106d68061008e5f395ff3fe608060405234801561000f575f5ffd5b5060043610610034575f3560e01c80633e1cdf2814610038578063e9ba88e614610068575b5f5ffd5b610052600480360381019061004d91906102c6565b610086565b60405161005f9190610361565b60405180910390f35b610070610260565b60405161007d91906103fb565b60405180910390f35b60605f5f9054906101000a900473ffffffffffffffffffffffffffffffffffffffff1673ffffffffffffffffffffffffffffffffffffffff1663362af9ab836040518263ffffffff1660e01b81526004016100e19190610423565b602060405180830381865afa92505050801561011b57506040513d601f19601f82011682018060405250810190610118919061046f565b60015b610221576101276104a6565b806308c379a00361016e575061013b610523565b8061014657506101c9565b806040516020016101579190610612565b60405160208183030381529060405291505061025b565b634e487b71036101c957610180610637565b9061018b57506101c9565b6040518060400160405280600581526020017f70616e696300000000000000000000000000000000000000000000000000000081525091505061025b565b3d805f81146101f3576040519150601f19603f3d011682016040523d82523d5f602084013e6101f8565b606091505b508060405160200161020a919061067b565b60405160208183030381529060405291505061025b565b6040518060400160405280600781526020017f73756363657373000000000000000000000000000000000000000000000000008152509150505b919050565b5f5f9054906101000a900473ffffffffffffffffffffffffffffffffffffffff1681565b5f604051905090565b5f5ffd5b5f8115159050919050565b6102a581610291565b81146102af575f5ffd5b50565b5f813590506102c08161029c565b92915050565b5f602082840312156102db576102da61028d565b5b5f6102e8848285016102b2565b91505092915050565b5f81519050919050565b5f82825260208201905092915050565b8281835e5f83830152505050565b5f601f19601f8301169050919050565b5f610333826102f1565b61033d81856102fb565b935061034d81856020860161030b565b61035681610319565b840191505092915050565b5f6020820190508181035f8301526103798184610329565b905092915050565b5f73ffffffffffffffffffffffffffffffffffffffff82169050919050565b5f819050919050565b5f6103c36103be6103b984610381565b6103a0565b610381565b9050919050565b5f6103d4826103a9565b9050919050565b5f6103e5826103ca565b9050919050565b6103f5816103db565b82525050565b5f60208201905061040e5f8301846103ec565b92915050565b61041d81610291565b82525050565b5f6020820190506104365f830184610414565b92915050565b5f819050919050565b61044e8161043c565b8114610458575f5ffd5b50565b5f8151905061046981610445565b92915050565b5f602082840312156104845761048361028d565b5b5f6104918482850161045b565b91505092915050565b5f8160e01c9050919050565b5f60033d11156104c25760045f5f3e6104bf5f5161049a565b90505b90565b7f4e487b71000000000000000000000000000000000000000000000000000000005f52604160045260245ffd5b6104fb82610319565b810181811067ffffffffffffffff8211171561051a576105196104c5565b5b80604052505050565b5f60443d106105af57610534610284565b60043d036004823e80513d602482011167ffffffffffffffff8211171561055c5750506105af565b808201805167ffffffffffffffff81111561057a57505050506105af565b80602083010160043d0385018111156105975750505050506105af565b6105a6826020018501866104f2565b82955050505050505b90565b7f726561736f6e3a3a3a0000000000000000000000000000000000000000000000815250565b5f81905092915050565b5f6105ec826102f1565b6105f681856105d8565b935061060681856020860161030b565b80840191505092915050565b5f61061c826105b2565b60098201915061062c82846105e2565b915081905092915050565b5f5f60233d111561065157602060045f3e600191505f5190505b9091565b7f6c6f774c6576656c446174613a3a3a2000000000000000000000000000000000815250565b5f61068582610655565b60108201915061069582846105e2565b91508190509291505056fea264697066735822122018a665644cd7926bf260565eda735fd7ac88811e38df962682244a4d185d093c64736f6c634300081e00336080604052348015600e575f5ffd5b506105738061001c5f395ff3fe608060405234801561000f575f5ffd5b5060043610610055575f3560e01c8063362af9ab146100595780633c104699146100895780633fc38a57146100b9578063779d3efc146100e9578063f98ec92214610119575b5f5ffd5b610073600480360381019061006e91906102c1565b610149565b6040516100809190610304565b60405180910390f35b6100a3600480360381019061009e91906102c1565b610193565b6040516100b09190610304565b60405180910390f35b6100d360048036038101906100ce91906102c1565b6101dd565b6040516100e09190610304565b60405180910390f35b61010360048036038101906100fe91906102c1565b61022f565b6040516101109190610304565b60405180910390f35b610133600480360381019061012e91906102c1565b610270565b6040516101409190610304565b60405180910390f35b5f8161018a576040517f08c379a000000000000000000000000000000000000000000000000000000000815260040161018190610377565b60405180910390fd5b60039050919050565b5f816101d4576040517f08c379a00000000000000000000000000000000000000000000000000000000081526004016101cb906103df565b60405180910390fd5b60019050919050565b5f816102265733326103786040517f8459163200000000000000000000000000000000000000000000000000000000815260040161021d939291906104c8565b60405180910390fd5b60039050919050565b5f81610267576040517f82b4290000000000000000000000000000000000000000000000000000000000815260040160405180910390fd5b60039050919050565b5f8161027f5761027e610510565b5b60029050919050565b5f5ffd5b5f8115159050919050565b6102a08161028c565b81146102aa575f5ffd5b50565b5f813590506102bb81610297565b92915050565b5f602082840312156102d6576102d5610288565b5b5f6102e3848285016102ad565b91505092915050565b5f819050919050565b6102fe816102ec565b82525050565b5f6020820190506103175f8301846102f5565b92915050565b5f82825260208201905092915050565b7f7265766572743a3a3a20736f6d6520726561736f6e00000000000000000000005f82015250565b5f61036160158361031d565b915061036c8261032d565b602082019050919050565b5f6020820190508181035f83015261038e81610355565b9050919050565b7f496e707574206973206e6f7420747275650000000000000000000000000000005f82015250565b5f6103c960118361031d565b91506103d482610395565b602082019050919050565b5f6020820190508181035f8301526103f6816103bd565b9050919050565b5f73ffffffffffffffffffffffffffffffffffffffff82169050919050565b5f610426826103fd565b9050919050565b6104368161041c565b82525050565b5f819050919050565b5f819050919050565b5f61046861046361045e8461043c565b610445565b6102ec565b9050919050565b6104788161044e565b82525050565b7f616d6f756e74206973206e6f7420656e6f7567680000000000000000000000005f82015250565b5f6104b260148361031d565b91506104bd8261047e565b602082019050919050565b5f6080820190506104db5f83018661042d565b6104e8602083018561042d565b6104f5604083018461046f565b8181036060830152610506816104a6565b9050949350505050565b7f4e487b71000000000000000000000000000000000000000000000000000000005f52600160045260245ffdfea2646970667358221220b8238a1dbe950de4dc5e2d34f045bec5880e388fb42470eaf10c0809b41ec34a64736f6c634300081e0033",
					"opcodes": "PUSH1 0x80 PUSH1 0x40 MSTORE CALLVALUE DUP1 ISZERO PUSH1 0xE JUMPI PUSH0 PUSH0 REVERT JUMPDEST POP PUSH1 0x40 MLOAD PUSH1 0x19 SWAP1 PUSH1 0x74 JUMP JUMPDEST PUSH1 0x40 MLOAD DUP1 SWAP2 SUB SWAP1 PUSH0 CREATE DUP1 ISZERO DUP1 ISZERO PUSH1 0x31 JUMPI RETURNDATASIZE PUSH0 PUSH0 RETURNDATACOPY RETURNDATASIZE PUSH0 REVERT JUMPDEST POP PUSH0 PUSH0 PUSH2 0x100 EXP DUP2 SLOAD DUP2 PUSH20 0xFFFFFFFFFFFFFFFFFFFFFFFFFFFFFFFFFFFFFFFF MUL NOT AND SWAP1 DUP4 PUSH20 0xFFFFFFFFFFFFFFFFFFFFFFFFFFFFFFFFFFFFFFFF AND MUL OR SWAP1 SSTORE POP PUSH1 0x81 JUMP JUMPDEST PUSH2 0x58F DUP1 PUSH2 0x764 DUP4 CODECOPY ADD SWAP1 JUMP JUMPDEST PUSH2 0x6D6 DUP1 PUSH2 0x8E PUSH0 CODECOPY PUSH0 RETURN INVALID PUSH1 0x80 PUSH1 0x40 MSTORE CALLVALUE DUP1 ISZERO PUSH2 0xF JUMPI PUSH0 PUSH0 REVERT JUMPDEST POP PUSH1 0x4 CALLDATASIZE LT PUSH2 0x34 JUMPI PUSH0 CALLDATALOAD PUSH1 0xE0 SHR DUP1 PUSH4 0x3E1CDF28 EQ PUSH2 0x38 JUMPI DUP1 PUSH4 0xE9BA88E6 EQ PUSH2 0x68 JUMPI JUMPDEST PUSH0 PUSH0 REVERT JUMPDEST PUSH2 0x52 PUSH1 0x4 DUP1 CALLDATASIZE SUB DUP2 ADD SWAP1 PUSH2 0x4D SWAP2 SWAP1 PUSH2 0x2C6 JUMP JUMPDEST PUSH2 0x86 JUMP JUMPDEST PUSH1 0x40 MLOAD PUSH2 0x5F SWAP2 SWAP1 PUSH2 0x361 JUMP JUMPDEST PUSH1 0x40 MLOAD DUP1 SWAP2 SUB SWAP1 RETURN JUMPDEST PUSH2 0x70 PUSH2 0x260 JUMP JUMPDEST PUSH1 0x40 MLOAD PUSH2 0x7D SWAP2 SWAP1 PUSH2 0x3FB JUMP JUMPDEST PUSH1 0x40 MLOAD DUP1 SWAP2 SUB SWAP1 RETURN JUMPDEST PUSH1 0x60 PUSH0 PUSH0 SWAP1 SLOAD SWAP1 PUSH2 0x100 EXP SWAP1 DIV PUSH20 0xFFFFFFFFFFFFFFFFFFFFFFFFFFFFFFFFFFFFFFFF AND PUSH20 0xFFFFFFFFFFFFFFFFFFFFFFFFFFFFFFFFFFFFFFFF AND PUSH4 0x362AF9AB DUP4 PUSH1 0x40 MLOAD DUP3 PUSH4 0xFFFFFFFF AND PUSH1 0xE0 SHL DUP2 MSTORE PUSH1 0x4 ADD PUSH2 0xE1 SWAP2 SWAP1 PUSH2 0x423 JUMP JUMPDEST PUSH1 0x20 PUSH1 0x40 MLOAD DUP1 DUP4 SUB DUP2 DUP7 GAS STATICCALL SWAP3 POP POP POP DUP1 ISZERO PUSH2 0x11B JUMPI POP PUSH1 0x40 MLOAD RETURNDATASIZE PUSH1 0x1F NOT PUSH1 0x1F DUP3 ADD AND DUP3 ADD DUP1 PUSH1 0x40 MSTORE POP DUP2 ADD SWAP1 PUSH2 0x118 SWAP2 SWAP1 PUSH2 0x46F JUMP JUMPDEST PUSH1 0x1 JUMPDEST PUSH2 0x221 JUMPI PUSH2 0x127 PUSH2 0x4A6 JUMP JUMPDEST DUP1 PUSH4 0x8C379A0 SUB PUSH2 0x16E JUMPI POP PUSH2 0x13B PUSH2 0x523 JUMP JUMPDEST DUP1 PUSH2 0x146 JUMPI POP PUSH2 0x1C9 JUMP JUMPDEST DUP1 PUSH1 0x40 MLOAD PUSH1 0x20 ADD PUSH2 0x157 SWAP2 SWAP1 PUSH2 0x612 JUMP JUMPDEST PUSH1 0x40 MLOAD PUSH1 0x20 DUP2 DUP4 SUB SUB DUP2 MSTORE SWAP1 PUSH1 0x40 MSTORE SWAP2 POP POP PUSH2 0x25B JUMP JUMPDEST PUSH4 0x4E487B71 SUB PUSH2 0x1C9 JUMPI PUSH2 0x180 PUSH2 0x637 JUMP JUMPDEST SWAP1 PUSH2 0x18B JUMPI POP PUSH2 0x1C9 JUMP JUMPDEST PUSH1 0x40 MLOAD DUP1 PUSH1 0x40 ADD PUSH1 0x40 MSTORE DUP1 PUSH1 0x5 DUP2 MSTORE PUSH1 0x20 ADD PUSH32 0x70616E6963000000000000000000000000000000000000000000000000000000 DUP2 MSTORE POP SWAP2 POP POP PUSH2 0x25B JUMP JUMPDEST RETURNDATASIZE DUP1 PUSH0 DUP2 EQ PUSH2 0x1F3 JUMPI PUSH1 0x40 MLOAD SWAP2 POP PUSH1 0x1F NOT PUSH1 0x3F RETURNDATASIZE ADD AND DUP3 ADD PUSH1 0x40 MSTORE RETURNDATASIZE DUP3 MSTORE RETURNDATASIZE PUSH0 PUSH1 0x20 DUP5 ADD RETURNDATACOPY PUSH2 0x1F8 JUMP JUMPDEST PUSH1 0x60 SWAP2 POP JUMPDEST POP DUP1 PUSH1 0x40 MLOAD PUSH1 0x20 ADD PUSH2 0x20A SWAP2 SWAP1 PUSH2 0x67B JUMP JUMPDEST PUSH1 0x40 MLOAD PUSH1 0x20 DUP2 DUP4 SUB SUB DUP2 MSTORE SWAP1 PUSH1 0x40 MSTORE SWAP2 POP POP PUSH2 0x25B JUMP JUMPDEST PUSH1 0x40 MLOAD DUP1 PUSH1 0x40 ADD PUSH1 0x40 MSTORE DUP1 PUSH1 0x7 DUP2 MSTORE PUSH1 0x20 ADD PUSH32 0x7375636365737300000000000000000000000000000000000000000000000000 DUP2 MSTORE POP SWAP2 POP POP JUMPDEST SWAP2 SWAP1 POP JUMP JUMPDEST PUSH0 PUSH0 SWAP1 SLOAD SWAP1 PUSH2 0x100 EXP SWAP1 DIV PUSH20 0xFFFFFFFFFFFFFFFFFFFFFFFFFFFFFFFFFFFFFFFF AND DUP2 JUMP JUMPDEST PUSH0 PUSH1 0x40 MLOAD SWAP1 POP SWAP1 JUMP JUMPDEST PUSH0 PUSH0 REVERT JUMPDEST PUSH0 DUP2 ISZERO ISZERO SWAP1 POP SWAP2 SWAP1 POP JUMP JUMPDEST PUSH2 0x2A5 DUP2 PUSH2 0x291 JUMP JUMPDEST DUP2 EQ PUSH2 0x2AF JUMPI PUSH0 PUSH0 REVERT JUMPDEST POP JUMP JUMPDEST PUSH0 DUP2 CALLDATALOAD SWAP1 POP PUSH2 0x2C0 DUP2 PUSH2 0x29C JUMP JUMPDEST SWAP3 SWAP2 POP POP JUMP JUMPDEST PUSH0 PUSH1 0x20 DUP3 DUP5 SUB SLT ISZERO PUSH2 0x2DB JUMPI PUSH2 0x2DA PUSH2 0x28D JUMP JUMPDEST JUMPDEST PUSH0 PUSH2 0x2E8 DUP5 DUP3 DUP6 ADD PUSH2 0x2B2 JUMP JUMPDEST SWAP2 POP POP SWAP3 SWAP2 POP POP JUMP JUMPDEST PUSH0 DUP2 MLOAD SWAP1 POP SWAP2 SWAP1 POP JUMP JUMPDEST PUSH0 DUP3 DUP3 MSTORE PUSH1 0x20 DUP3 ADD SWAP1 POP SWAP3 SWAP2 POP POP JUMP JUMPDEST DUP3 DUP2 DUP4 MCOPY PUSH0 DUP4 DUP4 ADD MSTORE POP POP POP JUMP JUMPDEST PUSH0 PUSH1 0x1F NOT PUSH1 0x1F DUP4 ADD AND SWAP1 POP SWAP2 SWAP1 POP JUMP JUMPDEST PUSH0 PUSH2 0x333 DUP3 PUSH2 0x2F1 JUMP JUMPDEST PUSH2 0x33D DUP2 DUP6 PUSH2 0x2FB JUMP JUMPDEST SWAP4 POP PUSH2 0x34D DUP2 DUP6 PUSH1 0x20 DUP7 ADD PUSH2 0x30B JUMP JUMPDEST PUSH2 0x356 DUP2 PUSH2 0x319 JUMP JUMPDEST DUP5 ADD SWAP2 POP POP SWAP3 SWAP2 POP POP JUMP JUMPDEST PUSH0 PUSH1 0x20 DUP3 ADD SWAP1 POP DUP2 DUP2 SUB PUSH0 DUP4 ADD MSTORE PUSH2 0x379 DUP2 DUP5 PUSH2 0x329 JUMP JUMPDEST SWAP1 POP SWAP3 SWAP2 POP POP JUMP JUMPDEST PUSH0 PUSH20 0xFFFFFFFFFFFFFFFFFFFFFFFFFFFFFFFFFFFFFFFF DUP3 AND SWAP1 POP SWAP2 SWAP1 POP JUMP JUMPDEST PUSH0 DUP2 SWAP1 POP SWAP2 SWAP1 POP JUMP JUMPDEST PUSH0 PUSH2 0x3C3 PUSH2 0x3BE PUSH2 0x3B9 DUP5 PUSH2 0x381 JUMP JUMPDEST PUSH2 0x3A0 JUMP JUMPDEST PUSH2 0x381 JUMP JUMPDEST SWAP1 POP SWAP2 SWAP1 POP JUMP JUMPDEST PUSH0 PUSH2 0x3D4 DUP3 PUSH2 0x3A9 JUMP JUMPDEST SWAP1 POP SWAP2 SWAP1 POP JUMP JUMPDEST PUSH0 PUSH2 0x3E5 DUP3 PUSH2 0x3CA JUMP JUMPDEST SWAP1 POP SWAP2 SWAP1 POP JUMP JUMPDEST PUSH2 0x3F5 DUP2 PUSH2 0x3DB JUMP JUMPDEST DUP3 MSTORE POP POP JUMP JUMPDEST PUSH0 PUSH1 0x20 DUP3 ADD SWAP1 POP PUSH2 0x40E PUSH0 DUP4 ADD DUP5 PUSH2 0x3EC JUMP JUMPDEST SWAP3 SWAP2 POP POP JUMP JUMPDEST PUSH2 0x41D DUP2 PUSH2 0x291 JUMP JUMPDEST DUP3 MSTORE POP POP JUMP JUMPDEST PUSH0 PUSH1 0x20 DUP3 ADD SWAP1 POP PUSH2 0x436 PUSH0 DUP4 ADD DUP5 PUSH2 0x414 JUMP JUMPDEST SWAP3 SWAP2 POP POP JUMP JUMPDEST PUSH0 DUP2 SWAP1 POP SWAP2 SWAP1 POP JUMP JUMPDEST PUSH2 0x44E DUP2 PUSH2 0x43C JUMP JUMPDEST DUP2 EQ PUSH2 0x458 JUMPI PUSH0 PUSH0 REVERT JUMPDEST POP JUMP JUMPDEST PUSH0 DUP2 MLOAD SWAP1 POP PUSH2 0x469 DUP2 PUSH2 0x445 JUMP JUMPDEST SWAP3 SWAP2 POP POP JUMP JUMPDEST PUSH0 PUSH1 0x20 DUP3 DUP5 SUB SLT ISZERO PUSH2 0x484 JUMPI PUSH2 0x483 PUSH2 0x28D JUMP JUMPDEST JUMPDEST PUSH0 PUSH2 0x491 DUP5 DUP3 DUP6 ADD PUSH2 0x45B JUMP JUMPDEST SWAP2 POP POP SWAP3 SWAP2 POP POP JUMP JUMPDEST PUSH0 DUP2 PUSH1 0xE0 SHR SWAP1 POP SWAP2 SWAP1 POP JUMP JUMPDEST PUSH0 PUSH1 0x3 RETURNDATASIZE GT ISZERO PUSH2 0x4C2 JUMPI PUSH1 0x4 PUSH0 PUSH0 RETURNDATACOPY PUSH2 0x4BF PUSH0 MLOAD PUSH2 0x49A JUMP JUMPDEST SWAP1 POP JUMPDEST SWAP1 JUMP JUMPDEST PUSH32 0x4E487B7100000000000000000000000000000000000000000000000000000000 PUSH0 MSTORE PUSH1 0x41 PUSH1 0x4 MSTORE PUSH1 0x24 PUSH0 REVERT JUMPDEST PUSH2 0x4FB DUP3 PUSH2 0x319 JUMP JUMPDEST DUP2 ADD DUP2 DUP2 LT PUSH8 0xFFFFFFFFFFFFFFFF DUP3 GT OR ISZERO PUSH2 0x51A JUMPI PUSH2 0x519 PUSH2 0x4C5 JUMP JUMPDEST JUMPDEST DUP1 PUSH1 0x40 MSTORE POP POP POP JUMP JUMPDEST PUSH0 PUSH1 0x44 RETURNDATASIZE LT PUSH2 0x5AF JUMPI PUSH2 0x534 PUSH2 0x284 JUMP JUMPDEST PUSH1 0x4 RETURNDATASIZE SUB PUSH1 0x4 DUP3 RETURNDATACOPY DUP1 MLOAD RETURNDATASIZE PUSH1 0x24 DUP3 ADD GT PUSH8 0xFFFFFFFFFFFFFFFF DUP3 GT OR ISZERO PUSH2 0x55C JUMPI POP POP PUSH2 0x5AF JUMP JUMPDEST DUP1 DUP3 ADD DUP1 MLOAD PUSH8 0xFFFFFFFFFFFFFFFF DUP2 GT ISZERO PUSH2 0x57A JUMPI POP POP POP POP PUSH2 0x5AF JUMP JUMPDEST DUP1 PUSH1 0x20 DUP4 ADD ADD PUSH1 0x4 RETURNDATASIZE SUB DUP6 ADD DUP2 GT ISZERO PUSH2 0x597 JUMPI POP POP POP POP POP PUSH2 0x5AF JUMP JUMPDEST PUSH2 0x5A6 DUP3 PUSH1 0x20 ADD DUP6 ADD DUP7 PUSH2 0x4F2 JUMP JUMPDEST DUP3 SWAP6 POP POP POP POP POP POP JUMPDEST SWAP1 JUMP JUMPDEST PUSH32 0x726561736F6E3A3A3A0000000000000000000000000000000000000000000000 DUP2 MSTORE POP JUMP JUMPDEST PUSH0 DUP2 SWAP1 POP SWAP3 SWAP2 POP POP JUMP JUMPDEST PUSH0 PUSH2 0x5EC DUP3 PUSH2 0x2F1 JUMP JUMPDEST PUSH2 0x5F6 DUP2 DUP6 PUSH2 0x5D8 JUMP JUMPDEST SWAP4 POP PUSH2 0x606 DUP2 DUP6 PUSH1 0x20 DUP7 ADD PUSH2 0x30B JUMP JUMPDEST DUP1 DUP5 ADD SWAP2 POP POP SWAP3 SWAP2 POP POP JUMP JUMPDEST PUSH0 PUSH2 0x61C DUP3 PUSH2 0x5B2 JUMP JUMPDEST PUSH1 0x9 DUP3 ADD SWAP2 POP PUSH2 0x62C DUP3 DUP5 PUSH2 0x5E2 JUMP JUMPDEST SWAP2 POP DUP2 SWAP1 POP SWAP3 SWAP2 POP POP JUMP JUMPDEST PUSH0 PUSH0 PUSH1 0x23 RETURNDATASIZE GT ISZERO PUSH2 0x651 JUMPI PUSH1 0x20 PUSH1 0x4 PUSH0 RETURNDATACOPY PUSH1 0x1 SWAP2 POP PUSH0 MLOAD SWAP1 POP JUMPDEST SWAP1 SWAP2 JUMP JUMPDEST PUSH32 0x6C6F774C6576656C446174613A3A3A2000000000000000000000000000000000 DUP2 MSTORE POP JUMP JUMPDEST PUSH0 PUSH2 0x685 DUP3 PUSH2 0x655 JUMP JUMPDEST PUSH1 0x10 DUP3 ADD SWAP2 POP PUSH2 0x695 DUP3 DUP5 PUSH2 0x5E2 JUMP JUMPDEST SWAP2 POP DUP2 SWAP1 POP SWAP3 SWAP2 POP POP JUMP INVALID LOG2 PUSH5 0x6970667358 0x22 SLT KECCAK256 XOR 0xA6 PUSH6 0x644CD7926BF2 PUSH1 0x56 MCOPY 0xDA PUSH20 0x5FD7AC88811E38DF962682244A4D185D093C6473 PUSH16 0x6C634300081E00336080604052348015 PUSH1 0xE JUMPI PUSH0 PUSH0 REVERT JUMPDEST POP PUSH2 0x573 DUP1 PUSH2 0x1C PUSH0 CODECOPY PUSH0 RETURN INVALID PUSH1 0x80 PUSH1 0x40 MSTORE CALLVALUE DUP1 ISZERO PUSH2 0xF JUMPI PUSH0 PUSH0 REVERT JUMPDEST POP PUSH1 0x4 CALLDATASIZE LT PUSH2 0x55 JUMPI PUSH0 CALLDATALOAD PUSH1 0xE0 SHR DUP1 PUSH4 0x362AF9AB EQ PUSH2 0x59 JUMPI DUP1 PUSH4 0x3C104699 EQ PUSH2 0x89 JUMPI DUP1 PUSH4 0x3FC38A57 EQ PUSH2 0xB9 JUMPI DUP1 PUSH4 0x779D3EFC EQ PUSH2 0xE9 JUMPI DUP1 PUSH4 0xF98EC922 EQ PUSH2 0x119 JUMPI JUMPDEST PUSH0 PUSH0 REVERT JUMPDEST PUSH2 0x73 PUSH1 0x4 DUP1 CALLDATASIZE SUB DUP2 ADD SWAP1 PUSH2 0x6E SWAP2 SWAP1 PUSH2 0x2C1 JUMP JUMPDEST PUSH2 0x149 JUMP JUMPDEST PUSH1 0x40 MLOAD PUSH2 0x80 SWAP2 SWAP1 PUSH2 0x304 JUMP JUMPDEST PUSH1 0x40 MLOAD DUP1 SWAP2 SUB SWAP1 RETURN JUMPDEST PUSH2 0xA3 PUSH1 0x4 DUP1 CALLDATASIZE SUB DUP2 ADD SWAP1 PUSH2 0x9E SWAP2 SWAP1 PUSH2 0x2C1 JUMP JUMPDEST PUSH2 0x193 JUMP JUMPDEST PUSH1 0x40 MLOAD PUSH2 0xB0 SWAP2 SWAP1 PUSH2 0x304 JUMP JUMPDEST PUSH1 0x40 MLOAD DUP1 SWAP2 SUB SWAP1 RETURN JUMPDEST PUSH2 0xD3 PUSH1 0x4 DUP1 CALLDATASIZE SUB DUP2 ADD SWAP1 PUSH2 0xCE SWAP2 SWAP1 PUSH2 0x2C1 JUMP JUMPDEST PUSH2 0x1DD JUMP JUMPDEST PUSH1 0x40 MLOAD PUSH2 0xE0 SWAP2 SWAP1 PUSH2 0x304 JUMP JUMPDEST PUSH1 0x40 MLOAD DUP1 SWAP2 SUB SWAP1 RETURN JUMPDEST PUSH2 0x103 PUSH1 0x4 DUP1 CALLDATASIZE SUB DUP2 ADD SWAP1 PUSH2 0xFE SWAP2 SWAP1 PUSH2 0x2C1 JUMP JUMPDEST PUSH2 0x22F JUMP JUMPDEST PUSH1 0x40 MLOAD PUSH2 0x110 SWAP2 SWAP1 PUSH2 0x304 JUMP JUMPDEST PUSH1 0x40 MLOAD DUP1 SWAP2 SUB SWAP1 RETURN JUMPDEST PUSH2 0x133 PUSH1 0x4 DUP1 CALLDATASIZE SUB DUP2 ADD SWAP1 PUSH2 0x12E SWAP2 SWAP1 PUSH2 0x2C1 JUMP JUMPDEST PUSH2 0x270 JUMP JUMPDEST PUSH1 0x40 MLOAD PUSH2 0x140 SWAP2 SWAP1 PUSH2 0x304 JUMP JUMPDEST PUSH1 0x40 MLOAD DUP1 SWAP2 SUB SWAP1 RETURN JUMPDEST PUSH0 DUP2 PUSH2 0x18A JUMPI PUSH1 0x40 MLOAD PUSH32 0x8C379A000000000000000000000000000000000000000000000000000000000 DUP2 MSTORE PUSH1 0x4 ADD PUSH2 0x181 SWAP1 PUSH2 0x377 JUMP JUMPDEST PUSH1 0x40 MLOAD DUP1 SWAP2 SUB SWAP1 REVERT JUMPDEST PUSH1 0x3 SWAP1 POP SWAP2 SWAP1 POP JUMP JUMPDEST PUSH0 DUP2 PUSH2 0x1D4 JUMPI PUSH1 0x40 MLOAD PUSH32 0x8C379A000000000000000000000000000000000000000000000000000000000 DUP2 MSTORE PUSH1 0x4 ADD PUSH2 0x1CB SWAP1 PUSH2 0x3DF JUMP JUMPDEST PUSH1 0x40 MLOAD DUP1 SWAP2 SUB SWAP1 REVERT JUMPDEST PUSH1 0x1 SWAP1 POP SWAP2 SWAP1 POP JUMP JUMPDEST PUSH0 DUP2 PUSH2 0x226 JUMPI CALLER ORIGIN PUSH2 0x378 PUSH1 0x40 MLOAD PUSH32 0x8459163200000000000000000000000000000000000000000000000000000000 DUP2 MSTORE PUSH1 0x4 ADD PUSH2 0x21D SWAP4 SWAP3 SWAP2 SWAP1 PUSH2 0x4C8 JUMP JUMPDEST PUSH1 0x40 MLOAD DUP1 SWAP2 SUB SWAP1 REVERT JUMPDEST PUSH1 0x3 SWAP1 POP SWAP2 SWAP1 POP JUMP JUMPDEST PUSH0 DUP2 PUSH2 0x267 JUMPI PUSH1 0x40 MLOAD PUSH32 0x82B4290000000000000000000000000000000000000000000000000000000000 DUP2 MSTORE PUSH1 0x4 ADD PUSH1 0x40 MLOAD DUP1 SWAP2 SUB SWAP1 REVERT JUMPDEST PUSH1 0x3 SWAP1 POP SWAP2 SWAP1 POP JUMP JUMPDEST PUSH0 DUP2 PUSH2 0x27F JUMPI PUSH2 0x27E PUSH2 0x510 JUMP JUMPDEST JUMPDEST PUSH1 0x2 SWAP1 POP SWAP2 SWAP1 POP JUMP JUMPDEST PUSH0 PUSH0 REVERT JUMPDEST PUSH0 DUP2 ISZERO ISZERO SWAP1 POP SWAP2 SWAP1 POP JUMP JUMPDEST PUSH2 0x2A0 DUP2 PUSH2 0x28C JUMP JUMPDEST DUP2 EQ PUSH2 0x2AA JUMPI PUSH0 PUSH0 REVERT JUMPDEST POP JUMP JUMPDEST PUSH0 DUP2 CALLDATALOAD SWAP1 POP PUSH2 0x2BB DUP2 PUSH2 0x297 JUMP JUMPDEST SWAP3 SWAP2 POP POP JUMP JUMPDEST PUSH0 PUSH1 0x20 DUP3 DUP5 SUB SLT ISZERO PUSH2 0x2D6 JUMPI PUSH2 0x2D5 PUSH2 0x288 JUMP JUMPDEST JUMPDEST PUSH0 PUSH2 0x2E3 DUP5 DUP3 DUP6 ADD PUSH2 0x2AD JUMP JUMPDEST SWAP2 POP POP SWAP3 SWAP2 POP POP JUMP JUMPDEST PUSH0 DUP2 SWAP1 POP SWAP2 SWAP1 POP JUMP JUMPDEST PUSH2 0x2FE DUP2 PUSH2 0x2EC JUMP JUMPDEST DUP3 MSTORE POP POP JUMP JUMPDEST PUSH0 PUSH1 0x20 DUP3 ADD SWAP1 POP PUSH2 0x317 PUSH0 DUP4 ADD DUP5 PUSH2 0x2F5 JUMP JUMPDEST SWAP3 SWAP2 POP POP JUMP JUMPDEST PUSH0 DUP3 DUP3 MSTORE PUSH1 0x20 DUP3 ADD SWAP1 POP SWAP3 SWAP2 POP POP JUMP JUMPDEST PUSH32 0x7265766572743A3A3A20736F6D6520726561736F6E0000000000000000000000 PUSH0 DUP3 ADD MSTORE POP JUMP JUMPDEST PUSH0 PUSH2 0x361 PUSH1 0x15 DUP4 PUSH2 0x31D JUMP JUMPDEST SWAP2 POP PUSH2 0x36C DUP3 PUSH2 0x32D JUMP JUMPDEST PUSH1 0x20 DUP3 ADD SWAP1 POP SWAP2 SWAP1 POP JUMP JUMPDEST PUSH0 PUSH1 0x20 DUP3 ADD SWAP1 POP DUP2 DUP2 SUB PUSH0 DUP4 ADD MSTORE PUSH2 0x38E DUP2 PUSH2 0x355 JUMP JUMPDEST SWAP1 POP SWAP2 SWAP1 POP JUMP JUMPDEST PUSH32 0x496E707574206973206E6F742074727565000000000000000000000000000000 PUSH0 DUP3 ADD MSTORE POP JUMP JUMPDEST PUSH0 PUSH2 0x3C9 PUSH1 0x11 DUP4 PUSH2 0x31D JUMP JUMPDEST SWAP2 POP PUSH2 0x3D4 DUP3 PUSH2 0x395 JUMP JUMPDEST PUSH1 0x20 DUP3 ADD SWAP1 POP SWAP2 SWAP1 POP JUMP JUMPDEST PUSH0 PUSH1 0x20 DUP3 ADD SWAP1 POP DUP2 DUP2 SUB PUSH0 DUP4 ADD MSTORE PUSH2 0x3F6 DUP2 PUSH2 0x3BD JUMP JUMPDEST SWAP1 POP SWAP2 SWAP1 POP JUMP JUMPDEST PUSH0 PUSH20 0xFFFFFFFFFFFFFFFFFFFFFFFFFFFFFFFFFFFFFFFF DUP3 AND SWAP1 POP SWAP2 SWAP1 POP JUMP JUMPDEST PUSH0 PUSH2 0x426 DUP3 PUSH2 0x3FD JUMP JUMPDEST SWAP1 POP SWAP2 SWAP1 POP JUMP JUMPDEST PUSH2 0x436 DUP2 PUSH2 0x41C JUMP JUMPDEST DUP3 MSTORE POP POP JUMP JUMPDEST PUSH0 DUP2 SWAP1 POP SWAP2 SWAP1 POP JUMP JUMPDEST PUSH0 DUP2 SWAP1 POP SWAP2 SWAP1 POP JUMP JUMPDEST PUSH0 PUSH2 0x468 PUSH2 0x463 PUSH2 0x45E DUP5 PUSH2 0x43C JUMP JUMPDEST PUSH2 0x445 JUMP JUMPDEST PUSH2 0x2EC JUMP JUMPDEST SWAP1 POP SWAP2 SWAP1 POP JUMP JUMPDEST PUSH2 0x478 DUP2 PUSH2 0x44E JUMP JUMPDEST DUP3 MSTORE POP POP JUMP JUMPDEST PUSH32 0x616D6F756E74206973206E6F7420656E6F756768000000000000000000000000 PUSH0 DUP3 ADD MSTORE POP JUMP JUMPDEST PUSH0 PUSH2 0x4B2 PUSH1 0x14 DUP4 PUSH2 0x31D JUMP JUMPDEST SWAP2 POP PUSH2 0x4BD DUP3 PUSH2 0x47E JUMP JUMPDEST PUSH1 0x20 DUP3 ADD SWAP1 POP SWAP2 SWAP1 POP JUMP JUMPDEST PUSH0 PUSH1 0x80 DUP3 ADD SWAP1 POP PUSH2 0x4DB PUSH0 DUP4 ADD DUP7 PUSH2 0x42D JUMP JUMPDEST PUSH2 0x4E8 PUSH1 0x20 DUP4 ADD DUP6 PUSH2 0x42D JUMP JUMPDEST PUSH2 0x4F5 PUSH1 0x40 DUP4 ADD DUP5 PUSH2 0x46F JUMP JUMPDEST DUP2 DUP2 SUB PUSH1 0x60 DUP4 ADD MSTORE PUSH2 0x506 DUP2 PUSH2 0x4A6 JUMP JUMPDEST SWAP1 POP SWAP5 SWAP4 POP POP POP POP JUMP JUMPDEST PUSH32 0x4E487B7100000000000000000000000000000000000000000000000000000000 PUSH0 MSTORE PUSH1 0x1 PUSH1 0x4 MSTORE PUSH1 0x24 PUSH0 REVERT INVALID LOG2 PUSH5 0x6970667358 0x22 SLT KECCAK256 0xB8 0x23 DUP11 SAR 0xBE SWAP6 0xD RETF 0xDC MCOPY 0x2D CALLVALUE CREATE GASLIMIT 0xBE 0xC5 DUP9 0xE CODESIZE DUP16 0xB4 0x24 PUSH17 0xEAF10C0809B41EC34A64736F6C63430008 0x1E STOP CALLER "
				},
				"gasEstimates": {
					"creation": {
						"codeDepositCost": "350000",
						"executionCost": "infinite",
						"totalCost": "infinite"
					},
					"external": {
						"testCondition()": "infinite",
						"tyrcatch(bool)": "infinite"
					}
				},
				"methodIdentifiers": {
					"testCondition()": "e9ba88e6",
					"tyrcatch(bool)": "3e1cdf28"
				}
			},
			"storageLayout": {
				"storage": [
					{
						"astId": 107,
						"contract": "TestCondition.sol:TryCatchContract",
						"label": "testCondition",
						"offset": 0,
						"slot": "0",
						"type": "t_contract(TestCondition)104"
					}
				],
				"types": {
					"t_contract(TestCondition)104": {
						"encoding": "inplace",
						"label": "contract TestCondition",
						"numberOfBytes": "20"
					}
				}
			},
			"userdoc": {
				"kind": "user",
				"methods": {},
				"version": 1
			}
		}
	}
}