{
	"testMapping.sol": {
		"TestMapping": {
			"abi": [
				{
					"inputs": [
						{
							"internalType": "address",
							"name": "account",
							"type": "address"
						},
						{
							"internalType": "string",
							"name": "currency",
							"type": "string"
						}
					],
					"name": "deleteUserBalance",
					"outputs": [],
					"stateMutability": "nonpayable",
					"type": "function"
				},
				{
					"inputs": [
						{
							"internalType": "address",
							"name": "account",
							"type": "address"
						},
						{
							"internalType": "string",
							"name": "currency",
							"type": "string"
						}
					],
					"name": "getUserBalance",
					"outputs": [
						{
							"internalType": "uint256",
							"name": "",
							"type": "uint256"
						}
					],
					"stateMutability": "view",
					"type": "function"
				},
				{
					"inputs": [
						{
							"internalType": "address",
							"name": "account",
							"type": "address"
						}
					],
					"name": "myMapping",
					"outputs": [
						{
							"internalType": "uint256",
							"name": "balance",
							"type": "uint256"
						}
					],
					"stateMutability": "view",
					"type": "function"
				},
				{
					"inputs": [
						{
							"internalType": "address",
							"name": "_key",
							"type": "address"
						},
						{
							"internalType": "uint256",
							"name": "_value",
							"type": "uint256"
						}
					],
					"name": "setMyMapping",
					"outputs": [],
					"stateMutability": "nonpayable",
					"type": "function"
				},
				{
					"inputs": [
						{
							"internalType": "string",
							"name": "currency",
							"type": "string"
						},
						{
							"internalType": "uint256",
							"name": "amount",
							"type": "uint256"
						}
					],
					"name": "setUserBalance",
					"outputs": [],
					"stateMutability": "nonpayable",
					"type": "function"
				},
				{
					"inputs": [
						{
							"internalType": "address",
							"name": "account",
							"type": "address"
						},
						{
							"internalType": "string",
							"name": "currency",
							"type": "string"
						}
					],
					"name": "userBalances",
					"outputs": [
						{
							"internalType": "uint256",
							"name": "balance",
							"type": "uint256"
						}
					],
					"stateMutability": "view",
					"type": "function"
				}
			],
			"devdoc": {
				"kind": "dev",
				"methods": {},
				"version": 1
			},
			"evm": {
				"assembly": "    /* \"testMapping.sol\":60:804  contract TestMapping {... */\n  mstore(0x40, 0x80)\n  callvalue\n  dup1\n  iszero\n  tag_1\n  jumpi\n  revert(0x00, 0x00)\ntag_1:\n  pop\n  dataSize(sub_0)\n  dup1\n  dataOffset(sub_0)\n  0x00\n  codecopy\n  0x00\n  return\nstop\n\nsub_0: assembly {\n        /* \"testMapping.sol\":60:804  contract TestMapping {... */\n      mstore(0x40, 0x80)\n      callvalue\n      dup1\n      iszero\n      tag_1\n      jumpi\n      revert(0x00, 0x00)\n    tag_1:\n      pop\n      jumpi(tag_2, lt(calldatasize, 0x04))\n      shr(0xe0, calldataload(0x00))\n      dup1\n      0x09e89648\n      eq\n      tag_3\n      jumpi\n      dup1\n      0x12bd4d74\n      eq\n      tag_4\n      jumpi\n      dup1\n      0x7c07d4f1\n      eq\n      tag_5\n      jumpi\n      dup1\n      0x7e57afa7\n      eq\n      tag_6\n      jumpi\n      dup1\n      0xd59d65c1\n      eq\n      tag_7\n      jumpi\n      dup1\n      0xe8827cec\n      eq\n      tag_8\n      jumpi\n    tag_2:\n      revert(0x00, 0x00)\n        /* \"testMapping.sol\":372:505  function setUserBalance(string memory currency, uint256 amount) public {... */\n    tag_3:\n      tag_9\n      0x04\n      dup1\n      calldatasize\n      sub\n      dup2\n      add\n      swap1\n      tag_10\n      swap2\n      swap1\n      tag_11\n      jump\t// in\n    tag_10:\n      tag_12\n      jump\t// in\n    tag_9:\n      stop\n        /* \"testMapping.sol\":274:365  mapping(address account => mapping(string currency => uint256 balance)) public userBalances */\n    tag_4:\n      tag_13\n      0x04\n      dup1\n      calldatasize\n      sub\n      dup2\n      add\n      swap1\n      tag_14\n      swap2\n      swap1\n      tag_15\n      jump\t// in\n    tag_14:\n      tag_16\n      jump\t// in\n    tag_13:\n      mload(0x40)\n      tag_17\n      swap2\n      swap1\n      tag_18\n      jump\t// in\n    tag_17:\n      mload(0x40)\n      dup1\n      swap2\n      sub\n      swap1\n      return\n        /* \"testMapping.sol\":88:145  mapping(address account => uint balance) public myMapping */\n    tag_5:\n      tag_19\n      0x04\n      dup1\n      calldatasize\n      sub\n      dup2\n      add\n      swap1\n      tag_20\n      swap2\n      swap1\n      tag_21\n      jump\t// in\n    tag_20:\n      tag_22\n      jump\t// in\n    tag_19:\n      mload(0x40)\n      tag_23\n      swap2\n      swap1\n      tag_18\n      jump\t// in\n    tag_23:\n      mload(0x40)\n      dup1\n      swap2\n      sub\n      swap1\n      return\n        /* \"testMapping.sol\":152:251  function setMyMapping(address _key, uint _value) public {... */\n    tag_6:\n      tag_24\n      0x04\n      dup1\n      calldatasize\n      sub\n      dup2\n      add\n      swap1\n      tag_25\n      swap2\n      swap1\n      tag_26\n      jump\t// in\n    tag_25:\n      tag_27\n      jump\t// in\n    tag_24:\n      stop\n        /* \"testMapping.sol\":669:801  function deleteUserBalance(address account, string memory currency) public {... */\n    tag_7:\n      tag_28\n      0x04\n      dup1\n      calldatasize\n      sub\n      dup2\n      add\n      swap1\n      tag_29\n      swap2\n      swap1\n      tag_15\n      jump\t// in\n    tag_29:\n      tag_30\n      jump\t// in\n    tag_28:\n      stop\n        /* \"testMapping.sol\":511:663  function getUserBalance(address account, string memory currency) public view returns (uint256) {... */\n    tag_8:\n      tag_31\n      0x04\n      dup1\n      calldatasize\n      sub\n      dup2\n      add\n      swap1\n      tag_32\n      swap2\n      swap1\n      tag_15\n      jump\t// in\n    tag_32:\n      tag_33\n      jump\t// in\n    tag_31:\n      mload(0x40)\n      tag_34\n      swap2\n      swap1\n      tag_18\n      jump\t// in\n    tag_34:\n      mload(0x40)\n      dup1\n      swap2\n      sub\n      swap1\n      return\n        /* \"testMapping.sol\":372:505  function setUserBalance(string memory currency, uint256 amount) public {... */\n    tag_12:\n        /* \"testMapping.sol\":491:497  amount */\n      dup1\n        /* \"testMapping.sol\":454:466  userBalances */\n      0x01\n        /* \"testMapping.sol\":454:478  userBalances[msg.sender] */\n      0x00\n        /* \"testMapping.sol\":467:477  msg.sender */\n      caller\n        /* \"testMapping.sol\":454:478  userBalances[msg.sender] */\n      0xffffffffffffffffffffffffffffffffffffffff\n      and\n      0xffffffffffffffffffffffffffffffffffffffff\n      and\n      dup2\n      mstore\n      0x20\n      add\n      swap1\n      dup2\n      mstore\n      0x20\n      add\n      0x00\n      keccak256\n        /* \"testMapping.sol\":479:487  currency */\n      dup4\n        /* \"testMapping.sol\":454:488  userBalances[msg.sender][currency] */\n      mload(0x40)\n      tag_36\n      swap2\n      swap1\n      tag_37\n      jump\t// in\n    tag_36:\n      swap1\n      dup2\n      mstore\n      0x20\n      add\n      mload(0x40)\n      dup1\n      swap2\n      sub\n      swap1\n      keccak256\n        /* \"testMapping.sol\":454:497  userBalances[msg.sender][currency] = amount */\n      dup2\n      swap1\n      sstore\n      pop\n        /* \"testMapping.sol\":372:505  function setUserBalance(string memory currency, uint256 amount) public {... */\n      pop\n      pop\n      jump\t// out\n        /* \"testMapping.sol\":274:365  mapping(address account => mapping(string currency => uint256 balance)) public userBalances */\n    tag_16:\n      mstore(0x20, 0x01)\n      dup2\n      0x00\n      mstore\n      keccak256(0x00, 0x40)\n      dup2\n      dup1\n      mload\n      0x20\n      dup2\n      add\n      dup3\n      add\n      dup1\n      mload\n      dup5\n      dup3\n      mstore\n      0x20\n      dup4\n      add\n      0x20\n      dup6\n      add\n      keccak256\n      dup2\n      dup4\n      mstore\n      dup1\n      swap6\n      pop\n      pop\n      pop\n      pop\n      pop\n      pop\n      0x00\n      swap2\n      pop\n      swap2\n      pop\n      pop\n      sload\n      dup2\n      jump\t// out\n        /* \"testMapping.sol\":88:145  mapping(address account => uint balance) public myMapping */\n    tag_22:\n      mstore(0x20, 0x00)\n      dup1\n      0x00\n      mstore\n      keccak256(0x00, 0x40)\n      0x00\n      swap2\n      pop\n      swap1\n      pop\n      sload\n      dup2\n      jump\t// out\n        /* \"testMapping.sol\":152:251  function setMyMapping(address _key, uint _value) public {... */\n    tag_27:\n        /* \"testMapping.sol\":237:243  _value */\n      dup1\n        /* \"testMapping.sol\":219:228  myMapping */\n      0x00\n        /* \"testMapping.sol\":219:234  myMapping[_key] */\n      0x00\n        /* \"testMapping.sol\":229:233  _key */\n      dup5\n        /* \"testMapping.sol\":219:234  myMapping[_key] */\n      0xffffffffffffffffffffffffffffffffffffffff\n      and\n      0xffffffffffffffffffffffffffffffffffffffff\n      and\n      dup2\n      mstore\n      0x20\n      add\n      swap1\n      dup2\n      mstore\n      0x20\n      add\n      0x00\n      keccak256\n        /* \"testMapping.sol\":219:243  myMapping[_key] = _value */\n      dup2\n      swap1\n      sstore\n      pop\n        /* \"testMapping.sol\":152:251  function setMyMapping(address _key, uint _value) public {... */\n      pop\n      pop\n      jump\t// out\n        /* \"testMapping.sol\":669:801  function deleteUserBalance(address account, string memory currency) public {... */\n    tag_30:\n        /* \"testMapping.sol\":762:774  userBalances */\n      0x01\n        /* \"testMapping.sol\":762:783  userBalances[account] */\n      0x00\n        /* \"testMapping.sol\":775:782  account */\n      dup4\n        /* \"testMapping.sol\":762:783  userBalances[account] */\n      0xffffffffffffffffffffffffffffffffffffffff\n      and\n      0xffffffffffffffffffffffffffffffffffffffff\n      and\n      dup2\n      mstore\n      0x20\n      add\n      swap1\n      dup2\n      mstore\n      0x20\n      add\n      0x00\n      keccak256\n        /* \"testMapping.sol\":784:792  currency */\n      dup2\n        /* \"testMapping.sol\":762:793  userBalances[account][currency] */\n      mload(0x40)\n      tag_40\n      swap2\n      swap1\n      tag_37\n      jump\t// in\n    tag_40:\n      swap1\n      dup2\n      mstore\n      0x20\n      add\n      mload(0x40)\n      dup1\n      swap2\n      sub\n      swap1\n      keccak256\n        /* \"testMapping.sol\":755:793  delete userBalances[account][currency] */\n      0x00\n      swap1\n      sstore\n        /* \"testMapping.sol\":669:801  function deleteUserBalance(address account, string memory currency) public {... */\n      pop\n      pop\n      jump\t// out\n        /* \"testMapping.sol\":511:663  function getUserBalance(address account, string memory currency) public view returns (uint256) {... */\n    tag_33:\n        /* \"testMapping.sol\":597:604  uint256 */\n      0x00\n        /* \"testMapping.sol\":624:636  userBalances */\n      0x01\n        /* \"testMapping.sol\":624:645  userBalances[account] */\n      0x00\n        /* \"testMapping.sol\":637:644  account */\n      dup5\n        /* \"testMapping.sol\":624:645  userBalances[account] */\n      0xffffffffffffffffffffffffffffffffffffffff\n      and\n      0xffffffffffffffffffffffffffffffffffffffff\n      and\n      dup2\n      mstore\n      0x20\n      add\n      swap1\n      dup2\n      mstore\n      0x20\n      add\n      0x00\n      keccak256\n        /* \"testMapping.sol\":646:654  currency */\n      dup3\n        /* \"testMapping.sol\":624:655  userBalances[account][currency] */\n      mload(0x40)\n      tag_42\n      swap2\n      swap1\n      tag_37\n      jump\t// in\n    tag_42:\n      swap1\n      dup2\n      mstore\n      0x20\n      add\n      mload(0x40)\n      dup1\n      swap2\n      sub\n      swap1\n      keccak256\n      sload\n        /* \"testMapping.sol\":617:655  return userBalances[account][currency] */\n      swap1\n      pop\n        /* \"testMapping.sol\":511:663  function getUserBalance(address account, string memory currency) public view returns (uint256) {... */\n      swap3\n      swap2\n      pop\n      pop\n      jump\t// out\n        /* \"#utility.yul\":7:82   */\n    tag_43:\n        /* \"#utility.yul\":40:46   */\n      0x00\n        /* \"#utility.yul\":73:75   */\n      0x40\n        /* \"#utility.yul\":67:76   */\n      mload\n        /* \"#utility.yul\":57:76   */\n      swap1\n      pop\n        /* \"#utility.yul\":7:82   */\n      swap1\n      jump\t// out\n        /* \"#utility.yul\":88:205   */\n    tag_44:\n        /* \"#utility.yul\":197:198   */\n      0x00\n        /* \"#utility.yul\":194:195   */\n      0x00\n        /* \"#utility.yul\":187:199   */\n      revert\n        /* \"#utility.yul\":211:328   */\n    tag_45:\n        /* \"#utility.yul\":320:321   */\n      0x00\n        /* \"#utility.yul\":317:318   */\n      0x00\n        /* \"#utility.yul\":310:322   */\n      revert\n        /* \"#utility.yul\":334:451   */\n    tag_46:\n        /* \"#utility.yul\":443:444   */\n      0x00\n        /* \"#utility.yul\":440:441   */\n      0x00\n        /* \"#utility.yul\":433:445   */\n      revert\n        /* \"#utility.yul\":457:574   */\n    tag_47:\n        /* \"#utility.yul\":566:567   */\n      0x00\n        /* \"#utility.yul\":563:564   */\n      0x00\n        /* \"#utility.yul\":556:568   */\n      revert\n        /* \"#utility.yul\":580:682   */\n    tag_48:\n        /* \"#utility.yul\":621:627   */\n      0x00\n        /* \"#utility.yul\":672:674   */\n      0x1f\n        /* \"#utility.yul\":668:675   */\n      not\n        /* \"#utility.yul\":663:665   */\n      0x1f\n        /* \"#utility.yul\":656:661   */\n      dup4\n        /* \"#utility.yul\":652:666   */\n      add\n        /* \"#utility.yul\":648:676   */\n      and\n        /* \"#utility.yul\":638:676   */\n      swap1\n      pop\n        /* \"#utility.yul\":580:682   */\n      swap2\n      swap1\n      pop\n      jump\t// out\n        /* \"#utility.yul\":688:868   */\n    tag_49:\n        /* \"#utility.yul\":736:813   */\n      0x4e487b7100000000000000000000000000000000000000000000000000000000\n        /* \"#utility.yul\":733:734   */\n      0x00\n        /* \"#utility.yul\":726:814   */\n      mstore\n        /* \"#utility.yul\":833:837   */\n      0x41\n        /* \"#utility.yul\":830:831   */\n      0x04\n        /* \"#utility.yul\":823:838   */\n      mstore\n        /* \"#utility.yul\":857:861   */\n      0x24\n        /* \"#utility.yul\":854:855   */\n      0x00\n        /* \"#utility.yul\":847:862   */\n      revert\n        /* \"#utility.yul\":874:1155   */\n    tag_50:\n        /* \"#utility.yul\":957:984   */\n      tag_77\n        /* \"#utility.yul\":979:983   */\n      dup3\n        /* \"#utility.yul\":957:984   */\n      tag_48\n      jump\t// in\n    tag_77:\n        /* \"#utility.yul\":949:955   */\n      dup2\n        /* \"#utility.yul\":945:985   */\n      add\n        /* \"#utility.yul\":1087:1093   */\n      dup2\n        /* \"#utility.yul\":1075:1085   */\n      dup2\n        /* \"#utility.yul\":1072:1094   */\n      lt\n        /* \"#utility.yul\":1051:1069   */\n      0xffffffffffffffff\n        /* \"#utility.yul\":1039:1049   */\n      dup3\n        /* \"#utility.yul\":1036:1070   */\n      gt\n        /* \"#utility.yul\":1033:1095   */\n      or\n        /* \"#utility.yul\":1030:1118   */\n      iszero\n      tag_78\n      jumpi\n        /* \"#utility.yul\":1098:1116   */\n      tag_79\n      tag_49\n      jump\t// in\n    tag_79:\n        /* \"#utility.yul\":1030:1118   */\n    tag_78:\n        /* \"#utility.yul\":1138:1148   */\n      dup1\n        /* \"#utility.yul\":1134:1136   */\n      0x40\n        /* \"#utility.yul\":1127:1149   */\n      mstore\n        /* \"#utility.yul\":917:1155   */\n      pop\n        /* \"#utility.yul\":874:1155   */\n      pop\n      pop\n      jump\t// out\n        /* \"#utility.yul\":1161:1290   */\n    tag_51:\n        /* \"#utility.yul\":1195:1201   */\n      0x00\n        /* \"#utility.yul\":1222:1242   */\n      tag_81\n      tag_43\n      jump\t// in\n    tag_81:\n        /* \"#utility.yul\":1212:1242   */\n      swap1\n      pop\n        /* \"#utility.yul\":1251:1284   */\n      tag_82\n        /* \"#utility.yul\":1279:1283   */\n      dup3\n        /* \"#utility.yul\":1271:1277   */\n      dup3\n        /* \"#utility.yul\":1251:1284   */\n      tag_50\n      jump\t// in\n    tag_82:\n        /* \"#utility.yul\":1161:1290   */\n      swap2\n      swap1\n      pop\n      jump\t// out\n        /* \"#utility.yul\":1296:1604   */\n    tag_52:\n        /* \"#utility.yul\":1358:1362   */\n      0x00\n        /* \"#utility.yul\":1448:1466   */\n      0xffffffffffffffff\n        /* \"#utility.yul\":1440:1446   */\n      dup3\n        /* \"#utility.yul\":1437:1467   */\n      gt\n        /* \"#utility.yul\":1434:1490   */\n      iszero\n      tag_84\n      jumpi\n        /* \"#utility.yul\":1470:1488   */\n      tag_85\n      tag_49\n      jump\t// in\n    tag_85:\n        /* \"#utility.yul\":1434:1490   */\n    tag_84:\n        /* \"#utility.yul\":1508:1537   */\n      tag_86\n        /* \"#utility.yul\":1530:1536   */\n      dup3\n        /* \"#utility.yul\":1508:1537   */\n      tag_48\n      jump\t// in\n    tag_86:\n        /* \"#utility.yul\":1500:1537   */\n      swap1\n      pop\n        /* \"#utility.yul\":1592:1596   */\n      0x20\n        /* \"#utility.yul\":1586:1590   */\n      dup2\n        /* \"#utility.yul\":1582:1597   */\n      add\n        /* \"#utility.yul\":1574:1597   */\n      swap1\n      pop\n        /* \"#utility.yul\":1296:1604   */\n      swap2\n      swap1\n      pop\n      jump\t// out\n        /* \"#utility.yul\":1610:1758   */\n    tag_53:\n        /* \"#utility.yul\":1708:1714   */\n      dup3\n        /* \"#utility.yul\":1703:1706   */\n      dup2\n        /* \"#utility.yul\":1698:1701   */\n      dup4\n        /* \"#utility.yul\":1685:1715   */\n      calldatacopy\n        /* \"#utility.yul\":1749:1750   */\n      0x00\n        /* \"#utility.yul\":1740:1746   */\n      dup4\n        /* \"#utility.yul\":1735:1738   */\n      dup4\n        /* \"#utility.yul\":1731:1747   */\n      add\n        /* \"#utility.yul\":1724:1751   */\n      mstore\n        /* \"#utility.yul\":1610:1758   */\n      pop\n      pop\n      pop\n      jump\t// out\n        /* \"#utility.yul\":1764:2189   */\n    tag_54:\n        /* \"#utility.yul\":1842:1847   */\n      0x00\n        /* \"#utility.yul\":1867:1933   */\n      tag_89\n        /* \"#utility.yul\":1883:1932   */\n      tag_90\n        /* \"#utility.yul\":1925:1931   */\n      dup5\n        /* \"#utility.yul\":1883:1932   */\n      tag_52\n      jump\t// in\n    tag_90:\n        /* \"#utility.yul\":1867:1933   */\n      tag_51\n      jump\t// in\n    tag_89:\n        /* \"#utility.yul\":1858:1933   */\n      swap1\n      pop\n        /* \"#utility.yul\":1956:1962   */\n      dup3\n        /* \"#utility.yul\":1949:1954   */\n      dup2\n        /* \"#utility.yul\":1942:1963   */\n      mstore\n        /* \"#utility.yul\":1994:1998   */\n      0x20\n        /* \"#utility.yul\":1987:1992   */\n      dup2\n        /* \"#utility.yul\":1983:1999   */\n      add\n        /* \"#utility.yul\":2032:2035   */\n      dup5\n        /* \"#utility.yul\":2023:2029   */\n      dup5\n        /* \"#utility.yul\":2018:2021   */\n      dup5\n        /* \"#utility.yul\":2014:2030   */\n      add\n        /* \"#utility.yul\":2011:2036   */\n      gt\n        /* \"#utility.yul\":2008:2120   */\n      iszero\n      tag_91\n      jumpi\n        /* \"#utility.yul\":2039:2118   */\n      tag_92\n      tag_47\n      jump\t// in\n    tag_92:\n        /* \"#utility.yul\":2008:2120   */\n    tag_91:\n        /* \"#utility.yul\":2129:2183   */\n      tag_93\n        /* \"#utility.yul\":2176:2182   */\n      dup5\n        /* \"#utility.yul\":2171:2174   */\n      dup3\n        /* \"#utility.yul\":2166:2169   */\n      dup6\n        /* \"#utility.yul\":2129:2183   */\n      tag_53\n      jump\t// in\n    tag_93:\n        /* \"#utility.yul\":1848:2189   */\n      pop\n        /* \"#utility.yul\":1764:2189   */\n      swap4\n      swap3\n      pop\n      pop\n      pop\n      jump\t// out\n        /* \"#utility.yul\":2209:2549   */\n    tag_55:\n        /* \"#utility.yul\":2265:2270   */\n      0x00\n        /* \"#utility.yul\":2314:2317   */\n      dup3\n        /* \"#utility.yul\":2307:2311   */\n      0x1f\n        /* \"#utility.yul\":2299:2305   */\n      dup4\n        /* \"#utility.yul\":2295:2312   */\n      add\n        /* \"#utility.yul\":2291:2318   */\n      slt\n        /* \"#utility.yul\":2281:2403   */\n      tag_95\n      jumpi\n        /* \"#utility.yul\":2322:2401   */\n      tag_96\n      tag_46\n      jump\t// in\n    tag_96:\n        /* \"#utility.yul\":2281:2403   */\n    tag_95:\n        /* \"#utility.yul\":2439:2445   */\n      dup2\n        /* \"#utility.yul\":2426:2446   */\n      calldataload\n        /* \"#utility.yul\":2464:2543   */\n      tag_97\n        /* \"#utility.yul\":2539:2542   */\n      dup5\n        /* \"#utility.yul\":2531:2537   */\n      dup3\n        /* \"#utility.yul\":2524:2528   */\n      0x20\n        /* \"#utility.yul\":2516:2522   */\n      dup7\n        /* \"#utility.yul\":2512:2529   */\n      add\n        /* \"#utility.yul\":2464:2543   */\n      tag_54\n      jump\t// in\n    tag_97:\n        /* \"#utility.yul\":2455:2543   */\n      swap2\n      pop\n        /* \"#utility.yul\":2271:2549   */\n      pop\n        /* \"#utility.yul\":2209:2549   */\n      swap3\n      swap2\n      pop\n      pop\n      jump\t// out\n        /* \"#utility.yul\":2555:2632   */\n    tag_56:\n        /* \"#utility.yul\":2592:2599   */\n      0x00\n        /* \"#utility.yul\":2621:2626   */\n      dup2\n        /* \"#utility.yul\":2610:2626   */\n      swap1\n      pop\n        /* \"#utility.yul\":2555:2632   */\n      swap2\n      swap1\n      pop\n      jump\t// out\n        /* \"#utility.yul\":2638:2760   */\n    tag_57:\n        /* \"#utility.yul\":2711:2735   */\n      tag_100\n        /* \"#utility.yul\":2729:2734   */\n      dup2\n        /* \"#utility.yul\":2711:2735   */\n      tag_56\n      jump\t// in\n    tag_100:\n        /* \"#utility.yul\":2704:2709   */\n      dup2\n        /* \"#utility.yul\":2701:2736   */\n      eq\n        /* \"#utility.yul\":2691:2754   */\n      tag_101\n      jumpi\n        /* \"#utility.yul\":2750:2751   */\n      0x00\n        /* \"#utility.yul\":2747:2748   */\n      0x00\n        /* \"#utility.yul\":2740:2752   */\n      revert\n        /* \"#utility.yul\":2691:2754   */\n    tag_101:\n        /* \"#utility.yul\":2638:2760   */\n      pop\n      jump\t// out\n        /* \"#utility.yul\":2766:2905   */\n    tag_58:\n        /* \"#utility.yul\":2812:2817   */\n      0x00\n        /* \"#utility.yul\":2850:2856   */\n      dup2\n        /* \"#utility.yul\":2837:2857   */\n      calldataload\n        /* \"#utility.yul\":2828:2857   */\n      swap1\n      pop\n        /* \"#utility.yul\":2866:2899   */\n      tag_103\n        /* \"#utility.yul\":2893:2898   */\n      dup2\n        /* \"#utility.yul\":2866:2899   */\n      tag_57\n      jump\t// in\n    tag_103:\n        /* \"#utility.yul\":2766:2905   */\n      swap3\n      swap2\n      pop\n      pop\n      jump\t// out\n        /* \"#utility.yul\":2911:3565   */\n    tag_11:\n        /* \"#utility.yul\":2989:2995   */\n      0x00\n        /* \"#utility.yul\":2997:3003   */\n      0x00\n        /* \"#utility.yul\":3046:3048   */\n      0x40\n        /* \"#utility.yul\":3034:3043   */\n      dup4\n        /* \"#utility.yul\":3025:3032   */\n      dup6\n        /* \"#utility.yul\":3021:3044   */\n      sub\n        /* \"#utility.yul\":3017:3049   */\n      slt\n        /* \"#utility.yul\":3014:3133   */\n      iszero\n      tag_105\n      jumpi\n        /* \"#utility.yul\":3052:3131   */\n      tag_106\n      tag_44\n      jump\t// in\n    tag_106:\n        /* \"#utility.yul\":3014:3133   */\n    tag_105:\n        /* \"#utility.yul\":3200:3201   */\n      0x00\n        /* \"#utility.yul\":3189:3198   */\n      dup4\n        /* \"#utility.yul\":3185:3202   */\n      add\n        /* \"#utility.yul\":3172:3203   */\n      calldataload\n        /* \"#utility.yul\":3230:3248   */\n      0xffffffffffffffff\n        /* \"#utility.yul\":3222:3228   */\n      dup2\n        /* \"#utility.yul\":3219:3249   */\n      gt\n        /* \"#utility.yul\":3216:3333   */\n      iszero\n      tag_107\n      jumpi\n        /* \"#utility.yul\":3252:3331   */\n      tag_108\n      tag_45\n      jump\t// in\n    tag_108:\n        /* \"#utility.yul\":3216:3333   */\n    tag_107:\n        /* \"#utility.yul\":3357:3420   */\n      tag_109\n        /* \"#utility.yul\":3412:3419   */\n      dup6\n        /* \"#utility.yul\":3403:3409   */\n      dup3\n        /* \"#utility.yul\":3392:3401   */\n      dup7\n        /* \"#utility.yul\":3388:3410   */\n      add\n        /* \"#utility.yul\":3357:3420   */\n      tag_55\n      jump\t// in\n    tag_109:\n        /* \"#utility.yul\":3347:3420   */\n      swap3\n      pop\n        /* \"#utility.yul\":3143:3430   */\n      pop\n        /* \"#utility.yul\":3469:3471   */\n      0x20\n        /* \"#utility.yul\":3495:3548   */\n      tag_110\n        /* \"#utility.yul\":3540:3547   */\n      dup6\n        /* \"#utility.yul\":3531:3537   */\n      dup3\n        /* \"#utility.yul\":3520:3529   */\n      dup7\n        /* \"#utility.yul\":3516:3538   */\n      add\n        /* \"#utility.yul\":3495:3548   */\n      tag_58\n      jump\t// in\n    tag_110:\n        /* \"#utility.yul\":3485:3548   */\n      swap2\n      pop\n        /* \"#utility.yul\":3440:3558   */\n      pop\n        /* \"#utility.yul\":2911:3565   */\n      swap3\n      pop\n      swap3\n      swap1\n      pop\n      jump\t// out\n        /* \"#utility.yul\":3571:3697   */\n    tag_59:\n        /* \"#utility.yul\":3608:3615   */\n      0x00\n        /* \"#utility.yul\":3648:3690   */\n      0xffffffffffffffffffffffffffffffffffffffff\n        /* \"#utility.yul\":3641:3646   */\n      dup3\n        /* \"#utility.yul\":3637:3691   */\n      and\n        /* \"#utility.yul\":3626:3691   */\n      swap1\n      pop\n        /* \"#utility.yul\":3571:3697   */\n      swap2\n      swap1\n      pop\n      jump\t// out\n        /* \"#utility.yul\":3703:3799   */\n    tag_60:\n        /* \"#utility.yul\":3740:3747   */\n      0x00\n        /* \"#utility.yul\":3769:3793   */\n      tag_113\n        /* \"#utility.yul\":3787:3792   */\n      dup3\n        /* \"#utility.yul\":3769:3793   */\n      tag_59\n      jump\t// in\n    tag_113:\n        /* \"#utility.yul\":3758:3793   */\n      swap1\n      pop\n        /* \"#utility.yul\":3703:3799   */\n      swap2\n      swap1\n      pop\n      jump\t// out\n        /* \"#utility.yul\":3805:3927   */\n    tag_61:\n        /* \"#utility.yul\":3878:3902   */\n      tag_115\n        /* \"#utility.yul\":3896:3901   */\n      dup2\n        /* \"#utility.yul\":3878:3902   */\n      tag_60\n      jump\t// in\n    tag_115:\n        /* \"#utility.yul\":3871:3876   */\n      dup2\n        /* \"#utility.yul\":3868:3903   */\n      eq\n        /* \"#utility.yul\":3858:3921   */\n      tag_116\n      jumpi\n        /* \"#utility.yul\":3917:3918   */\n      0x00\n        /* \"#utility.yul\":3914:3915   */\n      0x00\n        /* \"#utility.yul\":3907:3919   */\n      revert\n        /* \"#utility.yul\":3858:3921   */\n    tag_116:\n        /* \"#utility.yul\":3805:3927   */\n      pop\n      jump\t// out\n        /* \"#utility.yul\":3933:4072   */\n    tag_62:\n        /* \"#utility.yul\":3979:3984   */\n      0x00\n        /* \"#utility.yul\":4017:4023   */\n      dup2\n        /* \"#utility.yul\":4004:4024   */\n      calldataload\n        /* \"#utility.yul\":3995:4024   */\n      swap1\n      pop\n        /* \"#utility.yul\":4033:4066   */\n      tag_118\n        /* \"#utility.yul\":4060:4065   */\n      dup2\n        /* \"#utility.yul\":4033:4066   */\n      tag_61\n      jump\t// in\n    tag_118:\n        /* \"#utility.yul\":3933:4072   */\n      swap3\n      swap2\n      pop\n      pop\n      jump\t// out\n        /* \"#utility.yul\":4078:4732   */\n    tag_15:\n        /* \"#utility.yul\":4156:4162   */\n      0x00\n        /* \"#utility.yul\":4164:4170   */\n      0x00\n        /* \"#utility.yul\":4213:4215   */\n      0x40\n        /* \"#utility.yul\":4201:4210   */\n      dup4\n        /* \"#utility.yul\":4192:4199   */\n      dup6\n        /* \"#utility.yul\":4188:4211   */\n      sub\n        /* \"#utility.yul\":4184:4216   */\n      slt\n        /* \"#utility.yul\":4181:4300   */\n      iszero\n      tag_120\n      jumpi\n        /* \"#utility.yul\":4219:4298   */\n      tag_121\n      tag_44\n      jump\t// in\n    tag_121:\n        /* \"#utility.yul\":4181:4300   */\n    tag_120:\n        /* \"#utility.yul\":4339:4340   */\n      0x00\n        /* \"#utility.yul\":4364:4417   */\n      tag_122\n        /* \"#utility.yul\":4409:4416   */\n      dup6\n        /* \"#utility.yul\":4400:4406   */\n      dup3\n        /* \"#utility.yul\":4389:4398   */\n      dup7\n        /* \"#utility.yul\":4385:4407   */\n      add\n        /* \"#utility.yul\":4364:4417   */\n      tag_62\n      jump\t// in\n    tag_122:\n        /* \"#utility.yul\":4354:4417   */\n      swap3\n      pop\n        /* \"#utility.yul\":4310:4427   */\n      pop\n        /* \"#utility.yul\":4494:4496   */\n      0x20\n        /* \"#utility.yul\":4483:4492   */\n      dup4\n        /* \"#utility.yul\":4479:4497   */\n      add\n        /* \"#utility.yul\":4466:4498   */\n      calldataload\n        /* \"#utility.yul\":4525:4543   */\n      0xffffffffffffffff\n        /* \"#utility.yul\":4517:4523   */\n      dup2\n        /* \"#utility.yul\":4514:4544   */\n      gt\n        /* \"#utility.yul\":4511:4628   */\n      iszero\n      tag_123\n      jumpi\n        /* \"#utility.yul\":4547:4626   */\n      tag_124\n      tag_45\n      jump\t// in\n    tag_124:\n        /* \"#utility.yul\":4511:4628   */\n    tag_123:\n        /* \"#utility.yul\":4652:4715   */\n      tag_125\n        /* \"#utility.yul\":4707:4714   */\n      dup6\n        /* \"#utility.yul\":4698:4704   */\n      dup3\n        /* \"#utility.yul\":4687:4696   */\n      dup7\n        /* \"#utility.yul\":4683:4705   */\n      add\n        /* \"#utility.yul\":4652:4715   */\n      tag_55\n      jump\t// in\n    tag_125:\n        /* \"#utility.yul\":4642:4715   */\n      swap2\n      pop\n        /* \"#utility.yul\":4437:4725   */\n      pop\n        /* \"#utility.yul\":4078:4732   */\n      swap3\n      pop\n      swap3\n      swap1\n      pop\n      jump\t// out\n        /* \"#utility.yul\":4738:4856   */\n    tag_63:\n        /* \"#utility.yul\":4825:4849   */\n      tag_127\n        /* \"#utility.yul\":4843:4848   */\n      dup2\n        /* \"#utility.yul\":4825:4849   */\n      tag_56\n      jump\t// in\n    tag_127:\n        /* \"#utility.yul\":4820:4823   */\n      dup3\n        /* \"#utility.yul\":4813:4850   */\n      mstore\n        /* \"#utility.yul\":4738:4856   */\n      pop\n      pop\n      jump\t// out\n        /* \"#utility.yul\":4862:5084   */\n    tag_18:\n        /* \"#utility.yul\":4955:4959   */\n      0x00\n        /* \"#utility.yul\":4993:4995   */\n      0x20\n        /* \"#utility.yul\":4982:4991   */\n      dup3\n        /* \"#utility.yul\":4978:4996   */\n      add\n        /* \"#utility.yul\":4970:4996   */\n      swap1\n      pop\n        /* \"#utility.yul\":5006:5077   */\n      tag_129\n        /* \"#utility.yul\":5074:5075   */\n      0x00\n        /* \"#utility.yul\":5063:5072   */\n      dup4\n        /* \"#utility.yul\":5059:5076   */\n      add\n        /* \"#utility.yul\":5050:5056   */\n      dup5\n        /* \"#utility.yul\":5006:5077   */\n      tag_63\n      jump\t// in\n    tag_129:\n        /* \"#utility.yul\":4862:5084   */\n      swap3\n      swap2\n      pop\n      pop\n      jump\t// out\n        /* \"#utility.yul\":5090:5419   */\n    tag_21:\n        /* \"#utility.yul\":5149:5155   */\n      0x00\n        /* \"#utility.yul\":5198:5200   */\n      0x20\n        /* \"#utility.yul\":5186:5195   */\n      dup3\n        /* \"#utility.yul\":5177:5184   */\n      dup5\n        /* \"#utility.yul\":5173:5196   */\n      sub\n        /* \"#utility.yul\":5169:5201   */\n      slt\n        /* \"#utility.yul\":5166:5285   */\n      iszero\n      tag_131\n      jumpi\n        /* \"#utility.yul\":5204:5283   */\n      tag_132\n      tag_44\n      jump\t// in\n    tag_132:\n        /* \"#utility.yul\":5166:5285   */\n    tag_131:\n        /* \"#utility.yul\":5324:5325   */\n      0x00\n        /* \"#utility.yul\":5349:5402   */\n      tag_133\n        /* \"#utility.yul\":5394:5401   */\n      dup5\n        /* \"#utility.yul\":5385:5391   */\n      dup3\n        /* \"#utility.yul\":5374:5383   */\n      dup6\n        /* \"#utility.yul\":5370:5392   */\n      add\n        /* \"#utility.yul\":5349:5402   */\n      tag_62\n      jump\t// in\n    tag_133:\n        /* \"#utility.yul\":5339:5402   */\n      swap2\n      pop\n        /* \"#utility.yul\":5295:5412   */\n      pop\n        /* \"#utility.yul\":5090:5419   */\n      swap3\n      swap2\n      pop\n      pop\n      jump\t// out\n        /* \"#utility.yul\":5425:5899   */\n    tag_26:\n        /* \"#utility.yul\":5493:5499   */\n      0x00\n        /* \"#utility.yul\":5501:5507   */\n      0x00\n        /* \"#utility.yul\":5550:5552   */\n      0x40\n        /* \"#utility.yul\":5538:5547   */\n      dup4\n        /* \"#utility.yul\":5529:5536   */\n      dup6\n        /* \"#utility.yul\":5525:5548   */\n      sub\n        /* \"#utility.yul\":5521:5553   */\n      slt\n        /* \"#utility.yul\":5518:5637   */\n      iszero\n      tag_135\n      jumpi\n        /* \"#utility.yul\":5556:5635   */\n      tag_136\n      tag_44\n      jump\t// in\n    tag_136:\n        /* \"#utility.yul\":5518:5637   */\n    tag_135:\n        /* \"#utility.yul\":5676:5677   */\n      0x00\n        /* \"#utility.yul\":5701:5754   */\n      tag_137\n        /* \"#utility.yul\":5746:5753   */\n      dup6\n        /* \"#utility.yul\":5737:5743   */\n      dup3\n        /* \"#utility.yul\":5726:5735   */\n      dup7\n        /* \"#utility.yul\":5722:5744   */\n      add\n        /* \"#utility.yul\":5701:5754   */\n      tag_62\n      jump\t// in\n    tag_137:\n        /* \"#utility.yul\":5691:5754   */\n      swap3\n      pop\n        /* \"#utility.yul\":5647:5764   */\n      pop\n        /* \"#utility.yul\":5803:5805   */\n      0x20\n        /* \"#utility.yul\":5829:5882   */\n      tag_138\n        /* \"#utility.yul\":5874:5881   */\n      dup6\n        /* \"#utility.yul\":5865:5871   */\n      dup3\n        /* \"#utility.yul\":5854:5863   */\n      dup7\n        /* \"#utility.yul\":5850:5872   */\n      add\n        /* \"#utility.yul\":5829:5882   */\n      tag_58\n      jump\t// in\n    tag_138:\n        /* \"#utility.yul\":5819:5882   */\n      swap2\n      pop\n        /* \"#utility.yul\":5774:5892   */\n      pop\n        /* \"#utility.yul\":5425:5899   */\n      swap3\n      pop\n      swap3\n      swap1\n      pop\n      jump\t// out\n        /* \"#utility.yul\":5905:6004   */\n    tag_64:\n        /* \"#utility.yul\":5957:5963   */\n      0x00\n        /* \"#utility.yul\":5991:5996   */\n      dup2\n        /* \"#utility.yul\":5985:5997   */\n      mload\n        /* \"#utility.yul\":5975:5997   */\n      swap1\n      pop\n        /* \"#utility.yul\":5905:6004   */\n      swap2\n      swap1\n      pop\n      jump\t// out\n        /* \"#utility.yul\":6010:6158   */\n    tag_65:\n        /* \"#utility.yul\":6112:6123   */\n      0x00\n        /* \"#utility.yul\":6149:6152   */\n      dup2\n        /* \"#utility.yul\":6134:6152   */\n      swap1\n      pop\n        /* \"#utility.yul\":6010:6158   */\n      swap3\n      swap2\n      pop\n      pop\n      jump\t// out\n        /* \"#utility.yul\":6164:6303   */\n    tag_66:\n        /* \"#utility.yul\":6253:6259   */\n      dup3\n        /* \"#utility.yul\":6248:6251   */\n      dup2\n        /* \"#utility.yul\":6243:6246   */\n      dup4\n        /* \"#utility.yul\":6237:6260   */\n      mcopy\n        /* \"#utility.yul\":6294:6295   */\n      0x00\n        /* \"#utility.yul\":6285:6291   */\n      dup4\n        /* \"#utility.yul\":6280:6283   */\n      dup4\n        /* \"#utility.yul\":6276:6292   */\n      add\n        /* \"#utility.yul\":6269:6296   */\n      mstore\n        /* \"#utility.yul\":6164:6303   */\n      pop\n      pop\n      pop\n      jump\t// out\n        /* \"#utility.yul\":6309:6699   */\n    tag_67:\n        /* \"#utility.yul\":6415:6418   */\n      0x00\n        /* \"#utility.yul\":6443:6482   */\n      tag_143\n        /* \"#utility.yul\":6476:6481   */\n      dup3\n        /* \"#utility.yul\":6443:6482   */\n      tag_64\n      jump\t// in\n    tag_143:\n        /* \"#utility.yul\":6498:6587   */\n      tag_144\n        /* \"#utility.yul\":6580:6586   */\n      dup2\n        /* \"#utility.yul\":6575:6578   */\n      dup6\n        /* \"#utility.yul\":6498:6587   */\n      tag_65\n      jump\t// in\n    tag_144:\n        /* \"#utility.yul\":6491:6587   */\n      swap4\n      pop\n        /* \"#utility.yul\":6596:6661   */\n      tag_145\n        /* \"#utility.yul\":6654:6660   */\n      dup2\n        /* \"#utility.yul\":6649:6652   */\n      dup6\n        /* \"#utility.yul\":6642:6646   */\n      0x20\n        /* \"#utility.yul\":6635:6640   */\n      dup7\n        /* \"#utility.yul\":6631:6647   */\n      add\n        /* \"#utility.yul\":6596:6661   */\n      tag_66\n      jump\t// in\n    tag_145:\n        /* \"#utility.yul\":6686:6692   */\n      dup1\n        /* \"#utility.yul\":6681:6684   */\n      dup5\n        /* \"#utility.yul\":6677:6693   */\n      add\n        /* \"#utility.yul\":6670:6693   */\n      swap2\n      pop\n        /* \"#utility.yul\":6419:6699   */\n      pop\n        /* \"#utility.yul\":6309:6699   */\n      swap3\n      swap2\n      pop\n      pop\n      jump\t// out\n        /* \"#utility.yul\":6705:6980   */\n    tag_37:\n        /* \"#utility.yul\":6837:6840   */\n      0x00\n        /* \"#utility.yul\":6859:6954   */\n      tag_147\n        /* \"#utility.yul\":6950:6953   */\n      dup3\n        /* \"#utility.yul\":6941:6947   */\n      dup5\n        /* \"#utility.yul\":6859:6954   */\n      tag_67\n      jump\t// in\n    tag_147:\n        /* \"#utility.yul\":6852:6954   */\n      swap2\n      pop\n        /* \"#utility.yul\":6971:6974   */\n      dup2\n        /* \"#utility.yul\":6964:6974   */\n      swap1\n      pop\n        /* \"#utility.yul\":6705:6980   */\n      swap3\n      swap2\n      pop\n      pop\n      jump\t// out\n\n    auxdata: 0xa2646970667358221220bbf2f3b9f5c5973dcb3d4b9b7911c201d68a77e0b06f1b0bb3fb779fc56697fb64736f6c634300081e0033\n}\n",
				"bytecode": {
					"linkReferences": {},
					"object": "6080604052348015600e575f5ffd5b506106bb8061001c5f395ff3fe608060405234801561000f575f5ffd5b5060043610610060575f3560e01c806309e896481461006457806312bd4d74146100805780637c07d4f1146100b05780637e57afa7146100e0578063d59d65c1146100fc578063e8827cec14610118575b5f5ffd5b61007e6004803603810190610079919061047e565b610148565b005b61009a60048036038101906100959190610532565b6101aa565b6040516100a7919061059b565b60405180910390f35b6100ca60048036038101906100c591906105b4565b6101e2565b6040516100d7919061059b565b60405180910390f35b6100fa60048036038101906100f591906105df565b6101f6565b005b61011660048036038101906101119190610532565b61023b565b005b610132600480360381019061012d9190610532565b61029b565b60405161013f919061059b565b60405180910390f35b8060015f3373ffffffffffffffffffffffffffffffffffffffff1673ffffffffffffffffffffffffffffffffffffffff1681526020019081526020015f2083604051610194919061066f565b9081526020016040518091039020819055505050565b6001602052815f5260405f20818051602081018201805184825260208301602085012081835280955050505050505f91509150505481565b5f602052805f5260405f205f915090505481565b805f5f8473ffffffffffffffffffffffffffffffffffffffff1673ffffffffffffffffffffffffffffffffffffffff1681526020019081526020015f20819055505050565b60015f8373ffffffffffffffffffffffffffffffffffffffff1673ffffffffffffffffffffffffffffffffffffffff1681526020019081526020015f2081604051610286919061066f565b90815260200160405180910390205f90555050565b5f60015f8473ffffffffffffffffffffffffffffffffffffffff1673ffffffffffffffffffffffffffffffffffffffff1681526020019081526020015f20826040516102e7919061066f565b908152602001604051809103902054905092915050565b5f604051905090565b5f5ffd5b5f5ffd5b5f5ffd5b5f5ffd5b5f601f19601f8301169050919050565b7f4e487b71000000000000000000000000000000000000000000000000000000005f52604160045260245ffd5b61035d82610317565b810181811067ffffffffffffffff8211171561037c5761037b610327565b5b80604052505050565b5f61038e6102fe565b905061039a8282610354565b919050565b5f67ffffffffffffffff8211156103b9576103b8610327565b5b6103c282610317565b9050602081019050919050565b828183375f83830152505050565b5f6103ef6103ea8461039f565b610385565b90508281526020810184848401111561040b5761040a610313565b5b6104168482856103cf565b509392505050565b5f82601f8301126104325761043161030f565b5b81356104428482602086016103dd565b91505092915050565b5f819050919050565b61045d8161044b565b8114610467575f5ffd5b50565b5f8135905061047881610454565b92915050565b5f5f6040838503121561049457610493610307565b5b5f83013567ffffffffffffffff8111156104b1576104b061030b565b5b6104bd8582860161041e565b92505060206104ce8582860161046a565b9150509250929050565b5f73ffffffffffffffffffffffffffffffffffffffff82169050919050565b5f610501826104d8565b9050919050565b610511816104f7565b811461051b575f5ffd5b50565b5f8135905061052c81610508565b92915050565b5f5f6040838503121561054857610547610307565b5b5f6105558582860161051e565b925050602083013567ffffffffffffffff8111156105765761057561030b565b5b6105828582860161041e565b9150509250929050565b6105958161044b565b82525050565b5f6020820190506105ae5f83018461058c565b92915050565b5f602082840312156105c9576105c8610307565b5b5f6105d68482850161051e565b91505092915050565b5f5f604083850312156105f5576105f4610307565b5b5f6106028582860161051e565b92505060206106138582860161046a565b9150509250929050565b5f81519050919050565b5f81905092915050565b8281835e5f83830152505050565b5f6106498261061d565b6106538185610627565b9350610663818560208601610631565b80840191505092915050565b5f61067a828461063f565b91508190509291505056fea2646970667358221220bbf2f3b9f5c5973dcb3d4b9b7911c201d68a77e0b06f1b0bb3fb779fc56697fb64736f6c634300081e0033",
					"opcodes": "PUSH1 0x80 PUSH1 0x40 MSTORE CALLVALUE DUP1 ISZERO PUSH1 0xE JUMPI PUSH0 PUSH0 REVERT JUMPDEST POP PUSH2 0x6BB DUP1 PUSH2 0x1C PUSH0 CODECOPY PUSH0 RETURN INVALID PUSH1 0x80 PUSH1 0x40 MSTORE CALLVALUE DUP1 ISZERO PUSH2 0xF JUMPI PUSH0 PUSH0 REVERT JUMPDEST POP PUSH1 0x4 CALLDATASIZE LT PUSH2 0x60 JUMPI PUSH0 CALLDATALOAD PUSH1 0xE0 SHR DUP1 PUSH4 0x9E89648 EQ PUSH2 0x64 JUMPI DUP1 PUSH4 0x12BD4D74 EQ PUSH2 0x80 JUMPI DUP1 PUSH4 0x7C07D4F1 EQ PUSH2 0xB0 JUMPI DUP1 PUSH4 0x7E57AFA7 EQ PUSH2 0xE0 JUMPI DUP1 PUSH4 0xD59D65C1 EQ PUSH2 0xFC JUMPI DUP1 PUSH4 0xE8827CEC EQ PUSH2 0x118 JUMPI JUMPDEST PUSH0 PUSH0 REVERT JUMPDEST PUSH2 0x7E PUSH1 0x4 DUP1 CALLDATASIZE SUB DUP2 ADD SWAP1 PUSH2 0x79 SWAP2 SWAP1 PUSH2 0x47E JUMP JUMPDEST PUSH2 0x148 JUMP JUMPDEST STOP JUMPDEST PUSH2 0x9A PUSH1 0x4 DUP1 CALLDATASIZE SUB DUP2 ADD SWAP1 PUSH2 0x95 SWAP2 SWAP1 PUSH2 0x532 JUMP JUMPDEST PUSH2 0x1AA JUMP JUMPDEST PUSH1 0x40 MLOAD PUSH2 0xA7 SWAP2 SWAP1 PUSH2 0x59B JUMP JUMPDEST PUSH1 0x40 MLOAD DUP1 SWAP2 SUB SWAP1 RETURN JUMPDEST PUSH2 0xCA PUSH1 0x4 DUP1 CALLDATASIZE SUB DUP2 ADD SWAP1 PUSH2 0xC5 SWAP2 SWAP1 PUSH2 0x5B4 JUMP JUMPDEST PUSH2 0x1E2 JUMP JUMPDEST PUSH1 0x40 MLOAD PUSH2 0xD7 SWAP2 SWAP1 PUSH2 0x59B JUMP JUMPDEST PUSH1 0x40 MLOAD DUP1 SWAP2 SUB SWAP1 RETURN JUMPDEST PUSH2 0xFA PUSH1 0x4 DUP1 CALLDATASIZE SUB DUP2 ADD SWAP1 PUSH2 0xF5 SWAP2 SWAP1 PUSH2 0x5DF JUMP JUMPDEST PUSH2 0x1F6 JUMP JUMPDEST STOP JUMPDEST PUSH2 0x116 PUSH1 0x4 DUP1 CALLDATASIZE SUB DUP2 ADD SWAP1 PUSH2 0x111 SWAP2 SWAP1 PUSH2 0x532 JUMP JUMPDEST PUSH2 0x23B JUMP JUMPDEST STOP JUMPDEST PUSH2 0x132 PUSH1 0x4 DUP1 CALLDATASIZE SUB DUP2 ADD SWAP1 PUSH2 0x12D SWAP2 SWAP1 PUSH2 0x532 JUMP JUMPDEST PUSH2 0x29B JUMP JUMPDEST PUSH1 0x40 MLOAD PUSH2 0x13F SWAP2 SWAP1 PUSH2 0x59B JUMP JUMPDEST PUSH1 0x40 MLOAD DUP1 SWAP2 SUB SWAP1 RETURN JUMPDEST DUP1 PUSH1 0x1 PUSH0 CALLER PUSH20 0xFFFFFFFFFFFFFFFFFFFFFFFFFFFFFFFFFFFFFFFF AND PUSH20 0xFFFFFFFFFFFFFFFFFFFFFFFFFFFFFFFFFFFFFFFF AND DUP2 MSTORE PUSH1 0x20 ADD SWAP1 DUP2 MSTORE PUSH1 0x20 ADD PUSH0 KECCAK256 DUP4 PUSH1 0x40 MLOAD PUSH2 0x194 SWAP2 SWAP1 PUSH2 0x66F JUMP JUMPDEST SWAP1 DUP2 MSTORE PUSH1 0x20 ADD PUSH1 0x40 MLOAD DUP1 SWAP2 SUB SWAP1 KECCAK256 DUP2 SWAP1 SSTORE POP POP POP JUMP JUMPDEST PUSH1 0x1 PUSH1 0x20 MSTORE DUP2 PUSH0 MSTORE PUSH1 0x40 PUSH0 KECCAK256 DUP2 DUP1 MLOAD PUSH1 0x20 DUP2 ADD DUP3 ADD DUP1 MLOAD DUP5 DUP3 MSTORE PUSH1 0x20 DUP4 ADD PUSH1 0x20 DUP6 ADD KECCAK256 DUP2 DUP4 MSTORE DUP1 SWAP6 POP POP POP POP POP POP PUSH0 SWAP2 POP SWAP2 POP POP SLOAD DUP2 JUMP JUMPDEST PUSH0 PUSH1 0x20 MSTORE DUP1 PUSH0 MSTORE PUSH1 0x40 PUSH0 KECCAK256 PUSH0 SWAP2 POP SWAP1 POP SLOAD DUP2 JUMP JUMPDEST DUP1 PUSH0 PUSH0 DUP5 PUSH20 0xFFFFFFFFFFFFFFFFFFFFFFFFFFFFFFFFFFFFFFFF AND PUSH20 0xFFFFFFFFFFFFFFFFFFFFFFFFFFFFFFFFFFFFFFFF AND DUP2 MSTORE PUSH1 0x20 ADD SWAP1 DUP2 MSTORE PUSH1 0x20 ADD PUSH0 KECCAK256 DUP2 SWAP1 SSTORE POP POP POP JUMP JUMPDEST PUSH1 0x1 PUSH0 DUP4 PUSH20 0xFFFFFFFFFFFFFFFFFFFFFFFFFFFFFFFFFFFFFFFF AND PUSH20 0xFFFFFFFFFFFFFFFFFFFFFFFFFFFFFFFFFFFFFFFF AND DUP2 MSTORE PUSH1 0x20 ADD SWAP1 DUP2 MSTORE PUSH1 0x20 ADD PUSH0 KECCAK256 DUP2 PUSH1 0x40 MLOAD PUSH2 0x286 SWAP2 SWAP1 PUSH2 0x66F JUMP JUMPDEST SWAP1 DUP2 MSTORE PUSH1 0x20 ADD PUSH1 0x40 MLOAD DUP1 SWAP2 SUB SWAP1 KECCAK256 PUSH0 SWAP1 SSTORE POP POP JUMP JUMPDEST PUSH0 PUSH1 0x1 PUSH0 DUP5 PUSH20 0xFFFFFFFFFFFFFFFFFFFFFFFFFFFFFFFFFFFFFFFF AND PUSH20 0xFFFFFFFFFFFFFFFFFFFFFFFFFFFFFFFFFFFFFFFF AND DUP2 MSTORE PUSH1 0x20 ADD SWAP1 DUP2 MSTORE PUSH1 0x20 ADD PUSH0 KECCAK256 DUP3 PUSH1 0x40 MLOAD PUSH2 0x2E7 SWAP2 SWAP1 PUSH2 0x66F JUMP JUMPDEST SWAP1 DUP2 MSTORE PUSH1 0x20 ADD PUSH1 0x40 MLOAD DUP1 SWAP2 SUB SWAP1 KECCAK256 SLOAD SWAP1 POP SWAP3 SWAP2 POP POP JUMP JUMPDEST PUSH0 PUSH1 0x40 MLOAD SWAP1 POP SWAP1 JUMP JUMPDEST PUSH0 PUSH0 REVERT JUMPDEST PUSH0 PUSH0 REVERT JUMPDEST PUSH0 PUSH0 REVERT JUMPDEST PUSH0 PUSH0 REVERT JUMPDEST PUSH0 PUSH1 0x1F NOT PUSH1 0x1F DUP4 ADD AND SWAP1 POP SWAP2 SWAP1 POP JUMP JUMPDEST PUSH32 0x4E487B7100000000000000000000000000000000000000000000000000000000 PUSH0 MSTORE PUSH1 0x41 PUSH1 0x4 MSTORE PUSH1 0x24 PUSH0 REVERT JUMPDEST PUSH2 0x35D DUP3 PUSH2 0x317 JUMP JUMPDEST DUP2 ADD DUP2 DUP2 LT PUSH8 0xFFFFFFFFFFFFFFFF DUP3 GT OR ISZERO PUSH2 0x37C JUMPI PUSH2 0x37B PUSH2 0x327 JUMP JUMPDEST JUMPDEST DUP1 PUSH1 0x40 MSTORE POP POP POP JUMP JUMPDEST PUSH0 PUSH2 0x38E PUSH2 0x2FE JUMP JUMPDEST SWAP1 POP PUSH2 0x39A DUP3 DUP3 PUSH2 0x354 JUMP JUMPDEST SWAP2 SWAP1 POP JUMP JUMPDEST PUSH0 PUSH8 0xFFFFFFFFFFFFFFFF DUP3 GT ISZERO PUSH2 0x3B9 JUMPI PUSH2 0x3B8 PUSH2 0x327 JUMP JUMPDEST JUMPDEST PUSH2 0x3C2 DUP3 PUSH2 0x317 JUMP JUMPDEST SWAP1 POP PUSH1 0x20 DUP2 ADD SWAP1 POP SWAP2 SWAP1 POP JUMP JUMPDEST DUP3 DUP2 DUP4 CALLDATACOPY PUSH0 DUP4 DUP4 ADD MSTORE POP POP POP JUMP JUMPDEST PUSH0 PUSH2 0x3EF PUSH2 0x3EA DUP5 PUSH2 0x39F JUMP JUMPDEST PUSH2 0x385 JUMP JUMPDEST SWAP1 POP DUP3 DUP2 MSTORE PUSH1 0x20 DUP2 ADD DUP5 DUP5 DUP5 ADD GT ISZERO PUSH2 0x40B JUMPI PUSH2 0x40A PUSH2 0x313 JUMP JUMPDEST JUMPDEST PUSH2 0x416 DUP5 DUP3 DUP6 PUSH2 0x3CF JUMP JUMPDEST POP SWAP4 SWAP3 POP POP POP JUMP JUMPDEST PUSH0 DUP3 PUSH1 0x1F DUP4 ADD SLT PUSH2 0x432 JUMPI PUSH2 0x431 PUSH2 0x30F JUMP JUMPDEST JUMPDEST DUP2 CALLDATALOAD PUSH2 0x442 DUP5 DUP3 PUSH1 0x20 DUP7 ADD PUSH2 0x3DD JUMP JUMPDEST SWAP2 POP POP SWAP3 SWAP2 POP POP JUMP JUMPDEST PUSH0 DUP2 SWAP1 POP SWAP2 SWAP1 POP JUMP JUMPDEST PUSH2 0x45D DUP2 PUSH2 0x44B JUMP JUMPDEST DUP2 EQ PUSH2 0x467 JUMPI PUSH0 PUSH0 REVERT JUMPDEST POP JUMP JUMPDEST PUSH0 DUP2 CALLDATALOAD SWAP1 POP PUSH2 0x478 DUP2 PUSH2 0x454 JUMP JUMPDEST SWAP3 SWAP2 POP POP JUMP JUMPDEST PUSH0 PUSH0 PUSH1 0x40 DUP4 DUP6 SUB SLT ISZERO PUSH2 0x494 JUMPI PUSH2 0x493 PUSH2 0x307 JUMP JUMPDEST JUMPDEST PUSH0 DUP4 ADD CALLDATALOAD PUSH8 0xFFFFFFFFFFFFFFFF DUP2 GT ISZERO PUSH2 0x4B1 JUMPI PUSH2 0x4B0 PUSH2 0x30B JUMP JUMPDEST JUMPDEST PUSH2 0x4BD DUP6 DUP3 DUP7 ADD PUSH2 0x41E JUMP JUMPDEST SWAP3 POP POP PUSH1 0x20 PUSH2 0x4CE DUP6 DUP3 DUP7 ADD PUSH2 0x46A JUMP JUMPDEST SWAP2 POP POP SWAP3 POP SWAP3 SWAP1 POP JUMP JUMPDEST PUSH0 PUSH20 0xFFFFFFFFFFFFFFFFFFFFFFFFFFFFFFFFFFFFFFFF DUP3 AND SWAP1 POP SWAP2 SWAP1 POP JUMP JUMPDEST PUSH0 PUSH2 0x501 DUP3 PUSH2 0x4D8 JUMP JUMPDEST SWAP1 POP SWAP2 SWAP1 POP JUMP JUMPDEST PUSH2 0x511 DUP2 PUSH2 0x4F7 JUMP JUMPDEST DUP2 EQ PUSH2 0x51B JUMPI PUSH0 PUSH0 REVERT JUMPDEST POP JUMP JUMPDEST PUSH0 DUP2 CALLDATALOAD SWAP1 POP PUSH2 0x52C DUP2 PUSH2 0x508 JUMP JUMPDEST SWAP3 SWAP2 POP POP JUMP JUMPDEST PUSH0 PUSH0 PUSH1 0x40 DUP4 DUP6 SUB SLT ISZERO PUSH2 0x548 JUMPI PUSH2 0x547 PUSH2 0x307 JUMP JUMPDEST JUMPDEST PUSH0 PUSH2 0x555 DUP6 DUP3 DUP7 ADD PUSH2 0x51E JUMP JUMPDEST SWAP3 POP POP PUSH1 0x20 DUP4 ADD CALLDATALOAD PUSH8 0xFFFFFFFFFFFFFFFF DUP2 GT ISZERO PUSH2 0x576 JUMPI PUSH2 0x575 PUSH2 0x30B JUMP JUMPDEST JUMPDEST PUSH2 0x582 DUP6 DUP3 DUP7 ADD PUSH2 0x41E JUMP JUMPDEST SWAP2 POP POP SWAP3 POP SWAP3 SWAP1 POP JUMP JUMPDEST PUSH2 0x595 DUP2 PUSH2 0x44B JUMP JUMPDEST DUP3 MSTORE POP POP JUMP JUMPDEST PUSH0 PUSH1 0x20 DUP3 ADD SWAP1 POP PUSH2 0x5AE PUSH0 DUP4 ADD DUP5 PUSH2 0x58C JUMP JUMPDEST SWAP3 SWAP2 POP POP JUMP JUMPDEST PUSH0 PUSH1 0x20 DUP3 DUP5 SUB SLT ISZERO PUSH2 0x5C9 JUMPI PUSH2 0x5C8 PUSH2 0x307 JUMP JUMPDEST JUMPDEST PUSH0 PUSH2 0x5D6 DUP5 DUP3 DUP6 ADD PUSH2 0x51E JUMP JUMPDEST SWAP2 POP POP SWAP3 SWAP2 POP POP JUMP JUMPDEST PUSH0 PUSH0 PUSH1 0x40 DUP4 DUP6 SUB SLT ISZERO PUSH2 0x5F5 JUMPI PUSH2 0x5F4 PUSH2 0x307 JUMP JUMPDEST JUMPDEST PUSH0 PUSH2 0x602 DUP6 DUP3 DUP7 ADD PUSH2 0x51E JUMP JUMPDEST SWAP3 POP POP PUSH1 0x20 PUSH2 0x613 DUP6 DUP3 DUP7 ADD PUSH2 0x46A JUMP JUMPDEST SWAP2 POP POP SWAP3 POP SWAP3 SWAP1 POP JUMP JUMPDEST PUSH0 DUP2 MLOAD SWAP1 POP SWAP2 SWAP1 POP JUMP JUMPDEST PUSH0 DUP2 SWAP1 POP SWAP3 SWAP2 POP POP JUMP JUMPDEST DUP3 DUP2 DUP4 MCOPY PUSH0 DUP4 DUP4 ADD MSTORE POP POP POP JUMP JUMPDEST PUSH0 PUSH2 0x649 DUP3 PUSH2 0x61D JUMP JUMPDEST PUSH2 0x653 DUP2 DUP6 PUSH2 0x627 JUMP JUMPDEST SWAP4 POP PUSH2 0x663 DUP2 DUP6 PUSH1 0x20 DUP7 ADD PUSH2 0x631 JUMP JUMPDEST DUP1 DUP5 ADD SWAP2 POP POP SWAP3 SWAP2 POP POP JUMP JUMPDEST PUSH0 PUSH2 0x67A DUP3 DUP5 PUSH2 0x63F JUMP JUMPDEST SWAP2 POP DUP2 SWAP1 POP SWAP3 SWAP2 POP POP JUMP INVALID LOG2 PUSH5 0x6970667358 0x22 SLT KECCAK256 0xBB CALLCODE RETURN 0xB9 CREATE2 0xC5 SWAP8 RETURNDATASIZE 0xCB RETURNDATASIZE 0x4B SWAP12 PUSH26 0x11C201D68A77E0B06F1B0BB3FB779FC56697FB64736F6C634300 ADDMOD 0x1E STOP CALLER "
				},
				"gasEstimates": {
					"creation": {
						"codeDepositCost": "344600",
						"executionCost": "378",
						"totalCost": "344978"
					},
					"external": {
						"deleteUserBalance(address,string)": "infinite",
						"getUserBalance(address,string)": "infinite",
						"myMapping(address)": "2823",
						"setMyMapping(address,uint256)": "22864",
						"setUserBalance(string,uint256)": "infinite",
						"userBalances(address,string)": "infinite"
					}
				},
				"methodIdentifiers": {
					"deleteUserBalance(address,string)": "d59d65c1",
					"getUserBalance(address,string)": "e8827cec",
					"myMapping(address)": "7c07d4f1",
					"setMyMapping(address,uint256)": "7e57afa7",
					"setUserBalance(string,uint256)": "09e89648",
					"userBalances(address,string)": "12bd4d74"
				}
			},
			"storageLayout": {
				"storage": [
					{
						"astId": 5,
						"contract": "testMapping.sol:TestMapping",
						"label": "myMapping",
						"offset": 0,
						"slot": "0",
						"type": "t_mapping(t_address,t_uint256)"
					},
					{
						"astId": 25,
						"contract": "testMapping.sol:TestMapping",
						"label": "userBalances",
						"offset": 0,
						"slot": "1",
						"type": "t_mapping(t_address,t_mapping(t_string_memory_ptr,t_uint256))"
					}
				],
				"types": {
					"t_address": {
						"encoding": "inplace",
						"label": "address",
						"numberOfBytes": "20"
					},
					"t_mapping(t_address,t_mapping(t_string_memory_ptr,t_uint256))": {
						"encoding": "mapping",
						"key": "t_address",
						"label": "mapping(address => mapping(string => uint256))",
						"numberOfBytes": "32",
						"value": "t_mapping(t_string_memory_ptr,t_uint256)"
					},
					"t_mapping(t_address,t_uint256)": {
						"encoding": "mapping",
						"key": "t_address",
						"label": "mapping(address => uint256)",
						"numberOfBytes": "32",
						"value": "t_uint256"
					},
					"t_mapping(t_string_memory_ptr,t_uint256)": {
						"encoding": "mapping",
						"key": "t_string_memory_ptr",
						"label": "mapping(string => uint256)",
						"numberOfBytes": "32",
						"value": "t_uint256"
					},
					"t_string_memory_ptr": {
						"encoding": "bytes",
						"label": "string",
						"numberOfBytes": "32"
					},
					"t_uint256": {
						"encoding": "inplace",
						"label": "uint256",
						"numberOfBytes": "32"
					}
				}
			},
			"userdoc": {
				"kind": "user",
				"methods": {},
				"version": 1
			}
		}
	}
}