{
	"TestABI.sol": {
		"TestABI": {
			"abi": [
				{
					"inputs": [
						{
							"internalType": "string",
							"name": "func",
							"type": "string"
						}
					],
					"name": "computeSecletor",
					"outputs": [
						{
							"internalType": "bytes4",
							"name": "",
							"type": "bytes4"
						}
					],
					"stateMutability": "pure",
					"type": "function"
				},
				{
					"inputs": [
						{
							"internalType": "bytes",
							"name": "encodedData",
							"type": "bytes"
						}
					],
					"name": "decodeData",
					"outputs": [
						{
							"internalType": "string",
							"name": "text",
							"type": "string"
						},
						{
							"internalType": "uint256",
							"name": "number",
							"type": "uint256"
						}
					],
					"stateMutability": "pure",
					"type": "function"
				},
				{
					"inputs": [
						{
							"internalType": "string",
							"name": "text",
							"type": "string"
						},
						{
							"internalType": "uint256",
							"name": "number",
							"type": "uint256"
						}
					],
					"name": "encodeData",
					"outputs": [
						{
							"internalType": "bytes",
							"name": "",
							"type": "bytes"
						},
						{
							"internalType": "bytes",
							"name": "",
							"type": "bytes"
						}
					],
					"stateMutability": "pure",
					"type": "function"
				},
				{
					"inputs": [],
					"name": "encodeFunctionCall",
					"outputs": [
						{
							"internalType": "bytes",
							"name": "",
							"type": "bytes"
						}
					],
					"stateMutability": "pure",
					"type": "function"
				},
				{
					"inputs": [],
					"name": "getRandomNumber",
					"outputs": [
						{
							"internalType": "uint256",
							"name": "",
							"type": "uint256"
						}
					],
					"stateMutability": "view",
					"type": "function"
				},
				{
					"inputs": [],
					"name": "getSelector",
					"outputs": [
						{
							"internalType": "bytes4",
							"name": "",
							"type": "bytes4"
						}
					],
					"stateMutability": "pure",
					"type": "function"
				},
				{
					"inputs": [
						{
							"internalType": "string",
							"name": "input",
							"type": "string"
						}
					],
					"name": "hashFunctions",
					"outputs": [
						{
							"internalType": "bytes32",
							"name": "",
							"type": "bytes32"
						},
						{
							"internalType": "bytes32",
							"name": "",
							"type": "bytes32"
						},
						{
							"internalType": "bytes32",
							"name": "",
							"type": "bytes32"
						}
					],
					"stateMutability": "pure",
					"type": "function"
				},
				{
					"inputs": [
						{
							"internalType": "uint256",
							"name": "x",
							"type": "uint256"
						},
						{
							"internalType": "uint256",
							"name": "y",
							"type": "uint256"
						},
						{
							"internalType": "uint256",
							"name": "m",
							"type": "uint256"
						}
					],
					"name": "modularMath",
					"outputs": [
						{
							"internalType": "uint256",
							"name": "normalPlusAndModulo",
							"type": "uint256"
						},
						{
							"internalType": "uint256",
							"name": "funcPlusAndModulo",
							"type": "uint256"
						},
						{
							"internalType": "uint256",
							"name": "normalMultiAndModulo",
							"type": "uint256"
						},
						{
							"internalType": "uint256",
							"name": "funcMultiAndModulo",
							"type": "uint256"
						}
					],
					"stateMutability": "pure",
					"type": "function"
				},
				{
					"inputs": [
						{
							"internalType": "bytes32",
							"name": "hash",
							"type": "bytes32"
						},
						{
							"internalType": "uint8",
							"name": "v",
							"type": "uint8"
						},
						{
							"internalType": "bytes32",
							"name": "r",
							"type": "bytes32"
						},
						{
							"internalType": "bytes32",
							"name": "s",
							"type": "bytes32"
						}
					],
					"name": "recoverAddress",
					"outputs": [
						{
							"internalType": "address",
							"name": "",
							"type": "address"
						}
					],
					"stateMutability": "pure",
					"type": "function"
				},
				{
					"inputs": [
						{
							"internalType": "address",
							"name": "addr",
							"type": "address"
						},
						{
							"internalType": "uint256",
							"name": "amount",
							"type": "uint256"
						}
					],
					"name": "trasfer",
					"outputs": [
						{
							"internalType": "bytes",
							"name": "",
							"type": "bytes"
						}
					],
					"stateMutability": "pure",
					"type": "function"
				}
			],
			"devdoc": {
				"kind": "dev",
				"methods": {},
				"version": 1
			},
			"evm": {
				"assembly": "    /* \"TestABI.sol\":111:3231  contract TestABI {... */\n  mstore(0x40, 0x80)\n  callvalue\n  dup1\n  iszero\n  tag_1\n  jumpi\n  revert(0x00, 0x00)\ntag_1:\n  pop\n  dataSize(sub_0)\n  dup1\n  dataOffset(sub_0)\n  0x00\n  codecopy\n  0x00\n  return\nstop\n\nsub_0: assembly {\n        /* \"TestABI.sol\":111:3231  contract TestABI {... */\n      mstore(0x40, 0x80)\n      callvalue\n      dup1\n      iszero\n      tag_1\n      jumpi\n      revert(0x00, 0x00)\n    tag_1:\n      pop\n      jumpi(tag_2, lt(calldatasize, 0x04))\n      shr(0xe0, calldataload(0x00))\n      dup1\n      0x8428cf83\n      gt\n      tag_13\n      jumpi\n      dup1\n      0x8428cf83\n      eq\n      tag_8\n      jumpi\n      dup1\n      0xa7e94b66\n      eq\n      tag_9\n      jumpi\n      dup1\n      0xb2b34f77\n      eq\n      tag_10\n      jumpi\n      dup1\n      0xdbdff2c1\n      eq\n      tag_11\n      jumpi\n      dup1\n      0xf435898b\n      eq\n      tag_12\n      jumpi\n      jump(tag_2)\n    tag_13:\n      dup1\n      0x034899bc\n      eq\n      tag_3\n      jumpi\n      dup1\n      0x228f81dd\n      eq\n      tag_4\n      jumpi\n      dup1\n      0x447a06f5\n      eq\n      tag_5\n      jumpi\n      dup1\n      0x4745b6cd\n      eq\n      tag_6\n      jumpi\n      dup1\n      0x47da7f8e\n      eq\n      tag_7\n      jumpi\n    tag_2:\n      revert(0x00, 0x00)\n        /* \"TestABI.sol\":988:1071  function getSelector() public pure returns (bytes4) {... */\n    tag_3:\n      tag_14\n      tag_15\n      jump\t// in\n    tag_14:\n      mload(0x40)\n      tag_16\n      swap2\n      swap1\n      tag_17\n      jump\t// in\n    tag_16:\n      mload(0x40)\n      dup1\n      swap2\n      sub\n      swap1\n      return\n        /* \"TestABI.sol\":1106:1234  function computeSecletor(string memory func) public pure returns (bytes4) {... */\n    tag_4:\n      tag_18\n      0x04\n      dup1\n      calldatasize\n      sub\n      dup2\n      add\n      swap1\n      tag_19\n      swap2\n      swap1\n      tag_20\n      jump\t// in\n    tag_19:\n      tag_21\n      jump\t// in\n    tag_18:\n      mload(0x40)\n      tag_22\n      swap2\n      swap1\n      tag_17\n      jump\t// in\n    tag_22:\n      mload(0x40)\n      dup1\n      swap2\n      sub\n      swap1\n      return\n        /* \"TestABI.sol\":751:950  function decodeData(bytes memory encodedData)... */\n    tag_5:\n      tag_23\n      0x04\n      dup1\n      calldatasize\n      sub\n      dup2\n      add\n      swap1\n      tag_24\n      swap2\n      swap1\n      tag_25\n      jump\t// in\n    tag_24:\n      tag_26\n      jump\t// in\n    tag_23:\n      mload(0x40)\n      tag_27\n      swap3\n      swap2\n      swap1\n      tag_28\n      jump\t// in\n    tag_27:\n      mload(0x40)\n      dup1\n      swap2\n      sub\n      swap1\n      return\n        /* \"TestABI.sol\":1386:1528  function trasfer(address addr, uint256 amount)... */\n    tag_6:\n      tag_29\n      0x04\n      dup1\n      calldatasize\n      sub\n      dup2\n      add\n      swap1\n      tag_30\n      swap2\n      swap1\n      tag_31\n      jump\t// in\n    tag_30:\n      tag_32\n      jump\t// in\n    tag_29:\n      mload(0x40)\n      tag_33\n      swap2\n      swap1\n      tag_34\n      jump\t// in\n    tag_33:\n      mload(0x40)\n      dup1\n      swap2\n      sub\n      swap1\n      return\n        /* \"TestABI.sol\":134:745  function encodeData(string memory text, uint256 number)... */\n    tag_7:\n      tag_35\n      0x04\n      dup1\n      calldatasize\n      sub\n      dup2\n      add\n      swap1\n      tag_36\n      swap2\n      swap1\n      tag_37\n      jump\t// in\n    tag_36:\n      tag_38\n      jump\t// in\n    tag_35:\n      mload(0x40)\n      tag_39\n      swap3\n      swap2\n      swap1\n      tag_40\n      jump\t// in\n    tag_39:\n      mload(0x40)\n      dup1\n      swap2\n      sub\n      swap1\n      return\n        /* \"TestABI.sol\":2837:3024  function recoverAddress(... */\n    tag_8:\n      tag_41\n      0x04\n      dup1\n      calldatasize\n      sub\n      dup2\n      add\n      swap1\n      tag_42\n      swap2\n      swap1\n      tag_43\n      jump\t// in\n    tag_42:\n      tag_44\n      jump\t// in\n    tag_41:\n      mload(0x40)\n      tag_45\n      swap2\n      swap1\n      tag_46\n      jump\t// in\n    tag_45:\n      mload(0x40)\n      dup1\n      swap2\n      sub\n      swap1\n      return\n        /* \"TestABI.sol\":2399:2788  function modularMath(... */\n    tag_9:\n      tag_47\n      0x04\n      dup1\n      calldatasize\n      sub\n      dup2\n      add\n      swap1\n      tag_48\n      swap2\n      swap1\n      tag_49\n      jump\t// in\n    tag_48:\n      tag_50\n      jump\t// in\n    tag_47:\n      mload(0x40)\n      tag_51\n      swap5\n      swap4\n      swap3\n      swap2\n      swap1\n      tag_52\n      jump\t// in\n    tag_51:\n      mload(0x40)\n      dup1\n      swap2\n      sub\n      swap1\n      return\n        /* \"TestABI.sol\":2003:2294  function hashFunctions(string memory input)... */\n    tag_10:\n      tag_53\n      0x04\n      dup1\n      calldatasize\n      sub\n      dup2\n      add\n      swap1\n      tag_54\n      swap2\n      swap1\n      tag_20\n      jump\t// in\n    tag_54:\n      tag_55\n      jump\t// in\n    tag_53:\n      mload(0x40)\n      tag_56\n      swap4\n      swap3\n      swap2\n      swap1\n      tag_57\n      jump\t// in\n    tag_56:\n      mload(0x40)\n      dup1\n      swap2\n      sub\n      swap1\n      return\n        /* \"TestABI.sol\":3053:3229  function getRandomNumber() public view returns (uint256) {... */\n    tag_11:\n      tag_58\n      tag_59\n      jump\t// in\n    tag_58:\n      mload(0x40)\n      tag_60\n      swap2\n      swap1\n      tag_61\n      jump\t// in\n    tag_60:\n      mload(0x40)\n      dup1\n      swap2\n      sub\n      swap1\n      return\n        /* \"TestABI.sol\":1714:1977  function encodeFunctionCall() public pure returns (bytes memory) {... */\n    tag_12:\n      tag_62\n      tag_63\n      jump\t// in\n    tag_62:\n      mload(0x40)\n      tag_64\n      swap2\n      swap1\n      tag_34\n      jump\t// in\n    tag_64:\n      mload(0x40)\n      dup1\n      swap2\n      sub\n      swap1\n      return\n        /* \"TestABI.sol\":988:1071  function getSelector() public pure returns (bytes4) {... */\n    tag_15:\n        /* \"TestABI.sol\":1032:1038  bytes4 */\n      0x00\n        /* \"TestABI.sol\":1057:1064  msg.sig */\n      and(0xffffffff00000000000000000000000000000000000000000000000000000000, calldataload(0x00))\n        /* \"TestABI.sol\":1050:1064  return msg.sig */\n      swap1\n      pop\n        /* \"TestABI.sol\":988:1071  function getSelector() public pure returns (bytes4) {... */\n      swap1\n      jump\t// out\n        /* \"TestABI.sol\":1106:1234  function computeSecletor(string memory func) public pure returns (bytes4) {... */\n    tag_21:\n        /* \"TestABI.sol\":1172:1178  bytes4 */\n      0x00\n        /* \"TestABI.sol\":1220:1224  func */\n      dup2\n        /* \"TestABI.sol\":1204:1226  keccak256(bytes(func)) */\n      dup1\n      mload\n      swap1\n      0x20\n      add\n      keccak256\n        /* \"TestABI.sol\":1190:1227  return bytes4(keccak256(bytes(func))) */\n      swap1\n      pop\n        /* \"TestABI.sol\":1106:1234  function computeSecletor(string memory func) public pure returns (bytes4) {... */\n      swap2\n      swap1\n      pop\n      jump\t// out\n        /* \"TestABI.sol\":751:950  function decodeData(bytes memory encodedData)... */\n    tag_26:\n        /* \"TestABI.sol\":842:860  string memory text */\n      0x60\n        /* \"TestABI.sol\":862:876  uint256 number */\n      0x00\n        /* \"TestABI.sol\":911:922  encodedData */\n      dup3\n        /* \"TestABI.sol\":900:942  abi.decode(encodedData, (string, uint256)) */\n      dup1\n      0x20\n      add\n      swap1\n      mload\n      dup2\n      add\n      swap1\n      tag_68\n      swap2\n      swap1\n      tag_69\n      jump\t// in\n    tag_68:\n        /* \"TestABI.sol\":892:943  return (abi.decode(encodedData, (string, uint256))) */\n      swap2\n      pop\n      swap2\n      pop\n        /* \"TestABI.sol\":751:950  function decodeData(bytes memory encodedData)... */\n      swap2\n      pop\n      swap2\n      jump\t// out\n        /* \"TestABI.sol\":1386:1528  function trasfer(address addr, uint256 amount)... */\n    tag_32:\n        /* \"TestABI.sol\":1478:1490  bytes memory */\n      0x60\n        /* \"TestABI.sol\":1513:1521  msg.data */\n      0x00\n      calldatasize\n        /* \"TestABI.sol\":1506:1521  return msg.data */\n      dup1\n      dup1\n      0x1f\n      add\n      0x20\n      dup1\n      swap2\n      div\n      mul\n      0x20\n      add\n      mload(0x40)\n      swap1\n      dup2\n      add\n      0x40\n      mstore\n      dup1\n      swap4\n      swap3\n      swap2\n      swap1\n      dup2\n      dup2\n      mstore\n      0x20\n      add\n      dup4\n      dup4\n      dup1\n      dup3\n      dup5\n      calldatacopy\n      0x00\n      dup2\n      dup5\n      add\n      mstore\n      not(0x1f)\n      0x1f\n      dup3\n      add\n      and\n      swap1\n      pop\n      dup1\n      dup4\n      add\n      swap3\n      pop\n      pop\n      pop\n      pop\n      pop\n      pop\n      pop\n      swap1\n      pop\n        /* \"TestABI.sol\":1386:1528  function trasfer(address addr, uint256 amount)... */\n      swap3\n      swap2\n      pop\n      pop\n      jump\t// out\n        /* \"TestABI.sol\":134:745  function encodeData(string memory text, uint256 number)... */\n    tag_38:\n        /* \"TestABI.sol\":235:247  bytes memory */\n      0x60\n        /* \"TestABI.sol\":249:261  bytes memory */\n      dup1\n        /* \"TestABI.sol\":583:587  text */\n      dup4\n        /* \"TestABI.sol\":589:595  number */\n      dup4\n        /* \"TestABI.sol\":572:596  abi.encode(text, number) */\n      add(0x20, mload(0x40))\n      tag_72\n      swap3\n      swap2\n      swap1\n      tag_28\n      jump\t// in\n    tag_72:\n      mload(0x40)\n      0x20\n      dup2\n      dup4\n      sub\n      sub\n      dup2\n      mstore\n      swap1\n      0x40\n      mstore\n        /* \"TestABI.sol\":715:719  text */\n      dup5\n        /* \"TestABI.sol\":721:727  number */\n      dup5\n        /* \"TestABI.sol\":698:728  abi.encodePacked(text, number) */\n      add(0x20, mload(0x40))\n      tag_73\n      swap3\n      swap2\n      swap1\n      tag_74\n      jump\t// in\n    tag_73:\n      mload(0x40)\n      0x20\n      dup2\n      dup4\n      sub\n      sub\n      dup2\n      mstore\n      swap1\n      0x40\n      mstore\n        /* \"TestABI.sol\":277:738  return (... */\n      swap2\n      pop\n      swap2\n      pop\n        /* \"TestABI.sol\":134:745  function encodeData(string memory text, uint256 number)... */\n      swap3\n      pop\n      swap3\n      swap1\n      pop\n      jump\t// out\n        /* \"TestABI.sol\":2837:3024  function recoverAddress(... */\n    tag_44:\n        /* \"TestABI.sol\":2965:2972  address */\n      0x00\n        /* \"TestABI.sol\":2992:3016  ecrecover(hash, v, r, s) */\n      0x01\n        /* \"TestABI.sol\":3002:3006  hash */\n      dup6\n        /* \"TestABI.sol\":3008:3009  v */\n      dup6\n        /* \"TestABI.sol\":3011:3012  r */\n      dup6\n        /* \"TestABI.sol\":3014:3015  s */\n      dup6\n        /* \"TestABI.sol\":2992:3016  ecrecover(hash, v, r, s) */\n      mload(0x40)\n      0x00\n      dup2\n      mstore\n      0x20\n      add\n      0x40\n      mstore\n      mload(0x40)\n      tag_76\n      swap5\n      swap4\n      swap3\n      swap2\n      swap1\n      tag_77\n      jump\t// in\n    tag_76:\n      0x20\n      mload(0x40)\n      0x20\n      dup2\n      sub\n      swap1\n      dup1\n      dup5\n      sub\n      swap1\n      dup6\n      gas\n      staticcall\n      iszero\n      dup1\n      iszero\n      tag_79\n      jumpi\n      returndatacopy(0x00, 0x00, returndatasize)\n      revert(0x00, returndatasize)\n    tag_79:\n      pop\n      pop\n      pop\n      mload(sub(mload(0x40), 0x20))\n        /* \"TestABI.sol\":2984:3017  return (ecrecover(hash, v, r, s)) */\n      swap1\n      pop\n        /* \"TestABI.sol\":2837:3024  function recoverAddress(... */\n      swap5\n      swap4\n      pop\n      pop\n      pop\n      pop\n      jump\t// out\n        /* \"TestABI.sol\":2399:2788  function modularMath(... */\n    tag_50:\n        /* \"TestABI.sol\":2541:2568  uint256 normalPlusAndModulo */\n      0x00\n        /* \"TestABI.sol\":2582:2607  uint256 funcPlusAndModulo */\n      0x00\n        /* \"TestABI.sol\":2621:2649  uint256 normalMultiAndModulo */\n      0x00\n        /* \"TestABI.sol\":2663:2689  uint256 funcMultiAndModulo */\n      0x00\n        /* \"TestABI.sol\":2732:2733  m */\n      dup5\n        /* \"TestABI.sol\":2727:2728  y */\n      dup7\n        /* \"TestABI.sol\":2723:2724  x */\n      dup9\n        /* \"TestABI.sol\":2723:2728  x + y */\n      tag_81\n      swap2\n      swap1\n      tag_82\n      jump\t// in\n    tag_81:\n        /* \"TestABI.sol\":2722:2733  (x + y) % m */\n      tag_83\n      swap2\n      swap1\n      tag_84\n      jump\t// in\n    tag_83:\n        /* \"TestABI.sol\":2748:2749  m */\n      dup6\n        /* \"TestABI.sol\":2735:2750  addmod(x, y, m) */\n      dup1\n      tag_85\n      jumpi\n      tag_86\n      tag_87\n      jump\t// in\n    tag_86:\n    tag_85:\n        /* \"TestABI.sol\":2745:2746  y */\n      dup8\n        /* \"TestABI.sol\":2742:2743  x */\n      dup10\n        /* \"TestABI.sol\":2735:2750  addmod(x, y, m) */\n      addmod\n        /* \"TestABI.sol\":2762:2763  m */\n      dup7\n        /* \"TestABI.sol\":2757:2758  y */\n      dup9\n        /* \"TestABI.sol\":2753:2754  x */\n      dup11\n        /* \"TestABI.sol\":2753:2758  x * y */\n      tag_88\n      swap2\n      swap1\n      tag_89\n      jump\t// in\n    tag_88:\n        /* \"TestABI.sol\":2752:2763  (x * y) % m */\n      tag_90\n      swap2\n      swap1\n      tag_84\n      jump\t// in\n    tag_90:\n        /* \"TestABI.sol\":2778:2779  m */\n      dup8\n        /* \"TestABI.sol\":2765:2780  mulmod(x, y, m) */\n      dup1\n      tag_91\n      jumpi\n      tag_92\n      tag_87\n      jump\t// in\n    tag_92:\n    tag_91:\n        /* \"TestABI.sol\":2775:2776  y */\n      dup10\n        /* \"TestABI.sol\":2772:2773  x */\n      dup12\n        /* \"TestABI.sol\":2765:2780  mulmod(x, y, m) */\n      mulmod\n        /* \"TestABI.sol\":2714:2781  return ((x + y) % m, addmod(x, y, m), (x * y) % m, mulmod(x, y, m)) */\n      swap4\n      pop\n      swap4\n      pop\n      swap4\n      pop\n      swap4\n      pop\n        /* \"TestABI.sol\":2399:2788  function modularMath(... */\n      swap4\n      pop\n      swap4\n      pop\n      swap4\n      pop\n      swap4\n      jump\t// out\n        /* \"TestABI.sol\":2003:2294  function hashFunctions(string memory input)... */\n    tag_55:\n        /* \"TestABI.sol\":2105:2112  bytes32 */\n      0x00\n        /* \"TestABI.sol\":2126:2133  bytes32 */\n      0x00\n        /* \"TestABI.sol\":2147:2154  bytes32 */\n      0x00\n        /* \"TestABI.sol\":2179:2196  bytes memory data */\n      0x00\n        /* \"TestABI.sol\":2216:2221  input */\n      dup5\n        /* \"TestABI.sol\":2199:2222  abi.encodePacked(input) */\n      add(0x20, mload(0x40))\n      tag_94\n      swap2\n      swap1\n      tag_95\n      jump\t// in\n    tag_94:\n      mload(0x40)\n      0x20\n      dup2\n      dup4\n      sub\n      sub\n      dup2\n      mstore\n      swap1\n      0x40\n      mstore\n        /* \"TestABI.sol\":2179:2222  bytes memory data = abi.encodePacked(input) */\n      swap1\n      pop\n        /* \"TestABI.sol\":2250:2254  data */\n      dup1\n        /* \"TestABI.sol\":2240:2255  keccak256(data) */\n      dup1\n      mload\n      swap1\n      0x20\n      add\n      keccak256\n        /* \"TestABI.sol\":2257:2269  sha256(data) */\n      0x02\n        /* \"TestABI.sol\":2264:2268  data */\n      dup3\n        /* \"TestABI.sol\":2257:2269  sha256(data) */\n      mload(0x40)\n      tag_96\n      swap2\n      swap1\n      tag_97\n      jump\t// in\n    tag_96:\n      0x20\n      mload(0x40)\n      dup1\n      dup4\n      sub\n      dup2\n      dup6\n      gas\n      staticcall\n      iszero\n      dup1\n      iszero\n      tag_99\n      jumpi\n      returndatacopy(0x00, 0x00, returndatasize)\n      revert(0x00, returndatasize)\n    tag_99:\n      pop\n      pop\n      pop\n      mload(0x40)\n      returndatasize\n      not(0x1f)\n      0x1f\n      dup3\n      add\n      and\n      dup3\n      add\n      dup1\n      0x40\n      mstore\n      pop\n      dup2\n      add\n      swap1\n      tag_100\n      swap2\n      swap1\n      tag_101\n      jump\t// in\n    tag_100:\n        /* \"TestABI.sol\":2271:2286  ripemd160(data) */\n      0x03\n        /* \"TestABI.sol\":2281:2285  data */\n      dup4\n        /* \"TestABI.sol\":2271:2286  ripemd160(data) */\n      mload(0x40)\n      tag_102\n      swap2\n      swap1\n      tag_97\n      jump\t// in\n    tag_102:\n      0x20\n      mload(0x40)\n      dup1\n      dup4\n      sub\n      dup2\n      dup6\n      gas\n      staticcall\n      iszero\n      dup1\n      iszero\n      tag_104\n      jumpi\n      returndatacopy(0x00, 0x00, returndatasize)\n      revert(0x00, returndatasize)\n    tag_104:\n      pop\n      pop\n      pop\n      shl(0x60, mload(mload(0x40)))\n        /* \"TestABI.sol\":2232:2287  return (keccak256(data), sha256(data), ripemd160(data)) */\n      dup1\n      not(0xffffffffffffffffffffffff)\n      and\n      swap1\n      pop\n      swap4\n      pop\n      swap4\n      pop\n      swap4\n      pop\n      pop\n        /* \"TestABI.sol\":2003:2294  function hashFunctions(string memory input)... */\n      swap2\n      swap4\n      swap1\n      swap3\n      pop\n      jump\t// out\n        /* \"TestABI.sol\":3053:3229  function getRandomNumber() public view returns (uint256) {... */\n    tag_59:\n        /* \"TestABI.sol\":3101:3108  uint256 */\n      0x00\n        /* \"TestABI.sol\":3219:3222  100 */\n      0x64\n        /* \"TestABI.sol\":3174:3189  block.timestamp */\n      timestamp\n        /* \"TestABI.sol\":3191:3201  msg.sender */\n      caller\n        /* \"TestABI.sol\":3157:3202  abi.encodePacked(block.timestamp, msg.sender) */\n      add(0x20, mload(0x40))\n      tag_106\n      swap3\n      swap2\n      swap1\n      tag_107\n      jump\t// in\n    tag_106:\n      mload(0x40)\n      0x20\n      dup2\n      dup4\n      sub\n      sub\n      dup2\n      mstore\n      swap1\n      0x40\n      mstore\n        /* \"TestABI.sol\":3147:3203  keccak256(abi.encodePacked(block.timestamp, msg.sender)) */\n      dup1\n      mload\n      swap1\n      0x20\n      add\n      keccak256\n        /* \"TestABI.sol\":3139:3204  uint256(keccak256(abi.encodePacked(block.timestamp, msg.sender))) */\n      0x00\n      shr\n        /* \"TestABI.sol\":3139:3222  uint256(keccak256(abi.encodePacked(block.timestamp, msg.sender))) %... */\n      tag_108\n      swap2\n      swap1\n      tag_84\n      jump\t// in\n    tag_108:\n        /* \"TestABI.sol\":3120:3222  return... */\n      swap1\n      pop\n        /* \"TestABI.sol\":3053:3229  function getRandomNumber() public view returns (uint256) {... */\n      swap1\n      jump\t// out\n        /* \"TestABI.sol\":1714:1977  function encodeFunctionCall() public pure returns (bytes memory) {... */\n    tag_63:\n        /* \"TestABI.sol\":1765:1777  bytes memory */\n      0x60\n        /* \"TestABI.sol\":1893:1935  0x5B38Da6a701c568545dCfcB03FcB875f56beddC4 */\n      0x5b38da6a701c568545dcfcb03fcb875f56beddc4\n        /* \"TestABI.sol\":1953:1956  100 */\n      0x64\n        /* \"TestABI.sol\":1808:1970  abi.encodeWithSignature(... */\n      add(0x24, mload(0x40))\n      tag_110\n      swap3\n      swap2\n      swap1\n      tag_111\n      jump\t// in\n    tag_110:\n      mload(0x40)\n      0x20\n      dup2\n      dup4\n      sub\n      sub\n      dup2\n      mstore\n      swap1\n      0x40\n      mstore\n      and(not(0xffffffffffffffffffffffffffffffffffffffffffffffffffffffff), 0x4745b6cd00000000000000000000000000000000000000000000000000000000)\n      0x20\n      dup3\n      add\n      dup1\n      mload\n      0xffffffffffffffffffffffffffffffffffffffffffffffffffffffff\n      dup4\n      dup2\n      dup4\n      and\n      or\n      dup4\n      mstore\n      pop\n      pop\n      pop\n      pop\n        /* \"TestABI.sol\":1789:1970  return... */\n      swap1\n      pop\n        /* \"TestABI.sol\":1714:1977  function encodeFunctionCall() public pure returns (bytes memory) {... */\n      swap1\n      jump\t// out\n        /* \"#utility.yul\":7:156   */\n    tag_112:\n        /* \"#utility.yul\":43:50   */\n      0x00\n        /* \"#utility.yul\":83:149   */\n      0xffffffff00000000000000000000000000000000000000000000000000000000\n        /* \"#utility.yul\":76:81   */\n      dup3\n        /* \"#utility.yul\":72:150   */\n      and\n        /* \"#utility.yul\":61:150   */\n      swap1\n      pop\n        /* \"#utility.yul\":7:156   */\n      swap2\n      swap1\n      pop\n      jump\t// out\n        /* \"#utility.yul\":162:277   */\n    tag_113:\n        /* \"#utility.yul\":247:270   */\n      tag_176\n        /* \"#utility.yul\":264:269   */\n      dup2\n        /* \"#utility.yul\":247:270   */\n      tag_112\n      jump\t// in\n    tag_176:\n        /* \"#utility.yul\":242:245   */\n      dup3\n        /* \"#utility.yul\":235:271   */\n      mstore\n        /* \"#utility.yul\":162:277   */\n      pop\n      pop\n      jump\t// out\n        /* \"#utility.yul\":283:501   */\n    tag_17:\n        /* \"#utility.yul\":374:378   */\n      0x00\n        /* \"#utility.yul\":412:414   */\n      0x20\n        /* \"#utility.yul\":401:410   */\n      dup3\n        /* \"#utility.yul\":397:415   */\n      add\n        /* \"#utility.yul\":389:415   */\n      swap1\n      pop\n        /* \"#utility.yul\":425:494   */\n      tag_178\n        /* \"#utility.yul\":491:492   */\n      0x00\n        /* \"#utility.yul\":480:489   */\n      dup4\n        /* \"#utility.yul\":476:493   */\n      add\n        /* \"#utility.yul\":467:473   */\n      dup5\n        /* \"#utility.yul\":425:494   */\n      tag_113\n      jump\t// in\n    tag_178:\n        /* \"#utility.yul\":283:501   */\n      swap3\n      swap2\n      pop\n      pop\n      jump\t// out\n        /* \"#utility.yul\":507:582   */\n    tag_114:\n        /* \"#utility.yul\":540:546   */\n      0x00\n        /* \"#utility.yul\":573:575   */\n      0x40\n        /* \"#utility.yul\":567:576   */\n      mload\n        /* \"#utility.yul\":557:576   */\n      swap1\n      pop\n        /* \"#utility.yul\":507:582   */\n      swap1\n      jump\t// out\n        /* \"#utility.yul\":588:705   */\n    tag_115:\n        /* \"#utility.yul\":697:698   */\n      0x00\n        /* \"#utility.yul\":694:695   */\n      0x00\n        /* \"#utility.yul\":687:699   */\n      revert\n        /* \"#utility.yul\":711:828   */\n    tag_116:\n        /* \"#utility.yul\":820:821   */\n      0x00\n        /* \"#utility.yul\":817:818   */\n      0x00\n        /* \"#utility.yul\":810:822   */\n      revert\n        /* \"#utility.yul\":834:951   */\n    tag_117:\n        /* \"#utility.yul\":943:944   */\n      0x00\n        /* \"#utility.yul\":940:941   */\n      0x00\n        /* \"#utility.yul\":933:945   */\n      revert\n        /* \"#utility.yul\":957:1074   */\n    tag_118:\n        /* \"#utility.yul\":1066:1067   */\n      0x00\n        /* \"#utility.yul\":1063:1064   */\n      0x00\n        /* \"#utility.yul\":1056:1068   */\n      revert\n        /* \"#utility.yul\":1080:1182   */\n    tag_119:\n        /* \"#utility.yul\":1121:1127   */\n      0x00\n        /* \"#utility.yul\":1172:1174   */\n      0x1f\n        /* \"#utility.yul\":1168:1175   */\n      not\n        /* \"#utility.yul\":1163:1165   */\n      0x1f\n        /* \"#utility.yul\":1156:1161   */\n      dup4\n        /* \"#utility.yul\":1152:1166   */\n      add\n        /* \"#utility.yul\":1148:1176   */\n      and\n        /* \"#utility.yul\":1138:1176   */\n      swap1\n      pop\n        /* \"#utility.yul\":1080:1182   */\n      swap2\n      swap1\n      pop\n      jump\t// out\n        /* \"#utility.yul\":1188:1368   */\n    tag_120:\n        /* \"#utility.yul\":1236:1313   */\n      0x4e487b7100000000000000000000000000000000000000000000000000000000\n        /* \"#utility.yul\":1233:1234   */\n      0x00\n        /* \"#utility.yul\":1226:1314   */\n      mstore\n        /* \"#utility.yul\":1333:1337   */\n      0x41\n        /* \"#utility.yul\":1330:1331   */\n      0x04\n        /* \"#utility.yul\":1323:1338   */\n      mstore\n        /* \"#utility.yul\":1357:1361   */\n      0x24\n        /* \"#utility.yul\":1354:1355   */\n      0x00\n        /* \"#utility.yul\":1347:1362   */\n      revert\n        /* \"#utility.yul\":1374:1655   */\n    tag_121:\n        /* \"#utility.yul\":1457:1484   */\n      tag_187\n        /* \"#utility.yul\":1479:1483   */\n      dup3\n        /* \"#utility.yul\":1457:1484   */\n      tag_119\n      jump\t// in\n    tag_187:\n        /* \"#utility.yul\":1449:1455   */\n      dup2\n        /* \"#utility.yul\":1445:1485   */\n      add\n        /* \"#utility.yul\":1587:1593   */\n      dup2\n        /* \"#utility.yul\":1575:1585   */\n      dup2\n        /* \"#utility.yul\":1572:1594   */\n      lt\n        /* \"#utility.yul\":1551:1569   */\n      0xffffffffffffffff\n        /* \"#utility.yul\":1539:1549   */\n      dup3\n        /* \"#utility.yul\":1536:1570   */\n      gt\n        /* \"#utility.yul\":1533:1595   */\n      or\n        /* \"#utility.yul\":1530:1618   */\n      iszero\n      tag_188\n      jumpi\n        /* \"#utility.yul\":1598:1616   */\n      tag_189\n      tag_120\n      jump\t// in\n    tag_189:\n        /* \"#utility.yul\":1530:1618   */\n    tag_188:\n        /* \"#utility.yul\":1638:1648   */\n      dup1\n        /* \"#utility.yul\":1634:1636   */\n      0x40\n        /* \"#utility.yul\":1627:1649   */\n      mstore\n        /* \"#utility.yul\":1417:1655   */\n      pop\n        /* \"#utility.yul\":1374:1655   */\n      pop\n      pop\n      jump\t// out\n        /* \"#utility.yul\":1661:1790   */\n    tag_122:\n        /* \"#utility.yul\":1695:1701   */\n      0x00\n        /* \"#utility.yul\":1722:1742   */\n      tag_191\n      tag_114\n      jump\t// in\n    tag_191:\n        /* \"#utility.yul\":1712:1742   */\n      swap1\n      pop\n        /* \"#utility.yul\":1751:1784   */\n      tag_192\n        /* \"#utility.yul\":1779:1783   */\n      dup3\n        /* \"#utility.yul\":1771:1777   */\n      dup3\n        /* \"#utility.yul\":1751:1784   */\n      tag_121\n      jump\t// in\n    tag_192:\n        /* \"#utility.yul\":1661:1790   */\n      swap2\n      swap1\n      pop\n      jump\t// out\n        /* \"#utility.yul\":1796:2104   */\n    tag_123:\n        /* \"#utility.yul\":1858:1862   */\n      0x00\n        /* \"#utility.yul\":1948:1966   */\n      0xffffffffffffffff\n        /* \"#utility.yul\":1940:1946   */\n      dup3\n        /* \"#utility.yul\":1937:1967   */\n      gt\n        /* \"#utility.yul\":1934:1990   */\n      iszero\n      tag_194\n      jumpi\n        /* \"#utility.yul\":1970:1988   */\n      tag_195\n      tag_120\n      jump\t// in\n    tag_195:\n        /* \"#utility.yul\":1934:1990   */\n    tag_194:\n        /* \"#utility.yul\":2008:2037   */\n      tag_196\n        /* \"#utility.yul\":2030:2036   */\n      dup3\n        /* \"#utility.yul\":2008:2037   */\n      tag_119\n      jump\t// in\n    tag_196:\n        /* \"#utility.yul\":2000:2037   */\n      swap1\n      pop\n        /* \"#utility.yul\":2092:2096   */\n      0x20\n        /* \"#utility.yul\":2086:2090   */\n      dup2\n        /* \"#utility.yul\":2082:2097   */\n      add\n        /* \"#utility.yul\":2074:2097   */\n      swap1\n      pop\n        /* \"#utility.yul\":1796:2104   */\n      swap2\n      swap1\n      pop\n      jump\t// out\n        /* \"#utility.yul\":2110:2258   */\n    tag_124:\n        /* \"#utility.yul\":2208:2214   */\n      dup3\n        /* \"#utility.yul\":2203:2206   */\n      dup2\n        /* \"#utility.yul\":2198:2201   */\n      dup4\n        /* \"#utility.yul\":2185:2215   */\n      calldatacopy\n        /* \"#utility.yul\":2249:2250   */\n      0x00\n        /* \"#utility.yul\":2240:2246   */\n      dup4\n        /* \"#utility.yul\":2235:2238   */\n      dup4\n        /* \"#utility.yul\":2231:2247   */\n      add\n        /* \"#utility.yul\":2224:2251   */\n      mstore\n        /* \"#utility.yul\":2110:2258   */\n      pop\n      pop\n      pop\n      jump\t// out\n        /* \"#utility.yul\":2264:2689   */\n    tag_125:\n        /* \"#utility.yul\":2342:2347   */\n      0x00\n        /* \"#utility.yul\":2367:2433   */\n      tag_199\n        /* \"#utility.yul\":2383:2432   */\n      tag_200\n        /* \"#utility.yul\":2425:2431   */\n      dup5\n        /* \"#utility.yul\":2383:2432   */\n      tag_123\n      jump\t// in\n    tag_200:\n        /* \"#utility.yul\":2367:2433   */\n      tag_122\n      jump\t// in\n    tag_199:\n        /* \"#utility.yul\":2358:2433   */\n      swap1\n      pop\n        /* \"#utility.yul\":2456:2462   */\n      dup3\n        /* \"#utility.yul\":2449:2454   */\n      dup2\n        /* \"#utility.yul\":2442:2463   */\n      mstore\n        /* \"#utility.yul\":2494:2498   */\n      0x20\n        /* \"#utility.yul\":2487:2492   */\n      dup2\n        /* \"#utility.yul\":2483:2499   */\n      add\n        /* \"#utility.yul\":2532:2535   */\n      dup5\n        /* \"#utility.yul\":2523:2529   */\n      dup5\n        /* \"#utility.yul\":2518:2521   */\n      dup5\n        /* \"#utility.yul\":2514:2530   */\n      add\n        /* \"#utility.yul\":2511:2536   */\n      gt\n        /* \"#utility.yul\":2508:2620   */\n      iszero\n      tag_201\n      jumpi\n        /* \"#utility.yul\":2539:2618   */\n      tag_202\n      tag_118\n      jump\t// in\n    tag_202:\n        /* \"#utility.yul\":2508:2620   */\n    tag_201:\n        /* \"#utility.yul\":2629:2683   */\n      tag_203\n        /* \"#utility.yul\":2676:2682   */\n      dup5\n        /* \"#utility.yul\":2671:2674   */\n      dup3\n        /* \"#utility.yul\":2666:2669   */\n      dup6\n        /* \"#utility.yul\":2629:2683   */\n      tag_124\n      jump\t// in\n    tag_203:\n        /* \"#utility.yul\":2348:2689   */\n      pop\n        /* \"#utility.yul\":2264:2689   */\n      swap4\n      swap3\n      pop\n      pop\n      pop\n      jump\t// out\n        /* \"#utility.yul\":2709:3049   */\n    tag_126:\n        /* \"#utility.yul\":2765:2770   */\n      0x00\n        /* \"#utility.yul\":2814:2817   */\n      dup3\n        /* \"#utility.yul\":2807:2811   */\n      0x1f\n        /* \"#utility.yul\":2799:2805   */\n      dup4\n        /* \"#utility.yul\":2795:2812   */\n      add\n        /* \"#utility.yul\":2791:2818   */\n      slt\n        /* \"#utility.yul\":2781:2903   */\n      tag_205\n      jumpi\n        /* \"#utility.yul\":2822:2901   */\n      tag_206\n      tag_117\n      jump\t// in\n    tag_206:\n        /* \"#utility.yul\":2781:2903   */\n    tag_205:\n        /* \"#utility.yul\":2939:2945   */\n      dup2\n        /* \"#utility.yul\":2926:2946   */\n      calldataload\n        /* \"#utility.yul\":2964:3043   */\n      tag_207\n        /* \"#utility.yul\":3039:3042   */\n      dup5\n        /* \"#utility.yul\":3031:3037   */\n      dup3\n        /* \"#utility.yul\":3024:3028   */\n      0x20\n        /* \"#utility.yul\":3016:3022   */\n      dup7\n        /* \"#utility.yul\":3012:3029   */\n      add\n        /* \"#utility.yul\":2964:3043   */\n      tag_125\n      jump\t// in\n    tag_207:\n        /* \"#utility.yul\":2955:3043   */\n      swap2\n      pop\n        /* \"#utility.yul\":2771:3049   */\n      pop\n        /* \"#utility.yul\":2709:3049   */\n      swap3\n      swap2\n      pop\n      pop\n      jump\t// out\n        /* \"#utility.yul\":3055:3564   */\n    tag_20:\n        /* \"#utility.yul\":3124:3130   */\n      0x00\n        /* \"#utility.yul\":3173:3175   */\n      0x20\n        /* \"#utility.yul\":3161:3170   */\n      dup3\n        /* \"#utility.yul\":3152:3159   */\n      dup5\n        /* \"#utility.yul\":3148:3171   */\n      sub\n        /* \"#utility.yul\":3144:3176   */\n      slt\n        /* \"#utility.yul\":3141:3260   */\n      iszero\n      tag_209\n      jumpi\n        /* \"#utility.yul\":3179:3258   */\n      tag_210\n      tag_115\n      jump\t// in\n    tag_210:\n        /* \"#utility.yul\":3141:3260   */\n    tag_209:\n        /* \"#utility.yul\":3327:3328   */\n      0x00\n        /* \"#utility.yul\":3316:3325   */\n      dup3\n        /* \"#utility.yul\":3312:3329   */\n      add\n        /* \"#utility.yul\":3299:3330   */\n      calldataload\n        /* \"#utility.yul\":3357:3375   */\n      0xffffffffffffffff\n        /* \"#utility.yul\":3349:3355   */\n      dup2\n        /* \"#utility.yul\":3346:3376   */\n      gt\n        /* \"#utility.yul\":3343:3460   */\n      iszero\n      tag_211\n      jumpi\n        /* \"#utility.yul\":3379:3458   */\n      tag_212\n      tag_116\n      jump\t// in\n    tag_212:\n        /* \"#utility.yul\":3343:3460   */\n    tag_211:\n        /* \"#utility.yul\":3484:3547   */\n      tag_213\n        /* \"#utility.yul\":3539:3546   */\n      dup5\n        /* \"#utility.yul\":3530:3536   */\n      dup3\n        /* \"#utility.yul\":3519:3528   */\n      dup6\n        /* \"#utility.yul\":3515:3537   */\n      add\n        /* \"#utility.yul\":3484:3547   */\n      tag_126\n      jump\t// in\n    tag_213:\n        /* \"#utility.yul\":3474:3547   */\n      swap2\n      pop\n        /* \"#utility.yul\":3270:3557   */\n      pop\n        /* \"#utility.yul\":3055:3564   */\n      swap3\n      swap2\n      pop\n      pop\n      jump\t// out\n        /* \"#utility.yul\":3570:3877   */\n    tag_127:\n        /* \"#utility.yul\":3631:3635   */\n      0x00\n        /* \"#utility.yul\":3721:3739   */\n      0xffffffffffffffff\n        /* \"#utility.yul\":3713:3719   */\n      dup3\n        /* \"#utility.yul\":3710:3740   */\n      gt\n        /* \"#utility.yul\":3707:3763   */\n      iszero\n      tag_215\n      jumpi\n        /* \"#utility.yul\":3743:3761   */\n      tag_216\n      tag_120\n      jump\t// in\n    tag_216:\n        /* \"#utility.yul\":3707:3763   */\n    tag_215:\n        /* \"#utility.yul\":3781:3810   */\n      tag_217\n        /* \"#utility.yul\":3803:3809   */\n      dup3\n        /* \"#utility.yul\":3781:3810   */\n      tag_119\n      jump\t// in\n    tag_217:\n        /* \"#utility.yul\":3773:3810   */\n      swap1\n      pop\n        /* \"#utility.yul\":3865:3869   */\n      0x20\n        /* \"#utility.yul\":3859:3863   */\n      dup2\n        /* \"#utility.yul\":3855:3870   */\n      add\n        /* \"#utility.yul\":3847:3870   */\n      swap1\n      pop\n        /* \"#utility.yul\":3570:3877   */\n      swap2\n      swap1\n      pop\n      jump\t// out\n        /* \"#utility.yul\":3883:4306   */\n    tag_128:\n        /* \"#utility.yul\":3960:3965   */\n      0x00\n        /* \"#utility.yul\":3985:4050   */\n      tag_219\n        /* \"#utility.yul\":4001:4049   */\n      tag_220\n        /* \"#utility.yul\":4042:4048   */\n      dup5\n        /* \"#utility.yul\":4001:4049   */\n      tag_127\n      jump\t// in\n    tag_220:\n        /* \"#utility.yul\":3985:4050   */\n      tag_122\n      jump\t// in\n    tag_219:\n        /* \"#utility.yul\":3976:4050   */\n      swap1\n      pop\n        /* \"#utility.yul\":4073:4079   */\n      dup3\n        /* \"#utility.yul\":4066:4071   */\n      dup2\n        /* \"#utility.yul\":4059:4080   */\n      mstore\n        /* \"#utility.yul\":4111:4115   */\n      0x20\n        /* \"#utility.yul\":4104:4109   */\n      dup2\n        /* \"#utility.yul\":4100:4116   */\n      add\n        /* \"#utility.yul\":4149:4152   */\n      dup5\n        /* \"#utility.yul\":4140:4146   */\n      dup5\n        /* \"#utility.yul\":4135:4138   */\n      dup5\n        /* \"#utility.yul\":4131:4147   */\n      add\n        /* \"#utility.yul\":4128:4153   */\n      gt\n        /* \"#utility.yul\":4125:4237   */\n      iszero\n      tag_221\n      jumpi\n        /* \"#utility.yul\":4156:4235   */\n      tag_222\n      tag_118\n      jump\t// in\n    tag_222:\n        /* \"#utility.yul\":4125:4237   */\n    tag_221:\n        /* \"#utility.yul\":4246:4300   */\n      tag_223\n        /* \"#utility.yul\":4293:4299   */\n      dup5\n        /* \"#utility.yul\":4288:4291   */\n      dup3\n        /* \"#utility.yul\":4283:4286   */\n      dup6\n        /* \"#utility.yul\":4246:4300   */\n      tag_124\n      jump\t// in\n    tag_223:\n        /* \"#utility.yul\":3966:4306   */\n      pop\n        /* \"#utility.yul\":3883:4306   */\n      swap4\n      swap3\n      pop\n      pop\n      pop\n      jump\t// out\n        /* \"#utility.yul\":4325:4663   */\n    tag_129:\n        /* \"#utility.yul\":4380:4385   */\n      0x00\n        /* \"#utility.yul\":4429:4432   */\n      dup3\n        /* \"#utility.yul\":4422:4426   */\n      0x1f\n        /* \"#utility.yul\":4414:4420   */\n      dup4\n        /* \"#utility.yul\":4410:4427   */\n      add\n        /* \"#utility.yul\":4406:4433   */\n      slt\n        /* \"#utility.yul\":4396:4518   */\n      tag_225\n      jumpi\n        /* \"#utility.yul\":4437:4516   */\n      tag_226\n      tag_117\n      jump\t// in\n    tag_226:\n        /* \"#utility.yul\":4396:4518   */\n    tag_225:\n        /* \"#utility.yul\":4554:4560   */\n      dup2\n        /* \"#utility.yul\":4541:4561   */\n      calldataload\n        /* \"#utility.yul\":4579:4657   */\n      tag_227\n        /* \"#utility.yul\":4653:4656   */\n      dup5\n        /* \"#utility.yul\":4645:4651   */\n      dup3\n        /* \"#utility.yul\":4638:4642   */\n      0x20\n        /* \"#utility.yul\":4630:4636   */\n      dup7\n        /* \"#utility.yul\":4626:4643   */\n      add\n        /* \"#utility.yul\":4579:4657   */\n      tag_128\n      jump\t// in\n    tag_227:\n        /* \"#utility.yul\":4570:4657   */\n      swap2\n      pop\n        /* \"#utility.yul\":4386:4663   */\n      pop\n        /* \"#utility.yul\":4325:4663   */\n      swap3\n      swap2\n      pop\n      pop\n      jump\t// out\n        /* \"#utility.yul\":4669:5176   */\n    tag_25:\n        /* \"#utility.yul\":4737:4743   */\n      0x00\n        /* \"#utility.yul\":4786:4788   */\n      0x20\n        /* \"#utility.yul\":4774:4783   */\n      dup3\n        /* \"#utility.yul\":4765:4772   */\n      dup5\n        /* \"#utility.yul\":4761:4784   */\n      sub\n        /* \"#utility.yul\":4757:4789   */\n      slt\n        /* \"#utility.yul\":4754:4873   */\n      iszero\n      tag_229\n      jumpi\n        /* \"#utility.yul\":4792:4871   */\n      tag_230\n      tag_115\n      jump\t// in\n    tag_230:\n        /* \"#utility.yul\":4754:4873   */\n    tag_229:\n        /* \"#utility.yul\":4940:4941   */\n      0x00\n        /* \"#utility.yul\":4929:4938   */\n      dup3\n        /* \"#utility.yul\":4925:4942   */\n      add\n        /* \"#utility.yul\":4912:4943   */\n      calldataload\n        /* \"#utility.yul\":4970:4988   */\n      0xffffffffffffffff\n        /* \"#utility.yul\":4962:4968   */\n      dup2\n        /* \"#utility.yul\":4959:4989   */\n      gt\n        /* \"#utility.yul\":4956:5073   */\n      iszero\n      tag_231\n      jumpi\n        /* \"#utility.yul\":4992:5071   */\n      tag_232\n      tag_116\n      jump\t// in\n    tag_232:\n        /* \"#utility.yul\":4956:5073   */\n    tag_231:\n        /* \"#utility.yul\":5097:5159   */\n      tag_233\n        /* \"#utility.yul\":5151:5158   */\n      dup5\n        /* \"#utility.yul\":5142:5148   */\n      dup3\n        /* \"#utility.yul\":5131:5140   */\n      dup6\n        /* \"#utility.yul\":5127:5149   */\n      add\n        /* \"#utility.yul\":5097:5159   */\n      tag_129\n      jump\t// in\n    tag_233:\n        /* \"#utility.yul\":5087:5159   */\n      swap2\n      pop\n        /* \"#utility.yul\":4883:5169   */\n      pop\n        /* \"#utility.yul\":4669:5176   */\n      swap3\n      swap2\n      pop\n      pop\n      jump\t// out\n        /* \"#utility.yul\":5182:5281   */\n    tag_130:\n        /* \"#utility.yul\":5234:5240   */\n      0x00\n        /* \"#utility.yul\":5268:5273   */\n      dup2\n        /* \"#utility.yul\":5262:5274   */\n      mload\n        /* \"#utility.yul\":5252:5274   */\n      swap1\n      pop\n        /* \"#utility.yul\":5182:5281   */\n      swap2\n      swap1\n      pop\n      jump\t// out\n        /* \"#utility.yul\":5287:5456   */\n    tag_131:\n        /* \"#utility.yul\":5371:5382   */\n      0x00\n        /* \"#utility.yul\":5405:5411   */\n      dup3\n        /* \"#utility.yul\":5400:5403   */\n      dup3\n        /* \"#utility.yul\":5393:5412   */\n      mstore\n        /* \"#utility.yul\":5445:5449   */\n      0x20\n        /* \"#utility.yul\":5440:5443   */\n      dup3\n        /* \"#utility.yul\":5436:5450   */\n      add\n        /* \"#utility.yul\":5421:5450   */\n      swap1\n      pop\n        /* \"#utility.yul\":5287:5456   */\n      swap3\n      swap2\n      pop\n      pop\n      jump\t// out\n        /* \"#utility.yul\":5462:5601   */\n    tag_132:\n        /* \"#utility.yul\":5551:5557   */\n      dup3\n        /* \"#utility.yul\":5546:5549   */\n      dup2\n        /* \"#utility.yul\":5541:5544   */\n      dup4\n        /* \"#utility.yul\":5535:5558   */\n      mcopy\n        /* \"#utility.yul\":5592:5593   */\n      0x00\n        /* \"#utility.yul\":5583:5589   */\n      dup4\n        /* \"#utility.yul\":5578:5581   */\n      dup4\n        /* \"#utility.yul\":5574:5590   */\n      add\n        /* \"#utility.yul\":5567:5594   */\n      mstore\n        /* \"#utility.yul\":5462:5601   */\n      pop\n      pop\n      pop\n      jump\t// out\n        /* \"#utility.yul\":5607:5984   */\n    tag_133:\n        /* \"#utility.yul\":5695:5698   */\n      0x00\n        /* \"#utility.yul\":5723:5762   */\n      tag_238\n        /* \"#utility.yul\":5756:5761   */\n      dup3\n        /* \"#utility.yul\":5723:5762   */\n      tag_130\n      jump\t// in\n    tag_238:\n        /* \"#utility.yul\":5778:5849   */\n      tag_239\n        /* \"#utility.yul\":5842:5848   */\n      dup2\n        /* \"#utility.yul\":5837:5840   */\n      dup6\n        /* \"#utility.yul\":5778:5849   */\n      tag_131\n      jump\t// in\n    tag_239:\n        /* \"#utility.yul\":5771:5849   */\n      swap4\n      pop\n        /* \"#utility.yul\":5858:5923   */\n      tag_240\n        /* \"#utility.yul\":5916:5922   */\n      dup2\n        /* \"#utility.yul\":5911:5914   */\n      dup6\n        /* \"#utility.yul\":5904:5908   */\n      0x20\n        /* \"#utility.yul\":5897:5902   */\n      dup7\n        /* \"#utility.yul\":5893:5909   */\n      add\n        /* \"#utility.yul\":5858:5923   */\n      tag_132\n      jump\t// in\n    tag_240:\n        /* \"#utility.yul\":5948:5977   */\n      tag_241\n        /* \"#utility.yul\":5970:5976   */\n      dup2\n        /* \"#utility.yul\":5948:5977   */\n      tag_119\n      jump\t// in\n    tag_241:\n        /* \"#utility.yul\":5943:5946   */\n      dup5\n        /* \"#utility.yul\":5939:5978   */\n      add\n        /* \"#utility.yul\":5932:5978   */\n      swap2\n      pop\n        /* \"#utility.yul\":5699:5984   */\n      pop\n        /* \"#utility.yul\":5607:5984   */\n      swap3\n      swap2\n      pop\n      pop\n      jump\t// out\n        /* \"#utility.yul\":5990:6067   */\n    tag_134:\n        /* \"#utility.yul\":6027:6034   */\n      0x00\n        /* \"#utility.yul\":6056:6061   */\n      dup2\n        /* \"#utility.yul\":6045:6061   */\n      swap1\n      pop\n        /* \"#utility.yul\":5990:6067   */\n      swap2\n      swap1\n      pop\n      jump\t// out\n        /* \"#utility.yul\":6073:6191   */\n    tag_135:\n        /* \"#utility.yul\":6160:6184   */\n      tag_244\n        /* \"#utility.yul\":6178:6183   */\n      dup2\n        /* \"#utility.yul\":6160:6184   */\n      tag_134\n      jump\t// in\n    tag_244:\n        /* \"#utility.yul\":6155:6158   */\n      dup3\n        /* \"#utility.yul\":6148:6185   */\n      mstore\n        /* \"#utility.yul\":6073:6191   */\n      pop\n      pop\n      jump\t// out\n        /* \"#utility.yul\":6197:6620   */\n    tag_28:\n        /* \"#utility.yul\":6338:6342   */\n      0x00\n        /* \"#utility.yul\":6376:6378   */\n      0x40\n        /* \"#utility.yul\":6365:6374   */\n      dup3\n        /* \"#utility.yul\":6361:6379   */\n      add\n        /* \"#utility.yul\":6353:6379   */\n      swap1\n      pop\n        /* \"#utility.yul\":6425:6434   */\n      dup2\n        /* \"#utility.yul\":6419:6423   */\n      dup2\n        /* \"#utility.yul\":6415:6435   */\n      sub\n        /* \"#utility.yul\":6411:6412   */\n      0x00\n        /* \"#utility.yul\":6400:6409   */\n      dup4\n        /* \"#utility.yul\":6396:6413   */\n      add\n        /* \"#utility.yul\":6389:6436   */\n      mstore\n        /* \"#utility.yul\":6453:6531   */\n      tag_246\n        /* \"#utility.yul\":6526:6530   */\n      dup2\n        /* \"#utility.yul\":6517:6523   */\n      dup6\n        /* \"#utility.yul\":6453:6531   */\n      tag_133\n      jump\t// in\n    tag_246:\n        /* \"#utility.yul\":6445:6531   */\n      swap1\n      pop\n        /* \"#utility.yul\":6541:6613   */\n      tag_247\n        /* \"#utility.yul\":6609:6611   */\n      0x20\n        /* \"#utility.yul\":6598:6607   */\n      dup4\n        /* \"#utility.yul\":6594:6612   */\n      add\n        /* \"#utility.yul\":6585:6591   */\n      dup5\n        /* \"#utility.yul\":6541:6613   */\n      tag_135\n      jump\t// in\n    tag_247:\n        /* \"#utility.yul\":6197:6620   */\n      swap4\n      swap3\n      pop\n      pop\n      pop\n      jump\t// out\n        /* \"#utility.yul\":6626:6752   */\n    tag_136:\n        /* \"#utility.yul\":6663:6670   */\n      0x00\n        /* \"#utility.yul\":6703:6745   */\n      0xffffffffffffffffffffffffffffffffffffffff\n        /* \"#utility.yul\":6696:6701   */\n      dup3\n        /* \"#utility.yul\":6692:6746   */\n      and\n        /* \"#utility.yul\":6681:6746   */\n      swap1\n      pop\n        /* \"#utility.yul\":6626:6752   */\n      swap2\n      swap1\n      pop\n      jump\t// out\n        /* \"#utility.yul\":6758:6854   */\n    tag_137:\n        /* \"#utility.yul\":6795:6802   */\n      0x00\n        /* \"#utility.yul\":6824:6848   */\n      tag_250\n        /* \"#utility.yul\":6842:6847   */\n      dup3\n        /* \"#utility.yul\":6824:6848   */\n      tag_136\n      jump\t// in\n    tag_250:\n        /* \"#utility.yul\":6813:6848   */\n      swap1\n      pop\n        /* \"#utility.yul\":6758:6854   */\n      swap2\n      swap1\n      pop\n      jump\t// out\n        /* \"#utility.yul\":6860:6982   */\n    tag_138:\n        /* \"#utility.yul\":6933:6957   */\n      tag_252\n        /* \"#utility.yul\":6951:6956   */\n      dup2\n        /* \"#utility.yul\":6933:6957   */\n      tag_137\n      jump\t// in\n    tag_252:\n        /* \"#utility.yul\":6926:6931   */\n      dup2\n        /* \"#utility.yul\":6923:6958   */\n      eq\n        /* \"#utility.yul\":6913:6976   */\n      tag_253\n      jumpi\n        /* \"#utility.yul\":6972:6973   */\n      0x00\n        /* \"#utility.yul\":6969:6970   */\n      0x00\n        /* \"#utility.yul\":6962:6974   */\n      revert\n        /* \"#utility.yul\":6913:6976   */\n    tag_253:\n        /* \"#utility.yul\":6860:6982   */\n      pop\n      jump\t// out\n        /* \"#utility.yul\":6988:7127   */\n    tag_139:\n        /* \"#utility.yul\":7034:7039   */\n      0x00\n        /* \"#utility.yul\":7072:7078   */\n      dup2\n        /* \"#utility.yul\":7059:7079   */\n      calldataload\n        /* \"#utility.yul\":7050:7079   */\n      swap1\n      pop\n        /* \"#utility.yul\":7088:7121   */\n      tag_255\n        /* \"#utility.yul\":7115:7120   */\n      dup2\n        /* \"#utility.yul\":7088:7121   */\n      tag_138\n      jump\t// in\n    tag_255:\n        /* \"#utility.yul\":6988:7127   */\n      swap3\n      swap2\n      pop\n      pop\n      jump\t// out\n        /* \"#utility.yul\":7133:7255   */\n    tag_140:\n        /* \"#utility.yul\":7206:7230   */\n      tag_257\n        /* \"#utility.yul\":7224:7229   */\n      dup2\n        /* \"#utility.yul\":7206:7230   */\n      tag_134\n      jump\t// in\n    tag_257:\n        /* \"#utility.yul\":7199:7204   */\n      dup2\n        /* \"#utility.yul\":7196:7231   */\n      eq\n        /* \"#utility.yul\":7186:7249   */\n      tag_258\n      jumpi\n        /* \"#utility.yul\":7245:7246   */\n      0x00\n        /* \"#utility.yul\":7242:7243   */\n      0x00\n        /* \"#utility.yul\":7235:7247   */\n      revert\n        /* \"#utility.yul\":7186:7249   */\n    tag_258:\n        /* \"#utility.yul\":7133:7255   */\n      pop\n      jump\t// out\n        /* \"#utility.yul\":7261:7400   */\n    tag_141:\n        /* \"#utility.yul\":7307:7312   */\n      0x00\n        /* \"#utility.yul\":7345:7351   */\n      dup2\n        /* \"#utility.yul\":7332:7352   */\n      calldataload\n        /* \"#utility.yul\":7323:7352   */\n      swap1\n      pop\n        /* \"#utility.yul\":7361:7394   */\n      tag_260\n        /* \"#utility.yul\":7388:7393   */\n      dup2\n        /* \"#utility.yul\":7361:7394   */\n      tag_140\n      jump\t// in\n    tag_260:\n        /* \"#utility.yul\":7261:7400   */\n      swap3\n      swap2\n      pop\n      pop\n      jump\t// out\n        /* \"#utility.yul\":7406:7880   */\n    tag_31:\n        /* \"#utility.yul\":7474:7480   */\n      0x00\n        /* \"#utility.yul\":7482:7488   */\n      0x00\n        /* \"#utility.yul\":7531:7533   */\n      0x40\n        /* \"#utility.yul\":7519:7528   */\n      dup4\n        /* \"#utility.yul\":7510:7517   */\n      dup6\n        /* \"#utility.yul\":7506:7529   */\n      sub\n        /* \"#utility.yul\":7502:7534   */\n      slt\n        /* \"#utility.yul\":7499:7618   */\n      iszero\n      tag_262\n      jumpi\n        /* \"#utility.yul\":7537:7616   */\n      tag_263\n      tag_115\n      jump\t// in\n    tag_263:\n        /* \"#utility.yul\":7499:7618   */\n    tag_262:\n        /* \"#utility.yul\":7657:7658   */\n      0x00\n        /* \"#utility.yul\":7682:7735   */\n      tag_264\n        /* \"#utility.yul\":7727:7734   */\n      dup6\n        /* \"#utility.yul\":7718:7724   */\n      dup3\n        /* \"#utility.yul\":7707:7716   */\n      dup7\n        /* \"#utility.yul\":7703:7725   */\n      add\n        /* \"#utility.yul\":7682:7735   */\n      tag_139\n      jump\t// in\n    tag_264:\n        /* \"#utility.yul\":7672:7735   */\n      swap3\n      pop\n        /* \"#utility.yul\":7628:7745   */\n      pop\n        /* \"#utility.yul\":7784:7786   */\n      0x20\n        /* \"#utility.yul\":7810:7863   */\n      tag_265\n        /* \"#utility.yul\":7855:7862   */\n      dup6\n        /* \"#utility.yul\":7846:7852   */\n      dup3\n        /* \"#utility.yul\":7835:7844   */\n      dup7\n        /* \"#utility.yul\":7831:7853   */\n      add\n        /* \"#utility.yul\":7810:7863   */\n      tag_141\n      jump\t// in\n    tag_265:\n        /* \"#utility.yul\":7800:7863   */\n      swap2\n      pop\n        /* \"#utility.yul\":7755:7873   */\n      pop\n        /* \"#utility.yul\":7406:7880   */\n      swap3\n      pop\n      swap3\n      swap1\n      pop\n      jump\t// out\n        /* \"#utility.yul\":7886:7984   */\n    tag_142:\n        /* \"#utility.yul\":7937:7943   */\n      0x00\n        /* \"#utility.yul\":7971:7976   */\n      dup2\n        /* \"#utility.yul\":7965:7977   */\n      mload\n        /* \"#utility.yul\":7955:7977   */\n      swap1\n      pop\n        /* \"#utility.yul\":7886:7984   */\n      swap2\n      swap1\n      pop\n      jump\t// out\n        /* \"#utility.yul\":7990:8158   */\n    tag_143:\n        /* \"#utility.yul\":8073:8084   */\n      0x00\n        /* \"#utility.yul\":8107:8113   */\n      dup3\n        /* \"#utility.yul\":8102:8105   */\n      dup3\n        /* \"#utility.yul\":8095:8114   */\n      mstore\n        /* \"#utility.yul\":8147:8151   */\n      0x20\n        /* \"#utility.yul\":8142:8145   */\n      dup3\n        /* \"#utility.yul\":8138:8152   */\n      add\n        /* \"#utility.yul\":8123:8152   */\n      swap1\n      pop\n        /* \"#utility.yul\":7990:8158   */\n      swap3\n      swap2\n      pop\n      pop\n      jump\t// out\n        /* \"#utility.yul\":8164:8537   */\n    tag_144:\n        /* \"#utility.yul\":8250:8253   */\n      0x00\n        /* \"#utility.yul\":8278:8316   */\n      tag_269\n        /* \"#utility.yul\":8310:8315   */\n      dup3\n        /* \"#utility.yul\":8278:8316   */\n      tag_142\n      jump\t// in\n    tag_269:\n        /* \"#utility.yul\":8332:8402   */\n      tag_270\n        /* \"#utility.yul\":8395:8401   */\n      dup2\n        /* \"#utility.yul\":8390:8393   */\n      dup6\n        /* \"#utility.yul\":8332:8402   */\n      tag_143\n      jump\t// in\n    tag_270:\n        /* \"#utility.yul\":8325:8402   */\n      swap4\n      pop\n        /* \"#utility.yul\":8411:8476   */\n      tag_271\n        /* \"#utility.yul\":8469:8475   */\n      dup2\n        /* \"#utility.yul\":8464:8467   */\n      dup6\n        /* \"#utility.yul\":8457:8461   */\n      0x20\n        /* \"#utility.yul\":8450:8455   */\n      dup7\n        /* \"#utility.yul\":8446:8462   */\n      add\n        /* \"#utility.yul\":8411:8476   */\n      tag_132\n      jump\t// in\n    tag_271:\n        /* \"#utility.yul\":8501:8530   */\n      tag_272\n        /* \"#utility.yul\":8523:8529   */\n      dup2\n        /* \"#utility.yul\":8501:8530   */\n      tag_119\n      jump\t// in\n    tag_272:\n        /* \"#utility.yul\":8496:8499   */\n      dup5\n        /* \"#utility.yul\":8492:8531   */\n      add\n        /* \"#utility.yul\":8485:8531   */\n      swap2\n      pop\n        /* \"#utility.yul\":8254:8537   */\n      pop\n        /* \"#utility.yul\":8164:8537   */\n      swap3\n      swap2\n      pop\n      pop\n      jump\t// out\n        /* \"#utility.yul\":8543:8852   */\n    tag_34:\n        /* \"#utility.yul\":8654:8658   */\n      0x00\n        /* \"#utility.yul\":8692:8694   */\n      0x20\n        /* \"#utility.yul\":8681:8690   */\n      dup3\n        /* \"#utility.yul\":8677:8695   */\n      add\n        /* \"#utility.yul\":8669:8695   */\n      swap1\n      pop\n        /* \"#utility.yul\":8741:8750   */\n      dup2\n        /* \"#utility.yul\":8735:8739   */\n      dup2\n        /* \"#utility.yul\":8731:8751   */\n      sub\n        /* \"#utility.yul\":8727:8728   */\n      0x00\n        /* \"#utility.yul\":8716:8725   */\n      dup4\n        /* \"#utility.yul\":8712:8729   */\n      add\n        /* \"#utility.yul\":8705:8752   */\n      mstore\n        /* \"#utility.yul\":8769:8845   */\n      tag_274\n        /* \"#utility.yul\":8840:8844   */\n      dup2\n        /* \"#utility.yul\":8831:8837   */\n      dup5\n        /* \"#utility.yul\":8769:8845   */\n      tag_144\n      jump\t// in\n    tag_274:\n        /* \"#utility.yul\":8761:8845   */\n      swap1\n      pop\n        /* \"#utility.yul\":8543:8852   */\n      swap3\n      swap2\n      pop\n      pop\n      jump\t// out\n        /* \"#utility.yul\":8858:9512   */\n    tag_37:\n        /* \"#utility.yul\":8936:8942   */\n      0x00\n        /* \"#utility.yul\":8944:8950   */\n      0x00\n        /* \"#utility.yul\":8993:8995   */\n      0x40\n        /* \"#utility.yul\":8981:8990   */\n      dup4\n        /* \"#utility.yul\":8972:8979   */\n      dup6\n        /* \"#utility.yul\":8968:8991   */\n      sub\n        /* \"#utility.yul\":8964:8996   */\n      slt\n        /* \"#utility.yul\":8961:9080   */\n      iszero\n      tag_276\n      jumpi\n        /* \"#utility.yul\":8999:9078   */\n      tag_277\n      tag_115\n      jump\t// in\n    tag_277:\n        /* \"#utility.yul\":8961:9080   */\n    tag_276:\n        /* \"#utility.yul\":9147:9148   */\n      0x00\n        /* \"#utility.yul\":9136:9145   */\n      dup4\n        /* \"#utility.yul\":9132:9149   */\n      add\n        /* \"#utility.yul\":9119:9150   */\n      calldataload\n        /* \"#utility.yul\":9177:9195   */\n      0xffffffffffffffff\n        /* \"#utility.yul\":9169:9175   */\n      dup2\n        /* \"#utility.yul\":9166:9196   */\n      gt\n        /* \"#utility.yul\":9163:9280   */\n      iszero\n      tag_278\n      jumpi\n        /* \"#utility.yul\":9199:9278   */\n      tag_279\n      tag_116\n      jump\t// in\n    tag_279:\n        /* \"#utility.yul\":9163:9280   */\n    tag_278:\n        /* \"#utility.yul\":9304:9367   */\n      tag_280\n        /* \"#utility.yul\":9359:9366   */\n      dup6\n        /* \"#utility.yul\":9350:9356   */\n      dup3\n        /* \"#utility.yul\":9339:9348   */\n      dup7\n        /* \"#utility.yul\":9335:9357   */\n      add\n        /* \"#utility.yul\":9304:9367   */\n      tag_126\n      jump\t// in\n    tag_280:\n        /* \"#utility.yul\":9294:9367   */\n      swap3\n      pop\n        /* \"#utility.yul\":9090:9377   */\n      pop\n        /* \"#utility.yul\":9416:9418   */\n      0x20\n        /* \"#utility.yul\":9442:9495   */\n      tag_281\n        /* \"#utility.yul\":9487:9494   */\n      dup6\n        /* \"#utility.yul\":9478:9484   */\n      dup3\n        /* \"#utility.yul\":9467:9476   */\n      dup7\n        /* \"#utility.yul\":9463:9485   */\n      add\n        /* \"#utility.yul\":9442:9495   */\n      tag_141\n      jump\t// in\n    tag_281:\n        /* \"#utility.yul\":9432:9495   */\n      swap2\n      pop\n        /* \"#utility.yul\":9387:9505   */\n      pop\n        /* \"#utility.yul\":8858:9512   */\n      swap3\n      pop\n      swap3\n      swap1\n      pop\n      jump\t// out\n        /* \"#utility.yul\":9518:10024   */\n    tag_40:\n        /* \"#utility.yul\":9675:9679   */\n      0x00\n        /* \"#utility.yul\":9713:9715   */\n      0x40\n        /* \"#utility.yul\":9702:9711   */\n      dup3\n        /* \"#utility.yul\":9698:9716   */\n      add\n        /* \"#utility.yul\":9690:9716   */\n      swap1\n      pop\n        /* \"#utility.yul\":9762:9771   */\n      dup2\n        /* \"#utility.yul\":9756:9760   */\n      dup2\n        /* \"#utility.yul\":9752:9772   */\n      sub\n        /* \"#utility.yul\":9748:9749   */\n      0x00\n        /* \"#utility.yul\":9737:9746   */\n      dup4\n        /* \"#utility.yul\":9733:9750   */\n      add\n        /* \"#utility.yul\":9726:9773   */\n      mstore\n        /* \"#utility.yul\":9790:9866   */\n      tag_283\n        /* \"#utility.yul\":9861:9865   */\n      dup2\n        /* \"#utility.yul\":9852:9858   */\n      dup6\n        /* \"#utility.yul\":9790:9866   */\n      tag_144\n      jump\t// in\n    tag_283:\n        /* \"#utility.yul\":9782:9866   */\n      swap1\n      pop\n        /* \"#utility.yul\":9913:9922   */\n      dup2\n        /* \"#utility.yul\":9907:9911   */\n      dup2\n        /* \"#utility.yul\":9903:9923   */\n      sub\n        /* \"#utility.yul\":9898:9900   */\n      0x20\n        /* \"#utility.yul\":9887:9896   */\n      dup4\n        /* \"#utility.yul\":9883:9901   */\n      add\n        /* \"#utility.yul\":9876:9924   */\n      mstore\n        /* \"#utility.yul\":9941:10017   */\n      tag_284\n        /* \"#utility.yul\":10012:10016   */\n      dup2\n        /* \"#utility.yul\":10003:10009   */\n      dup5\n        /* \"#utility.yul\":9941:10017   */\n      tag_144\n      jump\t// in\n    tag_284:\n        /* \"#utility.yul\":9933:10017   */\n      swap1\n      pop\n        /* \"#utility.yul\":9518:10024   */\n      swap4\n      swap3\n      pop\n      pop\n      pop\n      jump\t// out\n        /* \"#utility.yul\":10030:10107   */\n    tag_145:\n        /* \"#utility.yul\":10067:10074   */\n      0x00\n        /* \"#utility.yul\":10096:10101   */\n      dup2\n        /* \"#utility.yul\":10085:10101   */\n      swap1\n      pop\n        /* \"#utility.yul\":10030:10107   */\n      swap2\n      swap1\n      pop\n      jump\t// out\n        /* \"#utility.yul\":10113:10235   */\n    tag_146:\n        /* \"#utility.yul\":10186:10210   */\n      tag_287\n        /* \"#utility.yul\":10204:10209   */\n      dup2\n        /* \"#utility.yul\":10186:10210   */\n      tag_145\n      jump\t// in\n    tag_287:\n        /* \"#utility.yul\":10179:10184   */\n      dup2\n        /* \"#utility.yul\":10176:10211   */\n      eq\n        /* \"#utility.yul\":10166:10229   */\n      tag_288\n      jumpi\n        /* \"#utility.yul\":10225:10226   */\n      0x00\n        /* \"#utility.yul\":10222:10223   */\n      0x00\n        /* \"#utility.yul\":10215:10227   */\n      revert\n        /* \"#utility.yul\":10166:10229   */\n    tag_288:\n        /* \"#utility.yul\":10113:10235   */\n      pop\n      jump\t// out\n        /* \"#utility.yul\":10241:10380   */\n    tag_147:\n        /* \"#utility.yul\":10287:10292   */\n      0x00\n        /* \"#utility.yul\":10325:10331   */\n      dup2\n        /* \"#utility.yul\":10312:10332   */\n      calldataload\n        /* \"#utility.yul\":10303:10332   */\n      swap1\n      pop\n        /* \"#utility.yul\":10341:10374   */\n      tag_290\n        /* \"#utility.yul\":10368:10373   */\n      dup2\n        /* \"#utility.yul\":10341:10374   */\n      tag_146\n      jump\t// in\n    tag_290:\n        /* \"#utility.yul\":10241:10380   */\n      swap3\n      swap2\n      pop\n      pop\n      jump\t// out\n        /* \"#utility.yul\":10386:10472   */\n    tag_148:\n        /* \"#utility.yul\":10421:10428   */\n      0x00\n        /* \"#utility.yul\":10461:10465   */\n      0xff\n        /* \"#utility.yul\":10454:10459   */\n      dup3\n        /* \"#utility.yul\":10450:10466   */\n      and\n        /* \"#utility.yul\":10439:10466   */\n      swap1\n      pop\n        /* \"#utility.yul\":10386:10472   */\n      swap2\n      swap1\n      pop\n      jump\t// out\n        /* \"#utility.yul\":10478:10596   */\n    tag_149:\n        /* \"#utility.yul\":10549:10571   */\n      tag_293\n        /* \"#utility.yul\":10565:10570   */\n      dup2\n        /* \"#utility.yul\":10549:10571   */\n      tag_148\n      jump\t// in\n    tag_293:\n        /* \"#utility.yul\":10542:10547   */\n      dup2\n        /* \"#utility.yul\":10539:10572   */\n      eq\n        /* \"#utility.yul\":10529:10590   */\n      tag_294\n      jumpi\n        /* \"#utility.yul\":10586:10587   */\n      0x00\n        /* \"#utility.yul\":10583:10584   */\n      0x00\n        /* \"#utility.yul\":10576:10588   */\n      revert\n        /* \"#utility.yul\":10529:10590   */\n    tag_294:\n        /* \"#utility.yul\":10478:10596   */\n      pop\n      jump\t// out\n        /* \"#utility.yul\":10602:10737   */\n    tag_150:\n        /* \"#utility.yul\":10646:10651   */\n      0x00\n        /* \"#utility.yul\":10684:10690   */\n      dup2\n        /* \"#utility.yul\":10671:10691   */\n      calldataload\n        /* \"#utility.yul\":10662:10691   */\n      swap1\n      pop\n        /* \"#utility.yul\":10700:10731   */\n      tag_296\n        /* \"#utility.yul\":10725:10730   */\n      dup2\n        /* \"#utility.yul\":10700:10731   */\n      tag_149\n      jump\t// in\n    tag_296:\n        /* \"#utility.yul\":10602:10737   */\n      swap3\n      swap2\n      pop\n      pop\n      jump\t// out\n        /* \"#utility.yul\":10743:11504   */\n    tag_43:\n        /* \"#utility.yul\":10827:10833   */\n      0x00\n        /* \"#utility.yul\":10835:10841   */\n      0x00\n        /* \"#utility.yul\":10843:10849   */\n      0x00\n        /* \"#utility.yul\":10851:10857   */\n      0x00\n        /* \"#utility.yul\":10900:10903   */\n      0x80\n        /* \"#utility.yul\":10888:10897   */\n      dup6\n        /* \"#utility.yul\":10879:10886   */\n      dup8\n        /* \"#utility.yul\":10875:10898   */\n      sub\n        /* \"#utility.yul\":10871:10904   */\n      slt\n        /* \"#utility.yul\":10868:10988   */\n      iszero\n      tag_298\n      jumpi\n        /* \"#utility.yul\":10907:10986   */\n      tag_299\n      tag_115\n      jump\t// in\n    tag_299:\n        /* \"#utility.yul\":10868:10988   */\n    tag_298:\n        /* \"#utility.yul\":11027:11028   */\n      0x00\n        /* \"#utility.yul\":11052:11105   */\n      tag_300\n        /* \"#utility.yul\":11097:11104   */\n      dup8\n        /* \"#utility.yul\":11088:11094   */\n      dup3\n        /* \"#utility.yul\":11077:11086   */\n      dup9\n        /* \"#utility.yul\":11073:11095   */\n      add\n        /* \"#utility.yul\":11052:11105   */\n      tag_147\n      jump\t// in\n    tag_300:\n        /* \"#utility.yul\":11042:11105   */\n      swap5\n      pop\n        /* \"#utility.yul\":10998:11115   */\n      pop\n        /* \"#utility.yul\":11154:11156   */\n      0x20\n        /* \"#utility.yul\":11180:11231   */\n      tag_301\n        /* \"#utility.yul\":11223:11230   */\n      dup8\n        /* \"#utility.yul\":11214:11220   */\n      dup3\n        /* \"#utility.yul\":11203:11212   */\n      dup9\n        /* \"#utility.yul\":11199:11221   */\n      add\n        /* \"#utility.yul\":11180:11231   */\n      tag_150\n      jump\t// in\n    tag_301:\n        /* \"#utility.yul\":11170:11231   */\n      swap4\n      pop\n        /* \"#utility.yul\":11125:11241   */\n      pop\n        /* \"#utility.yul\":11280:11282   */\n      0x40\n        /* \"#utility.yul\":11306:11359   */\n      tag_302\n        /* \"#utility.yul\":11351:11358   */\n      dup8\n        /* \"#utility.yul\":11342:11348   */\n      dup3\n        /* \"#utility.yul\":11331:11340   */\n      dup9\n        /* \"#utility.yul\":11327:11349   */\n      add\n        /* \"#utility.yul\":11306:11359   */\n      tag_147\n      jump\t// in\n    tag_302:\n        /* \"#utility.yul\":11296:11359   */\n      swap3\n      pop\n        /* \"#utility.yul\":11251:11369   */\n      pop\n        /* \"#utility.yul\":11408:11410   */\n      0x60\n        /* \"#utility.yul\":11434:11487   */\n      tag_303\n        /* \"#utility.yul\":11479:11486   */\n      dup8\n        /* \"#utility.yul\":11470:11476   */\n      dup3\n        /* \"#utility.yul\":11459:11468   */\n      dup9\n        /* \"#utility.yul\":11455:11477   */\n      add\n        /* \"#utility.yul\":11434:11487   */\n      tag_147\n      jump\t// in\n    tag_303:\n        /* \"#utility.yul\":11424:11487   */\n      swap2\n      pop\n        /* \"#utility.yul\":11379:11497   */\n      pop\n        /* \"#utility.yul\":10743:11504   */\n      swap3\n      swap6\n      swap2\n      swap5\n      pop\n      swap3\n      pop\n      jump\t// out\n        /* \"#utility.yul\":11510:11628   */\n    tag_151:\n        /* \"#utility.yul\":11597:11621   */\n      tag_305\n        /* \"#utility.yul\":11615:11620   */\n      dup2\n        /* \"#utility.yul\":11597:11621   */\n      tag_137\n      jump\t// in\n    tag_305:\n        /* \"#utility.yul\":11592:11595   */\n      dup3\n        /* \"#utility.yul\":11585:11622   */\n      mstore\n        /* \"#utility.yul\":11510:11628   */\n      pop\n      pop\n      jump\t// out\n        /* \"#utility.yul\":11634:11856   */\n    tag_46:\n        /* \"#utility.yul\":11727:11731   */\n      0x00\n        /* \"#utility.yul\":11765:11767   */\n      0x20\n        /* \"#utility.yul\":11754:11763   */\n      dup3\n        /* \"#utility.yul\":11750:11768   */\n      add\n        /* \"#utility.yul\":11742:11768   */\n      swap1\n      pop\n        /* \"#utility.yul\":11778:11849   */\n      tag_307\n        /* \"#utility.yul\":11846:11847   */\n      0x00\n        /* \"#utility.yul\":11835:11844   */\n      dup4\n        /* \"#utility.yul\":11831:11848   */\n      add\n        /* \"#utility.yul\":11822:11828   */\n      dup5\n        /* \"#utility.yul\":11778:11849   */\n      tag_151\n      jump\t// in\n    tag_307:\n        /* \"#utility.yul\":11634:11856   */\n      swap3\n      swap2\n      pop\n      pop\n      jump\t// out\n        /* \"#utility.yul\":11862:12481   */\n    tag_49:\n        /* \"#utility.yul\":11939:11945   */\n      0x00\n        /* \"#utility.yul\":11947:11953   */\n      0x00\n        /* \"#utility.yul\":11955:11961   */\n      0x00\n        /* \"#utility.yul\":12004:12006   */\n      0x60\n        /* \"#utility.yul\":11992:12001   */\n      dup5\n        /* \"#utility.yul\":11983:11990   */\n      dup7\n        /* \"#utility.yul\":11979:12002   */\n      sub\n        /* \"#utility.yul\":11975:12007   */\n      slt\n        /* \"#utility.yul\":11972:12091   */\n      iszero\n      tag_309\n      jumpi\n        /* \"#utility.yul\":12010:12089   */\n      tag_310\n      tag_115\n      jump\t// in\n    tag_310:\n        /* \"#utility.yul\":11972:12091   */\n    tag_309:\n        /* \"#utility.yul\":12130:12131   */\n      0x00\n        /* \"#utility.yul\":12155:12208   */\n      tag_311\n        /* \"#utility.yul\":12200:12207   */\n      dup7\n        /* \"#utility.yul\":12191:12197   */\n      dup3\n        /* \"#utility.yul\":12180:12189   */\n      dup8\n        /* \"#utility.yul\":12176:12198   */\n      add\n        /* \"#utility.yul\":12155:12208   */\n      tag_141\n      jump\t// in\n    tag_311:\n        /* \"#utility.yul\":12145:12208   */\n      swap4\n      pop\n        /* \"#utility.yul\":12101:12218   */\n      pop\n        /* \"#utility.yul\":12257:12259   */\n      0x20\n        /* \"#utility.yul\":12283:12336   */\n      tag_312\n        /* \"#utility.yul\":12328:12335   */\n      dup7\n        /* \"#utility.yul\":12319:12325   */\n      dup3\n        /* \"#utility.yul\":12308:12317   */\n      dup8\n        /* \"#utility.yul\":12304:12326   */\n      add\n        /* \"#utility.yul\":12283:12336   */\n      tag_141\n      jump\t// in\n    tag_312:\n        /* \"#utility.yul\":12273:12336   */\n      swap3\n      pop\n        /* \"#utility.yul\":12228:12346   */\n      pop\n        /* \"#utility.yul\":12385:12387   */\n      0x40\n        /* \"#utility.yul\":12411:12464   */\n      tag_313\n        /* \"#utility.yul\":12456:12463   */\n      dup7\n        /* \"#utility.yul\":12447:12453   */\n      dup3\n        /* \"#utility.yul\":12436:12445   */\n      dup8\n        /* \"#utility.yul\":12432:12454   */\n      add\n        /* \"#utility.yul\":12411:12464   */\n      tag_141\n      jump\t// in\n    tag_313:\n        /* \"#utility.yul\":12401:12464   */\n      swap2\n      pop\n        /* \"#utility.yul\":12356:12474   */\n      pop\n        /* \"#utility.yul\":11862:12481   */\n      swap3\n      pop\n      swap3\n      pop\n      swap3\n      jump\t// out\n        /* \"#utility.yul\":12487:13040   */\n    tag_52:\n        /* \"#utility.yul\":12664:12668   */\n      0x00\n        /* \"#utility.yul\":12702:12705   */\n      0x80\n        /* \"#utility.yul\":12691:12700   */\n      dup3\n        /* \"#utility.yul\":12687:12706   */\n      add\n        /* \"#utility.yul\":12679:12706   */\n      swap1\n      pop\n        /* \"#utility.yul\":12716:12787   */\n      tag_315\n        /* \"#utility.yul\":12784:12785   */\n      0x00\n        /* \"#utility.yul\":12773:12782   */\n      dup4\n        /* \"#utility.yul\":12769:12786   */\n      add\n        /* \"#utility.yul\":12760:12766   */\n      dup8\n        /* \"#utility.yul\":12716:12787   */\n      tag_135\n      jump\t// in\n    tag_315:\n        /* \"#utility.yul\":12797:12869   */\n      tag_316\n        /* \"#utility.yul\":12865:12867   */\n      0x20\n        /* \"#utility.yul\":12854:12863   */\n      dup4\n        /* \"#utility.yul\":12850:12868   */\n      add\n        /* \"#utility.yul\":12841:12847   */\n      dup7\n        /* \"#utility.yul\":12797:12869   */\n      tag_135\n      jump\t// in\n    tag_316:\n        /* \"#utility.yul\":12879:12951   */\n      tag_317\n        /* \"#utility.yul\":12947:12949   */\n      0x40\n        /* \"#utility.yul\":12936:12945   */\n      dup4\n        /* \"#utility.yul\":12932:12950   */\n      add\n        /* \"#utility.yul\":12923:12929   */\n      dup6\n        /* \"#utility.yul\":12879:12951   */\n      tag_135\n      jump\t// in\n    tag_317:\n        /* \"#utility.yul\":12961:13033   */\n      tag_318\n        /* \"#utility.yul\":13029:13031   */\n      0x60\n        /* \"#utility.yul\":13018:13027   */\n      dup4\n        /* \"#utility.yul\":13014:13032   */\n      add\n        /* \"#utility.yul\":13005:13011   */\n      dup5\n        /* \"#utility.yul\":12961:13033   */\n      tag_135\n      jump\t// in\n    tag_318:\n        /* \"#utility.yul\":12487:13040   */\n      swap6\n      swap5\n      pop\n      pop\n      pop\n      pop\n      pop\n      jump\t// out\n        /* \"#utility.yul\":13046:13164   */\n    tag_152:\n        /* \"#utility.yul\":13133:13157   */\n      tag_320\n        /* \"#utility.yul\":13151:13156   */\n      dup2\n        /* \"#utility.yul\":13133:13157   */\n      tag_145\n      jump\t// in\n    tag_320:\n        /* \"#utility.yul\":13128:13131   */\n      dup3\n        /* \"#utility.yul\":13121:13158   */\n      mstore\n        /* \"#utility.yul\":13046:13164   */\n      pop\n      pop\n      jump\t// out\n        /* \"#utility.yul\":13170:13612   */\n    tag_57:\n        /* \"#utility.yul\":13319:13323   */\n      0x00\n        /* \"#utility.yul\":13357:13359   */\n      0x60\n        /* \"#utility.yul\":13346:13355   */\n      dup3\n        /* \"#utility.yul\":13342:13360   */\n      add\n        /* \"#utility.yul\":13334:13360   */\n      swap1\n      pop\n        /* \"#utility.yul\":13370:13441   */\n      tag_322\n        /* \"#utility.yul\":13438:13439   */\n      0x00\n        /* \"#utility.yul\":13427:13436   */\n      dup4\n        /* \"#utility.yul\":13423:13440   */\n      add\n        /* \"#utility.yul\":13414:13420   */\n      dup7\n        /* \"#utility.yul\":13370:13441   */\n      tag_152\n      jump\t// in\n    tag_322:\n        /* \"#utility.yul\":13451:13523   */\n      tag_323\n        /* \"#utility.yul\":13519:13521   */\n      0x20\n        /* \"#utility.yul\":13508:13517   */\n      dup4\n        /* \"#utility.yul\":13504:13522   */\n      add\n        /* \"#utility.yul\":13495:13501   */\n      dup6\n        /* \"#utility.yul\":13451:13523   */\n      tag_152\n      jump\t// in\n    tag_323:\n        /* \"#utility.yul\":13533:13605   */\n      tag_324\n        /* \"#utility.yul\":13601:13603   */\n      0x40\n        /* \"#utility.yul\":13590:13599   */\n      dup4\n        /* \"#utility.yul\":13586:13604   */\n      add\n        /* \"#utility.yul\":13577:13583   */\n      dup5\n        /* \"#utility.yul\":13533:13605   */\n      tag_152\n      jump\t// in\n    tag_324:\n        /* \"#utility.yul\":13170:13612   */\n      swap5\n      swap4\n      pop\n      pop\n      pop\n      pop\n      jump\t// out\n        /* \"#utility.yul\":13618:13840   */\n    tag_61:\n        /* \"#utility.yul\":13711:13715   */\n      0x00\n        /* \"#utility.yul\":13749:13751   */\n      0x20\n        /* \"#utility.yul\":13738:13747   */\n      dup3\n        /* \"#utility.yul\":13734:13752   */\n      add\n        /* \"#utility.yul\":13726:13752   */\n      swap1\n      pop\n        /* \"#utility.yul\":13762:13833   */\n      tag_326\n        /* \"#utility.yul\":13830:13831   */\n      0x00\n        /* \"#utility.yul\":13819:13828   */\n      dup4\n        /* \"#utility.yul\":13815:13832   */\n      add\n        /* \"#utility.yul\":13806:13812   */\n      dup5\n        /* \"#utility.yul\":13762:13833   */\n      tag_135\n      jump\t// in\n    tag_326:\n        /* \"#utility.yul\":13618:13840   */\n      swap3\n      swap2\n      pop\n      pop\n      jump\t// out\n        /* \"#utility.yul\":13846:14280   */\n    tag_153:\n        /* \"#utility.yul\":13935:13940   */\n      0x00\n        /* \"#utility.yul\":13960:14026   */\n      tag_328\n        /* \"#utility.yul\":13976:14025   */\n      tag_329\n        /* \"#utility.yul\":14018:14024   */\n      dup5\n        /* \"#utility.yul\":13976:14025   */\n      tag_123\n      jump\t// in\n    tag_329:\n        /* \"#utility.yul\":13960:14026   */\n      tag_122\n      jump\t// in\n    tag_328:\n        /* \"#utility.yul\":13951:14026   */\n      swap1\n      pop\n        /* \"#utility.yul\":14049:14055   */\n      dup3\n        /* \"#utility.yul\":14042:14047   */\n      dup2\n        /* \"#utility.yul\":14035:14056   */\n      mstore\n        /* \"#utility.yul\":14087:14091   */\n      0x20\n        /* \"#utility.yul\":14080:14085   */\n      dup2\n        /* \"#utility.yul\":14076:14092   */\n      add\n        /* \"#utility.yul\":14125:14128   */\n      dup5\n        /* \"#utility.yul\":14116:14122   */\n      dup5\n        /* \"#utility.yul\":14111:14114   */\n      dup5\n        /* \"#utility.yul\":14107:14123   */\n      add\n        /* \"#utility.yul\":14104:14129   */\n      gt\n        /* \"#utility.yul\":14101:14213   */\n      iszero\n      tag_330\n      jumpi\n        /* \"#utility.yul\":14132:14211   */\n      tag_331\n      tag_118\n      jump\t// in\n    tag_331:\n        /* \"#utility.yul\":14101:14213   */\n    tag_330:\n        /* \"#utility.yul\":14222:14274   */\n      tag_332\n        /* \"#utility.yul\":14267:14273   */\n      dup5\n        /* \"#utility.yul\":14262:14265   */\n      dup3\n        /* \"#utility.yul\":14257:14260   */\n      dup6\n        /* \"#utility.yul\":14222:14274   */\n      tag_132\n      jump\t// in\n    tag_332:\n        /* \"#utility.yul\":13941:14280   */\n      pop\n        /* \"#utility.yul\":13846:14280   */\n      swap4\n      swap3\n      pop\n      pop\n      pop\n      jump\t// out\n        /* \"#utility.yul\":14300:14655   */\n    tag_154:\n        /* \"#utility.yul\":14367:14372   */\n      0x00\n        /* \"#utility.yul\":14416:14419   */\n      dup3\n        /* \"#utility.yul\":14409:14413   */\n      0x1f\n        /* \"#utility.yul\":14401:14407   */\n      dup4\n        /* \"#utility.yul\":14397:14414   */\n      add\n        /* \"#utility.yul\":14393:14420   */\n      slt\n        /* \"#utility.yul\":14383:14505   */\n      tag_334\n      jumpi\n        /* \"#utility.yul\":14424:14503   */\n      tag_335\n      tag_117\n      jump\t// in\n    tag_335:\n        /* \"#utility.yul\":14383:14505   */\n    tag_334:\n        /* \"#utility.yul\":14534:14540   */\n      dup2\n        /* \"#utility.yul\":14528:14541   */\n      mload\n        /* \"#utility.yul\":14559:14649   */\n      tag_336\n        /* \"#utility.yul\":14645:14648   */\n      dup5\n        /* \"#utility.yul\":14637:14643   */\n      dup3\n        /* \"#utility.yul\":14630:14634   */\n      0x20\n        /* \"#utility.yul\":14622:14628   */\n      dup7\n        /* \"#utility.yul\":14618:14635   */\n      add\n        /* \"#utility.yul\":14559:14649   */\n      tag_153\n      jump\t// in\n    tag_336:\n        /* \"#utility.yul\":14550:14649   */\n      swap2\n      pop\n        /* \"#utility.yul\":14373:14655   */\n      pop\n        /* \"#utility.yul\":14300:14655   */\n      swap3\n      swap2\n      pop\n      pop\n      jump\t// out\n        /* \"#utility.yul\":14661:14804   */\n    tag_155:\n        /* \"#utility.yul\":14718:14723   */\n      0x00\n        /* \"#utility.yul\":14749:14755   */\n      dup2\n        /* \"#utility.yul\":14743:14756   */\n      mload\n        /* \"#utility.yul\":14734:14756   */\n      swap1\n      pop\n        /* \"#utility.yul\":14765:14798   */\n      tag_338\n        /* \"#utility.yul\":14792:14797   */\n      dup2\n        /* \"#utility.yul\":14765:14798   */\n      tag_140\n      jump\t// in\n    tag_338:\n        /* \"#utility.yul\":14661:14804   */\n      swap3\n      swap2\n      pop\n      pop\n      jump\t// out\n        /* \"#utility.yul\":14810:15490   */\n    tag_69:\n        /* \"#utility.yul\":14899:14905   */\n      0x00\n        /* \"#utility.yul\":14907:14913   */\n      0x00\n        /* \"#utility.yul\":14956:14958   */\n      0x40\n        /* \"#utility.yul\":14944:14953   */\n      dup4\n        /* \"#utility.yul\":14935:14942   */\n      dup6\n        /* \"#utility.yul\":14931:14954   */\n      sub\n        /* \"#utility.yul\":14927:14959   */\n      slt\n        /* \"#utility.yul\":14924:15043   */\n      iszero\n      tag_340\n      jumpi\n        /* \"#utility.yul\":14962:15041   */\n      tag_341\n      tag_115\n      jump\t// in\n    tag_341:\n        /* \"#utility.yul\":14924:15043   */\n    tag_340:\n        /* \"#utility.yul\":15103:15104   */\n      0x00\n        /* \"#utility.yul\":15092:15101   */\n      dup4\n        /* \"#utility.yul\":15088:15105   */\n      add\n        /* \"#utility.yul\":15082:15106   */\n      mload\n        /* \"#utility.yul\":15133:15151   */\n      0xffffffffffffffff\n        /* \"#utility.yul\":15125:15131   */\n      dup2\n        /* \"#utility.yul\":15122:15152   */\n      gt\n        /* \"#utility.yul\":15119:15236   */\n      iszero\n      tag_342\n      jumpi\n        /* \"#utility.yul\":15155:15234   */\n      tag_343\n      tag_116\n      jump\t// in\n    tag_343:\n        /* \"#utility.yul\":15119:15236   */\n    tag_342:\n        /* \"#utility.yul\":15260:15334   */\n      tag_344\n        /* \"#utility.yul\":15326:15333   */\n      dup6\n        /* \"#utility.yul\":15317:15323   */\n      dup3\n        /* \"#utility.yul\":15306:15315   */\n      dup7\n        /* \"#utility.yul\":15302:15324   */\n      add\n        /* \"#utility.yul\":15260:15334   */\n      tag_154\n      jump\t// in\n    tag_344:\n        /* \"#utility.yul\":15250:15334   */\n      swap3\n      pop\n        /* \"#utility.yul\":15053:15344   */\n      pop\n        /* \"#utility.yul\":15383:15385   */\n      0x20\n        /* \"#utility.yul\":15409:15473   */\n      tag_345\n        /* \"#utility.yul\":15465:15472   */\n      dup6\n        /* \"#utility.yul\":15456:15462   */\n      dup3\n        /* \"#utility.yul\":15445:15454   */\n      dup7\n        /* \"#utility.yul\":15441:15463   */\n      add\n        /* \"#utility.yul\":15409:15473   */\n      tag_155\n      jump\t// in\n    tag_345:\n        /* \"#utility.yul\":15399:15473   */\n      swap2\n      pop\n        /* \"#utility.yul\":15354:15483   */\n      pop\n        /* \"#utility.yul\":14810:15490   */\n      swap3\n      pop\n      swap3\n      swap1\n      pop\n      jump\t// out\n        /* \"#utility.yul\":15496:15644   */\n    tag_156:\n        /* \"#utility.yul\":15598:15609   */\n      0x00\n        /* \"#utility.yul\":15635:15638   */\n      dup2\n        /* \"#utility.yul\":15620:15638   */\n      swap1\n      pop\n        /* \"#utility.yul\":15496:15644   */\n      swap3\n      swap2\n      pop\n      pop\n      jump\t// out\n        /* \"#utility.yul\":15650:16040   */\n    tag_157:\n        /* \"#utility.yul\":15756:15759   */\n      0x00\n        /* \"#utility.yul\":15784:15823   */\n      tag_348\n        /* \"#utility.yul\":15817:15822   */\n      dup3\n        /* \"#utility.yul\":15784:15823   */\n      tag_130\n      jump\t// in\n    tag_348:\n        /* \"#utility.yul\":15839:15928   */\n      tag_349\n        /* \"#utility.yul\":15921:15927   */\n      dup2\n        /* \"#utility.yul\":15916:15919   */\n      dup6\n        /* \"#utility.yul\":15839:15928   */\n      tag_156\n      jump\t// in\n    tag_349:\n        /* \"#utility.yul\":15832:15928   */\n      swap4\n      pop\n        /* \"#utility.yul\":15937:16002   */\n      tag_350\n        /* \"#utility.yul\":15995:16001   */\n      dup2\n        /* \"#utility.yul\":15990:15993   */\n      dup6\n        /* \"#utility.yul\":15983:15987   */\n      0x20\n        /* \"#utility.yul\":15976:15981   */\n      dup7\n        /* \"#utility.yul\":15972:15988   */\n      add\n        /* \"#utility.yul\":15937:16002   */\n      tag_132\n      jump\t// in\n    tag_350:\n        /* \"#utility.yul\":16027:16033   */\n      dup1\n        /* \"#utility.yul\":16022:16025   */\n      dup5\n        /* \"#utility.yul\":16018:16034   */\n      add\n        /* \"#utility.yul\":16011:16034   */\n      swap2\n      pop\n        /* \"#utility.yul\":15760:16040   */\n      pop\n        /* \"#utility.yul\":15650:16040   */\n      swap3\n      swap2\n      pop\n      pop\n      jump\t// out\n        /* \"#utility.yul\":16046:16125   */\n    tag_158:\n        /* \"#utility.yul\":16085:16092   */\n      0x00\n        /* \"#utility.yul\":16114:16119   */\n      dup2\n        /* \"#utility.yul\":16103:16119   */\n      swap1\n      pop\n        /* \"#utility.yul\":16046:16125   */\n      swap2\n      swap1\n      pop\n      jump\t// out\n        /* \"#utility.yul\":16131:16288   */\n    tag_159:\n        /* \"#utility.yul\":16236:16281   */\n      tag_353\n        /* \"#utility.yul\":16256:16280   */\n      tag_354\n        /* \"#utility.yul\":16274:16279   */\n      dup3\n        /* \"#utility.yul\":16256:16280   */\n      tag_134\n      jump\t// in\n    tag_354:\n        /* \"#utility.yul\":16236:16281   */\n      tag_158\n      jump\t// in\n    tag_353:\n        /* \"#utility.yul\":16231:16234   */\n      dup3\n        /* \"#utility.yul\":16224:16282   */\n      mstore\n        /* \"#utility.yul\":16131:16288   */\n      pop\n      pop\n      jump\t// out\n        /* \"#utility.yul\":16294:16710   */\n    tag_74:\n        /* \"#utility.yul\":16454:16457   */\n      0x00\n        /* \"#utility.yul\":16476:16571   */\n      tag_356\n        /* \"#utility.yul\":16567:16570   */\n      dup3\n        /* \"#utility.yul\":16558:16564   */\n      dup6\n        /* \"#utility.yul\":16476:16571   */\n      tag_157\n      jump\t// in\n    tag_356:\n        /* \"#utility.yul\":16469:16571   */\n      swap2\n      pop\n        /* \"#utility.yul\":16581:16656   */\n      tag_357\n        /* \"#utility.yul\":16652:16655   */\n      dup3\n        /* \"#utility.yul\":16643:16649   */\n      dup5\n        /* \"#utility.yul\":16581:16656   */\n      tag_159\n      jump\t// in\n    tag_357:\n        /* \"#utility.yul\":16681:16683   */\n      0x20\n        /* \"#utility.yul\":16676:16679   */\n      dup3\n        /* \"#utility.yul\":16672:16684   */\n      add\n        /* \"#utility.yul\":16665:16684   */\n      swap2\n      pop\n        /* \"#utility.yul\":16701:16704   */\n      dup2\n        /* \"#utility.yul\":16694:16704   */\n      swap1\n      pop\n        /* \"#utility.yul\":16294:16710   */\n      swap4\n      swap3\n      pop\n      pop\n      pop\n      jump\t// out\n        /* \"#utility.yul\":16716:16828   */\n    tag_160:\n        /* \"#utility.yul\":16799:16821   */\n      tag_359\n        /* \"#utility.yul\":16815:16820   */\n      dup2\n        /* \"#utility.yul\":16799:16821   */\n      tag_148\n      jump\t// in\n    tag_359:\n        /* \"#utility.yul\":16794:16797   */\n      dup3\n        /* \"#utility.yul\":16787:16822   */\n      mstore\n        /* \"#utility.yul\":16716:16828   */\n      pop\n      pop\n      jump\t// out\n        /* \"#utility.yul\":16834:17379   */\n    tag_77:\n        /* \"#utility.yul\":17007:17011   */\n      0x00\n        /* \"#utility.yul\":17045:17048   */\n      0x80\n        /* \"#utility.yul\":17034:17043   */\n      dup3\n        /* \"#utility.yul\":17030:17049   */\n      add\n        /* \"#utility.yul\":17022:17049   */\n      swap1\n      pop\n        /* \"#utility.yul\":17059:17130   */\n      tag_361\n        /* \"#utility.yul\":17127:17128   */\n      0x00\n        /* \"#utility.yul\":17116:17125   */\n      dup4\n        /* \"#utility.yul\":17112:17129   */\n      add\n        /* \"#utility.yul\":17103:17109   */\n      dup8\n        /* \"#utility.yul\":17059:17130   */\n      tag_152\n      jump\t// in\n    tag_361:\n        /* \"#utility.yul\":17140:17208   */\n      tag_362\n        /* \"#utility.yul\":17204:17206   */\n      0x20\n        /* \"#utility.yul\":17193:17202   */\n      dup4\n        /* \"#utility.yul\":17189:17207   */\n      add\n        /* \"#utility.yul\":17180:17186   */\n      dup7\n        /* \"#utility.yul\":17140:17208   */\n      tag_160\n      jump\t// in\n    tag_362:\n        /* \"#utility.yul\":17218:17290   */\n      tag_363\n        /* \"#utility.yul\":17286:17288   */\n      0x40\n        /* \"#utility.yul\":17275:17284   */\n      dup4\n        /* \"#utility.yul\":17271:17289   */\n      add\n        /* \"#utility.yul\":17262:17268   */\n      dup6\n        /* \"#utility.yul\":17218:17290   */\n      tag_152\n      jump\t// in\n    tag_363:\n        /* \"#utility.yul\":17300:17372   */\n      tag_364\n        /* \"#utility.yul\":17368:17370   */\n      0x60\n        /* \"#utility.yul\":17357:17366   */\n      dup4\n        /* \"#utility.yul\":17353:17371   */\n      add\n        /* \"#utility.yul\":17344:17350   */\n      dup5\n        /* \"#utility.yul\":17300:17372   */\n      tag_152\n      jump\t// in\n    tag_364:\n        /* \"#utility.yul\":16834:17379   */\n      swap6\n      swap5\n      pop\n      pop\n      pop\n      pop\n      pop\n      jump\t// out\n        /* \"#utility.yul\":17385:17565   */\n    tag_161:\n        /* \"#utility.yul\":17433:17510   */\n      0x4e487b7100000000000000000000000000000000000000000000000000000000\n        /* \"#utility.yul\":17430:17431   */\n      0x00\n        /* \"#utility.yul\":17423:17511   */\n      mstore\n        /* \"#utility.yul\":17530:17534   */\n      0x11\n        /* \"#utility.yul\":17527:17528   */\n      0x04\n        /* \"#utility.yul\":17520:17535   */\n      mstore\n        /* \"#utility.yul\":17554:17558   */\n      0x24\n        /* \"#utility.yul\":17551:17552   */\n      0x00\n        /* \"#utility.yul\":17544:17559   */\n      revert\n        /* \"#utility.yul\":17571:17762   */\n    tag_82:\n        /* \"#utility.yul\":17611:17614   */\n      0x00\n        /* \"#utility.yul\":17630:17650   */\n      tag_367\n        /* \"#utility.yul\":17648:17649   */\n      dup3\n        /* \"#utility.yul\":17630:17650   */\n      tag_134\n      jump\t// in\n    tag_367:\n        /* \"#utility.yul\":17625:17650   */\n      swap2\n      pop\n        /* \"#utility.yul\":17664:17684   */\n      tag_368\n        /* \"#utility.yul\":17682:17683   */\n      dup4\n        /* \"#utility.yul\":17664:17684   */\n      tag_134\n      jump\t// in\n    tag_368:\n        /* \"#utility.yul\":17659:17684   */\n      swap3\n      pop\n        /* \"#utility.yul\":17707:17708   */\n      dup3\n        /* \"#utility.yul\":17704:17705   */\n      dup3\n        /* \"#utility.yul\":17700:17709   */\n      add\n        /* \"#utility.yul\":17693:17709   */\n      swap1\n      pop\n        /* \"#utility.yul\":17728:17731   */\n      dup1\n        /* \"#utility.yul\":17725:17726   */\n      dup3\n        /* \"#utility.yul\":17722:17732   */\n      gt\n        /* \"#utility.yul\":17719:17755   */\n      iszero\n      tag_369\n      jumpi\n        /* \"#utility.yul\":17735:17753   */\n      tag_370\n      tag_161\n      jump\t// in\n    tag_370:\n        /* \"#utility.yul\":17719:17755   */\n    tag_369:\n        /* \"#utility.yul\":17571:17762   */\n      swap3\n      swap2\n      pop\n      pop\n      jump\t// out\n        /* \"#utility.yul\":17768:17948   */\n    tag_87:\n        /* \"#utility.yul\":17816:17893   */\n      0x4e487b7100000000000000000000000000000000000000000000000000000000\n        /* \"#utility.yul\":17813:17814   */\n      0x00\n        /* \"#utility.yul\":17806:17894   */\n      mstore\n        /* \"#utility.yul\":17913:17917   */\n      0x12\n        /* \"#utility.yul\":17910:17911   */\n      0x04\n        /* \"#utility.yul\":17903:17918   */\n      mstore\n        /* \"#utility.yul\":17937:17941   */\n      0x24\n        /* \"#utility.yul\":17934:17935   */\n      0x00\n        /* \"#utility.yul\":17927:17942   */\n      revert\n        /* \"#utility.yul\":17954:18130   */\n    tag_84:\n        /* \"#utility.yul\":17986:17987   */\n      0x00\n        /* \"#utility.yul\":18003:18023   */\n      tag_373\n        /* \"#utility.yul\":18021:18022   */\n      dup3\n        /* \"#utility.yul\":18003:18023   */\n      tag_134\n      jump\t// in\n    tag_373:\n        /* \"#utility.yul\":17998:18023   */\n      swap2\n      pop\n        /* \"#utility.yul\":18037:18057   */\n      tag_374\n        /* \"#utility.yul\":18055:18056   */\n      dup4\n        /* \"#utility.yul\":18037:18057   */\n      tag_134\n      jump\t// in\n    tag_374:\n        /* \"#utility.yul\":18032:18057   */\n      swap3\n      pop\n        /* \"#utility.yul\":18076:18077   */\n      dup3\n        /* \"#utility.yul\":18066:18101   */\n      tag_375\n      jumpi\n        /* \"#utility.yul\":18081:18099   */\n      tag_376\n      tag_87\n      jump\t// in\n    tag_376:\n        /* \"#utility.yul\":18066:18101   */\n    tag_375:\n        /* \"#utility.yul\":18122:18123   */\n      dup3\n        /* \"#utility.yul\":18119:18120   */\n      dup3\n        /* \"#utility.yul\":18115:18124   */\n      mod\n        /* \"#utility.yul\":18110:18124   */\n      swap1\n      pop\n        /* \"#utility.yul\":17954:18130   */\n      swap3\n      swap2\n      pop\n      pop\n      jump\t// out\n        /* \"#utility.yul\":18136:18546   */\n    tag_89:\n        /* \"#utility.yul\":18176:18183   */\n      0x00\n        /* \"#utility.yul\":18199:18219   */\n      tag_378\n        /* \"#utility.yul\":18217:18218   */\n      dup3\n        /* \"#utility.yul\":18199:18219   */\n      tag_134\n      jump\t// in\n    tag_378:\n        /* \"#utility.yul\":18194:18219   */\n      swap2\n      pop\n        /* \"#utility.yul\":18233:18253   */\n      tag_379\n        /* \"#utility.yul\":18251:18252   */\n      dup4\n        /* \"#utility.yul\":18233:18253   */\n      tag_134\n      jump\t// in\n    tag_379:\n        /* \"#utility.yul\":18228:18253   */\n      swap3\n      pop\n        /* \"#utility.yul\":18288:18289   */\n      dup3\n        /* \"#utility.yul\":18285:18286   */\n      dup3\n        /* \"#utility.yul\":18281:18290   */\n      mul\n        /* \"#utility.yul\":18310:18340   */\n      tag_380\n        /* \"#utility.yul\":18328:18339   */\n      dup2\n        /* \"#utility.yul\":18310:18340   */\n      tag_134\n      jump\t// in\n    tag_380:\n        /* \"#utility.yul\":18299:18340   */\n      swap2\n      pop\n        /* \"#utility.yul\":18489:18490   */\n      dup3\n        /* \"#utility.yul\":18480:18487   */\n      dup3\n        /* \"#utility.yul\":18476:18491   */\n      div\n        /* \"#utility.yul\":18473:18474   */\n      dup5\n        /* \"#utility.yul\":18470:18492   */\n      eq\n        /* \"#utility.yul\":18450:18451   */\n      dup4\n        /* \"#utility.yul\":18443:18452   */\n      iszero\n        /* \"#utility.yul\":18423:18506   */\n      or\n        /* \"#utility.yul\":18400:18539   */\n      tag_381\n      jumpi\n        /* \"#utility.yul\":18519:18537   */\n      tag_382\n      tag_161\n      jump\t// in\n    tag_382:\n        /* \"#utility.yul\":18400:18539   */\n    tag_381:\n        /* \"#utility.yul\":18184:18546   */\n      pop\n        /* \"#utility.yul\":18136:18546   */\n      swap3\n      swap2\n      pop\n      pop\n      jump\t// out\n        /* \"#utility.yul\":18552:18827   */\n    tag_95:\n        /* \"#utility.yul\":18684:18687   */\n      0x00\n        /* \"#utility.yul\":18706:18801   */\n      tag_384\n        /* \"#utility.yul\":18797:18800   */\n      dup3\n        /* \"#utility.yul\":18788:18794   */\n      dup5\n        /* \"#utility.yul\":18706:18801   */\n      tag_157\n      jump\t// in\n    tag_384:\n        /* \"#utility.yul\":18699:18801   */\n      swap2\n      pop\n        /* \"#utility.yul\":18818:18821   */\n      dup2\n        /* \"#utility.yul\":18811:18821   */\n      swap1\n      pop\n        /* \"#utility.yul\":18552:18827   */\n      swap3\n      swap2\n      pop\n      pop\n      jump\t// out\n        /* \"#utility.yul\":18833:18980   */\n    tag_162:\n        /* \"#utility.yul\":18934:18945   */\n      0x00\n        /* \"#utility.yul\":18971:18974   */\n      dup2\n        /* \"#utility.yul\":18956:18974   */\n      swap1\n      pop\n        /* \"#utility.yul\":18833:18980   */\n      swap3\n      swap2\n      pop\n      pop\n      jump\t// out\n        /* \"#utility.yul\":18986:19372   */\n    tag_163:\n        /* \"#utility.yul\":19090:19093   */\n      0x00\n        /* \"#utility.yul\":19118:19156   */\n      tag_387\n        /* \"#utility.yul\":19150:19155   */\n      dup3\n        /* \"#utility.yul\":19118:19156   */\n      tag_142\n      jump\t// in\n    tag_387:\n        /* \"#utility.yul\":19172:19260   */\n      tag_388\n        /* \"#utility.yul\":19253:19259   */\n      dup2\n        /* \"#utility.yul\":19248:19251   */\n      dup6\n        /* \"#utility.yul\":19172:19260   */\n      tag_162\n      jump\t// in\n    tag_388:\n        /* \"#utility.yul\":19165:19260   */\n      swap4\n      pop\n        /* \"#utility.yul\":19269:19334   */\n      tag_389\n        /* \"#utility.yul\":19327:19333   */\n      dup2\n        /* \"#utility.yul\":19322:19325   */\n      dup6\n        /* \"#utility.yul\":19315:19319   */\n      0x20\n        /* \"#utility.yul\":19308:19313   */\n      dup7\n        /* \"#utility.yul\":19304:19320   */\n      add\n        /* \"#utility.yul\":19269:19334   */\n      tag_132\n      jump\t// in\n    tag_389:\n        /* \"#utility.yul\":19359:19365   */\n      dup1\n        /* \"#utility.yul\":19354:19357   */\n      dup5\n        /* \"#utility.yul\":19350:19366   */\n      add\n        /* \"#utility.yul\":19343:19366   */\n      swap2\n      pop\n        /* \"#utility.yul\":19094:19372   */\n      pop\n        /* \"#utility.yul\":18986:19372   */\n      swap3\n      swap2\n      pop\n      pop\n      jump\t// out\n        /* \"#utility.yul\":19378:19649   */\n    tag_97:\n        /* \"#utility.yul\":19508:19511   */\n      0x00\n        /* \"#utility.yul\":19530:19623   */\n      tag_391\n        /* \"#utility.yul\":19619:19622   */\n      dup3\n        /* \"#utility.yul\":19610:19616   */\n      dup5\n        /* \"#utility.yul\":19530:19623   */\n      tag_163\n      jump\t// in\n    tag_391:\n        /* \"#utility.yul\":19523:19623   */\n      swap2\n      pop\n        /* \"#utility.yul\":19640:19643   */\n      dup2\n        /* \"#utility.yul\":19633:19643   */\n      swap1\n      pop\n        /* \"#utility.yul\":19378:19649   */\n      swap3\n      swap2\n      pop\n      pop\n      jump\t// out\n        /* \"#utility.yul\":19655:19798   */\n    tag_164:\n        /* \"#utility.yul\":19712:19717   */\n      0x00\n        /* \"#utility.yul\":19743:19749   */\n      dup2\n        /* \"#utility.yul\":19737:19750   */\n      mload\n        /* \"#utility.yul\":19728:19750   */\n      swap1\n      pop\n        /* \"#utility.yul\":19759:19792   */\n      tag_393\n        /* \"#utility.yul\":19786:19791   */\n      dup2\n        /* \"#utility.yul\":19759:19792   */\n      tag_146\n      jump\t// in\n    tag_393:\n        /* \"#utility.yul\":19655:19798   */\n      swap3\n      swap2\n      pop\n      pop\n      jump\t// out\n        /* \"#utility.yul\":19804:20155   */\n    tag_101:\n        /* \"#utility.yul\":19874:19880   */\n      0x00\n        /* \"#utility.yul\":19923:19925   */\n      0x20\n        /* \"#utility.yul\":19911:19920   */\n      dup3\n        /* \"#utility.yul\":19902:19909   */\n      dup5\n        /* \"#utility.yul\":19898:19921   */\n      sub\n        /* \"#utility.yul\":19894:19926   */\n      slt\n        /* \"#utility.yul\":19891:20010   */\n      iszero\n      tag_395\n      jumpi\n        /* \"#utility.yul\":19929:20008   */\n      tag_396\n      tag_115\n      jump\t// in\n    tag_396:\n        /* \"#utility.yul\":19891:20010   */\n    tag_395:\n        /* \"#utility.yul\":20049:20050   */\n      0x00\n        /* \"#utility.yul\":20074:20138   */\n      tag_397\n        /* \"#utility.yul\":20130:20137   */\n      dup5\n        /* \"#utility.yul\":20121:20127   */\n      dup3\n        /* \"#utility.yul\":20110:20119   */\n      dup6\n        /* \"#utility.yul\":20106:20128   */\n      add\n        /* \"#utility.yul\":20074:20138   */\n      tag_164\n      jump\t// in\n    tag_397:\n        /* \"#utility.yul\":20064:20138   */\n      swap2\n      pop\n        /* \"#utility.yul\":20020:20148   */\n      pop\n        /* \"#utility.yul\":19804:20155   */\n      swap3\n      swap2\n      pop\n      pop\n      jump\t// out\n        /* \"#utility.yul\":20161:20255   */\n    tag_165:\n        /* \"#utility.yul\":20194:20202   */\n      0x00\n        /* \"#utility.yul\":20242:20247   */\n      dup2\n        /* \"#utility.yul\":20238:20240   */\n      0x60\n        /* \"#utility.yul\":20234:20248   */\n      shl\n        /* \"#utility.yul\":20213:20248   */\n      swap1\n      pop\n        /* \"#utility.yul\":20161:20255   */\n      swap2\n      swap1\n      pop\n      jump\t// out\n        /* \"#utility.yul\":20261:20355   */\n    tag_166:\n        /* \"#utility.yul\":20300:20307   */\n      0x00\n        /* \"#utility.yul\":20329:20349   */\n      tag_400\n        /* \"#utility.yul\":20343:20348   */\n      dup3\n        /* \"#utility.yul\":20329:20349   */\n      tag_165\n      jump\t// in\n    tag_400:\n        /* \"#utility.yul\":20318:20349   */\n      swap1\n      pop\n        /* \"#utility.yul\":20261:20355   */\n      swap2\n      swap1\n      pop\n      jump\t// out\n        /* \"#utility.yul\":20361:20461   */\n    tag_167:\n        /* \"#utility.yul\":20400:20407   */\n      0x00\n        /* \"#utility.yul\":20429:20455   */\n      tag_402\n        /* \"#utility.yul\":20449:20454   */\n      dup3\n        /* \"#utility.yul\":20429:20455   */\n      tag_166\n      jump\t// in\n    tag_402:\n        /* \"#utility.yul\":20418:20455   */\n      swap1\n      pop\n        /* \"#utility.yul\":20361:20461   */\n      swap2\n      swap1\n      pop\n      jump\t// out\n        /* \"#utility.yul\":20467:20624   */\n    tag_168:\n        /* \"#utility.yul\":20572:20617   */\n      tag_404\n        /* \"#utility.yul\":20592:20616   */\n      tag_405\n        /* \"#utility.yul\":20610:20615   */\n      dup3\n        /* \"#utility.yul\":20592:20616   */\n      tag_137\n      jump\t// in\n    tag_405:\n        /* \"#utility.yul\":20572:20617   */\n      tag_167\n      jump\t// in\n    tag_404:\n        /* \"#utility.yul\":20567:20570   */\n      dup3\n        /* \"#utility.yul\":20560:20618   */\n      mstore\n        /* \"#utility.yul\":20467:20624   */\n      pop\n      pop\n      jump\t// out\n        /* \"#utility.yul\":20630:21027   */\n    tag_107:\n        /* \"#utility.yul\":20770:20773   */\n      0x00\n        /* \"#utility.yul\":20785:20860   */\n      tag_407\n        /* \"#utility.yul\":20856:20859   */\n      dup3\n        /* \"#utility.yul\":20847:20853   */\n      dup6\n        /* \"#utility.yul\":20785:20860   */\n      tag_159\n      jump\t// in\n    tag_407:\n        /* \"#utility.yul\":20885:20887   */\n      0x20\n        /* \"#utility.yul\":20880:20883   */\n      dup3\n        /* \"#utility.yul\":20876:20888   */\n      add\n        /* \"#utility.yul\":20869:20888   */\n      swap2\n      pop\n        /* \"#utility.yul\":20898:20973   */\n      tag_408\n        /* \"#utility.yul\":20969:20972   */\n      dup3\n        /* \"#utility.yul\":20960:20966   */\n      dup5\n        /* \"#utility.yul\":20898:20973   */\n      tag_168\n      jump\t// in\n    tag_408:\n        /* \"#utility.yul\":20998:21000   */\n      0x14\n        /* \"#utility.yul\":20993:20996   */\n      dup3\n        /* \"#utility.yul\":20989:21001   */\n      add\n        /* \"#utility.yul\":20982:21001   */\n      swap2\n      pop\n        /* \"#utility.yul\":21018:21021   */\n      dup2\n        /* \"#utility.yul\":21011:21021   */\n      swap1\n      pop\n        /* \"#utility.yul\":20630:21027   */\n      swap4\n      swap3\n      pop\n      pop\n      pop\n      jump\t// out\n        /* \"#utility.yul\":21033:21120   */\n    tag_169:\n        /* \"#utility.yul\":21080:21087   */\n      0x00\n        /* \"#utility.yul\":21109:21114   */\n      dup2\n        /* \"#utility.yul\":21098:21114   */\n      swap1\n      pop\n        /* \"#utility.yul\":21033:21120   */\n      swap2\n      swap1\n      pop\n      jump\t// out\n        /* \"#utility.yul\":21126:21186   */\n    tag_170:\n        /* \"#utility.yul\":21154:21157   */\n      0x00\n        /* \"#utility.yul\":21175:21180   */\n      dup2\n        /* \"#utility.yul\":21168:21180   */\n      swap1\n      pop\n        /* \"#utility.yul\":21126:21186   */\n      swap2\n      swap1\n      pop\n      jump\t// out\n        /* \"#utility.yul\":21192:21350   */\n    tag_171:\n        /* \"#utility.yul\":21250:21259   */\n      0x00\n        /* \"#utility.yul\":21283:21344   */\n      tag_412\n        /* \"#utility.yul\":21299:21343   */\n      tag_413\n        /* \"#utility.yul\":21308:21342   */\n      tag_414\n        /* \"#utility.yul\":21336:21341   */\n      dup5\n        /* \"#utility.yul\":21308:21342   */\n      tag_169\n      jump\t// in\n    tag_414:\n        /* \"#utility.yul\":21299:21343   */\n      tag_170\n      jump\t// in\n    tag_413:\n        /* \"#utility.yul\":21283:21344   */\n      tag_148\n      jump\t// in\n    tag_412:\n        /* \"#utility.yul\":21270:21344   */\n      swap1\n      pop\n        /* \"#utility.yul\":21192:21350   */\n      swap2\n      swap1\n      pop\n      jump\t// out\n        /* \"#utility.yul\":21356:21503   */\n    tag_172:\n        /* \"#utility.yul\":21451:21496   */\n      tag_416\n        /* \"#utility.yul\":21490:21495   */\n      dup2\n        /* \"#utility.yul\":21451:21496   */\n      tag_171\n      jump\t// in\n    tag_416:\n        /* \"#utility.yul\":21446:21449   */\n      dup3\n        /* \"#utility.yul\":21439:21497   */\n      mstore\n        /* \"#utility.yul\":21356:21503   */\n      pop\n      pop\n      jump\t// out\n        /* \"#utility.yul\":21509:21857   */\n    tag_111:\n        /* \"#utility.yul\":21638:21642   */\n      0x00\n        /* \"#utility.yul\":21676:21678   */\n      0x40\n        /* \"#utility.yul\":21665:21674   */\n      dup3\n        /* \"#utility.yul\":21661:21679   */\n      add\n        /* \"#utility.yul\":21653:21679   */\n      swap1\n      pop\n        /* \"#utility.yul\":21689:21760   */\n      tag_418\n        /* \"#utility.yul\":21757:21758   */\n      0x00\n        /* \"#utility.yul\":21746:21755   */\n      dup4\n        /* \"#utility.yul\":21742:21759   */\n      add\n        /* \"#utility.yul\":21733:21739   */\n      dup6\n        /* \"#utility.yul\":21689:21760   */\n      tag_151\n      jump\t// in\n    tag_418:\n        /* \"#utility.yul\":21770:21850   */\n      tag_419\n        /* \"#utility.yul\":21846:21848   */\n      0x20\n        /* \"#utility.yul\":21835:21844   */\n      dup4\n        /* \"#utility.yul\":21831:21849   */\n      add\n        /* \"#utility.yul\":21822:21828   */\n      dup5\n        /* \"#utility.yul\":21770:21850   */\n      tag_172\n      jump\t// in\n    tag_419:\n        /* \"#utility.yul\":21509:21857   */\n      swap4\n      swap3\n      pop\n      pop\n      pop\n      jump\t// out\n\n    auxdata: 0xa26469706673582212207dabc4f0ea2f1afdefbf492581c356ef1fd564cc5001b53cbf8126b529388b2364736f6c634300081e0033\n}\n",
				"bytecode": {
					"linkReferences": {},
					"object": "6080604052348015600e575f5ffd5b5061113e8061001c5f395ff3fe608060405234801561000f575f5ffd5b506004361061009c575f3560e01c80638428cf83116100645780638428cf8314610180578063a7e94b66146101b0578063b2b34f77146101e3578063dbdff2c114610215578063f435898b146102335761009c565b8063034899bc146100a0578063228f81dd146100be578063447a06f5146100ee5780634745b6cd1461011f57806347da7f8e1461014f575b5f5ffd5b6100a8610251565b6040516100b591906105fd565b60405180910390f35b6100d860048036038101906100d39190610763565b61027b565b6040516100e591906105fd565b60405180910390f35b61010860048036038101906101039190610848565b61028b565b604051610116929190610907565b60405180910390f35b610139600480360381019061013491906109b9565b6102ab565b6040516101469190610a49565b60405180910390f35b61016960048036038101906101649190610a69565b6102f9565b604051610177929190610ac3565b60405180910390f35b61019a60048036038101906101959190610b61565b61034b565b6040516101a79190610bd4565b60405180910390f35b6101ca60048036038101906101c59190610bed565b6103a2565b6040516101da9493929190610c3d565b60405180910390f35b6101fd60048036038101906101f89190610763565b610409565b60405161020c93929190610c8f565b60405180910390f35b61021d6104da565b60405161022a9190610cc4565b60405180910390f35b61023b610517565b6040516102489190610a49565b60405180910390f35b5f5f357fffffffff0000000000000000000000000000000000000000000000000000000016905090565b5f81805190602001209050919050565b60605f828060200190518101906102a29190610d5f565b91509150915091565b60605f368080601f0160208091040260200160405190810160405280939291908181526020018383808284375f81840152601f19601f82011690508083019250505050505050905092915050565b606080838360405160200161030f929190610907565b6040516020818303038152906040528484604051602001610331929190610e13565b604051602081830303815290604052915091509250929050565b5f6001858585856040515f815260200160405260405161036e9493929190610e49565b6020604051602081039080840390855afa15801561038e573d5f5f3e3d5ffd5b505050602060405103519050949350505050565b5f5f5f5f8486886103b39190610eb9565b6103bd9190610f19565b85806103cc576103cb610eec565b5b87890886888a6103dc9190610f49565b6103e69190610f19565b87806103f5576103f4610eec565b5b898b09935093509350935093509350935093565b5f5f5f5f8460405160200161041e9190610f8a565b604051602081830303815290604052905080805190602001206002826040516104479190610fda565b602060405180830381855afa158015610462573d5f5f3e3d5ffd5b5050506040513d601f19601f820116820180604052508101906104859190611004565b6003836040516104959190610fda565b602060405180830381855afa1580156104b0573d5f5f3e3d5ffd5b5050506040515160601b806bffffffffffffffffffffffff19169050935093509350509193909250565b5f606442336040516020016104f0929190611074565b604051602081830303815290604052805190602001205f1c6105129190610f19565b905090565b6060735b38da6a701c568545dcfcb03fcb875f56beddc460646040516024016105419291906110e1565b6040516020818303038152906040527f4745b6cd000000000000000000000000000000000000000000000000000000007bffffffffffffffffffffffffffffffffffffffffffffffffffffffff19166020820180517bffffffffffffffffffffffffffffffffffffffffffffffffffffffff8381831617835250505050905090565b5f7fffffffff0000000000000000000000000000000000000000000000000000000082169050919050565b6105f7816105c3565b82525050565b5f6020820190506106105f8301846105ee565b92915050565b5f604051905090565b5f5ffd5b5f5ffd5b5f5ffd5b5f5ffd5b5f601f19601f8301169050919050565b7f4e487b71000000000000000000000000000000000000000000000000000000005f52604160045260245ffd5b6106758261062f565b810181811067ffffffffffffffff821117156106945761069361063f565b5b80604052505050565b5f6106a6610616565b90506106b2828261066c565b919050565b5f67ffffffffffffffff8211156106d1576106d061063f565b5b6106da8261062f565b9050602081019050919050565b828183375f83830152505050565b5f610707610702846106b7565b61069d565b9050828152602081018484840111156107235761072261062b565b5b61072e8482856106e7565b509392505050565b5f82601f83011261074a57610749610627565b5b813561075a8482602086016106f5565b91505092915050565b5f602082840312156107785761077761061f565b5b5f82013567ffffffffffffffff81111561079557610794610623565b5b6107a184828501610736565b91505092915050565b5f67ffffffffffffffff8211156107c4576107c361063f565b5b6107cd8261062f565b9050602081019050919050565b5f6107ec6107e7846107aa565b61069d565b9050828152602081018484840111156108085761080761062b565b5b6108138482856106e7565b509392505050565b5f82601f83011261082f5761082e610627565b5b813561083f8482602086016107da565b91505092915050565b5f6020828403121561085d5761085c61061f565b5b5f82013567ffffffffffffffff81111561087a57610879610623565b5b6108868482850161081b565b91505092915050565b5f81519050919050565b5f82825260208201905092915050565b8281835e5f83830152505050565b5f6108c18261088f565b6108cb8185610899565b93506108db8185602086016108a9565b6108e48161062f565b840191505092915050565b5f819050919050565b610901816108ef565b82525050565b5f6040820190508181035f83015261091f81856108b7565b905061092e60208301846108f8565b9392505050565b5f73ffffffffffffffffffffffffffffffffffffffff82169050919050565b5f61095e82610935565b9050919050565b61096e81610954565b8114610978575f5ffd5b50565b5f8135905061098981610965565b92915050565b610998816108ef565b81146109a2575f5ffd5b50565b5f813590506109b38161098f565b92915050565b5f5f604083850312156109cf576109ce61061f565b5b5f6109dc8582860161097b565b92505060206109ed858286016109a5565b9150509250929050565b5f81519050919050565b5f82825260208201905092915050565b5f610a1b826109f7565b610a258185610a01565b9350610a358185602086016108a9565b610a3e8161062f565b840191505092915050565b5f6020820190508181035f830152610a618184610a11565b905092915050565b5f5f60408385031215610a7f57610a7e61061f565b5b5f83013567ffffffffffffffff811115610a9c57610a9b610623565b5b610aa885828601610736565b9250506020610ab9858286016109a5565b9150509250929050565b5f6040820190508181035f830152610adb8185610a11565b90508181036020830152610aef8184610a11565b90509392505050565b5f819050919050565b610b0a81610af8565b8114610b14575f5ffd5b50565b5f81359050610b2581610b01565b92915050565b5f60ff82169050919050565b610b4081610b2b565b8114610b4a575f5ffd5b50565b5f81359050610b5b81610b37565b92915050565b5f5f5f5f60808587031215610b7957610b7861061f565b5b5f610b8687828801610b17565b9450506020610b9787828801610b4d565b9350506040610ba887828801610b17565b9250506060610bb987828801610b17565b91505092959194509250565b610bce81610954565b82525050565b5f602082019050610be75f830184610bc5565b92915050565b5f5f5f60608486031215610c0457610c0361061f565b5b5f610c11868287016109a5565b9350506020610c22868287016109a5565b9250506040610c33868287016109a5565b9150509250925092565b5f608082019050610c505f8301876108f8565b610c5d60208301866108f8565b610c6a60408301856108f8565b610c7760608301846108f8565b95945050505050565b610c8981610af8565b82525050565b5f606082019050610ca25f830186610c80565b610caf6020830185610c80565b610cbc6040830184610c80565b949350505050565b5f602082019050610cd75f8301846108f8565b92915050565b5f610cef610cea846106b7565b61069d565b905082815260208101848484011115610d0b57610d0a61062b565b5b610d168482856108a9565b509392505050565b5f82601f830112610d3257610d31610627565b5b8151610d42848260208601610cdd565b91505092915050565b5f81519050610d598161098f565b92915050565b5f5f60408385031215610d7557610d7461061f565b5b5f83015167ffffffffffffffff811115610d9257610d91610623565b5b610d9e85828601610d1e565b9250506020610daf85828601610d4b565b9150509250929050565b5f81905092915050565b5f610dcd8261088f565b610dd78185610db9565b9350610de78185602086016108a9565b80840191505092915050565b5f819050919050565b610e0d610e08826108ef565b610df3565b82525050565b5f610e1e8285610dc3565b9150610e2a8284610dfc565b6020820191508190509392505050565b610e4381610b2b565b82525050565b5f608082019050610e5c5f830187610c80565b610e696020830186610e3a565b610e766040830185610c80565b610e836060830184610c80565b95945050505050565b7f4e487b71000000000000000000000000000000000000000000000000000000005f52601160045260245ffd5b5f610ec3826108ef565b9150610ece836108ef565b9250828201905080821115610ee657610ee5610e8c565b5b92915050565b7f4e487b71000000000000000000000000000000000000000000000000000000005f52601260045260245ffd5b5f610f23826108ef565b9150610f2e836108ef565b925082610f3e57610f3d610eec565b5b828206905092915050565b5f610f53826108ef565b9150610f5e836108ef565b9250828202610f6c816108ef565b91508282048414831517610f8357610f82610e8c565b5b5092915050565b5f610f958284610dc3565b915081905092915050565b5f81905092915050565b5f610fb4826109f7565b610fbe8185610fa0565b9350610fce8185602086016108a9565b80840191505092915050565b5f610fe58284610faa565b915081905092915050565b5f81519050610ffe81610b01565b92915050565b5f602082840312156110195761101861061f565b5b5f61102684828501610ff0565b91505092915050565b5f8160601b9050919050565b5f6110458261102f565b9050919050565b5f6110568261103b565b9050919050565b61106e61106982610954565b61104c565b82525050565b5f61107f8285610dfc565b60208201915061108f828461105d565b6014820191508190509392505050565b5f819050919050565b5f819050919050565b5f6110cb6110c66110c18461109f565b6110a8565b610b2b565b9050919050565b6110db816110b1565b82525050565b5f6040820190506110f45f830185610bc5565b61110160208301846110d2565b939250505056fea26469706673582212207dabc4f0ea2f1afdefbf492581c356ef1fd564cc5001b53cbf8126b529388b2364736f6c634300081e0033",
					"opcodes": "PUSH1 0x80 PUSH1 0x40 MSTORE CALLVALUE DUP1 ISZERO PUSH1 0xE JUMPI PUSH0 PUSH0 REVERT JUMPDEST POP PUSH2 0x113E DUP1 PUSH2 0x1C PUSH0 CODECOPY PUSH0 RETURN INVALID PUSH1 0x80 PUSH1 0x40 MSTORE CALLVALUE DUP1 ISZERO PUSH2 0xF JUMPI PUSH0 PUSH0 REVERT JUMPDEST POP PUSH1 0x4 CALLDATASIZE LT PUSH2 0x9C JUMPI PUSH0 CALLDATALOAD PUSH1 0xE0 SHR DUP1 PUSH4 0x8428CF83 GT PUSH2 0x64 JUMPI DUP1 PUSH4 0x8428CF83 EQ PUSH2 0x180 JUMPI DUP1 PUSH4 0xA7E94B66 EQ PUSH2 0x1B0 JUMPI DUP1 PUSH4 0xB2B34F77 EQ PUSH2 0x1E3 JUMPI DUP1 PUSH4 0xDBDFF2C1 EQ PUSH2 0x215 JUMPI DUP1 PUSH4 0xF435898B EQ PUSH2 0x233 JUMPI PUSH2 0x9C JUMP JUMPDEST DUP1 PUSH4 0x34899BC EQ PUSH2 0xA0 JUMPI DUP1 PUSH4 0x228F81DD EQ PUSH2 0xBE JUMPI DUP1 PUSH4 0x447A06F5 EQ PUSH2 0xEE JUMPI DUP1 PUSH4 0x4745B6CD EQ PUSH2 0x11F JUMPI DUP1 PUSH4 0x47DA7F8E EQ PUSH2 0x14F JUMPI JUMPDEST PUSH0 PUSH0 REVERT JUMPDEST PUSH2 0xA8 PUSH2 0x251 JUMP JUMPDEST PUSH1 0x40 MLOAD PUSH2 0xB5 SWAP2 SWAP1 PUSH2 0x5FD JUMP JUMPDEST PUSH1 0x40 MLOAD DUP1 SWAP2 SUB SWAP1 RETURN JUMPDEST PUSH2 0xD8 PUSH1 0x4 DUP1 CALLDATASIZE SUB DUP2 ADD SWAP1 PUSH2 0xD3 SWAP2 SWAP1 PUSH2 0x763 JUMP JUMPDEST PUSH2 0x27B JUMP JUMPDEST PUSH1 0x40 MLOAD PUSH2 0xE5 SWAP2 SWAP1 PUSH2 0x5FD JUMP JUMPDEST PUSH1 0x40 MLOAD DUP1 SWAP2 SUB SWAP1 RETURN JUMPDEST PUSH2 0x108 PUSH1 0x4 DUP1 CALLDATASIZE SUB DUP2 ADD SWAP1 PUSH2 0x103 SWAP2 SWAP1 PUSH2 0x848 JUMP JUMPDEST PUSH2 0x28B JUMP JUMPDEST PUSH1 0x40 MLOAD PUSH2 0x116 SWAP3 SWAP2 SWAP1 PUSH2 0x907 JUMP JUMPDEST PUSH1 0x40 MLOAD DUP1 SWAP2 SUB SWAP1 RETURN JUMPDEST PUSH2 0x139 PUSH1 0x4 DUP1 CALLDATASIZE SUB DUP2 ADD SWAP1 PUSH2 0x134 SWAP2 SWAP1 PUSH2 0x9B9 JUMP JUMPDEST PUSH2 0x2AB JUMP JUMPDEST PUSH1 0x40 MLOAD PUSH2 0x146 SWAP2 SWAP1 PUSH2 0xA49 JUMP JUMPDEST PUSH1 0x40 MLOAD DUP1 SWAP2 SUB SWAP1 RETURN JUMPDEST PUSH2 0x169 PUSH1 0x4 DUP1 CALLDATASIZE SUB DUP2 ADD SWAP1 PUSH2 0x164 SWAP2 SWAP1 PUSH2 0xA69 JUMP JUMPDEST PUSH2 0x2F9 JUMP JUMPDEST PUSH1 0x40 MLOAD PUSH2 0x177 SWAP3 SWAP2 SWAP1 PUSH2 0xAC3 JUMP JUMPDEST PUSH1 0x40 MLOAD DUP1 SWAP2 SUB SWAP1 RETURN JUMPDEST PUSH2 0x19A PUSH1 0x4 DUP1 CALLDATASIZE SUB DUP2 ADD SWAP1 PUSH2 0x195 SWAP2 SWAP1 PUSH2 0xB61 JUMP JUMPDEST PUSH2 0x34B JUMP JUMPDEST PUSH1 0x40 MLOAD PUSH2 0x1A7 SWAP2 SWAP1 PUSH2 0xBD4 JUMP JUMPDEST PUSH1 0x40 MLOAD DUP1 SWAP2 SUB SWAP1 RETURN JUMPDEST PUSH2 0x1CA PUSH1 0x4 DUP1 CALLDATASIZE SUB DUP2 ADD SWAP1 PUSH2 0x1C5 SWAP2 SWAP1 PUSH2 0xBED JUMP JUMPDEST PUSH2 0x3A2 JUMP JUMPDEST PUSH1 0x40 MLOAD PUSH2 0x1DA SWAP5 SWAP4 SWAP3 SWAP2 SWAP1 PUSH2 0xC3D JUMP JUMPDEST PUSH1 0x40 MLOAD DUP1 SWAP2 SUB SWAP1 RETURN JUMPDEST PUSH2 0x1FD PUSH1 0x4 DUP1 CALLDATASIZE SUB DUP2 ADD SWAP1 PUSH2 0x1F8 SWAP2 SWAP1 PUSH2 0x763 JUMP JUMPDEST PUSH2 0x409 JUMP JUMPDEST PUSH1 0x40 MLOAD PUSH2 0x20C SWAP4 SWAP3 SWAP2 SWAP1 PUSH2 0xC8F JUMP JUMPDEST PUSH1 0x40 MLOAD DUP1 SWAP2 SUB SWAP1 RETURN JUMPDEST PUSH2 0x21D PUSH2 0x4DA JUMP JUMPDEST PUSH1 0x40 MLOAD PUSH2 0x22A SWAP2 SWAP1 PUSH2 0xCC4 JUMP JUMPDEST PUSH1 0x40 MLOAD DUP1 SWAP2 SUB SWAP1 RETURN JUMPDEST PUSH2 0x23B PUSH2 0x517 JUMP JUMPDEST PUSH1 0x40 MLOAD PUSH2 0x248 SWAP2 SWAP1 PUSH2 0xA49 JUMP JUMPDEST PUSH1 0x40 MLOAD DUP1 SWAP2 SUB SWAP1 RETURN JUMPDEST PUSH0 PUSH0 CALLDATALOAD PUSH32 0xFFFFFFFF00000000000000000000000000000000000000000000000000000000 AND SWAP1 POP SWAP1 JUMP JUMPDEST PUSH0 DUP2 DUP1 MLOAD SWAP1 PUSH1 0x20 ADD KECCAK256 SWAP1 POP SWAP2 SWAP1 POP JUMP JUMPDEST PUSH1 0x60 PUSH0 DUP3 DUP1 PUSH1 0x20 ADD SWAP1 MLOAD DUP2 ADD SWAP1 PUSH2 0x2A2 SWAP2 SWAP1 PUSH2 0xD5F JUMP JUMPDEST SWAP2 POP SWAP2 POP SWAP2 POP SWAP2 JUMP JUMPDEST PUSH1 0x60 PUSH0 CALLDATASIZE DUP1 DUP1 PUSH1 0x1F ADD PUSH1 0x20 DUP1 SWAP2 DIV MUL PUSH1 0x20 ADD PUSH1 0x40 MLOAD SWAP1 DUP2 ADD PUSH1 0x40 MSTORE DUP1 SWAP4 SWAP3 SWAP2 SWAP1 DUP2 DUP2 MSTORE PUSH1 0x20 ADD DUP4 DUP4 DUP1 DUP3 DUP5 CALLDATACOPY PUSH0 DUP2 DUP5 ADD MSTORE PUSH1 0x1F NOT PUSH1 0x1F DUP3 ADD AND SWAP1 POP DUP1 DUP4 ADD SWAP3 POP POP POP POP POP POP POP SWAP1 POP SWAP3 SWAP2 POP POP JUMP JUMPDEST PUSH1 0x60 DUP1 DUP4 DUP4 PUSH1 0x40 MLOAD PUSH1 0x20 ADD PUSH2 0x30F SWAP3 SWAP2 SWAP1 PUSH2 0x907 JUMP JUMPDEST PUSH1 0x40 MLOAD PUSH1 0x20 DUP2 DUP4 SUB SUB DUP2 MSTORE SWAP1 PUSH1 0x40 MSTORE DUP5 DUP5 PUSH1 0x40 MLOAD PUSH1 0x20 ADD PUSH2 0x331 SWAP3 SWAP2 SWAP1 PUSH2 0xE13 JUMP JUMPDEST PUSH1 0x40 MLOAD PUSH1 0x20 DUP2 DUP4 SUB SUB DUP2 MSTORE SWAP1 PUSH1 0x40 MSTORE SWAP2 POP SWAP2 POP SWAP3 POP SWAP3 SWAP1 POP JUMP JUMPDEST PUSH0 PUSH1 0x1 DUP6 DUP6 DUP6 DUP6 PUSH1 0x40 MLOAD PUSH0 DUP2 MSTORE PUSH1 0x20 ADD PUSH1 0x40 MSTORE PUSH1 0x40 MLOAD PUSH2 0x36E SWAP5 SWAP4 SWAP3 SWAP2 SWAP1 PUSH2 0xE49 JUMP JUMPDEST PUSH1 0x20 PUSH1 0x40 MLOAD PUSH1 0x20 DUP2 SUB SWAP1 DUP1 DUP5 SUB SWAP1 DUP6 GAS STATICCALL ISZERO DUP1 ISZERO PUSH2 0x38E JUMPI RETURNDATASIZE PUSH0 PUSH0 RETURNDATACOPY RETURNDATASIZE PUSH0 REVERT JUMPDEST POP POP POP PUSH1 0x20 PUSH1 0x40 MLOAD SUB MLOAD SWAP1 POP SWAP5 SWAP4 POP POP POP POP JUMP JUMPDEST PUSH0 PUSH0 PUSH0 PUSH0 DUP5 DUP7 DUP9 PUSH2 0x3B3 SWAP2 SWAP1 PUSH2 0xEB9 JUMP JUMPDEST PUSH2 0x3BD SWAP2 SWAP1 PUSH2 0xF19 JUMP JUMPDEST DUP6 DUP1 PUSH2 0x3CC JUMPI PUSH2 0x3CB PUSH2 0xEEC JUMP JUMPDEST JUMPDEST DUP8 DUP10 ADDMOD DUP7 DUP9 DUP11 PUSH2 0x3DC SWAP2 SWAP1 PUSH2 0xF49 JUMP JUMPDEST PUSH2 0x3E6 SWAP2 SWAP1 PUSH2 0xF19 JUMP JUMPDEST DUP8 DUP1 PUSH2 0x3F5 JUMPI PUSH2 0x3F4 PUSH2 0xEEC JUMP JUMPDEST JUMPDEST DUP10 DUP12 MULMOD SWAP4 POP SWAP4 POP SWAP4 POP SWAP4 POP SWAP4 POP SWAP4 POP SWAP4 POP SWAP4 JUMP JUMPDEST PUSH0 PUSH0 PUSH0 PUSH0 DUP5 PUSH1 0x40 MLOAD PUSH1 0x20 ADD PUSH2 0x41E SWAP2 SWAP1 PUSH2 0xF8A JUMP JUMPDEST PUSH1 0x40 MLOAD PUSH1 0x20 DUP2 DUP4 SUB SUB DUP2 MSTORE SWAP1 PUSH1 0x40 MSTORE SWAP1 POP DUP1 DUP1 MLOAD SWAP1 PUSH1 0x20 ADD KECCAK256 PUSH1 0x2 DUP3 PUSH1 0x40 MLOAD PUSH2 0x447 SWAP2 SWAP1 PUSH2 0xFDA JUMP JUMPDEST PUSH1 0x20 PUSH1 0x40 MLOAD DUP1 DUP4 SUB DUP2 DUP6 GAS STATICCALL ISZERO DUP1 ISZERO PUSH2 0x462 JUMPI RETURNDATASIZE PUSH0 PUSH0 RETURNDATACOPY RETURNDATASIZE PUSH0 REVERT JUMPDEST POP POP POP PUSH1 0x40 MLOAD RETURNDATASIZE PUSH1 0x1F NOT PUSH1 0x1F DUP3 ADD AND DUP3 ADD DUP1 PUSH1 0x40 MSTORE POP DUP2 ADD SWAP1 PUSH2 0x485 SWAP2 SWAP1 PUSH2 0x1004 JUMP JUMPDEST PUSH1 0x3 DUP4 PUSH1 0x40 MLOAD PUSH2 0x495 SWAP2 SWAP1 PUSH2 0xFDA JUMP JUMPDEST PUSH1 0x20 PUSH1 0x40 MLOAD DUP1 DUP4 SUB DUP2 DUP6 GAS STATICCALL ISZERO DUP1 ISZERO PUSH2 0x4B0 JUMPI RETURNDATASIZE PUSH0 PUSH0 RETURNDATACOPY RETURNDATASIZE PUSH0 REVERT JUMPDEST POP POP POP PUSH1 0x40 MLOAD MLOAD PUSH1 0x60 SHL DUP1 PUSH12 0xFFFFFFFFFFFFFFFFFFFFFFFF NOT AND SWAP1 POP SWAP4 POP SWAP4 POP SWAP4 POP POP SWAP2 SWAP4 SWAP1 SWAP3 POP JUMP JUMPDEST PUSH0 PUSH1 0x64 TIMESTAMP CALLER PUSH1 0x40 MLOAD PUSH1 0x20 ADD PUSH2 0x4F0 SWAP3 SWAP2 SWAP1 PUSH2 0x1074 JUMP JUMPDEST PUSH1 0x40 MLOAD PUSH1 0x20 DUP2 DUP4 SUB SUB DUP2 MSTORE SWAP1 PUSH1 0x40 MSTORE DUP1 MLOAD SWAP1 PUSH1 0x20 ADD KECCAK256 PUSH0 SHR PUSH2 0x512 SWAP2 SWAP1 PUSH2 0xF19 JUMP JUMPDEST SWAP1 POP SWAP1 JUMP JUMPDEST PUSH1 0x60 PUSH20 0x5B38DA6A701C568545DCFCB03FCB875F56BEDDC4 PUSH1 0x64 PUSH1 0x40 MLOAD PUSH1 0x24 ADD PUSH2 0x541 SWAP3 SWAP2 SWAP1 PUSH2 0x10E1 JUMP JUMPDEST PUSH1 0x40 MLOAD PUSH1 0x20 DUP2 DUP4 SUB SUB DUP2 MSTORE SWAP1 PUSH1 0x40 MSTORE PUSH32 0x4745B6CD00000000000000000000000000000000000000000000000000000000 PUSH28 0xFFFFFFFFFFFFFFFFFFFFFFFFFFFFFFFFFFFFFFFFFFFFFFFFFFFFFFFF NOT AND PUSH1 0x20 DUP3 ADD DUP1 MLOAD PUSH28 0xFFFFFFFFFFFFFFFFFFFFFFFFFFFFFFFFFFFFFFFFFFFFFFFFFFFFFFFF DUP4 DUP2 DUP4 AND OR DUP4 MSTORE POP POP POP POP SWAP1 POP SWAP1 JUMP JUMPDEST PUSH0 PUSH32 0xFFFFFFFF00000000000000000000000000000000000000000000000000000000 DUP3 AND SWAP1 POP SWAP2 SWAP1 POP JUMP JUMPDEST PUSH2 0x5F7 DUP2 PUSH2 0x5C3 JUMP JUMPDEST DUP3 MSTORE POP POP JUMP JUMPDEST PUSH0 PUSH1 0x20 DUP3 ADD SWAP1 POP PUSH2 0x610 PUSH0 DUP4 ADD DUP5 PUSH2 0x5EE JUMP JUMPDEST SWAP3 SWAP2 POP POP JUMP JUMPDEST PUSH0 PUSH1 0x40 MLOAD SWAP1 POP SWAP1 JUMP JUMPDEST PUSH0 PUSH0 REVERT JUMPDEST PUSH0 PUSH0 REVERT JUMPDEST PUSH0 PUSH0 REVERT JUMPDEST PUSH0 PUSH0 REVERT JUMPDEST PUSH0 PUSH1 0x1F NOT PUSH1 0x1F DUP4 ADD AND SWAP1 POP SWAP2 SWAP1 POP JUMP JUMPDEST PUSH32 0x4E487B7100000000000000000000000000000000000000000000000000000000 PUSH0 MSTORE PUSH1 0x41 PUSH1 0x4 MSTORE PUSH1 0x24 PUSH0 REVERT JUMPDEST PUSH2 0x675 DUP3 PUSH2 0x62F JUMP JUMPDEST DUP2 ADD DUP2 DUP2 LT PUSH8 0xFFFFFFFFFFFFFFFF DUP3 GT OR ISZERO PUSH2 0x694 JUMPI PUSH2 0x693 PUSH2 0x63F JUMP JUMPDEST JUMPDEST DUP1 PUSH1 0x40 MSTORE POP POP POP JUMP JUMPDEST PUSH0 PUSH2 0x6A6 PUSH2 0x616 JUMP JUMPDEST SWAP1 POP PUSH2 0x6B2 DUP3 DUP3 PUSH2 0x66C JUMP JUMPDEST SWAP2 SWAP1 POP JUMP JUMPDEST PUSH0 PUSH8 0xFFFFFFFFFFFFFFFF DUP3 GT ISZERO PUSH2 0x6D1 JUMPI PUSH2 0x6D0 PUSH2 0x63F JUMP JUMPDEST JUMPDEST PUSH2 0x6DA DUP3 PUSH2 0x62F JUMP JUMPDEST SWAP1 POP PUSH1 0x20 DUP2 ADD SWAP1 POP SWAP2 SWAP1 POP JUMP JUMPDEST DUP3 DUP2 DUP4 CALLDATACOPY PUSH0 DUP4 DUP4 ADD MSTORE POP POP POP JUMP JUMPDEST PUSH0 PUSH2 0x707 PUSH2 0x702 DUP5 PUSH2 0x6B7 JUMP JUMPDEST PUSH2 0x69D JUMP JUMPDEST SWAP1 POP DUP3 DUP2 MSTORE PUSH1 0x20 DUP2 ADD DUP5 DUP5 DUP5 ADD GT ISZERO PUSH2 0x723 JUMPI PUSH2 0x722 PUSH2 0x62B JUMP JUMPDEST JUMPDEST PUSH2 0x72E DUP5 DUP3 DUP6 PUSH2 0x6E7 JUMP JUMPDEST POP SWAP4 SWAP3 POP POP POP JUMP JUMPDEST PUSH0 DUP3 PUSH1 0x1F DUP4 ADD SLT PUSH2 0x74A JUMPI PUSH2 0x749 PUSH2 0x627 JUMP JUMPDEST JUMPDEST DUP2 CALLDATALOAD PUSH2 0x75A DUP5 DUP3 PUSH1 0x20 DUP7 ADD PUSH2 0x6F5 JUMP JUMPDEST SWAP2 POP POP SWAP3 SWAP2 POP POP JUMP JUMPDEST PUSH0 PUSH1 0x20 DUP3 DUP5 SUB SLT ISZERO PUSH2 0x778 JUMPI PUSH2 0x777 PUSH2 0x61F JUMP JUMPDEST JUMPDEST PUSH0 DUP3 ADD CALLDATALOAD PUSH8 0xFFFFFFFFFFFFFFFF DUP2 GT ISZERO PUSH2 0x795 JUMPI PUSH2 0x794 PUSH2 0x623 JUMP JUMPDEST JUMPDEST PUSH2 0x7A1 DUP5 DUP3 DUP6 ADD PUSH2 0x736 JUMP JUMPDEST SWAP2 POP POP SWAP3 SWAP2 POP POP JUMP JUMPDEST PUSH0 PUSH8 0xFFFFFFFFFFFFFFFF DUP3 GT ISZERO PUSH2 0x7C4 JUMPI PUSH2 0x7C3 PUSH2 0x63F JUMP JUMPDEST JUMPDEST PUSH2 0x7CD DUP3 PUSH2 0x62F JUMP JUMPDEST SWAP1 POP PUSH1 0x20 DUP2 ADD SWAP1 POP SWAP2 SWAP1 POP JUMP JUMPDEST PUSH0 PUSH2 0x7EC PUSH2 0x7E7 DUP5 PUSH2 0x7AA JUMP JUMPDEST PUSH2 0x69D JUMP JUMPDEST SWAP1 POP DUP3 DUP2 MSTORE PUSH1 0x20 DUP2 ADD DUP5 DUP5 DUP5 ADD GT ISZERO PUSH2 0x808 JUMPI PUSH2 0x807 PUSH2 0x62B JUMP JUMPDEST JUMPDEST PUSH2 0x813 DUP5 DUP3 DUP6 PUSH2 0x6E7 JUMP JUMPDEST POP SWAP4 SWAP3 POP POP POP JUMP JUMPDEST PUSH0 DUP3 PUSH1 0x1F DUP4 ADD SLT PUSH2 0x82F JUMPI PUSH2 0x82E PUSH2 0x627 JUMP JUMPDEST JUMPDEST DUP2 CALLDATALOAD PUSH2 0x83F DUP5 DUP3 PUSH1 0x20 DUP7 ADD PUSH2 0x7DA JUMP JUMPDEST SWAP2 POP POP SWAP3 SWAP2 POP POP JUMP JUMPDEST PUSH0 PUSH1 0x20 DUP3 DUP5 SUB SLT ISZERO PUSH2 0x85D JUMPI PUSH2 0x85C PUSH2 0x61F JUMP JUMPDEST JUMPDEST PUSH0 DUP3 ADD CALLDATALOAD PUSH8 0xFFFFFFFFFFFFFFFF DUP2 GT ISZERO PUSH2 0x87A JUMPI PUSH2 0x879 PUSH2 0x623 JUMP JUMPDEST JUMPDEST PUSH2 0x886 DUP5 DUP3 DUP6 ADD PUSH2 0x81B JUMP JUMPDEST SWAP2 POP POP SWAP3 SWAP2 POP POP JUMP JUMPDEST PUSH0 DUP2 MLOAD SWAP1 POP SWAP2 SWAP1 POP JUMP JUMPDEST PUSH0 DUP3 DUP3 MSTORE PUSH1 0x20 DUP3 ADD SWAP1 POP SWAP3 SWAP2 POP POP JUMP JUMPDEST DUP3 DUP2 DUP4 MCOPY PUSH0 DUP4 DUP4 ADD MSTORE POP POP POP JUMP JUMPDEST PUSH0 PUSH2 0x8C1 DUP3 PUSH2 0x88F JUMP JUMPDEST PUSH2 0x8CB DUP2 DUP6 PUSH2 0x899 JUMP JUMPDEST SWAP4 POP PUSH2 0x8DB DUP2 DUP6 PUSH1 0x20 DUP7 ADD PUSH2 0x8A9 JUMP JUMPDEST PUSH2 0x8E4 DUP2 PUSH2 0x62F JUMP JUMPDEST DUP5 ADD SWAP2 POP POP SWAP3 SWAP2 POP POP JUMP JUMPDEST PUSH0 DUP2 SWAP1 POP SWAP2 SWAP1 POP JUMP JUMPDEST PUSH2 0x901 DUP2 PUSH2 0x8EF JUMP JUMPDEST DUP3 MSTORE POP POP JUMP JUMPDEST PUSH0 PUSH1 0x40 DUP3 ADD SWAP1 POP DUP2 DUP2 SUB PUSH0 DUP4 ADD MSTORE PUSH2 0x91F DUP2 DUP6 PUSH2 0x8B7 JUMP JUMPDEST SWAP1 POP PUSH2 0x92E PUSH1 0x20 DUP4 ADD DUP5 PUSH2 0x8F8 JUMP JUMPDEST SWAP4 SWAP3 POP POP POP JUMP JUMPDEST PUSH0 PUSH20 0xFFFFFFFFFFFFFFFFFFFFFFFFFFFFFFFFFFFFFFFF DUP3 AND SWAP1 POP SWAP2 SWAP1 POP JUMP JUMPDEST PUSH0 PUSH2 0x95E DUP3 PUSH2 0x935 JUMP JUMPDEST SWAP1 POP SWAP2 SWAP1 POP JUMP JUMPDEST PUSH2 0x96E DUP2 PUSH2 0x954 JUMP JUMPDEST DUP2 EQ PUSH2 0x978 JUMPI PUSH0 PUSH0 REVERT JUMPDEST POP JUMP JUMPDEST PUSH0 DUP2 CALLDATALOAD SWAP1 POP PUSH2 0x989 DUP2 PUSH2 0x965 JUMP JUMPDEST SWAP3 SWAP2 POP POP JUMP JUMPDEST PUSH2 0x998 DUP2 PUSH2 0x8EF JUMP JUMPDEST DUP2 EQ PUSH2 0x9A2 JUMPI PUSH0 PUSH0 REVERT JUMPDEST POP JUMP JUMPDEST PUSH0 DUP2 CALLDATALOAD SWAP1 POP PUSH2 0x9B3 DUP2 PUSH2 0x98F JUMP JUMPDEST SWAP3 SWAP2 POP POP JUMP JUMPDEST PUSH0 PUSH0 PUSH1 0x40 DUP4 DUP6 SUB SLT ISZERO PUSH2 0x9CF JUMPI PUSH2 0x9CE PUSH2 0x61F JUMP JUMPDEST JUMPDEST PUSH0 PUSH2 0x9DC DUP6 DUP3 DUP7 ADD PUSH2 0x97B JUMP JUMPDEST SWAP3 POP POP PUSH1 0x20 PUSH2 0x9ED DUP6 DUP3 DUP7 ADD PUSH2 0x9A5 JUMP JUMPDEST SWAP2 POP POP SWAP3 POP SWAP3 SWAP1 POP JUMP JUMPDEST PUSH0 DUP2 MLOAD SWAP1 POP SWAP2 SWAP1 POP JUMP JUMPDEST PUSH0 DUP3 DUP3 MSTORE PUSH1 0x20 DUP3 ADD SWAP1 POP SWAP3 SWAP2 POP POP JUMP JUMPDEST PUSH0 PUSH2 0xA1B DUP3 PUSH2 0x9F7 JUMP JUMPDEST PUSH2 0xA25 DUP2 DUP6 PUSH2 0xA01 JUMP JUMPDEST SWAP4 POP PUSH2 0xA35 DUP2 DUP6 PUSH1 0x20 DUP7 ADD PUSH2 0x8A9 JUMP JUMPDEST PUSH2 0xA3E DUP2 PUSH2 0x62F JUMP JUMPDEST DUP5 ADD SWAP2 POP POP SWAP3 SWAP2 POP POP JUMP JUMPDEST PUSH0 PUSH1 0x20 DUP3 ADD SWAP1 POP DUP2 DUP2 SUB PUSH0 DUP4 ADD MSTORE PUSH2 0xA61 DUP2 DUP5 PUSH2 0xA11 JUMP JUMPDEST SWAP1 POP SWAP3 SWAP2 POP POP JUMP JUMPDEST PUSH0 PUSH0 PUSH1 0x40 DUP4 DUP6 SUB SLT ISZERO PUSH2 0xA7F JUMPI PUSH2 0xA7E PUSH2 0x61F JUMP JUMPDEST JUMPDEST PUSH0 DUP4 ADD CALLDATALOAD PUSH8 0xFFFFFFFFFFFFFFFF DUP2 GT ISZERO PUSH2 0xA9C JUMPI PUSH2 0xA9B PUSH2 0x623 JUMP JUMPDEST JUMPDEST PUSH2 0xAA8 DUP6 DUP3 DUP7 ADD PUSH2 0x736 JUMP JUMPDEST SWAP3 POP POP PUSH1 0x20 PUSH2 0xAB9 DUP6 DUP3 DUP7 ADD PUSH2 0x9A5 JUMP JUMPDEST SWAP2 POP POP SWAP3 POP SWAP3 SWAP1 POP JUMP JUMPDEST PUSH0 PUSH1 0x40 DUP3 ADD SWAP1 POP DUP2 DUP2 SUB PUSH0 DUP4 ADD MSTORE PUSH2 0xADB DUP2 DUP6 PUSH2 0xA11 JUMP JUMPDEST SWAP1 POP DUP2 DUP2 SUB PUSH1 0x20 DUP4 ADD MSTORE PUSH2 0xAEF DUP2 DUP5 PUSH2 0xA11 JUMP JUMPDEST SWAP1 POP SWAP4 SWAP3 POP POP POP JUMP JUMPDEST PUSH0 DUP2 SWAP1 POP SWAP2 SWAP1 POP JUMP JUMPDEST PUSH2 0xB0A DUP2 PUSH2 0xAF8 JUMP JUMPDEST DUP2 EQ PUSH2 0xB14 JUMPI PUSH0 PUSH0 REVERT JUMPDEST POP JUMP JUMPDEST PUSH0 DUP2 CALLDATALOAD SWAP1 POP PUSH2 0xB25 DUP2 PUSH2 0xB01 JUMP JUMPDEST SWAP3 SWAP2 POP POP JUMP JUMPDEST PUSH0 PUSH1 0xFF DUP3 AND SWAP1 POP SWAP2 SWAP1 POP JUMP JUMPDEST PUSH2 0xB40 DUP2 PUSH2 0xB2B JUMP JUMPDEST DUP2 EQ PUSH2 0xB4A JUMPI PUSH0 PUSH0 REVERT JUMPDEST POP JUMP JUMPDEST PUSH0 DUP2 CALLDATALOAD SWAP1 POP PUSH2 0xB5B DUP2 PUSH2 0xB37 JUMP JUMPDEST SWAP3 SWAP2 POP POP JUMP JUMPDEST PUSH0 PUSH0 PUSH0 PUSH0 PUSH1 0x80 DUP6 DUP8 SUB SLT ISZERO PUSH2 0xB79 JUMPI PUSH2 0xB78 PUSH2 0x61F JUMP JUMPDEST JUMPDEST PUSH0 PUSH2 0xB86 DUP8 DUP3 DUP9 ADD PUSH2 0xB17 JUMP JUMPDEST SWAP5 POP POP PUSH1 0x20 PUSH2 0xB97 DUP8 DUP3 DUP9 ADD PUSH2 0xB4D JUMP JUMPDEST SWAP4 POP POP PUSH1 0x40 PUSH2 0xBA8 DUP8 DUP3 DUP9 ADD PUSH2 0xB17 JUMP JUMPDEST SWAP3 POP POP PUSH1 0x60 PUSH2 0xBB9 DUP8 DUP3 DUP9 ADD PUSH2 0xB17 JUMP JUMPDEST SWAP2 POP POP SWAP3 SWAP6 SWAP2 SWAP5 POP SWAP3 POP JUMP JUMPDEST PUSH2 0xBCE DUP2 PUSH2 0x954 JUMP JUMPDEST DUP3 MSTORE POP POP JUMP JUMPDEST PUSH0 PUSH1 0x20 DUP3 ADD SWAP1 POP PUSH2 0xBE7 PUSH0 DUP4 ADD DUP5 PUSH2 0xBC5 JUMP JUMPDEST SWAP3 SWAP2 POP POP JUMP JUMPDEST PUSH0 PUSH0 PUSH0 PUSH1 0x60 DUP5 DUP7 SUB SLT ISZERO PUSH2 0xC04 JUMPI PUSH2 0xC03 PUSH2 0x61F JUMP JUMPDEST JUMPDEST PUSH0 PUSH2 0xC11 DUP7 DUP3 DUP8 ADD PUSH2 0x9A5 JUMP JUMPDEST SWAP4 POP POP PUSH1 0x20 PUSH2 0xC22 DUP7 DUP3 DUP8 ADD PUSH2 0x9A5 JUMP JUMPDEST SWAP3 POP POP PUSH1 0x40 PUSH2 0xC33 DUP7 DUP3 DUP8 ADD PUSH2 0x9A5 JUMP JUMPDEST SWAP2 POP POP SWAP3 POP SWAP3 POP SWAP3 JUMP JUMPDEST PUSH0 PUSH1 0x80 DUP3 ADD SWAP1 POP PUSH2 0xC50 PUSH0 DUP4 ADD DUP8 PUSH2 0x8F8 JUMP JUMPDEST PUSH2 0xC5D PUSH1 0x20 DUP4 ADD DUP7 PUSH2 0x8F8 JUMP JUMPDEST PUSH2 0xC6A PUSH1 0x40 DUP4 ADD DUP6 PUSH2 0x8F8 JUMP JUMPDEST PUSH2 0xC77 PUSH1 0x60 DUP4 ADD DUP5 PUSH2 0x8F8 JUMP JUMPDEST SWAP6 SWAP5 POP POP POP POP POP JUMP JUMPDEST PUSH2 0xC89 DUP2 PUSH2 0xAF8 JUMP JUMPDEST DUP3 MSTORE POP POP JUMP JUMPDEST PUSH0 PUSH1 0x60 DUP3 ADD SWAP1 POP PUSH2 0xCA2 PUSH0 DUP4 ADD DUP7 PUSH2 0xC80 JUMP JUMPDEST PUSH2 0xCAF PUSH1 0x20 DUP4 ADD DUP6 PUSH2 0xC80 JUMP JUMPDEST PUSH2 0xCBC PUSH1 0x40 DUP4 ADD DUP5 PUSH2 0xC80 JUMP JUMPDEST SWAP5 SWAP4 POP POP POP POP JUMP JUMPDEST PUSH0 PUSH1 0x20 DUP3 ADD SWAP1 POP PUSH2 0xCD7 PUSH0 DUP4 ADD DUP5 PUSH2 0x8F8 JUMP JUMPDEST SWAP3 SWAP2 POP POP JUMP JUMPDEST PUSH0 PUSH2 0xCEF PUSH2 0xCEA DUP5 PUSH2 0x6B7 JUMP JUMPDEST PUSH2 0x69D JUMP JUMPDEST SWAP1 POP DUP3 DUP2 MSTORE PUSH1 0x20 DUP2 ADD DUP5 DUP5 DUP5 ADD GT ISZERO PUSH2 0xD0B JUMPI PUSH2 0xD0A PUSH2 0x62B JUMP JUMPDEST JUMPDEST PUSH2 0xD16 DUP5 DUP3 DUP6 PUSH2 0x8A9 JUMP JUMPDEST POP SWAP4 SWAP3 POP POP POP JUMP JUMPDEST PUSH0 DUP3 PUSH1 0x1F DUP4 ADD SLT PUSH2 0xD32 JUMPI PUSH2 0xD31 PUSH2 0x627 JUMP JUMPDEST JUMPDEST DUP2 MLOAD PUSH2 0xD42 DUP5 DUP3 PUSH1 0x20 DUP7 ADD PUSH2 0xCDD JUMP JUMPDEST SWAP2 POP POP SWAP3 SWAP2 POP POP JUMP JUMPDEST PUSH0 DUP2 MLOAD SWAP1 POP PUSH2 0xD59 DUP2 PUSH2 0x98F JUMP JUMPDEST SWAP3 SWAP2 POP POP JUMP JUMPDEST PUSH0 PUSH0 PUSH1 0x40 DUP4 DUP6 SUB SLT ISZERO PUSH2 0xD75 JUMPI PUSH2 0xD74 PUSH2 0x61F JUMP JUMPDEST JUMPDEST PUSH0 DUP4 ADD MLOAD PUSH8 0xFFFFFFFFFFFFFFFF DUP2 GT ISZERO PUSH2 0xD92 JUMPI PUSH2 0xD91 PUSH2 0x623 JUMP JUMPDEST JUMPDEST PUSH2 0xD9E DUP6 DUP3 DUP7 ADD PUSH2 0xD1E JUMP JUMPDEST SWAP3 POP POP PUSH1 0x20 PUSH2 0xDAF DUP6 DUP3 DUP7 ADD PUSH2 0xD4B JUMP JUMPDEST SWAP2 POP POP SWAP3 POP SWAP3 SWAP1 POP JUMP JUMPDEST PUSH0 DUP2 SWAP1 POP SWAP3 SWAP2 POP POP JUMP JUMPDEST PUSH0 PUSH2 0xDCD DUP3 PUSH2 0x88F JUMP JUMPDEST PUSH2 0xDD7 DUP2 DUP6 PUSH2 0xDB9 JUMP JUMPDEST SWAP4 POP PUSH2 0xDE7 DUP2 DUP6 PUSH1 0x20 DUP7 ADD PUSH2 0x8A9 JUMP JUMPDEST DUP1 DUP5 ADD SWAP2 POP POP SWAP3 SWAP2 POP POP JUMP JUMPDEST PUSH0 DUP2 SWAP1 POP SWAP2 SWAP1 POP JUMP JUMPDEST PUSH2 0xE0D PUSH2 0xE08 DUP3 PUSH2 0x8EF JUMP JUMPDEST PUSH2 0xDF3 JUMP JUMPDEST DUP3 MSTORE POP POP JUMP JUMPDEST PUSH0 PUSH2 0xE1E DUP3 DUP6 PUSH2 0xDC3 JUMP JUMPDEST SWAP2 POP PUSH2 0xE2A DUP3 DUP5 PUSH2 0xDFC JUMP JUMPDEST PUSH1 0x20 DUP3 ADD SWAP2 POP DUP2 SWAP1 POP SWAP4 SWAP3 POP POP POP JUMP JUMPDEST PUSH2 0xE43 DUP2 PUSH2 0xB2B JUMP JUMPDEST DUP3 MSTORE POP POP JUMP JUMPDEST PUSH0 PUSH1 0x80 DUP3 ADD SWAP1 POP PUSH2 0xE5C PUSH0 DUP4 ADD DUP8 PUSH2 0xC80 JUMP JUMPDEST PUSH2 0xE69 PUSH1 0x20 DUP4 ADD DUP7 PUSH2 0xE3A JUMP JUMPDEST PUSH2 0xE76 PUSH1 0x40 DUP4 ADD DUP6 PUSH2 0xC80 JUMP JUMPDEST PUSH2 0xE83 PUSH1 0x60 DUP4 ADD DUP5 PUSH2 0xC80 JUMP JUMPDEST SWAP6 SWAP5 POP POP POP POP POP JUMP JUMPDEST PUSH32 0x4E487B7100000000000000000000000000000000000000000000000000000000 PUSH0 MSTORE PUSH1 0x11 PUSH1 0x4 MSTORE PUSH1 0x24 PUSH0 REVERT JUMPDEST PUSH0 PUSH2 0xEC3 DUP3 PUSH2 0x8EF JUMP JUMPDEST SWAP2 POP PUSH2 0xECE DUP4 PUSH2 0x8EF JUMP JUMPDEST SWAP3 POP DUP3 DUP3 ADD SWAP1 POP DUP1 DUP3 GT ISZERO PUSH2 0xEE6 JUMPI PUSH2 0xEE5 PUSH2 0xE8C JUMP JUMPDEST JUMPDEST SWAP3 SWAP2 POP POP JUMP JUMPDEST PUSH32 0x4E487B7100000000000000000000000000000000000000000000000000000000 PUSH0 MSTORE PUSH1 0x12 PUSH1 0x4 MSTORE PUSH1 0x24 PUSH0 REVERT JUMPDEST PUSH0 PUSH2 0xF23 DUP3 PUSH2 0x8EF JUMP JUMPDEST SWAP2 POP PUSH2 0xF2E DUP4 PUSH2 0x8EF JUMP JUMPDEST SWAP3 POP DUP3 PUSH2 0xF3E JUMPI PUSH2 0xF3D PUSH2 0xEEC JUMP JUMPDEST JUMPDEST DUP3 DUP3 MOD SWAP1 POP SWAP3 SWAP2 POP POP JUMP JUMPDEST PUSH0 PUSH2 0xF53 DUP3 PUSH2 0x8EF JUMP JUMPDEST SWAP2 POP PUSH2 0xF5E DUP4 PUSH2 0x8EF JUMP JUMPDEST SWAP3 POP DUP3 DUP3 MUL PUSH2 0xF6C DUP2 PUSH2 0x8EF JUMP JUMPDEST SWAP2 POP DUP3 DUP3 DIV DUP5 EQ DUP4 ISZERO OR PUSH2 0xF83 JUMPI PUSH2 0xF82 PUSH2 0xE8C JUMP JUMPDEST JUMPDEST POP SWAP3 SWAP2 POP POP JUMP JUMPDEST PUSH0 PUSH2 0xF95 DUP3 DUP5 PUSH2 0xDC3 JUMP JUMPDEST SWAP2 POP DUP2 SWAP1 POP SWAP3 SWAP2 POP POP JUMP JUMPDEST PUSH0 DUP2 SWAP1 POP SWAP3 SWAP2 POP POP JUMP JUMPDEST PUSH0 PUSH2 0xFB4 DUP3 PUSH2 0x9F7 JUMP JUMPDEST PUSH2 0xFBE DUP2 DUP6 PUSH2 0xFA0 JUMP JUMPDEST SWAP4 POP PUSH2 0xFCE DUP2 DUP6 PUSH1 0x20 DUP7 ADD PUSH2 0x8A9 JUMP JUMPDEST DUP1 DUP5 ADD SWAP2 POP POP SWAP3 SWAP2 POP POP JUMP JUMPDEST PUSH0 PUSH2 0xFE5 DUP3 DUP5 PUSH2 0xFAA JUMP JUMPDEST SWAP2 POP DUP2 SWAP1 POP SWAP3 SWAP2 POP POP JUMP JUMPDEST PUSH0 DUP2 MLOAD SWAP1 POP PUSH2 0xFFE DUP2 PUSH2 0xB01 JUMP JUMPDEST SWAP3 SWAP2 POP POP JUMP JUMPDEST PUSH0 PUSH1 0x20 DUP3 DUP5 SUB SLT ISZERO PUSH2 0x1019 JUMPI PUSH2 0x1018 PUSH2 0x61F JUMP JUMPDEST JUMPDEST PUSH0 PUSH2 0x1026 DUP5 DUP3 DUP6 ADD PUSH2 0xFF0 JUMP JUMPDEST SWAP2 POP POP SWAP3 SWAP2 POP POP JUMP JUMPDEST PUSH0 DUP2 PUSH1 0x60 SHL SWAP1 POP SWAP2 SWAP1 POP JUMP JUMPDEST PUSH0 PUSH2 0x1045 DUP3 PUSH2 0x102F JUMP JUMPDEST SWAP1 POP SWAP2 SWAP1 POP JUMP JUMPDEST PUSH0 PUSH2 0x1056 DUP3 PUSH2 0x103B JUMP JUMPDEST SWAP1 POP SWAP2 SWAP1 POP JUMP JUMPDEST PUSH2 0x106E PUSH2 0x1069 DUP3 PUSH2 0x954 JUMP JUMPDEST PUSH2 0x104C JUMP JUMPDEST DUP3 MSTORE POP POP JUMP JUMPDEST PUSH0 PUSH2 0x107F DUP3 DUP6 PUSH2 0xDFC JUMP JUMPDEST PUSH1 0x20 DUP3 ADD SWAP2 POP PUSH2 0x108F DUP3 DUP5 PUSH2 0x105D JUMP JUMPDEST PUSH1 0x14 DUP3 ADD SWAP2 POP DUP2 SWAP1 POP SWAP4 SWAP3 POP POP POP JUMP JUMPDEST PUSH0 DUP2 SWAP1 POP SWAP2 SWAP1 POP JUMP JUMPDEST PUSH0 DUP2 SWAP1 POP SWAP2 SWAP1 POP JUMP JUMPDEST PUSH0 PUSH2 0x10CB PUSH2 0x10C6 PUSH2 0x10C1 DUP5 PUSH2 0x109F JUMP JUMPDEST PUSH2 0x10A8 JUMP JUMPDEST PUSH2 0xB2B JUMP JUMPDEST SWAP1 POP SWAP2 SWAP1 POP JUMP JUMPDEST PUSH2 0x10DB DUP2 PUSH2 0x10B1 JUMP JUMPDEST DUP3 MSTORE POP POP JUMP JUMPDEST PUSH0 PUSH1 0x40 DUP3 ADD SWAP1 POP PUSH2 0x10F4 PUSH0 DUP4 ADD DUP6 PUSH2 0xBC5 JUMP JUMPDEST PUSH2 0x1101 PUSH1 0x20 DUP4 ADD DUP5 PUSH2 0x10D2 JUMP JUMPDEST SWAP4 SWAP3 POP POP POP JUMP INVALID LOG2 PUSH5 0x6970667358 0x22 SLT KECCAK256 PUSH30 0xABC4F0EA2F1AFDEFBF492581C356EF1FD564CC5001B53CBF8126B529388B 0x23 PUSH5 0x736F6C6343 STOP ADDMOD 0x1E STOP CALLER "
				},
				"gasEstimates": {
					"creation": {
						"codeDepositCost": "882800",
						"executionCost": "914",
						"totalCost": "883714"
					},
					"external": {
						"computeSecletor(string)": "infinite",
						"decodeData(bytes)": "infinite",
						"encodeData(string,uint256)": "infinite",
						"encodeFunctionCall()": "infinite",
						"getRandomNumber()": "infinite",
						"getSelector()": "347",
						"hashFunctions(string)": "infinite",
						"modularMath(uint256,uint256,uint256)": "infinite",
						"recoverAddress(bytes32,uint8,bytes32,bytes32)": "infinite",
						"trasfer(address,uint256)": "infinite"
					}
				},
				"methodIdentifiers": {
					"computeSecletor(string)": "228f81dd",
					"decodeData(bytes)": "447a06f5",
					"encodeData(string,uint256)": "47da7f8e",
					"encodeFunctionCall()": "f435898b",
					"getRandomNumber()": "dbdff2c1",
					"getSelector()": "034899bc",
					"hashFunctions(string)": "b2b34f77",
					"modularMath(uint256,uint256,uint256)": "a7e94b66",
					"recoverAddress(bytes32,uint8,bytes32,bytes32)": "8428cf83",
					"trasfer(address,uint256)": "4745b6cd"
				}
			},
			"storageLayout": {
				"storage": [],
				"types": null
			},
			"userdoc": {
				"kind": "user",
				"methods": {},
				"version": 1
			}
		}
	}
}