{
	"TestMessageInfo.sol": {
		"TestMessageInfo": {
			"abi": [
				{
					"inputs": [],
					"name": "getBlockChainId",
					"outputs": [
						{
							"internalType": "uint256",
							"name": "",
							"type": "uint256"
						}
					],
					"stateMutability": "view",
					"type": "function"
				},
				{
					"inputs": [],
					"name": "getContractAddress",
					"outputs": [
						{
							"internalType": "address",
							"name": "",
							"type": "address"
						}
					],
					"stateMutability": "view",
					"type": "function"
				},
				{
					"inputs": [],
					"name": "getContractBalance",
					"outputs": [
						{
							"internalType": "uint256",
							"name": "",
							"type": "uint256"
						}
					],
					"stateMutability": "view",
					"type": "function"
				},
				{
					"inputs": [],
					"name": "getGasLeft",
					"outputs": [
						{
							"internalType": "uint256",
							"name": "",
							"type": "uint256"
						}
					],
					"stateMutability": "view",
					"type": "function"
				},
				{
					"inputs": [],
					"name": "getMessageDetails",
					"outputs": [
						{
							"internalType": "address",
							"name": "",
							"type": "address"
						},
						{
							"internalType": "uint256",
							"name": "",
							"type": "uint256"
						}
					],
					"stateMutability": "payable",
					"type": "function"
				}
			],
			"devdoc": {
				"kind": "dev",
				"methods": {},
				"version": 1
			},
			"evm": {
				"assembly": "    /* \"TestMessageInfo.sol\":57:613  contract TestMessageInfo {... */\n  mstore(0x40, 0x80)\n  callvalue\n  dup1\n  iszero\n  tag_1\n  jumpi\n  revert(0x00, 0x00)\ntag_1:\n  pop\n  dataSize(sub_0)\n  dup1\n  dataOffset(sub_0)\n  0x00\n  codecopy\n  0x00\n  return\nstop\n\nsub_0: assembly {\n        /* \"TestMessageInfo.sol\":57:613  contract TestMessageInfo {... */\n      mstore(0x40, 0x80)\n      jumpi(tag_1, lt(calldatasize, 0x04))\n      shr(0xe0, calldataload(0x00))\n      dup1\n      0x32a2c5d0\n      eq\n      tag_2\n      jumpi\n      dup1\n      0x4d54d98c\n      eq\n      tag_3\n      jumpi\n      dup1\n      0x51be4eaa\n      eq\n      tag_4\n      jumpi\n      dup1\n      0x6f9fb98a\n      eq\n      tag_5\n      jumpi\n      dup1\n      0x9640c12e\n      eq\n      tag_6\n      jumpi\n    tag_1:\n      revert(0x00, 0x00)\n        /* \"TestMessageInfo.sol\":212:309  function getContractAddress() public view returns (address) {... */\n    tag_2:\n      callvalue\n      dup1\n      iszero\n      tag_7\n      jumpi\n      revert(0x00, 0x00)\n    tag_7:\n      pop\n      tag_8\n      tag_9\n      jump\t// in\n    tag_8:\n      mload(0x40)\n      tag_10\n      swap2\n      swap1\n      tag_11\n      jump\t// in\n    tag_10:\n      mload(0x40)\n      dup1\n      swap2\n      sub\n      swap1\n      return\n        /* \"TestMessageInfo.sol\":517:611  function getBlockChainId() public view returns (uint256) {... */\n    tag_3:\n      callvalue\n      dup1\n      iszero\n      tag_12\n      jumpi\n      revert(0x00, 0x00)\n    tag_12:\n      pop\n      tag_13\n      tag_14\n      jump\t// in\n    tag_13:\n      mload(0x40)\n      tag_15\n      swap2\n      swap1\n      tag_16\n      jump\t// in\n    tag_15:\n      mload(0x40)\n      dup1\n      swap2\n      sub\n      swap1\n      return\n        /* \"TestMessageInfo.sol\":426:511  function getGasLeft() public view returns (uint256) {... */\n    tag_4:\n      callvalue\n      dup1\n      iszero\n      tag_17\n      jumpi\n      revert(0x00, 0x00)\n    tag_17:\n      pop\n      tag_18\n      tag_19\n      jump\t// in\n    tag_18:\n      mload(0x40)\n      tag_20\n      swap2\n      swap1\n      tag_16\n      jump\t// in\n    tag_20:\n      mload(0x40)\n      dup1\n      swap2\n      sub\n      swap1\n      return\n        /* \"TestMessageInfo.sol\":315:420  function getContractBalance() public view returns (uint256) {... */\n    tag_5:\n      callvalue\n      dup1\n      iszero\n      tag_21\n      jumpi\n      revert(0x00, 0x00)\n    tag_21:\n      pop\n      tag_22\n      tag_23\n      jump\t// in\n    tag_22:\n      mload(0x40)\n      tag_24\n      swap2\n      swap1\n      tag_16\n      jump\t// in\n    tag_24:\n      mload(0x40)\n      dup1\n      swap2\n      sub\n      swap1\n      return\n        /* \"TestMessageInfo.sol\":88:206  function getMessageDetails() public payable returns (address, uint256) {... */\n    tag_6:\n      tag_25\n      tag_26\n      jump\t// in\n    tag_25:\n      mload(0x40)\n      tag_27\n      swap3\n      swap2\n      swap1\n      tag_28\n      jump\t// in\n    tag_27:\n      mload(0x40)\n      dup1\n      swap2\n      sub\n      swap1\n      return\n        /* \"TestMessageInfo.sol\":212:309  function getContractAddress() public view returns (address) {... */\n    tag_9:\n        /* \"TestMessageInfo.sol\":263:270  address */\n      0x00\n        /* \"TestMessageInfo.sol\":297:301  this */\n      address\n        /* \"TestMessageInfo.sol\":282:302  return address(this) */\n      swap1\n      pop\n        /* \"TestMessageInfo.sol\":212:309  function getContractAddress() public view returns (address) {... */\n      swap1\n      jump\t// out\n        /* \"TestMessageInfo.sol\":517:611  function getBlockChainId() public view returns (uint256) {... */\n    tag_14:\n        /* \"TestMessageInfo.sol\":565:572  uint256 */\n      0x00\n        /* \"TestMessageInfo.sol\":591:604  block.chainid */\n      chainid\n        /* \"TestMessageInfo.sol\":584:604  return block.chainid */\n      swap1\n      pop\n        /* \"TestMessageInfo.sol\":517:611  function getBlockChainId() public view returns (uint256) {... */\n      swap1\n      jump\t// out\n        /* \"TestMessageInfo.sol\":426:511  function getGasLeft() public view returns (uint256) {... */\n    tag_19:\n        /* \"TestMessageInfo.sol\":469:476  uint256 */\n      0x00\n        /* \"TestMessageInfo.sol\":495:504  gasleft() */\n      gas\n        /* \"TestMessageInfo.sol\":488:504  return gasleft() */\n      swap1\n      pop\n        /* \"TestMessageInfo.sol\":426:511  function getGasLeft() public view returns (uint256) {... */\n      swap1\n      jump\t// out\n        /* \"TestMessageInfo.sol\":315:420  function getContractBalance() public view returns (uint256) {... */\n    tag_23:\n        /* \"TestMessageInfo.sol\":366:373  uint256 */\n      0x00\n        /* \"TestMessageInfo.sol\":392:413  address(this).balance */\n      selfbalance\n        /* \"TestMessageInfo.sol\":385:413  return address(this).balance */\n      swap1\n      pop\n        /* \"TestMessageInfo.sol\":315:420  function getContractBalance() public view returns (uint256) {... */\n      swap1\n      jump\t// out\n        /* \"TestMessageInfo.sol\":88:206  function getMessageDetails() public payable returns (address, uint256) {... */\n    tag_26:\n        /* \"TestMessageInfo.sol\":141:148  address */\n      0x00\n        /* \"TestMessageInfo.sol\":150:157  uint256 */\n      0x00\n        /* \"TestMessageInfo.sol\":177:187  msg.sender */\n      caller\n        /* \"TestMessageInfo.sol\":189:198  msg.value */\n      callvalue\n        /* \"TestMessageInfo.sol\":169:199  return (msg.sender, msg.value) */\n      swap2\n      pop\n      swap2\n      pop\n        /* \"TestMessageInfo.sol\":88:206  function getMessageDetails() public payable returns (address, uint256) {... */\n      swap1\n      swap2\n      jump\t// out\n        /* \"#utility.yul\":7:133   */\n    tag_34:\n        /* \"#utility.yul\":44:51   */\n      0x00\n        /* \"#utility.yul\":84:126   */\n      0xffffffffffffffffffffffffffffffffffffffff\n        /* \"#utility.yul\":77:82   */\n      dup3\n        /* \"#utility.yul\":73:127   */\n      and\n        /* \"#utility.yul\":62:127   */\n      swap1\n      pop\n        /* \"#utility.yul\":7:133   */\n      swap2\n      swap1\n      pop\n      jump\t// out\n        /* \"#utility.yul\":139:235   */\n    tag_35:\n        /* \"#utility.yul\":176:183   */\n      0x00\n        /* \"#utility.yul\":205:229   */\n      tag_42\n        /* \"#utility.yul\":223:228   */\n      dup3\n        /* \"#utility.yul\":205:229   */\n      tag_34\n      jump\t// in\n    tag_42:\n        /* \"#utility.yul\":194:229   */\n      swap1\n      pop\n        /* \"#utility.yul\":139:235   */\n      swap2\n      swap1\n      pop\n      jump\t// out\n        /* \"#utility.yul\":241:359   */\n    tag_36:\n        /* \"#utility.yul\":328:352   */\n      tag_44\n        /* \"#utility.yul\":346:351   */\n      dup2\n        /* \"#utility.yul\":328:352   */\n      tag_35\n      jump\t// in\n    tag_44:\n        /* \"#utility.yul\":323:326   */\n      dup3\n        /* \"#utility.yul\":316:353   */\n      mstore\n        /* \"#utility.yul\":241:359   */\n      pop\n      pop\n      jump\t// out\n        /* \"#utility.yul\":365:587   */\n    tag_11:\n        /* \"#utility.yul\":458:462   */\n      0x00\n        /* \"#utility.yul\":496:498   */\n      0x20\n        /* \"#utility.yul\":485:494   */\n      dup3\n        /* \"#utility.yul\":481:499   */\n      add\n        /* \"#utility.yul\":473:499   */\n      swap1\n      pop\n        /* \"#utility.yul\":509:580   */\n      tag_46\n        /* \"#utility.yul\":577:578   */\n      0x00\n        /* \"#utility.yul\":566:575   */\n      dup4\n        /* \"#utility.yul\":562:579   */\n      add\n        /* \"#utility.yul\":553:559   */\n      dup5\n        /* \"#utility.yul\":509:580   */\n      tag_36\n      jump\t// in\n    tag_46:\n        /* \"#utility.yul\":365:587   */\n      swap3\n      swap2\n      pop\n      pop\n      jump\t// out\n        /* \"#utility.yul\":593:670   */\n    tag_37:\n        /* \"#utility.yul\":630:637   */\n      0x00\n        /* \"#utility.yul\":659:664   */\n      dup2\n        /* \"#utility.yul\":648:664   */\n      swap1\n      pop\n        /* \"#utility.yul\":593:670   */\n      swap2\n      swap1\n      pop\n      jump\t// out\n        /* \"#utility.yul\":676:794   */\n    tag_38:\n        /* \"#utility.yul\":763:787   */\n      tag_49\n        /* \"#utility.yul\":781:786   */\n      dup2\n        /* \"#utility.yul\":763:787   */\n      tag_37\n      jump\t// in\n    tag_49:\n        /* \"#utility.yul\":758:761   */\n      dup3\n        /* \"#utility.yul\":751:788   */\n      mstore\n        /* \"#utility.yul\":676:794   */\n      pop\n      pop\n      jump\t// out\n        /* \"#utility.yul\":800:1022   */\n    tag_16:\n        /* \"#utility.yul\":893:897   */\n      0x00\n        /* \"#utility.yul\":931:933   */\n      0x20\n        /* \"#utility.yul\":920:929   */\n      dup3\n        /* \"#utility.yul\":916:934   */\n      add\n        /* \"#utility.yul\":908:934   */\n      swap1\n      pop\n        /* \"#utility.yul\":944:1015   */\n      tag_51\n        /* \"#utility.yul\":1012:1013   */\n      0x00\n        /* \"#utility.yul\":1001:1010   */\n      dup4\n        /* \"#utility.yul\":997:1014   */\n      add\n        /* \"#utility.yul\":988:994   */\n      dup5\n        /* \"#utility.yul\":944:1015   */\n      tag_38\n      jump\t// in\n    tag_51:\n        /* \"#utility.yul\":800:1022   */\n      swap3\n      swap2\n      pop\n      pop\n      jump\t// out\n        /* \"#utility.yul\":1028:1360   */\n    tag_28:\n        /* \"#utility.yul\":1149:1153   */\n      0x00\n        /* \"#utility.yul\":1187:1189   */\n      0x40\n        /* \"#utility.yul\":1176:1185   */\n      dup3\n        /* \"#utility.yul\":1172:1190   */\n      add\n        /* \"#utility.yul\":1164:1190   */\n      swap1\n      pop\n        /* \"#utility.yul\":1200:1271   */\n      tag_53\n        /* \"#utility.yul\":1268:1269   */\n      0x00\n        /* \"#utility.yul\":1257:1266   */\n      dup4\n        /* \"#utility.yul\":1253:1270   */\n      add\n        /* \"#utility.yul\":1244:1250   */\n      dup6\n        /* \"#utility.yul\":1200:1271   */\n      tag_36\n      jump\t// in\n    tag_53:\n        /* \"#utility.yul\":1281:1353   */\n      tag_54\n        /* \"#utility.yul\":1349:1351   */\n      0x20\n        /* \"#utility.yul\":1338:1347   */\n      dup4\n        /* \"#utility.yul\":1334:1352   */\n      add\n        /* \"#utility.yul\":1325:1331   */\n      dup5\n        /* \"#utility.yul\":1281:1353   */\n      tag_38\n      jump\t// in\n    tag_54:\n        /* \"#utility.yul\":1028:1360   */\n      swap4\n      swap3\n      pop\n      pop\n      pop\n      jump\t// out\n\n    auxdata: 0xa26469706673582212203e8b0e603faed37810dc9a6b985ebb8c909fe7a23888f8a5adca91582938a1f764736f6c634300081e0033\n}\n",
				"bytecode": {
					"linkReferences": {},
					"object": "6080604052348015600e575f5ffd5b506102228061001c5f395ff3fe608060405260043610610049575f3560e01c806332a2c5d01461004d5780634d54d98c1461007757806351be4eaa146100a15780636f9fb98a146100cb5780639640c12e146100f5575b5f5ffd5b348015610058575f5ffd5b50610061610114565b60405161006e919061017b565b60405180910390f35b348015610082575f5ffd5b5061008b61011b565b60405161009891906101ac565b60405180910390f35b3480156100ac575f5ffd5b506100b5610122565b6040516100c291906101ac565b60405180910390f35b3480156100d6575f5ffd5b506100df610129565b6040516100ec91906101ac565b60405180910390f35b6100fd610130565b60405161010b9291906101c5565b60405180910390f35b5f30905090565b5f46905090565b5f5a905090565b5f47905090565b5f5f3334915091509091565b5f73ffffffffffffffffffffffffffffffffffffffff82169050919050565b5f6101658261013c565b9050919050565b6101758161015b565b82525050565b5f60208201905061018e5f83018461016c565b92915050565b5f819050919050565b6101a681610194565b82525050565b5f6020820190506101bf5f83018461019d565b92915050565b5f6040820190506101d85f83018561016c565b6101e5602083018461019d565b939250505056fea26469706673582212203e8b0e603faed37810dc9a6b985ebb8c909fe7a23888f8a5adca91582938a1f764736f6c634300081e0033",
					"opcodes": "PUSH1 0x80 PUSH1 0x40 MSTORE CALLVALUE DUP1 ISZERO PUSH1 0xE JUMPI PUSH0 PUSH0 REVERT JUMPDEST POP PUSH2 0x222 DUP1 PUSH2 0x1C PUSH0 CODECOPY PUSH0 RETURN INVALID PUSH1 0x80 PUSH1 0x40 MSTORE PUSH1 0x4 CALLDATASIZE LT PUSH2 0x49 JUMPI PUSH0 CALLDATALOAD PUSH1 0xE0 SHR DUP1 PUSH4 0x32A2C5D0 EQ PUSH2 0x4D JUMPI DUP1 PUSH4 0x4D54D98C EQ PUSH2 0x77 JUMPI DUP1 PUSH4 0x51BE4EAA EQ PUSH2 0xA1 JUMPI DUP1 PUSH4 0x6F9FB98A EQ PUSH2 0xCB JUMPI DUP1 PUSH4 0x9640C12E EQ PUSH2 0xF5 JUMPI JUMPDEST PUSH0 PUSH0 REVERT JUMPDEST CALLVALUE DUP1 ISZERO PUSH2 0x58 JUMPI PUSH0 PUSH0 REVERT JUMPDEST POP PUSH2 0x61 PUSH2 0x114 JUMP JUMPDEST PUSH1 0x40 MLOAD PUSH2 0x6E SWAP2 SWAP1 PUSH2 0x17B JUMP JUMPDEST PUSH1 0x40 MLOAD DUP1 SWAP2 SUB SWAP1 RETURN JUMPDEST CALLVALUE DUP1 ISZERO PUSH2 0x82 JUMPI PUSH0 PUSH0 REVERT JUMPDEST POP PUSH2 0x8B PUSH2 0x11B JUMP JUMPDEST PUSH1 0x40 MLOAD PUSH2 0x98 SWAP2 SWAP1 PUSH2 0x1AC JUMP JUMPDEST PUSH1 0x40 MLOAD DUP1 SWAP2 SUB SWAP1 RETURN JUMPDEST CALLVALUE DUP1 ISZERO PUSH2 0xAC JUMPI PUSH0 PUSH0 REVERT JUMPDEST POP PUSH2 0xB5 PUSH2 0x122 JUMP JUMPDEST PUSH1 0x40 MLOAD PUSH2 0xC2 SWAP2 SWAP1 PUSH2 0x1AC JUMP JUMPDEST PUSH1 0x40 MLOAD DUP1 SWAP2 SUB SWAP1 RETURN JUMPDEST CALLVALUE DUP1 ISZERO PUSH2 0xD6 JUMPI PUSH0 PUSH0 REVERT JUMPDEST POP PUSH2 0xDF PUSH2 0x129 JUMP JUMPDEST PUSH1 0x40 MLOAD PUSH2 0xEC SWAP2 SWAP1 PUSH2 0x1AC JUMP JUMPDEST PUSH1 0x40 MLOAD DUP1 SWAP2 SUB SWAP1 RETURN JUMPDEST PUSH2 0xFD PUSH2 0x130 JUMP JUMPDEST PUSH1 0x40 MLOAD PUSH2 0x10B SWAP3 SWAP2 SWAP1 PUSH2 0x1C5 JUMP JUMPDEST PUSH1 0x40 MLOAD DUP1 SWAP2 SUB SWAP1 RETURN JUMPDEST PUSH0 ADDRESS SWAP1 POP SWAP1 JUMP JUMPDEST PUSH0 CHAINID SWAP1 POP SWAP1 JUMP JUMPDEST PUSH0 GAS SWAP1 POP SWAP1 JUMP JUMPDEST PUSH0 SELFBALANCE SWAP1 POP SWAP1 JUMP JUMPDEST PUSH0 PUSH0 CALLER CALLVALUE SWAP2 POP SWAP2 POP SWAP1 SWAP2 JUMP JUMPDEST PUSH0 PUSH20 0xFFFFFFFFFFFFFFFFFFFFFFFFFFFFFFFFFFFFFFFF DUP3 AND SWAP1 POP SWAP2 SWAP1 POP JUMP JUMPDEST PUSH0 PUSH2 0x165 DUP3 PUSH2 0x13C JUMP JUMPDEST SWAP1 POP SWAP2 SWAP1 POP JUMP JUMPDEST PUSH2 0x175 DUP2 PUSH2 0x15B JUMP JUMPDEST DUP3 MSTORE POP POP JUMP JUMPDEST PUSH0 PUSH1 0x20 DUP3 ADD SWAP1 POP PUSH2 0x18E PUSH0 DUP4 ADD DUP5 PUSH2 0x16C JUMP JUMPDEST SWAP3 SWAP2 POP POP JUMP JUMPDEST PUSH0 DUP2 SWAP1 POP SWAP2 SWAP1 POP JUMP JUMPDEST PUSH2 0x1A6 DUP2 PUSH2 0x194 JUMP JUMPDEST DUP3 MSTORE POP POP JUMP JUMPDEST PUSH0 PUSH1 0x20 DUP3 ADD SWAP1 POP PUSH2 0x1BF PUSH0 DUP4 ADD DUP5 PUSH2 0x19D JUMP JUMPDEST SWAP3 SWAP2 POP POP JUMP JUMPDEST PUSH0 PUSH1 0x40 DUP3 ADD SWAP1 POP PUSH2 0x1D8 PUSH0 DUP4 ADD DUP6 PUSH2 0x16C JUMP JUMPDEST PUSH2 0x1E5 PUSH1 0x20 DUP4 ADD DUP5 PUSH2 0x19D JUMP JUMPDEST SWAP4 SWAP3 POP POP POP JUMP INVALID LOG2 PUSH5 0x6970667358 0x22 SLT KECCAK256 RETURNDATACOPY DUP12 0xE PUSH1 0x3F 0xAE 0xD3 PUSH25 0x10DC9A6B985EBB8C909FE7A23888F8A5ADCA91582938A1F764 PUSH20 0x6F6C634300081E00330000000000000000000000 "
				},
				"gasEstimates": {
					"creation": {
						"codeDepositCost": "109200",
						"executionCost": "157",
						"totalCost": "109357"
					},
					"external": {
						"getBlockChainId()": "331",
						"getContractAddress()": "357",
						"getContractBalance()": "378",
						"getGasLeft()": "353",
						"getMessageDetails()": "532"
					}
				},
				"methodIdentifiers": {
					"getBlockChainId()": "4d54d98c",
					"getContractAddress()": "32a2c5d0",
					"getContractBalance()": "6f9fb98a",
					"getGasLeft()": "51be4eaa",
					"getMessageDetails()": "9640c12e"
				}
			},
			"storageLayout": {
				"storage": [],
				"types": null
			},
			"userdoc": {
				"kind": "user",
				"methods": {},
				"version": 1
			}
		}
	}
}