{
	"data": {
		"bytecode": {
			"linkReferences": {},
			"object": "6080604052348015600e575f5ffd5b5061014a8061001c5f395ff3fe608060405234801561000f575f5ffd5b506004361061003e575f3560e01c806235921a146100425780636c1f222f1461006057806372a099b71461007e575b5f5ffd5b61004a61009c565b60405161005791906100fb565b60405180910390f35b6100686100b1565b60405161007591906100fb565b60405180910390f35b6100866100cb565b60405161009391906100fb565b60405180910390f35b5f5f608090505f600282029050809250505090565b5f5f60f090505f601090505f818301905080935050505090565b5f5f600190505f600282039050809250505090565b5f60ff82169050919050565b6100f5816100e0565b82525050565b5f60208201905061010e5f8301846100ec565b9291505056fea264697066735822122017c6f18f3adef03ccab59f6c520a36cb59ed838a17f4e34f7ca61e162f6e88e564736f6c634300081e0033",
			"opcodes": "PUSH1 0x80 PUSH1 0x40 MSTORE CALLVALUE DUP1 ISZERO PUSH1 0xE JUMPI PUSH0 PUSH0 REVERT JUMPDEST POP PUSH2 0x14A DUP1 PUSH2 0x1C PUSH0 CODECOPY PUSH0 RETURN INVALID PUSH1 0x80 PUSH1 0x40 MSTORE CALLVALUE DUP1 ISZERO PUSH2 0xF JUMPI PUSH0 PUSH0 REVERT JUMPDEST POP PUSH1 0x4 CALLDATASIZE LT PUSH2 0x3E JUMPI PUSH0 CALLDATALOAD PUSH1 0xE0 SHR DUP1 PUSH3 0x35921A EQ PUSH2 0x42 JUMPI DUP1 PUSH4 0x6C1F222F EQ PUSH2 0x60 JUMPI DUP1 PUSH4 0x72A099B7 EQ PUSH2 0x7E JUMPI JUMPDEST PUSH0 PUSH0 REVERT JUMPDEST PUSH2 0x4A PUSH2 0x9C JUMP JUMPDEST PUSH1 0x40 MLOAD PUSH2 0x57 SWAP2 SWAP1 PUSH2 0xFB JUMP JUMPDEST PUSH1 0x40 MLOAD DUP1 SWAP2 SUB SWAP1 RETURN JUMPDEST PUSH2 0x68 PUSH2 0xB1 JUMP JUMPDEST PUSH1 0x40 MLOAD PUSH2 0x75 SWAP2 SWAP1 PUSH2 0xFB JUMP JUMPDEST PUSH1 0x40 MLOAD DUP1 SWAP2 SUB SWAP1 RETURN JUMPDEST PUSH2 0x86 PUSH2 0xCB JUMP JUMPDEST PUSH1 0x40 MLOAD PUSH2 0x93 SWAP2 SWAP1 PUSH2 0xFB JUMP JUMPDEST PUSH1 0x40 MLOAD DUP1 SWAP2 SUB SWAP1 RETURN JUMPDEST PUSH0 PUSH0 PUSH1 0x80 SWAP1 POP PUSH0 PUSH1 0x2 DUP3 MUL SWAP1 POP DUP1 SWAP3 POP POP POP SWAP1 JUMP JUMPDEST PUSH0 PUSH0 PUSH1 0xF0 SWAP1 POP PUSH0 PUSH1 0x10 SWAP1 POP PUSH0 DUP2 DUP4 ADD SWAP1 POP DUP1 SWAP4 POP POP POP POP SWAP1 JUMP JUMPDEST PUSH0 PUSH0 PUSH1 0x1 SWAP1 POP PUSH0 PUSH1 0x2 DUP3 SUB SWAP1 POP DUP1 SWAP3 POP POP POP SWAP1 JUMP JUMPDEST PUSH0 PUSH1 0xFF DUP3 AND SWAP1 POP SWAP2 SWAP1 POP JUMP JUMPDEST PUSH2 0xF5 DUP2 PUSH2 0xE0 JUMP JUMPDEST DUP3 MSTORE POP POP JUMP JUMPDEST PUSH0 PUSH1 0x20 DUP3 ADD SWAP1 POP PUSH2 0x10E PUSH0 DUP4 ADD DUP5 PUSH2 0xEC JUMP JUMPDEST SWAP3 SWAP2 POP POP JUMP INVALID LOG2 PUSH5 0x6970667358 0x22 SLT KECCAK256 OR 0xC6 CALL DUP16 GASPRICE 0xDE CREATE EXTCODECOPY 0xCA 0xB5 SWAP16 PUSH13 0x520A36CB59ED838A17F4E34F7C 0xA6 0x1E AND 0x2F PUSH15 0x88E564736F6C634300081E00330000 "
		},
		"gasEstimates": {
			"creation": {
				"codeDepositCost": "66000",
				"executionCost": "115",
				"totalCost": "66115"
			},
			"external": {
				"add1()": "348",
				"add2()": "380",
				"sub1()": "390"
			}
		},
		"methodIdentifiers": {
			"add1()": "0035921a",
			"add2()": "6c1f222f",
			"sub1()": "72a099b7"
		}
	},
	"abi": [
		{
			"inputs": [],
			"name": "add1",
			"outputs": [
				{
					"internalType": "uint8",
					"name": "",
					"type": "uint8"
				}
			],
			"stateMutability": "pure",
			"type": "function"
		},
		{
			"inputs": [],
			"name": "add2",
			"outputs": [
				{
					"internalType": "uint8",
					"name": "",
					"type": "uint8"
				}
			],
			"stateMutability": "pure",
			"type": "function"
		},
		{
			"inputs": [],
			"name": "sub1",
			"outputs": [
				{
					"internalType": "uint8",
					"name": "",
					"type": "uint8"
				}
			],
			"stateMutability": "pure",
			"type": "function"
		}
	]
}