{
	"data": {
		"bytecode": {
			"linkReferences": {},
			"object": "6080604052348015600e575f5ffd5b5060d480601a5f395ff3fe6080604052348015600e575f5ffd5b50600436106030575f3560e01c8063bd38216e146034578063f8a8fd6d14604f575b5f5ffd5b603a6057565b6040516046929190607b565b60405180910390f35b60556063565b005b5f5f4342915091509091565b565b5f819050919050565b6075816065565b82525050565b5f604082019050608c5f830185606e565b60976020830184606e565b939250505056fea2646970667358221220e30e0b0b7c3755594bae09c5c5fd6c3702091d4ad09617bcbb5faa367ca0031464736f6c634300081e0033",
			"opcodes": "PUSH1 0x80 PUSH1 0x40 MSTORE CALLVALUE DUP1 ISZERO PUSH1 0xE JUMPI PUSH0 PUSH0 REVERT JUMPDEST POP PUSH1 0xD4 DUP1 PUSH1 0x1A PUSH0 CODECOPY PUSH0 RETURN INVALID PUSH1 0x80 PUSH1 0x40 MSTORE CALLVALUE DUP1 ISZERO PUSH1 0xE JUMPI PUSH0 PUSH0 REVERT JUMPDEST POP PUSH1 0x4 CALLDATASIZE LT PUSH1 0x30 JUMPI PUSH0 CALLDATALOAD PUSH1 0xE0 SHR DUP1 PUSH4 0xBD38216E EQ PUSH1 0x34 JUMPI DUP1 PUSH4 0xF8A8FD6D EQ PUSH1 0x4F JUMPI JUMPDEST PUSH0 PUSH0 REVERT JUMPDEST PUSH1 0x3A PUSH1 0x57 JUMP JUMPDEST PUSH1 0x40 MLOAD PUSH1 0x46 SWAP3 SWAP2 SWAP1 PUSH1 0x7B JUMP JUMPDEST PUSH1 0x40 MLOAD DUP1 SWAP2 SUB SWAP1 RETURN JUMPDEST PUSH1 0x55 PUSH1 0x63 JUMP JUMPDEST STOP JUMPDEST PUSH0 PUSH0 NUMBER TIMESTAMP SWAP2 POP SWAP2 POP SWAP1 SWAP2 JUMP JUMPDEST JUMP JUMPDEST PUSH0 DUP2 SWAP1 POP SWAP2 SWAP1 POP JUMP JUMPDEST PUSH1 0x75 DUP2 PUSH1 0x65 JUMP JUMPDEST DUP3 MSTORE POP POP JUMP JUMPDEST PUSH0 PUSH1 0x40 DUP3 ADD SWAP1 POP PUSH1 0x8C PUSH0 DUP4 ADD DUP6 PUSH1 0x6E JUMP JUMPDEST PUSH1 0x97 PUSH1 0x20 DUP4 ADD DUP5 PUSH1 0x6E JUMP JUMPDEST SWAP4 SWAP3 POP POP POP JUMP INVALID LOG2 PUSH5 0x6970667358 0x22 SLT KECCAK256 CALLF 0xE0B SIGNEXTEND PUSH29 0x3755594BAE09C5C5FD6C3702091D4AD09617BCBB5FAA367CA003146473 PUSH16 0x6C634300081E00330000000000000000 "
		},
		"gasEstimates": {
			"creation": {
				"codeDepositCost": "42400",
				"executionCost": "91",
				"totalCost": "42491"
			},
			"external": {
				"getBlockDetails()": "infinite",
				"test()": "143"
			}
		},
		"methodIdentifiers": {
			"getBlockDetails()": "bd38216e",
			"test()": "f8a8fd6d"
		}
	},
	"abi": [
		{
			"inputs": [],
			"name": "getBlockDetails",
			"outputs": [
				{
					"internalType": "uint256",
					"name": "",
					"type": "uint256"
				},
				{
					"internalType": "uint256",
					"name": "",
					"type": "uint256"
				}
			],
			"stateMutability": "view",
			"type": "function"
		},
		{
			"inputs": [],
			"name": "test",
			"outputs": [],
			"stateMutability": "nonpayable",
			"type": "function"
		}
	]
}