{
	"data": {
		"bytecode": {
			"linkReferences": {},
			"object": "6080604052600a5f556040518060600160405280600160ff168152602001600260ff168152602001600360ff16815250600290600361003f929190610280565b50600567ffffffffffffffff81111561005b5761005a610440565b5b6040519080825280602002602001820160405280156100895781602001602082028036833780820191505090505b506003908051906020019061009f9291906102d0565b506040518060600160405280600160ff168152602001600260ff168152602001600360ff1681525060079060036100d792919061031b565b5060405180606001604052806040518060400160405280600160ff168152602001600260ff1681525081526020016040518060400160405280600360ff168152602001600460ff1681525081526020016040518060400160405280600560ff168152602001600660ff16815250815250600d906003610157929190610360565b50600d5f6003811061016c5761016b61046d565b5b600202016001600281106101835761018261046d565b5b01546013556040518060400160405280600581526020017f6162632222000000000000000000000000000000000000000000000000000000815250601490816101cc91906106aa565b50600a67ffffffffffffffff8111156101e8576101e7610440565b5b6040519080825280601f01601f19166020018201604052801561021a5781602001600182028036833780820191505090505b50601590816102299190610783565b506040518060400160405280600c81526020017f54696e7958696f6e67e7868a00000000000000000000000000000000000000008152506017908161026e91906108aa565b5034801561027a575f5ffd5b50610979565b828054828255905f5260205f209081019282156102bf579160200282015b828111156102be578251829060ff1690559160200191906001019061029e565b5b5090506102cc91906103b1565b5090565b828054828255905f5260205f2090810192821561030a579160200282015b828111156103095782518255916020019190600101906102ee565b5b50905061031791906103b1565b5090565b826006810192821561034f579160200282015b8281111561034e578251829060ff1690559160200191906001019061032e565b5b50905061035c91906103b1565b5090565b82600360020281019282156103a0579160200282015b8281111561039f5782518290600261038f9291906103cc565b5091602001919060020190610376565b5b5090506103ad9190610411565b5090565b5b808211156103c8575f815f9055506001016103b2565b5090565b8260028101928215610400579160200282015b828111156103ff578251829060ff169055916020019190600101906103df565b5b50905061040d91906103b1565b5090565b5b80821115610430575f81816104279190610434565b50600201610412565b5090565b505f81556001015f9055565b7f4e487b71000000000000000000000000000000000000000000000000000000005f52604160045260245ffd5b7f4e487b71000000000000000000000000000000000000000000000000000000005f52603260045260245ffd5b5f81519050919050565b7f4e487b71000000000000000000000000000000000000000000000000000000005f52602260045260245ffd5b5f60028204905060018216806104e857607f821691505b6020821081036104fb576104fa6104a4565b5b50919050565b5f819050815f5260205f209050919050565b5f6020601f8301049050919050565b5f82821b905092915050565b5f6008830261055d7fffffffffffffffffffffffffffffffffffffffffffffffffffffffffffffffff82610522565b6105678683610522565b95508019841693508086168417925050509392505050565b5f819050919050565b5f819050919050565b5f6105ab6105a66105a18461057f565b610588565b61057f565b9050919050565b5f819050919050565b6105c483610591565b6105d86105d0826105b2565b84845461052e565b825550505050565b5f5f905090565b6105ef6105e0565b6105fa8184846105bb565b505050565b5b8181101561061d576106125f826105e7565b600181019050610600565b5050565b601f8211156106625761063381610501565b61063c84610513565b8101602085101561064b578190505b61065f61065785610513565b8301826105ff565b50505b505050565b5f82821c905092915050565b5f6106825f1984600802610667565b1980831691505092915050565b5f61069a8383610673565b9150826002028217905092915050565b6106b38261049a565b67ffffffffffffffff8111156106cc576106cb610440565b5b6106d682546104d1565b6106e1828285610621565b5f60209050601f831160018114610712575f8415610700578287015190505b61070a858261068f565b865550610771565b601f19841661072086610501565b5f5b8281101561074757848901518255600182019150602085019450602081019050610722565b868310156107645784890151610760601f891682610673565b8355505b6001600288020188555050505b505050505050565b5f81519050919050565b61078c82610779565b67ffffffffffffffff8111156107a5576107a4610440565b5b6107af82546104d1565b6107ba828285610621565b5f60209050601f8311600181146107eb575f84156107d9578287015190505b6107e3858261068f565b86555061084a565b601f1984166107f986610501565b5f5b82811015610820578489015182556001820191506020850194506020810190506107fb565b8683101561083d5784890151610839601f891682610673565b8355505b6001600288020188555050505b505050505050565b5f819050815f5260205f209050919050565b601f8211156108a55761087681610852565b61087f84610513565b8101602085101561088e578190505b6108a261089a85610513565b8301826105ff565b50505b505050565b6108b38261049a565b67ffffffffffffffff8111156108cc576108cb610440565b5b6108d682546104d1565b6108e1828285610864565b5f60209050601f831160018114610912575f8415610900578287015190505b61090a858261068f565b865550610971565b601f19841661092086610852565b5f5b8281101561094757848901518255600182019150602085019450602081019050610922565b868310156109645784890151610960601f891682610673565b8355505b6001600288020188555050505b505050505050565b6111e7806109865f395ff3fe608060405234801561000f575f5ffd5b5060043610610135575f3560e01c80637521ace0116100b6578063abd05e671161007a578063abd05e671461037d578063c4ed0b31146103ad578063c5e8a794146103cb578063d118d187146103fb578063edf0099b14610419578063f94370981461044957610135565b80637521ace0146102c05780637b554892146102df5780638732ded8146102fe578063a542a8331461032e578063a56504661461034d57610135565b806341232fc9116100fd57806341232fc9146102055780635478a4dc1461023557806368beab3f1461025357806371e5ee5f1461027157806373ca6165146102a157610135565b80630dbe671f1461013957806314f082981461015757806324b25db21461018757806327e71b31146101b75780632884fd00146101e7575b5f5ffd5b610141610468565b60405161014e9190610b53565b60405180910390f35b610171600480360381019061016c9190610b9e565b61046d565b60405161017e9190610c39565b60405180910390f35b6101a1600480360381019061019c9190610b9e565b610474565b6040516101ae9190610b53565b60405180910390f35b6101d160048036038101906101cc9190610cae565b61048d565b6040516101de9190610cf1565b60405180910390f35b6101ef610593565b6040516101fc9190610b53565b60405180910390f35b61021f600480360381019061021a9190610b9e565b610599565b60405161022c9190610b53565b60405180910390f35b61023d6105b2565b60405161024a9190610d5c565b60405180910390f35b61025b61063e565b6040516102689190610d5c565b60405180910390f35b61028b60048036038101906102869190610b9e565b6106ca565b6040516102989190610b53565b60405180910390f35b6102a96106ea565b6040516102b7929190610e21565b60405180910390f35b6102c861073b565b6040516102d6929190610ed9565b60405180910390f35b6102e761079b565b6040516102f5929190610ed9565b60405180910390f35b61031860048036038101906103139190610b9e565b6107fb565b6040516103259190610b53565b60405180910390f35b61033661081b565b604051610344929190610f86565b60405180910390f35b6103676004803603810190610362919061100e565b61086c565b6040516103749190610d5c565b60405180910390f35b61039760048036038101906103929190610b9e565b6108cc565b6040516103a4919061108e565b60405180910390f35b6103b5610934565b6040516103c29190610c39565b60405180910390f35b6103e560048036038101906103e091906110a7565b6109c0565b6040516103f29190610b53565b60405180910390f35b6104036109eb565b6040516104109190610c39565b60405180910390f35b610433600480360381019061042e9190610b9e565b610a77565b6040516104409190610b53565b60405180910390f35b610451610a97565b60405161045f929190610ed9565b60405180910390f35b5f5481565b6060919050565b60078160068110610483575f80fd5b015f915090505481565b5f5f5f90505b601480546104a090611112565b905081101561056957827effffffffffffffffffffffffffffffffffffffffffffffffffffffffffffff191660148281546104da90611112565b81106104e9576104e8611142565b5b81546001161561050657905f5260205f2090602091828204019190065b9054901a7f0100000000000000000000000000000000000000000000000000000000000000027effffffffffffffffffffffffffffffffffffffffffffffffffffffffffffff19160361055c578091505061058e565b8080600101915050610493565b507fffffffffffffffffffffffffffffffffffffffffffffffffffffffffffffffff90505b919050565b60135481565b600481600381106105a8575f80fd5b015f915090505481565b601480546105bf90611112565b80601f01602080910402602001604051908101604052809291908181526020018280546105eb90611112565b80156106365780601f1061060d57610100808354040283529160200191610636565b820191905f5260205f20905b81548152906001019060200180831161061957829003601f168201915b505050505081565b6015805461064b90611112565b80601f016020809104026020016040519081016040528092919081815260200182805461067790611112565b80156106c25780601f10610699576101008083540402835291602001916106c2565b820191905f5260205f20905b8154815290600101906020018083116106a557829003601f168201915b505050505081565b600181815481106106d9575f80fd5b905f5260205f20015f915090505481565b6106f2610af7565b5f600760068060200260405190810160405280929190826006801561072c576020028201915b815481526020019060010190808311610718575b50505050509150600690509091565b60605f600180548060200260200160405190810160405280929190818152602001828054801561078857602002820191905f5260205f20905b815481526020019060010190808311610774575b5050505050915060018054905090509091565b60605f60038054806020026020016040519081016040528092919081815260200182805480156107e857602002820191905f5260205f20905b8154815260200190600101908083116107d4575b5050505050915060038054905090509091565b6003818154811061080a575f80fd5b905f5260205f20015f915090505481565b610823610b19565b5f600460038060200260405190810160405280929190826003801561085d576020028201915b815481526020019060010190808311610849575b50505050509150600390509091565b606084848490849261088093929190611177565b8080601f0160208091040260200160405190810160405280939291908181526020018383808284375f81840152601f19601f820116905080830192505050505050509050949350505050565b5f60148281546108db90611112565b81106108ea576108e9611142565b5b81546001161561090757905f5260205f2090602091828204019190065b9054901a7f0100000000000000000000000000000000000000000000000000000000000000029050919050565b6016805461094190611112565b80601f016020809104026020016040519081016040528092919081815260200182805461096d90611112565b80156109b85780601f1061098f576101008083540402835291602001916109b8565b820191905f5260205f20905b81548152906001019060200180831161099b57829003601f168201915b505050505081565b600d82600381106109cf575f80fd5b6002020181600281106109e0575f80fd5b015f91509150505481565b601780546109f890611112565b80601f0160208091040260200160405190810160405280929190818152602001828054610a2490611112565b8015610a6f5780601f10610a4657610100808354040283529160200191610a6f565b820191905f5260205f20905b815481529060010190602001808311610a5257829003601f168201915b505050505081565b60028181548110610a86575f80fd5b905f5260205f20015f915090505481565b60605f6002805480602002602001604051908101604052809291908181526020018280548015610ae457602002820191905f5260205f20905b815481526020019060010190808311610ad0575b5050505050915060028054905090509091565b6040518060c00160405280600690602082028036833780820191505090505090565b6040518060600160405280600390602082028036833780820191505090505090565b5f819050919050565b610b4d81610b3b565b82525050565b5f602082019050610b665f830184610b44565b92915050565b5f5ffd5b5f5ffd5b610b7d81610b3b565b8114610b87575f5ffd5b50565b5f81359050610b9881610b74565b92915050565b5f60208284031215610bb357610bb2610b6c565b5b5f610bc084828501610b8a565b91505092915050565b5f81519050919050565b5f82825260208201905092915050565b8281835e5f83830152505050565b5f601f19601f8301169050919050565b5f610c0b82610bc9565b610c158185610bd3565b9350610c25818560208601610be3565b610c2e81610bf1565b840191505092915050565b5f6020820190508181035f830152610c518184610c01565b905092915050565b5f7fff0000000000000000000000000000000000000000000000000000000000000082169050919050565b610c8d81610c59565b8114610c97575f5ffd5b50565b5f81359050610ca881610c84565b92915050565b5f60208284031215610cc357610cc2610b6c565b5b5f610cd084828501610c9a565b91505092915050565b5f819050919050565b610ceb81610cd9565b82525050565b5f602082019050610d045f830184610ce2565b92915050565b5f81519050919050565b5f82825260208201905092915050565b5f610d2e82610d0a565b610d388185610d14565b9350610d48818560208601610be3565b610d5181610bf1565b840191505092915050565b5f6020820190508181035f830152610d748184610d24565b905092915050565b5f60069050919050565b5f81905092915050565b5f819050919050565b610da281610b3b565b82525050565b5f610db38383610d99565b60208301905092915050565b5f602082019050919050565b610dd481610d7c565b610dde8184610d86565b9250610de982610d90565b805f5b83811015610e19578151610e008782610da8565b9650610e0b83610dbf565b925050600181019050610dec565b505050505050565b5f60e082019050610e345f830185610dcb565b610e4160c0830184610b44565b9392505050565b5f81519050919050565b5f82825260208201905092915050565b5f819050602082019050919050565b5f602082019050919050565b5f610e8782610e48565b610e918185610e52565b9350610e9c83610e62565b805f5b83811015610ecc578151610eb38882610da8565b9750610ebe83610e71565b925050600181019050610e9f565b5085935050505092915050565b5f6040820190508181035f830152610ef18185610e7d565b9050610f006020830184610b44565b9392505050565b5f60039050919050565b5f81905092915050565b5f819050919050565b5f602082019050919050565b610f3981610f07565b610f438184610f11565b9250610f4e82610f1b565b805f5b83811015610f7e578151610f658782610da8565b9650610f7083610f24565b925050600181019050610f51565b505050505050565b5f608082019050610f995f830185610f30565b610fa66060830184610b44565b9392505050565b5f5ffd5b5f5ffd5b5f5ffd5b5f5f83601f840112610fce57610fcd610fad565b5b8235905067ffffffffffffffff811115610feb57610fea610fb1565b5b60208301915083600182028301111561100757611006610fb5565b5b9250929050565b5f5f5f5f6060858703121561102657611025610b6c565b5b5f85013567ffffffffffffffff81111561104357611042610b70565b5b61104f87828801610fb9565b9450945050602061106287828801610b8a565b925050604061107387828801610b8a565b91505092959194509250565b61108881610c59565b82525050565b5f6020820190506110a15f83018461107f565b92915050565b5f5f604083850312156110bd576110bc610b6c565b5b5f6110ca85828601610b8a565b92505060206110db85828601610b8a565b9150509250929050565b7f4e487b71000000000000000000000000000000000000000000000000000000005f52602260045260245ffd5b5f600282049050600182168061112957607f821691505b60208210810361113c5761113b6110e5565b5b50919050565b7f4e487b71000000000000000000000000000000000000000000000000000000005f52603260045260245ffd5b5f5ffd5b5f5ffd5b5f5f8585111561118a5761118961116f565b5b8386111561119b5761119a611173565b5b600185028301915084860390509450949250505056fea2646970667358221220f2b46cab253d0ef2ee1745a268815aab42d618eca5d53e3abbfec3912849ad4d64736f6c634300081e0033",
			"opcodes": "PUSH1 0x80 PUSH1 0x40 MSTORE PUSH1 0xA PUSH0 SSTORE PUSH1 0x40 MLOAD DUP1 PUSH1 0x60 ADD PUSH1 0x40 MSTORE DUP1 PUSH1 0x1 PUSH1 0xFF AND DUP2 MSTORE PUSH1 0x20 ADD PUSH1 0x2 PUSH1 0xFF AND DUP2 MSTORE PUSH1 0x20 ADD PUSH1 0x3 PUSH1 0xFF AND DUP2 MSTORE POP PUSH1 0x2 SWAP1 PUSH1 0x3 PUSH2 0x3F SWAP3 SWAP2 SWAP1 PUSH2 0x280 JUMP JUMPDEST POP PUSH1 0x5 PUSH8 0xFFFFFFFFFFFFFFFF DUP2 GT ISZERO PUSH2 0x5B JUMPI PUSH2 0x5A PUSH2 0x440 JUMP JUMPDEST JUMPDEST PUSH1 0x40 MLOAD SWAP1 DUP1 DUP3 MSTORE DUP1 PUSH1 0x20 MUL PUSH1 0x20 ADD DUP3 ADD PUSH1 0x40 MSTORE DUP1 ISZERO PUSH2 0x89 JUMPI DUP2 PUSH1 0x20 ADD PUSH1 0x20 DUP3 MUL DUP1 CALLDATASIZE DUP4 CALLDATACOPY DUP1 DUP3 ADD SWAP2 POP POP SWAP1 POP JUMPDEST POP PUSH1 0x3 SWAP1 DUP1 MLOAD SWAP1 PUSH1 0x20 ADD SWAP1 PUSH2 0x9F SWAP3 SWAP2 SWAP1 PUSH2 0x2D0 JUMP JUMPDEST POP PUSH1 0x40 MLOAD DUP1 PUSH1 0x60 ADD PUSH1 0x40 MSTORE DUP1 PUSH1 0x1 PUSH1 0xFF AND DUP2 MSTORE PUSH1 0x20 ADD PUSH1 0x2 PUSH1 0xFF AND DUP2 MSTORE PUSH1 0x20 ADD PUSH1 0x3 PUSH1 0xFF AND DUP2 MSTORE POP PUSH1 0x7 SWAP1 PUSH1 0x3 PUSH2 0xD7 SWAP3 SWAP2 SWAP1 PUSH2 0x31B JUMP JUMPDEST POP PUSH1 0x40 MLOAD DUP1 PUSH1 0x60 ADD PUSH1 0x40 MSTORE DUP1 PUSH1 0x40 MLOAD DUP1 PUSH1 0x40 ADD PUSH1 0x40 MSTORE DUP1 PUSH1 0x1 PUSH1 0xFF AND DUP2 MSTORE PUSH1 0x20 ADD PUSH1 0x2 PUSH1 0xFF AND DUP2 MSTORE POP DUP2 MSTORE PUSH1 0x20 ADD PUSH1 0x40 MLOAD DUP1 PUSH1 0x40 ADD PUSH1 0x40 MSTORE DUP1 PUSH1 0x3 PUSH1 0xFF AND DUP2 MSTORE PUSH1 0x20 ADD PUSH1 0x4 PUSH1 0xFF AND DUP2 MSTORE POP DUP2 MSTORE PUSH1 0x20 ADD PUSH1 0x40 MLOAD DUP1 PUSH1 0x40 ADD PUSH1 0x40 MSTORE DUP1 PUSH1 0x5 PUSH1 0xFF AND DUP2 MSTORE PUSH1 0x20 ADD PUSH1 0x6 PUSH1 0xFF AND DUP2 MSTORE POP DUP2 MSTORE POP PUSH1 0xD SWAP1 PUSH1 0x3 PUSH2 0x157 SWAP3 SWAP2 SWAP1 PUSH2 0x360 JUMP JUMPDEST POP PUSH1 0xD PUSH0 PUSH1 0x3 DUP2 LT PUSH2 0x16C JUMPI PUSH2 0x16B PUSH2 0x46D JUMP JUMPDEST JUMPDEST PUSH1 0x2 MUL ADD PUSH1 0x1 PUSH1 0x2 DUP2 LT PUSH2 0x183 JUMPI PUSH2 0x182 PUSH2 0x46D JUMP JUMPDEST JUMPDEST ADD SLOAD PUSH1 0x13 SSTORE PUSH1 0x40 MLOAD DUP1 PUSH1 0x40 ADD PUSH1 0x40 MSTORE DUP1 PUSH1 0x5 DUP2 MSTORE PUSH1 0x20 ADD PUSH32 0x6162632222000000000000000000000000000000000000000000000000000000 DUP2 MSTORE POP PUSH1 0x14 SWAP1 DUP2 PUSH2 0x1CC SWAP2 SWAP1 PUSH2 0x6AA JUMP JUMPDEST POP PUSH1 0xA PUSH8 0xFFFFFFFFFFFFFFFF DUP2 GT ISZERO PUSH2 0x1E8 JUMPI PUSH2 0x1E7 PUSH2 0x440 JUMP JUMPDEST JUMPDEST PUSH1 0x40 MLOAD SWAP1 DUP1 DUP3 MSTORE DUP1 PUSH1 0x1F ADD PUSH1 0x1F NOT AND PUSH1 0x20 ADD DUP3 ADD PUSH1 0x40 MSTORE DUP1 ISZERO PUSH2 0x21A JUMPI DUP2 PUSH1 0x20 ADD PUSH1 0x1 DUP3 MUL DUP1 CALLDATASIZE DUP4 CALLDATACOPY DUP1 DUP3 ADD SWAP2 POP POP SWAP1 POP JUMPDEST POP PUSH1 0x15 SWAP1 DUP2 PUSH2 0x229 SWAP2 SWAP1 PUSH2 0x783 JUMP JUMPDEST POP PUSH1 0x40 MLOAD DUP1 PUSH1 0x40 ADD PUSH1 0x40 MSTORE DUP1 PUSH1 0xC DUP2 MSTORE PUSH1 0x20 ADD PUSH32 0x54696E7958696F6E67E7868A0000000000000000000000000000000000000000 DUP2 MSTORE POP PUSH1 0x17 SWAP1 DUP2 PUSH2 0x26E SWAP2 SWAP1 PUSH2 0x8AA JUMP JUMPDEST POP CALLVALUE DUP1 ISZERO PUSH2 0x27A JUMPI PUSH0 PUSH0 REVERT JUMPDEST POP PUSH2 0x979 JUMP JUMPDEST DUP3 DUP1 SLOAD DUP3 DUP3 SSTORE SWAP1 PUSH0 MSTORE PUSH1 0x20 PUSH0 KECCAK256 SWAP1 DUP2 ADD SWAP3 DUP3 ISZERO PUSH2 0x2BF JUMPI SWAP2 PUSH1 0x20 MUL DUP3 ADD JUMPDEST DUP3 DUP2 GT ISZERO PUSH2 0x2BE JUMPI DUP3 MLOAD DUP3 SWAP1 PUSH1 0xFF AND SWAP1 SSTORE SWAP2 PUSH1 0x20 ADD SWAP2 SWAP1 PUSH1 0x1 ADD SWAP1 PUSH2 0x29E JUMP JUMPDEST JUMPDEST POP SWAP1 POP PUSH2 0x2CC SWAP2 SWAP1 PUSH2 0x3B1 JUMP JUMPDEST POP SWAP1 JUMP JUMPDEST DUP3 DUP1 SLOAD DUP3 DUP3 SSTORE SWAP1 PUSH0 MSTORE PUSH1 0x20 PUSH0 KECCAK256 SWAP1 DUP2 ADD SWAP3 DUP3 ISZERO PUSH2 0x30A JUMPI SWAP2 PUSH1 0x20 MUL DUP3 ADD JUMPDEST DUP3 DUP2 GT ISZERO PUSH2 0x309 JUMPI DUP3 MLOAD DUP3 SSTORE SWAP2 PUSH1 0x20 ADD SWAP2 SWAP1 PUSH1 0x1 ADD SWAP1 PUSH2 0x2EE JUMP JUMPDEST JUMPDEST POP SWAP1 POP PUSH2 0x317 SWAP2 SWAP1 PUSH2 0x3B1 JUMP JUMPDEST POP SWAP1 JUMP JUMPDEST DUP3 PUSH1 0x6 DUP2 ADD SWAP3 DUP3 ISZERO PUSH2 0x34F JUMPI SWAP2 PUSH1 0x20 MUL DUP3 ADD JUMPDEST DUP3 DUP2 GT ISZERO PUSH2 0x34E JUMPI DUP3 MLOAD DUP3 SWAP1 PUSH1 0xFF AND SWAP1 SSTORE SWAP2 PUSH1 0x20 ADD SWAP2 SWAP1 PUSH1 0x1 ADD SWAP1 PUSH2 0x32E JUMP JUMPDEST JUMPDEST POP SWAP1 POP PUSH2 0x35C SWAP2 SWAP1 PUSH2 0x3B1 JUMP JUMPDEST POP SWAP1 JUMP JUMPDEST DUP3 PUSH1 0x3 PUSH1 0x2 MUL DUP2 ADD SWAP3 DUP3 ISZERO PUSH2 0x3A0 JUMPI SWAP2 PUSH1 0x20 MUL DUP3 ADD JUMPDEST DUP3 DUP2 GT ISZERO PUSH2 0x39F JUMPI DUP3 MLOAD DUP3 SWAP1 PUSH1 0x2 PUSH2 0x38F SWAP3 SWAP2 SWAP1 PUSH2 0x3CC JUMP JUMPDEST POP SWAP2 PUSH1 0x20 ADD SWAP2 SWAP1 PUSH1 0x2 ADD SWAP1 PUSH2 0x376 JUMP JUMPDEST JUMPDEST POP SWAP1 POP PUSH2 0x3AD SWAP2 SWAP1 PUSH2 0x411 JUMP JUMPDEST POP SWAP1 JUMP JUMPDEST JUMPDEST DUP1 DUP3 GT ISZERO PUSH2 0x3C8 JUMPI PUSH0 DUP2 PUSH0 SWAP1 SSTORE POP PUSH1 0x1 ADD PUSH2 0x3B2 JUMP JUMPDEST POP SWAP1 JUMP JUMPDEST DUP3 PUSH1 0x2 DUP2 ADD SWAP3 DUP3 ISZERO PUSH2 0x400 JUMPI SWAP2 PUSH1 0x20 MUL DUP3 ADD JUMPDEST DUP3 DUP2 GT ISZERO PUSH2 0x3FF JUMPI DUP3 MLOAD DUP3 SWAP1 PUSH1 0xFF AND SWAP1 SSTORE SWAP2 PUSH1 0x20 ADD SWAP2 SWAP1 PUSH1 0x1 ADD SWAP1 PUSH2 0x3DF JUMP JUMPDEST JUMPDEST POP SWAP1 POP PUSH2 0x40D SWAP2 SWAP1 PUSH2 0x3B1 JUMP JUMPDEST POP SWAP1 JUMP JUMPDEST JUMPDEST DUP1 DUP3 GT ISZERO PUSH2 0x430 JUMPI PUSH0 DUP2 DUP2 PUSH2 0x427 SWAP2 SWAP1 PUSH2 0x434 JUMP JUMPDEST POP PUSH1 0x2 ADD PUSH2 0x412 JUMP JUMPDEST POP SWAP1 JUMP JUMPDEST POP PUSH0 DUP2 SSTORE PUSH1 0x1 ADD PUSH0 SWAP1 SSTORE JUMP JUMPDEST PUSH32 0x4E487B7100000000000000000000000000000000000000000000000000000000 PUSH0 MSTORE PUSH1 0x41 PUSH1 0x4 MSTORE PUSH1 0x24 PUSH0 REVERT JUMPDEST PUSH32 0x4E487B7100000000000000000000000000000000000000000000000000000000 PUSH0 MSTORE PUSH1 0x32 PUSH1 0x4 MSTORE PUSH1 0x24 PUSH0 REVERT JUMPDEST PUSH0 DUP2 MLOAD SWAP1 POP SWAP2 SWAP1 POP JUMP JUMPDEST PUSH32 0x4E487B7100000000000000000000000000000000000000000000000000000000 PUSH0 MSTORE PUSH1 0x22 PUSH1 0x4 MSTORE PUSH1 0x24 PUSH0 REVERT JUMPDEST PUSH0 PUSH1 0x2 DUP3 DIV SWAP1 POP PUSH1 0x1 DUP3 AND DUP1 PUSH2 0x4E8 JUMPI PUSH1 0x7F DUP3 AND SWAP2 POP JUMPDEST PUSH1 0x20 DUP3 LT DUP2 SUB PUSH2 0x4FB JUMPI PUSH2 0x4FA PUSH2 0x4A4 JUMP JUMPDEST JUMPDEST POP SWAP2 SWAP1 POP JUMP JUMPDEST PUSH0 DUP2 SWAP1 POP DUP2 PUSH0 MSTORE PUSH1 0x20 PUSH0 KECCAK256 SWAP1 POP SWAP2 SWAP1 POP JUMP JUMPDEST PUSH0 PUSH1 0x20 PUSH1 0x1F DUP4 ADD DIV SWAP1 POP SWAP2 SWAP1 POP JUMP JUMPDEST PUSH0 DUP3 DUP3 SHL SWAP1 POP SWAP3 SWAP2 POP POP JUMP JUMPDEST PUSH0 PUSH1 0x8 DUP4 MUL PUSH2 0x55D PUSH32 0xFFFFFFFFFFFFFFFFFFFFFFFFFFFFFFFFFFFFFFFFFFFFFFFFFFFFFFFFFFFFFFFF DUP3 PUSH2 0x522 JUMP JUMPDEST PUSH2 0x567 DUP7 DUP4 PUSH2 0x522 JUMP JUMPDEST SWAP6 POP DUP1 NOT DUP5 AND SWAP4 POP DUP1 DUP7 AND DUP5 OR SWAP3 POP POP POP SWAP4 SWAP3 POP POP POP JUMP JUMPDEST PUSH0 DUP2 SWAP1 POP SWAP2 SWAP1 POP JUMP JUMPDEST PUSH0 DUP2 SWAP1 POP SWAP2 SWAP1 POP JUMP JUMPDEST PUSH0 PUSH2 0x5AB PUSH2 0x5A6 PUSH2 0x5A1 DUP5 PUSH2 0x57F JUMP JUMPDEST PUSH2 0x588 JUMP JUMPDEST PUSH2 0x57F JUMP JUMPDEST SWAP1 POP SWAP2 SWAP1 POP JUMP JUMPDEST PUSH0 DUP2 SWAP1 POP SWAP2 SWAP1 POP JUMP JUMPDEST PUSH2 0x5C4 DUP4 PUSH2 0x591 JUMP JUMPDEST PUSH2 0x5D8 PUSH2 0x5D0 DUP3 PUSH2 0x5B2 JUMP JUMPDEST DUP5 DUP5 SLOAD PUSH2 0x52E JUMP JUMPDEST DUP3 SSTORE POP POP POP POP JUMP JUMPDEST PUSH0 PUSH0 SWAP1 POP SWAP1 JUMP JUMPDEST PUSH2 0x5EF PUSH2 0x5E0 JUMP JUMPDEST PUSH2 0x5FA DUP2 DUP5 DUP5 PUSH2 0x5BB JUMP JUMPDEST POP POP POP JUMP JUMPDEST JUMPDEST DUP2 DUP2 LT ISZERO PUSH2 0x61D JUMPI PUSH2 0x612 PUSH0 DUP3 PUSH2 0x5E7 JUMP JUMPDEST PUSH1 0x1 DUP2 ADD SWAP1 POP PUSH2 0x600 JUMP JUMPDEST POP POP JUMP JUMPDEST PUSH1 0x1F DUP3 GT ISZERO PUSH2 0x662 JUMPI PUSH2 0x633 DUP2 PUSH2 0x501 JUMP JUMPDEST PUSH2 0x63C DUP5 PUSH2 0x513 JUMP JUMPDEST DUP2 ADD PUSH1 0x20 DUP6 LT ISZERO PUSH2 0x64B JUMPI DUP2 SWAP1 POP JUMPDEST PUSH2 0x65F PUSH2 0x657 DUP6 PUSH2 0x513 JUMP JUMPDEST DUP4 ADD DUP3 PUSH2 0x5FF JUMP JUMPDEST POP POP JUMPDEST POP POP POP JUMP JUMPDEST PUSH0 DUP3 DUP3 SHR SWAP1 POP SWAP3 SWAP2 POP POP JUMP JUMPDEST PUSH0 PUSH2 0x682 PUSH0 NOT DUP5 PUSH1 0x8 MUL PUSH2 0x667 JUMP JUMPDEST NOT DUP1 DUP4 AND SWAP2 POP POP SWAP3 SWAP2 POP POP JUMP JUMPDEST PUSH0 PUSH2 0x69A DUP4 DUP4 PUSH2 0x673 JUMP JUMPDEST SWAP2 POP DUP3 PUSH1 0x2 MUL DUP3 OR SWAP1 POP SWAP3 SWAP2 POP POP JUMP JUMPDEST PUSH2 0x6B3 DUP3 PUSH2 0x49A JUMP JUMPDEST PUSH8 0xFFFFFFFFFFFFFFFF DUP2 GT ISZERO PUSH2 0x6CC JUMPI PUSH2 0x6CB PUSH2 0x440 JUMP JUMPDEST JUMPDEST PUSH2 0x6D6 DUP3 SLOAD PUSH2 0x4D1 JUMP JUMPDEST PUSH2 0x6E1 DUP3 DUP3 DUP6 PUSH2 0x621 JUMP JUMPDEST PUSH0 PUSH1 0x20 SWAP1 POP PUSH1 0x1F DUP4 GT PUSH1 0x1 DUP2 EQ PUSH2 0x712 JUMPI PUSH0 DUP5 ISZERO PUSH2 0x700 JUMPI DUP3 DUP8 ADD MLOAD SWAP1 POP JUMPDEST PUSH2 0x70A DUP6 DUP3 PUSH2 0x68F JUMP JUMPDEST DUP7 SSTORE POP PUSH2 0x771 JUMP JUMPDEST PUSH1 0x1F NOT DUP5 AND PUSH2 0x720 DUP7 PUSH2 0x501 JUMP JUMPDEST PUSH0 JUMPDEST DUP3 DUP2 LT ISZERO PUSH2 0x747 JUMPI DUP5 DUP10 ADD MLOAD DUP3 SSTORE PUSH1 0x1 DUP3 ADD SWAP2 POP PUSH1 0x20 DUP6 ADD SWAP5 POP PUSH1 0x20 DUP2 ADD SWAP1 POP PUSH2 0x722 JUMP JUMPDEST DUP7 DUP4 LT ISZERO PUSH2 0x764 JUMPI DUP5 DUP10 ADD MLOAD PUSH2 0x760 PUSH1 0x1F DUP10 AND DUP3 PUSH2 0x673 JUMP JUMPDEST DUP4 SSTORE POP JUMPDEST PUSH1 0x1 PUSH1 0x2 DUP9 MUL ADD DUP9 SSTORE POP POP POP JUMPDEST POP POP POP POP POP POP JUMP JUMPDEST PUSH0 DUP2 MLOAD SWAP1 POP SWAP2 SWAP1 POP JUMP JUMPDEST PUSH2 0x78C DUP3 PUSH2 0x779 JUMP JUMPDEST PUSH8 0xFFFFFFFFFFFFFFFF DUP2 GT ISZERO PUSH2 0x7A5 JUMPI PUSH2 0x7A4 PUSH2 0x440 JUMP JUMPDEST JUMPDEST PUSH2 0x7AF DUP3 SLOAD PUSH2 0x4D1 JUMP JUMPDEST PUSH2 0x7BA DUP3 DUP3 DUP6 PUSH2 0x621 JUMP JUMPDEST PUSH0 PUSH1 0x20 SWAP1 POP PUSH1 0x1F DUP4 GT PUSH1 0x1 DUP2 EQ PUSH2 0x7EB JUMPI PUSH0 DUP5 ISZERO PUSH2 0x7D9 JUMPI DUP3 DUP8 ADD MLOAD SWAP1 POP JUMPDEST PUSH2 0x7E3 DUP6 DUP3 PUSH2 0x68F JUMP JUMPDEST DUP7 SSTORE POP PUSH2 0x84A JUMP JUMPDEST PUSH1 0x1F NOT DUP5 AND PUSH2 0x7F9 DUP7 PUSH2 0x501 JUMP JUMPDEST PUSH0 JUMPDEST DUP3 DUP2 LT ISZERO PUSH2 0x820 JUMPI DUP5 DUP10 ADD MLOAD DUP3 SSTORE PUSH1 0x1 DUP3 ADD SWAP2 POP PUSH1 0x20 DUP6 ADD SWAP5 POP PUSH1 0x20 DUP2 ADD SWAP1 POP PUSH2 0x7FB JUMP JUMPDEST DUP7 DUP4 LT ISZERO PUSH2 0x83D JUMPI DUP5 DUP10 ADD MLOAD PUSH2 0x839 PUSH1 0x1F DUP10 AND DUP3 PUSH2 0x673 JUMP JUMPDEST DUP4 SSTORE POP JUMPDEST PUSH1 0x1 PUSH1 0x2 DUP9 MUL ADD DUP9 SSTORE POP POP POP JUMPDEST POP POP POP POP POP POP JUMP JUMPDEST PUSH0 DUP2 SWAP1 POP DUP2 PUSH0 MSTORE PUSH1 0x20 PUSH0 KECCAK256 SWAP1 POP SWAP2 SWAP1 POP JUMP JUMPDEST PUSH1 0x1F DUP3 GT ISZERO PUSH2 0x8A5 JUMPI PUSH2 0x876 DUP2 PUSH2 0x852 JUMP JUMPDEST PUSH2 0x87F DUP5 PUSH2 0x513 JUMP JUMPDEST DUP2 ADD PUSH1 0x20 DUP6 LT ISZERO PUSH2 0x88E JUMPI DUP2 SWAP1 POP JUMPDEST PUSH2 0x8A2 PUSH2 0x89A DUP6 PUSH2 0x513 JUMP JUMPDEST DUP4 ADD DUP3 PUSH2 0x5FF JUMP JUMPDEST POP POP JUMPDEST POP POP POP JUMP JUMPDEST PUSH2 0x8B3 DUP3 PUSH2 0x49A JUMP JUMPDEST PUSH8 0xFFFFFFFFFFFFFFFF DUP2 GT ISZERO PUSH2 0x8CC JUMPI PUSH2 0x8CB PUSH2 0x440 JUMP JUMPDEST JUMPDEST PUSH2 0x8D6 DUP3 SLOAD PUSH2 0x4D1 JUMP JUMPDEST PUSH2 0x8E1 DUP3 DUP3 DUP6 PUSH2 0x864 JUMP JUMPDEST PUSH0 PUSH1 0x20 SWAP1 POP PUSH1 0x1F DUP4 GT PUSH1 0x1 DUP2 EQ PUSH2 0x912 JUMPI PUSH0 DUP5 ISZERO PUSH2 0x900 JUMPI DUP3 DUP8 ADD MLOAD SWAP1 POP JUMPDEST PUSH2 0x90A DUP6 DUP3 PUSH2 0x68F JUMP JUMPDEST DUP7 SSTORE POP PUSH2 0x971 JUMP JUMPDEST PUSH1 0x1F NOT DUP5 AND PUSH2 0x920 DUP7 PUSH2 0x852 JUMP JUMPDEST PUSH0 JUMPDEST DUP3 DUP2 LT ISZERO PUSH2 0x947 JUMPI DUP5 DUP10 ADD MLOAD DUP3 SSTORE PUSH1 0x1 DUP3 ADD SWAP2 POP PUSH1 0x20 DUP6 ADD SWAP5 POP PUSH1 0x20 DUP2 ADD SWAP1 POP PUSH2 0x922 JUMP JUMPDEST DUP7 DUP4 LT ISZERO PUSH2 0x964 JUMPI DUP5 DUP10 ADD MLOAD PUSH2 0x960 PUSH1 0x1F DUP10 AND DUP3 PUSH2 0x673 JUMP JUMPDEST DUP4 SSTORE POP JUMPDEST PUSH1 0x1 PUSH1 0x2 DUP9 MUL ADD DUP9 SSTORE POP POP POP JUMPDEST POP POP POP POP POP POP JUMP JUMPDEST PUSH2 0x11E7 DUP1 PUSH2 0x986 PUSH0 CODECOPY PUSH0 RETURN INVALID PUSH1 0x80 PUSH1 0x40 MSTORE CALLVALUE DUP1 ISZERO PUSH2 0xF JUMPI PUSH0 PUSH0 REVERT JUMPDEST POP PUSH1 0x4 CALLDATASIZE LT PUSH2 0x135 JUMPI PUSH0 CALLDATALOAD PUSH1 0xE0 SHR DUP1 PUSH4 0x7521ACE0 GT PUSH2 0xB6 JUMPI DUP1 PUSH4 0xABD05E67 GT PUSH2 0x7A JUMPI DUP1 PUSH4 0xABD05E67 EQ PUSH2 0x37D JUMPI DUP1 PUSH4 0xC4ED0B31 EQ PUSH2 0x3AD JUMPI DUP1 PUSH4 0xC5E8A794 EQ PUSH2 0x3CB JUMPI DUP1 PUSH4 0xD118D187 EQ PUSH2 0x3FB JUMPI DUP1 PUSH4 0xEDF0099B EQ PUSH2 0x419 JUMPI DUP1 PUSH4 0xF9437098 EQ PUSH2 0x449 JUMPI PUSH2 0x135 JUMP JUMPDEST DUP1 PUSH4 0x7521ACE0 EQ PUSH2 0x2C0 JUMPI DUP1 PUSH4 0x7B554892 EQ PUSH2 0x2DF JUMPI DUP1 PUSH4 0x8732DED8 EQ PUSH2 0x2FE JUMPI DUP1 PUSH4 0xA542A833 EQ PUSH2 0x32E JUMPI DUP1 PUSH4 0xA5650466 EQ PUSH2 0x34D JUMPI PUSH2 0x135 JUMP JUMPDEST DUP1 PUSH4 0x41232FC9 GT PUSH2 0xFD JUMPI DUP1 PUSH4 0x41232FC9 EQ PUSH2 0x205 JUMPI DUP1 PUSH4 0x5478A4DC EQ PUSH2 0x235 JUMPI DUP1 PUSH4 0x68BEAB3F EQ PUSH2 0x253 JUMPI DUP1 PUSH4 0x71E5EE5F EQ PUSH2 0x271 JUMPI DUP1 PUSH4 0x73CA6165 EQ PUSH2 0x2A1 JUMPI PUSH2 0x135 JUMP JUMPDEST DUP1 PUSH4 0xDBE671F EQ PUSH2 0x139 JUMPI DUP1 PUSH4 0x14F08298 EQ PUSH2 0x157 JUMPI DUP1 PUSH4 0x24B25DB2 EQ PUSH2 0x187 JUMPI DUP1 PUSH4 0x27E71B31 EQ PUSH2 0x1B7 JUMPI DUP1 PUSH4 0x2884FD00 EQ PUSH2 0x1E7 JUMPI JUMPDEST PUSH0 PUSH0 REVERT JUMPDEST PUSH2 0x141 PUSH2 0x468 JUMP JUMPDEST PUSH1 0x40 MLOAD PUSH2 0x14E SWAP2 SWAP1 PUSH2 0xB53 JUMP JUMPDEST PUSH1 0x40 MLOAD DUP1 SWAP2 SUB SWAP1 RETURN JUMPDEST PUSH2 0x171 PUSH1 0x4 DUP1 CALLDATASIZE SUB DUP2 ADD SWAP1 PUSH2 0x16C SWAP2 SWAP1 PUSH2 0xB9E JUMP JUMPDEST PUSH2 0x46D JUMP JUMPDEST PUSH1 0x40 MLOAD PUSH2 0x17E SWAP2 SWAP1 PUSH2 0xC39 JUMP JUMPDEST PUSH1 0x40 MLOAD DUP1 SWAP2 SUB SWAP1 RETURN JUMPDEST PUSH2 0x1A1 PUSH1 0x4 DUP1 CALLDATASIZE SUB DUP2 ADD SWAP1 PUSH2 0x19C SWAP2 SWAP1 PUSH2 0xB9E JUMP JUMPDEST PUSH2 0x474 JUMP JUMPDEST PUSH1 0x40 MLOAD PUSH2 0x1AE SWAP2 SWAP1 PUSH2 0xB53 JUMP JUMPDEST PUSH1 0x40 MLOAD DUP1 SWAP2 SUB SWAP1 RETURN JUMPDEST PUSH2 0x1D1 PUSH1 0x4 DUP1 CALLDATASIZE SUB DUP2 ADD SWAP1 PUSH2 0x1CC SWAP2 SWAP1 PUSH2 0xCAE JUMP JUMPDEST PUSH2 0x48D JUMP JUMPDEST PUSH1 0x40 MLOAD PUSH2 0x1DE SWAP2 SWAP1 PUSH2 0xCF1 JUMP JUMPDEST PUSH1 0x40 MLOAD DUP1 SWAP2 SUB SWAP1 RETURN JUMPDEST PUSH2 0x1EF PUSH2 0x593 JUMP JUMPDEST PUSH1 0x40 MLOAD PUSH2 0x1FC SWAP2 SWAP1 PUSH2 0xB53 JUMP JUMPDEST PUSH1 0x40 MLOAD DUP1 SWAP2 SUB SWAP1 RETURN JUMPDEST PUSH2 0x21F PUSH1 0x4 DUP1 CALLDATASIZE SUB DUP2 ADD SWAP1 PUSH2 0x21A SWAP2 SWAP1 PUSH2 0xB9E JUMP JUMPDEST PUSH2 0x599 JUMP JUMPDEST PUSH1 0x40 MLOAD PUSH2 0x22C SWAP2 SWAP1 PUSH2 0xB53 JUMP JUMPDEST PUSH1 0x40 MLOAD DUP1 SWAP2 SUB SWAP1 RETURN JUMPDEST PUSH2 0x23D PUSH2 0x5B2 JUMP JUMPDEST PUSH1 0x40 MLOAD PUSH2 0x24A SWAP2 SWAP1 PUSH2 0xD5C JUMP JUMPDEST PUSH1 0x40 MLOAD DUP1 SWAP2 SUB SWAP1 RETURN JUMPDEST PUSH2 0x25B PUSH2 0x63E JUMP JUMPDEST PUSH1 0x40 MLOAD PUSH2 0x268 SWAP2 SWAP1 PUSH2 0xD5C JUMP JUMPDEST PUSH1 0x40 MLOAD DUP1 SWAP2 SUB SWAP1 RETURN JUMPDEST PUSH2 0x28B PUSH1 0x4 DUP1 CALLDATASIZE SUB DUP2 ADD SWAP1 PUSH2 0x286 SWAP2 SWAP1 PUSH2 0xB9E JUMP JUMPDEST PUSH2 0x6CA JUMP JUMPDEST PUSH1 0x40 MLOAD PUSH2 0x298 SWAP2 SWAP1 PUSH2 0xB53 JUMP JUMPDEST PUSH1 0x40 MLOAD DUP1 SWAP2 SUB SWAP1 RETURN JUMPDEST PUSH2 0x2A9 PUSH2 0x6EA JUMP JUMPDEST PUSH1 0x40 MLOAD PUSH2 0x2B7 SWAP3 SWAP2 SWAP1 PUSH2 0xE21 JUMP JUMPDEST PUSH1 0x40 MLOAD DUP1 SWAP2 SUB SWAP1 RETURN JUMPDEST PUSH2 0x2C8 PUSH2 0x73B JUMP JUMPDEST PUSH1 0x40 MLOAD PUSH2 0x2D6 SWAP3 SWAP2 SWAP1 PUSH2 0xED9 JUMP JUMPDEST PUSH1 0x40 MLOAD DUP1 SWAP2 SUB SWAP1 RETURN JUMPDEST PUSH2 0x2E7 PUSH2 0x79B JUMP JUMPDEST PUSH1 0x40 MLOAD PUSH2 0x2F5 SWAP3 SWAP2 SWAP1 PUSH2 0xED9 JUMP JUMPDEST PUSH1 0x40 MLOAD DUP1 SWAP2 SUB SWAP1 RETURN JUMPDEST PUSH2 0x318 PUSH1 0x4 DUP1 CALLDATASIZE SUB DUP2 ADD SWAP1 PUSH2 0x313 SWAP2 SWAP1 PUSH2 0xB9E JUMP JUMPDEST PUSH2 0x7FB JUMP JUMPDEST PUSH1 0x40 MLOAD PUSH2 0x325 SWAP2 SWAP1 PUSH2 0xB53 JUMP JUMPDEST PUSH1 0x40 MLOAD DUP1 SWAP2 SUB SWAP1 RETURN JUMPDEST PUSH2 0x336 PUSH2 0x81B JUMP JUMPDEST PUSH1 0x40 MLOAD PUSH2 0x344 SWAP3 SWAP2 SWAP1 PUSH2 0xF86 JUMP JUMPDEST PUSH1 0x40 MLOAD DUP1 SWAP2 SUB SWAP1 RETURN JUMPDEST PUSH2 0x367 PUSH1 0x4 DUP1 CALLDATASIZE SUB DUP2 ADD SWAP1 PUSH2 0x362 SWAP2 SWAP1 PUSH2 0x100E JUMP JUMPDEST PUSH2 0x86C JUMP JUMPDEST PUSH1 0x40 MLOAD PUSH2 0x374 SWAP2 SWAP1 PUSH2 0xD5C JUMP JUMPDEST PUSH1 0x40 MLOAD DUP1 SWAP2 SUB SWAP1 RETURN JUMPDEST PUSH2 0x397 PUSH1 0x4 DUP1 CALLDATASIZE SUB DUP2 ADD SWAP1 PUSH2 0x392 SWAP2 SWAP1 PUSH2 0xB9E JUMP JUMPDEST PUSH2 0x8CC JUMP JUMPDEST PUSH1 0x40 MLOAD PUSH2 0x3A4 SWAP2 SWAP1 PUSH2 0x108E JUMP JUMPDEST PUSH1 0x40 MLOAD DUP1 SWAP2 SUB SWAP1 RETURN JUMPDEST PUSH2 0x3B5 PUSH2 0x934 JUMP JUMPDEST PUSH1 0x40 MLOAD PUSH2 0x3C2 SWAP2 SWAP1 PUSH2 0xC39 JUMP JUMPDEST PUSH1 0x40 MLOAD DUP1 SWAP2 SUB SWAP1 RETURN JUMPDEST PUSH2 0x3E5 PUSH1 0x4 DUP1 CALLDATASIZE SUB DUP2 ADD SWAP1 PUSH2 0x3E0 SWAP2 SWAP1 PUSH2 0x10A7 JUMP JUMPDEST PUSH2 0x9C0 JUMP JUMPDEST PUSH1 0x40 MLOAD PUSH2 0x3F2 SWAP2 SWAP1 PUSH2 0xB53 JUMP JUMPDEST PUSH1 0x40 MLOAD DUP1 SWAP2 SUB SWAP1 RETURN JUMPDEST PUSH2 0x403 PUSH2 0x9EB JUMP JUMPDEST PUSH1 0x40 MLOAD PUSH2 0x410 SWAP2 SWAP1 PUSH2 0xC39 JUMP JUMPDEST PUSH1 0x40 MLOAD DUP1 SWAP2 SUB SWAP1 RETURN JUMPDEST PUSH2 0x433 PUSH1 0x4 DUP1 CALLDATASIZE SUB DUP2 ADD SWAP1 PUSH2 0x42E SWAP2 SWAP1 PUSH2 0xB9E JUMP JUMPDEST PUSH2 0xA77 JUMP JUMPDEST PUSH1 0x40 MLOAD PUSH2 0x440 SWAP2 SWAP1 PUSH2 0xB53 JUMP JUMPDEST PUSH1 0x40 MLOAD DUP1 SWAP2 SUB SWAP1 RETURN JUMPDEST PUSH2 0x451 PUSH2 0xA97 JUMP JUMPDEST PUSH1 0x40 MLOAD PUSH2 0x45F SWAP3 SWAP2 SWAP1 PUSH2 0xED9 JUMP JUMPDEST PUSH1 0x40 MLOAD DUP1 SWAP2 SUB SWAP1 RETURN JUMPDEST PUSH0 SLOAD DUP2 JUMP JUMPDEST PUSH1 0x60 SWAP2 SWAP1 POP JUMP JUMPDEST PUSH1 0x7 DUP2 PUSH1 0x6 DUP2 LT PUSH2 0x483 JUMPI PUSH0 DUP1 REVERT JUMPDEST ADD PUSH0 SWAP2 POP SWAP1 POP SLOAD DUP2 JUMP JUMPDEST PUSH0 PUSH0 PUSH0 SWAP1 POP JUMPDEST PUSH1 0x14 DUP1 SLOAD PUSH2 0x4A0 SWAP1 PUSH2 0x1112 JUMP JUMPDEST SWAP1 POP DUP2 LT ISZERO PUSH2 0x569 JUMPI DUP3 PUSH31 0xFFFFFFFFFFFFFFFFFFFFFFFFFFFFFFFFFFFFFFFFFFFFFFFFFFFFFFFFFFFFFF NOT AND PUSH1 0x14 DUP3 DUP2 SLOAD PUSH2 0x4DA SWAP1 PUSH2 0x1112 JUMP JUMPDEST DUP2 LT PUSH2 0x4E9 JUMPI PUSH2 0x4E8 PUSH2 0x1142 JUMP JUMPDEST JUMPDEST DUP2 SLOAD PUSH1 0x1 AND ISZERO PUSH2 0x506 JUMPI SWAP1 PUSH0 MSTORE PUSH1 0x20 PUSH0 KECCAK256 SWAP1 PUSH1 0x20 SWAP2 DUP3 DUP3 DIV ADD SWAP2 SWAP1 MOD JUMPDEST SWAP1 SLOAD SWAP1 BYTE PUSH32 0x100000000000000000000000000000000000000000000000000000000000000 MUL PUSH31 0xFFFFFFFFFFFFFFFFFFFFFFFFFFFFFFFFFFFFFFFFFFFFFFFFFFFFFFFFFFFFFF NOT AND SUB PUSH2 0x55C JUMPI DUP1 SWAP2 POP POP PUSH2 0x58E JUMP JUMPDEST DUP1 DUP1 PUSH1 0x1 ADD SWAP2 POP POP PUSH2 0x493 JUMP JUMPDEST POP PUSH32 0xFFFFFFFFFFFFFFFFFFFFFFFFFFFFFFFFFFFFFFFFFFFFFFFFFFFFFFFFFFFFFFFF SWAP1 POP JUMPDEST SWAP2 SWAP1 POP JUMP JUMPDEST PUSH1 0x13 SLOAD DUP2 JUMP JUMPDEST PUSH1 0x4 DUP2 PUSH1 0x3 DUP2 LT PUSH2 0x5A8 JUMPI PUSH0 DUP1 REVERT JUMPDEST ADD PUSH0 SWAP2 POP SWAP1 POP SLOAD DUP2 JUMP JUMPDEST PUSH1 0x14 DUP1 SLOAD PUSH2 0x5BF SWAP1 PUSH2 0x1112 JUMP JUMPDEST DUP1 PUSH1 0x1F ADD PUSH1 0x20 DUP1 SWAP2 DIV MUL PUSH1 0x20 ADD PUSH1 0x40 MLOAD SWAP1 DUP2 ADD PUSH1 0x40 MSTORE DUP1 SWAP3 SWAP2 SWAP1 DUP2 DUP2 MSTORE PUSH1 0x20 ADD DUP3 DUP1 SLOAD PUSH2 0x5EB SWAP1 PUSH2 0x1112 JUMP JUMPDEST DUP1 ISZERO PUSH2 0x636 JUMPI DUP1 PUSH1 0x1F LT PUSH2 0x60D JUMPI PUSH2 0x100 DUP1 DUP4 SLOAD DIV MUL DUP4 MSTORE SWAP2 PUSH1 0x20 ADD SWAP2 PUSH2 0x636 JUMP JUMPDEST DUP3 ADD SWAP2 SWAP1 PUSH0 MSTORE PUSH1 0x20 PUSH0 KECCAK256 SWAP1 JUMPDEST DUP2 SLOAD DUP2 MSTORE SWAP1 PUSH1 0x1 ADD SWAP1 PUSH1 0x20 ADD DUP1 DUP4 GT PUSH2 0x619 JUMPI DUP3 SWAP1 SUB PUSH1 0x1F AND DUP3 ADD SWAP2 JUMPDEST POP POP POP POP POP DUP2 JUMP JUMPDEST PUSH1 0x15 DUP1 SLOAD PUSH2 0x64B SWAP1 PUSH2 0x1112 JUMP JUMPDEST DUP1 PUSH1 0x1F ADD PUSH1 0x20 DUP1 SWAP2 DIV MUL PUSH1 0x20 ADD PUSH1 0x40 MLOAD SWAP1 DUP2 ADD PUSH1 0x40 MSTORE DUP1 SWAP3 SWAP2 SWAP1 DUP2 DUP2 MSTORE PUSH1 0x20 ADD DUP3 DUP1 SLOAD PUSH2 0x677 SWAP1 PUSH2 0x1112 JUMP JUMPDEST DUP1 ISZERO PUSH2 0x6C2 JUMPI DUP1 PUSH1 0x1F LT PUSH2 0x699 JUMPI PUSH2 0x100 DUP1 DUP4 SLOAD DIV MUL DUP4 MSTORE SWAP2 PUSH1 0x20 ADD SWAP2 PUSH2 0x6C2 JUMP JUMPDEST DUP3 ADD SWAP2 SWAP1 PUSH0 MSTORE PUSH1 0x20 PUSH0 KECCAK256 SWAP1 JUMPDEST DUP2 SLOAD DUP2 MSTORE SWAP1 PUSH1 0x1 ADD SWAP1 PUSH1 0x20 ADD DUP1 DUP4 GT PUSH2 0x6A5 JUMPI DUP3 SWAP1 SUB PUSH1 0x1F AND DUP3 ADD SWAP2 JUMPDEST POP POP POP POP POP DUP2 JUMP JUMPDEST PUSH1 0x1 DUP2 DUP2 SLOAD DUP2 LT PUSH2 0x6D9 JUMPI PUSH0 DUP1 REVERT JUMPDEST SWAP1 PUSH0 MSTORE PUSH1 0x20 PUSH0 KECCAK256 ADD PUSH0 SWAP2 POP SWAP1 POP SLOAD DUP2 JUMP JUMPDEST PUSH2 0x6F2 PUSH2 0xAF7 JUMP JUMPDEST PUSH0 PUSH1 0x7 PUSH1 0x6 DUP1 PUSH1 0x20 MUL PUSH1 0x40 MLOAD SWAP1 DUP2 ADD PUSH1 0x40 MSTORE DUP1 SWAP3 SWAP2 SWAP1 DUP3 PUSH1 0x6 DUP1 ISZERO PUSH2 0x72C JUMPI PUSH1 0x20 MUL DUP3 ADD SWAP2 JUMPDEST DUP2 SLOAD DUP2 MSTORE PUSH1 0x20 ADD SWAP1 PUSH1 0x1 ADD SWAP1 DUP1 DUP4 GT PUSH2 0x718 JUMPI JUMPDEST POP POP POP POP POP SWAP2 POP PUSH1 0x6 SWAP1 POP SWAP1 SWAP2 JUMP JUMPDEST PUSH1 0x60 PUSH0 PUSH1 0x1 DUP1 SLOAD DUP1 PUSH1 0x20 MUL PUSH1 0x20 ADD PUSH1 0x40 MLOAD SWAP1 DUP2 ADD PUSH1 0x40 MSTORE DUP1 SWAP3 SWAP2 SWAP1 DUP2 DUP2 MSTORE PUSH1 0x20 ADD DUP3 DUP1 SLOAD DUP1 ISZERO PUSH2 0x788 JUMPI PUSH1 0x20 MUL DUP3 ADD SWAP2 SWAP1 PUSH0 MSTORE PUSH1 0x20 PUSH0 KECCAK256 SWAP1 JUMPDEST DUP2 SLOAD DUP2 MSTORE PUSH1 0x20 ADD SWAP1 PUSH1 0x1 ADD SWAP1 DUP1 DUP4 GT PUSH2 0x774 JUMPI JUMPDEST POP POP POP POP POP SWAP2 POP PUSH1 0x1 DUP1 SLOAD SWAP1 POP SWAP1 POP SWAP1 SWAP2 JUMP JUMPDEST PUSH1 0x60 PUSH0 PUSH1 0x3 DUP1 SLOAD DUP1 PUSH1 0x20 MUL PUSH1 0x20 ADD PUSH1 0x40 MLOAD SWAP1 DUP2 ADD PUSH1 0x40 MSTORE DUP1 SWAP3 SWAP2 SWAP1 DUP2 DUP2 MSTORE PUSH1 0x20 ADD DUP3 DUP1 SLOAD DUP1 ISZERO PUSH2 0x7E8 JUMPI PUSH1 0x20 MUL DUP3 ADD SWAP2 SWAP1 PUSH0 MSTORE PUSH1 0x20 PUSH0 KECCAK256 SWAP1 JUMPDEST DUP2 SLOAD DUP2 MSTORE PUSH1 0x20 ADD SWAP1 PUSH1 0x1 ADD SWAP1 DUP1 DUP4 GT PUSH2 0x7D4 JUMPI JUMPDEST POP POP POP POP POP SWAP2 POP PUSH1 0x3 DUP1 SLOAD SWAP1 POP SWAP1 POP SWAP1 SWAP2 JUMP JUMPDEST PUSH1 0x3 DUP2 DUP2 SLOAD DUP2 LT PUSH2 0x80A JUMPI PUSH0 DUP1 REVERT JUMPDEST SWAP1 PUSH0 MSTORE PUSH1 0x20 PUSH0 KECCAK256 ADD PUSH0 SWAP2 POP SWAP1 POP SLOAD DUP2 JUMP JUMPDEST PUSH2 0x823 PUSH2 0xB19 JUMP JUMPDEST PUSH0 PUSH1 0x4 PUSH1 0x3 DUP1 PUSH1 0x20 MUL PUSH1 0x40 MLOAD SWAP1 DUP2 ADD PUSH1 0x40 MSTORE DUP1 SWAP3 SWAP2 SWAP1 DUP3 PUSH1 0x3 DUP1 ISZERO PUSH2 0x85D JUMPI PUSH1 0x20 MUL DUP3 ADD SWAP2 JUMPDEST DUP2 SLOAD DUP2 MSTORE PUSH1 0x20 ADD SWAP1 PUSH1 0x1 ADD SWAP1 DUP1 DUP4 GT PUSH2 0x849 JUMPI JUMPDEST POP POP POP POP POP SWAP2 POP PUSH1 0x3 SWAP1 POP SWAP1 SWAP2 JUMP JUMPDEST PUSH1 0x60 DUP5 DUP5 DUP5 SWAP1 DUP5 SWAP3 PUSH2 0x880 SWAP4 SWAP3 SWAP2 SWAP1 PUSH2 0x1177 JUMP JUMPDEST DUP1 DUP1 PUSH1 0x1F ADD PUSH1 0x20 DUP1 SWAP2 DIV MUL PUSH1 0x20 ADD PUSH1 0x40 MLOAD SWAP1 DUP2 ADD PUSH1 0x40 MSTORE DUP1 SWAP4 SWAP3 SWAP2 SWAP1 DUP2 DUP2 MSTORE PUSH1 0x20 ADD DUP4 DUP4 DUP1 DUP3 DUP5 CALLDATACOPY PUSH0 DUP2 DUP5 ADD MSTORE PUSH1 0x1F NOT PUSH1 0x1F DUP3 ADD AND SWAP1 POP DUP1 DUP4 ADD SWAP3 POP POP POP POP POP POP POP SWAP1 POP SWAP5 SWAP4 POP POP POP POP JUMP JUMPDEST PUSH0 PUSH1 0x14 DUP3 DUP2 SLOAD PUSH2 0x8DB SWAP1 PUSH2 0x1112 JUMP JUMPDEST DUP2 LT PUSH2 0x8EA JUMPI PUSH2 0x8E9 PUSH2 0x1142 JUMP JUMPDEST JUMPDEST DUP2 SLOAD PUSH1 0x1 AND ISZERO PUSH2 0x907 JUMPI SWAP1 PUSH0 MSTORE PUSH1 0x20 PUSH0 KECCAK256 SWAP1 PUSH1 0x20 SWAP2 DUP3 DUP3 DIV ADD SWAP2 SWAP1 MOD JUMPDEST SWAP1 SLOAD SWAP1 BYTE PUSH32 0x100000000000000000000000000000000000000000000000000000000000000 MUL SWAP1 POP SWAP2 SWAP1 POP JUMP JUMPDEST PUSH1 0x16 DUP1 SLOAD PUSH2 0x941 SWAP1 PUSH2 0x1112 JUMP JUMPDEST DUP1 PUSH1 0x1F ADD PUSH1 0x20 DUP1 SWAP2 DIV MUL PUSH1 0x20 ADD PUSH1 0x40 MLOAD SWAP1 DUP2 ADD PUSH1 0x40 MSTORE DUP1 SWAP3 SWAP2 SWAP1 DUP2 DUP2 MSTORE PUSH1 0x20 ADD DUP3 DUP1 SLOAD PUSH2 0x96D SWAP1 PUSH2 0x1112 JUMP JUMPDEST DUP1 ISZERO PUSH2 0x9B8 JUMPI DUP1 PUSH1 0x1F LT PUSH2 0x98F JUMPI PUSH2 0x100 DUP1 DUP4 SLOAD DIV MUL DUP4 MSTORE SWAP2 PUSH1 0x20 ADD SWAP2 PUSH2 0x9B8 JUMP JUMPDEST DUP3 ADD SWAP2 SWAP1 PUSH0 MSTORE PUSH1 0x20 PUSH0 KECCAK256 SWAP1 JUMPDEST DUP2 SLOAD DUP2 MSTORE SWAP1 PUSH1 0x1 ADD SWAP1 PUSH1 0x20 ADD DUP1 DUP4 GT PUSH2 0x99B JUMPI DUP3 SWAP1 SUB PUSH1 0x1F AND DUP3 ADD SWAP2 JUMPDEST POP POP POP POP POP DUP2 JUMP JUMPDEST PUSH1 0xD DUP3 PUSH1 0x3 DUP2 LT PUSH2 0x9CF JUMPI PUSH0 DUP1 REVERT JUMPDEST PUSH1 0x2 MUL ADD DUP2 PUSH1 0x2 DUP2 LT PUSH2 0x9E0 JUMPI PUSH0 DUP1 REVERT JUMPDEST ADD PUSH0 SWAP2 POP SWAP2 POP POP SLOAD DUP2 JUMP JUMPDEST PUSH1 0x17 DUP1 SLOAD PUSH2 0x9F8 SWAP1 PUSH2 0x1112 JUMP JUMPDEST DUP1 PUSH1 0x1F ADD PUSH1 0x20 DUP1 SWAP2 DIV MUL PUSH1 0x20 ADD PUSH1 0x40 MLOAD SWAP1 DUP2 ADD PUSH1 0x40 MSTORE DUP1 SWAP3 SWAP2 SWAP1 DUP2 DUP2 MSTORE PUSH1 0x20 ADD DUP3 DUP1 SLOAD PUSH2 0xA24 SWAP1 PUSH2 0x1112 JUMP JUMPDEST DUP1 ISZERO PUSH2 0xA6F JUMPI DUP1 PUSH1 0x1F LT PUSH2 0xA46 JUMPI PUSH2 0x100 DUP1 DUP4 SLOAD DIV MUL DUP4 MSTORE SWAP2 PUSH1 0x20 ADD SWAP2 PUSH2 0xA6F JUMP JUMPDEST DUP3 ADD SWAP2 SWAP1 PUSH0 MSTORE PUSH1 0x20 PUSH0 KECCAK256 SWAP1 JUMPDEST DUP2 SLOAD DUP2 MSTORE SWAP1 PUSH1 0x1 ADD SWAP1 PUSH1 0x20 ADD DUP1 DUP4 GT PUSH2 0xA52 JUMPI DUP3 SWAP1 SUB PUSH1 0x1F AND DUP3 ADD SWAP2 JUMPDEST POP POP POP POP POP DUP2 JUMP JUMPDEST PUSH1 0x2 DUP2 DUP2 SLOAD DUP2 LT PUSH2 0xA86 JUMPI PUSH0 DUP1 REVERT JUMPDEST SWAP1 PUSH0 MSTORE PUSH1 0x20 PUSH0 KECCAK256 ADD PUSH0 SWAP2 POP SWAP1 POP SLOAD DUP2 JUMP JUMPDEST PUSH1 0x60 PUSH0 PUSH1 0x2 DUP1 SLOAD DUP1 PUSH1 0x20 MUL PUSH1 0x20 ADD PUSH1 0x40 MLOAD SWAP1 DUP2 ADD PUSH1 0x40 MSTORE DUP1 SWAP3 SWAP2 SWAP1 DUP2 DUP2 MSTORE PUSH1 0x20 ADD DUP3 DUP1 SLOAD DUP1 ISZERO PUSH2 0xAE4 JUMPI PUSH1 0x20 MUL DUP3 ADD SWAP2 SWAP1 PUSH0 MSTORE PUSH1 0x20 PUSH0 KECCAK256 SWAP1 JUMPDEST DUP2 SLOAD DUP2 MSTORE PUSH1 0x20 ADD SWAP1 PUSH1 0x1 ADD SWAP1 DUP1 DUP4 GT PUSH2 0xAD0 JUMPI JUMPDEST POP POP POP POP POP SWAP2 POP PUSH1 0x2 DUP1 SLOAD SWAP1 POP SWAP1 POP SWAP1 SWAP2 JUMP JUMPDEST PUSH1 0x40 MLOAD DUP1 PUSH1 0xC0 ADD PUSH1 0x40 MSTORE DUP1 PUSH1 0x6 SWAP1 PUSH1 0x20 DUP3 MUL DUP1 CALLDATASIZE DUP4 CALLDATACOPY DUP1 DUP3 ADD SWAP2 POP POP SWAP1 POP POP SWAP1 JUMP JUMPDEST PUSH1 0x40 MLOAD DUP1 PUSH1 0x60 ADD PUSH1 0x40 MSTORE DUP1 PUSH1 0x3 SWAP1 PUSH1 0x20 DUP3 MUL DUP1 CALLDATASIZE DUP4 CALLDATACOPY DUP1 DUP3 ADD SWAP2 POP POP SWAP1 POP POP SWAP1 JUMP JUMPDEST PUSH0 DUP2 SWAP1 POP SWAP2 SWAP1 POP JUMP JUMPDEST PUSH2 0xB4D DUP2 PUSH2 0xB3B JUMP JUMPDEST DUP3 MSTORE POP POP JUMP JUMPDEST PUSH0 PUSH1 0x20 DUP3 ADD SWAP1 POP PUSH2 0xB66 PUSH0 DUP4 ADD DUP5 PUSH2 0xB44 JUMP JUMPDEST SWAP3 SWAP2 POP POP JUMP JUMPDEST PUSH0 PUSH0 REVERT JUMPDEST PUSH0 PUSH0 REVERT JUMPDEST PUSH2 0xB7D DUP2 PUSH2 0xB3B JUMP JUMPDEST DUP2 EQ PUSH2 0xB87 JUMPI PUSH0 PUSH0 REVERT JUMPDEST POP JUMP JUMPDEST PUSH0 DUP2 CALLDATALOAD SWAP1 POP PUSH2 0xB98 DUP2 PUSH2 0xB74 JUMP JUMPDEST SWAP3 SWAP2 POP POP JUMP JUMPDEST PUSH0 PUSH1 0x20 DUP3 DUP5 SUB SLT ISZERO PUSH2 0xBB3 JUMPI PUSH2 0xBB2 PUSH2 0xB6C JUMP JUMPDEST JUMPDEST PUSH0 PUSH2 0xBC0 DUP5 DUP3 DUP6 ADD PUSH2 0xB8A JUMP JUMPDEST SWAP2 POP POP SWAP3 SWAP2 POP POP JUMP JUMPDEST PUSH0 DUP2 MLOAD SWAP1 POP SWAP2 SWAP1 POP JUMP JUMPDEST PUSH0 DUP3 DUP3 MSTORE PUSH1 0x20 DUP3 ADD SWAP1 POP SWAP3 SWAP2 POP POP JUMP JUMPDEST DUP3 DUP2 DUP4 MCOPY PUSH0 DUP4 DUP4 ADD MSTORE POP POP POP JUMP JUMPDEST PUSH0 PUSH1 0x1F NOT PUSH1 0x1F DUP4 ADD AND SWAP1 POP SWAP2 SWAP1 POP JUMP JUMPDEST PUSH0 PUSH2 0xC0B DUP3 PUSH2 0xBC9 JUMP JUMPDEST PUSH2 0xC15 DUP2 DUP6 PUSH2 0xBD3 JUMP JUMPDEST SWAP4 POP PUSH2 0xC25 DUP2 DUP6 PUSH1 0x20 DUP7 ADD PUSH2 0xBE3 JUMP JUMPDEST PUSH2 0xC2E DUP2 PUSH2 0xBF1 JUMP JUMPDEST DUP5 ADD SWAP2 POP POP SWAP3 SWAP2 POP POP JUMP JUMPDEST PUSH0 PUSH1 0x20 DUP3 ADD SWAP1 POP DUP2 DUP2 SUB PUSH0 DUP4 ADD MSTORE PUSH2 0xC51 DUP2 DUP5 PUSH2 0xC01 JUMP JUMPDEST SWAP1 POP SWAP3 SWAP2 POP POP JUMP JUMPDEST PUSH0 PUSH32 0xFF00000000000000000000000000000000000000000000000000000000000000 DUP3 AND SWAP1 POP SWAP2 SWAP1 POP JUMP JUMPDEST PUSH2 0xC8D DUP2 PUSH2 0xC59 JUMP JUMPDEST DUP2 EQ PUSH2 0xC97 JUMPI PUSH0 PUSH0 REVERT JUMPDEST POP JUMP JUMPDEST PUSH0 DUP2 CALLDATALOAD SWAP1 POP PUSH2 0xCA8 DUP2 PUSH2 0xC84 JUMP JUMPDEST SWAP3 SWAP2 POP POP JUMP JUMPDEST PUSH0 PUSH1 0x20 DUP3 DUP5 SUB SLT ISZERO PUSH2 0xCC3 JUMPI PUSH2 0xCC2 PUSH2 0xB6C JUMP JUMPDEST JUMPDEST PUSH0 PUSH2 0xCD0 DUP5 DUP3 DUP6 ADD PUSH2 0xC9A JUMP JUMPDEST SWAP2 POP POP SWAP3 SWAP2 POP POP JUMP JUMPDEST PUSH0 DUP2 SWAP1 POP SWAP2 SWAP1 POP JUMP JUMPDEST PUSH2 0xCEB DUP2 PUSH2 0xCD9 JUMP JUMPDEST DUP3 MSTORE POP POP JUMP JUMPDEST PUSH0 PUSH1 0x20 DUP3 ADD SWAP1 POP PUSH2 0xD04 PUSH0 DUP4 ADD DUP5 PUSH2 0xCE2 JUMP JUMPDEST SWAP3 SWAP2 POP POP JUMP JUMPDEST PUSH0 DUP2 MLOAD SWAP1 POP SWAP2 SWAP1 POP JUMP JUMPDEST PUSH0 DUP3 DUP3 MSTORE PUSH1 0x20 DUP3 ADD SWAP1 POP SWAP3 SWAP2 POP POP JUMP JUMPDEST PUSH0 PUSH2 0xD2E DUP3 PUSH2 0xD0A JUMP JUMPDEST PUSH2 0xD38 DUP2 DUP6 PUSH2 0xD14 JUMP JUMPDEST SWAP4 POP PUSH2 0xD48 DUP2 DUP6 PUSH1 0x20 DUP7 ADD PUSH2 0xBE3 JUMP JUMPDEST PUSH2 0xD51 DUP2 PUSH2 0xBF1 JUMP JUMPDEST DUP5 ADD SWAP2 POP POP SWAP3 SWAP2 POP POP JUMP JUMPDEST PUSH0 PUSH1 0x20 DUP3 ADD SWAP1 POP DUP2 DUP2 SUB PUSH0 DUP4 ADD MSTORE PUSH2 0xD74 DUP2 DUP5 PUSH2 0xD24 JUMP JUMPDEST SWAP1 POP SWAP3 SWAP2 POP POP JUMP JUMPDEST PUSH0 PUSH1 0x6 SWAP1 POP SWAP2 SWAP1 POP JUMP JUMPDEST PUSH0 DUP2 SWAP1 POP SWAP3 SWAP2 POP POP JUMP JUMPDEST PUSH0 DUP2 SWAP1 POP SWAP2 SWAP1 POP JUMP JUMPDEST PUSH2 0xDA2 DUP2 PUSH2 0xB3B JUMP JUMPDEST DUP3 MSTORE POP POP JUMP JUMPDEST PUSH0 PUSH2 0xDB3 DUP4 DUP4 PUSH2 0xD99 JUMP JUMPDEST PUSH1 0x20 DUP4 ADD SWAP1 POP SWAP3 SWAP2 POP POP JUMP JUMPDEST PUSH0 PUSH1 0x20 DUP3 ADD SWAP1 POP SWAP2 SWAP1 POP JUMP JUMPDEST PUSH2 0xDD4 DUP2 PUSH2 0xD7C JUMP JUMPDEST PUSH2 0xDDE DUP2 DUP5 PUSH2 0xD86 JUMP JUMPDEST SWAP3 POP PUSH2 0xDE9 DUP3 PUSH2 0xD90 JUMP JUMPDEST DUP1 PUSH0 JUMPDEST DUP4 DUP2 LT ISZERO PUSH2 0xE19 JUMPI DUP2 MLOAD PUSH2 0xE00 DUP8 DUP3 PUSH2 0xDA8 JUMP JUMPDEST SWAP7 POP PUSH2 0xE0B DUP4 PUSH2 0xDBF JUMP JUMPDEST SWAP3 POP POP PUSH1 0x1 DUP2 ADD SWAP1 POP PUSH2 0xDEC JUMP JUMPDEST POP POP POP POP POP POP JUMP JUMPDEST PUSH0 PUSH1 0xE0 DUP3 ADD SWAP1 POP PUSH2 0xE34 PUSH0 DUP4 ADD DUP6 PUSH2 0xDCB JUMP JUMPDEST PUSH2 0xE41 PUSH1 0xC0 DUP4 ADD DUP5 PUSH2 0xB44 JUMP JUMPDEST SWAP4 SWAP3 POP POP POP JUMP JUMPDEST PUSH0 DUP2 MLOAD SWAP1 POP SWAP2 SWAP1 POP JUMP JUMPDEST PUSH0 DUP3 DUP3 MSTORE PUSH1 0x20 DUP3 ADD SWAP1 POP SWAP3 SWAP2 POP POP JUMP JUMPDEST PUSH0 DUP2 SWAP1 POP PUSH1 0x20 DUP3 ADD SWAP1 POP SWAP2 SWAP1 POP JUMP JUMPDEST PUSH0 PUSH1 0x20 DUP3 ADD SWAP1 POP SWAP2 SWAP1 POP JUMP JUMPDEST PUSH0 PUSH2 0xE87 DUP3 PUSH2 0xE48 JUMP JUMPDEST PUSH2 0xE91 DUP2 DUP6 PUSH2 0xE52 JUMP JUMPDEST SWAP4 POP PUSH2 0xE9C DUP4 PUSH2 0xE62 JUMP JUMPDEST DUP1 PUSH0 JUMPDEST DUP4 DUP2 LT ISZERO PUSH2 0xECC JUMPI DUP2 MLOAD PUSH2 0xEB3 DUP9 DUP3 PUSH2 0xDA8 JUMP JUMPDEST SWAP8 POP PUSH2 0xEBE DUP4 PUSH2 0xE71 JUMP JUMPDEST SWAP3 POP POP PUSH1 0x1 DUP2 ADD SWAP1 POP PUSH2 0xE9F JUMP JUMPDEST POP DUP6 SWAP4 POP POP POP POP SWAP3 SWAP2 POP POP JUMP JUMPDEST PUSH0 PUSH1 0x40 DUP3 ADD SWAP1 POP DUP2 DUP2 SUB PUSH0 DUP4 ADD MSTORE PUSH2 0xEF1 DUP2 DUP6 PUSH2 0xE7D JUMP JUMPDEST SWAP1 POP PUSH2 0xF00 PUSH1 0x20 DUP4 ADD DUP5 PUSH2 0xB44 JUMP JUMPDEST SWAP4 SWAP3 POP POP POP JUMP JUMPDEST PUSH0 PUSH1 0x3 SWAP1 POP SWAP2 SWAP1 POP JUMP JUMPDEST PUSH0 DUP2 SWAP1 POP SWAP3 SWAP2 POP POP JUMP JUMPDEST PUSH0 DUP2 SWAP1 POP SWAP2 SWAP1 POP JUMP JUMPDEST PUSH0 PUSH1 0x20 DUP3 ADD SWAP1 POP SWAP2 SWAP1 POP JUMP JUMPDEST PUSH2 0xF39 DUP2 PUSH2 0xF07 JUMP JUMPDEST PUSH2 0xF43 DUP2 DUP5 PUSH2 0xF11 JUMP JUMPDEST SWAP3 POP PUSH2 0xF4E DUP3 PUSH2 0xF1B JUMP JUMPDEST DUP1 PUSH0 JUMPDEST DUP4 DUP2 LT ISZERO PUSH2 0xF7E JUMPI DUP2 MLOAD PUSH2 0xF65 DUP8 DUP3 PUSH2 0xDA8 JUMP JUMPDEST SWAP7 POP PUSH2 0xF70 DUP4 PUSH2 0xF24 JUMP JUMPDEST SWAP3 POP POP PUSH1 0x1 DUP2 ADD SWAP1 POP PUSH2 0xF51 JUMP JUMPDEST POP POP POP POP POP POP JUMP JUMPDEST PUSH0 PUSH1 0x80 DUP3 ADD SWAP1 POP PUSH2 0xF99 PUSH0 DUP4 ADD DUP6 PUSH2 0xF30 JUMP JUMPDEST PUSH2 0xFA6 PUSH1 0x60 DUP4 ADD DUP5 PUSH2 0xB44 JUMP JUMPDEST SWAP4 SWAP3 POP POP POP JUMP JUMPDEST PUSH0 PUSH0 REVERT JUMPDEST PUSH0 PUSH0 REVERT JUMPDEST PUSH0 PUSH0 REVERT JUMPDEST PUSH0 PUSH0 DUP4 PUSH1 0x1F DUP5 ADD SLT PUSH2 0xFCE JUMPI PUSH2 0xFCD PUSH2 0xFAD JUMP JUMPDEST JUMPDEST DUP3 CALLDATALOAD SWAP1 POP PUSH8 0xFFFFFFFFFFFFFFFF DUP2 GT ISZERO PUSH2 0xFEB JUMPI PUSH2 0xFEA PUSH2 0xFB1 JUMP JUMPDEST JUMPDEST PUSH1 0x20 DUP4 ADD SWAP2 POP DUP4 PUSH1 0x1 DUP3 MUL DUP4 ADD GT ISZERO PUSH2 0x1007 JUMPI PUSH2 0x1006 PUSH2 0xFB5 JUMP JUMPDEST JUMPDEST SWAP3 POP SWAP3 SWAP1 POP JUMP JUMPDEST PUSH0 PUSH0 PUSH0 PUSH0 PUSH1 0x60 DUP6 DUP8 SUB SLT ISZERO PUSH2 0x1026 JUMPI PUSH2 0x1025 PUSH2 0xB6C JUMP JUMPDEST JUMPDEST PUSH0 DUP6 ADD CALLDATALOAD PUSH8 0xFFFFFFFFFFFFFFFF DUP2 GT ISZERO PUSH2 0x1043 JUMPI PUSH2 0x1042 PUSH2 0xB70 JUMP JUMPDEST JUMPDEST PUSH2 0x104F DUP8 DUP3 DUP9 ADD PUSH2 0xFB9 JUMP JUMPDEST SWAP5 POP SWAP5 POP POP PUSH1 0x20 PUSH2 0x1062 DUP8 DUP3 DUP9 ADD PUSH2 0xB8A JUMP JUMPDEST SWAP3 POP POP PUSH1 0x40 PUSH2 0x1073 DUP8 DUP3 DUP9 ADD PUSH2 0xB8A JUMP JUMPDEST SWAP2 POP POP SWAP3 SWAP6 SWAP2 SWAP5 POP SWAP3 POP JUMP JUMPDEST PUSH2 0x1088 DUP2 PUSH2 0xC59 JUMP JUMPDEST DUP3 MSTORE POP POP JUMP JUMPDEST PUSH0 PUSH1 0x20 DUP3 ADD SWAP1 POP PUSH2 0x10A1 PUSH0 DUP4 ADD DUP5 PUSH2 0x107F JUMP JUMPDEST SWAP3 SWAP2 POP POP JUMP JUMPDEST PUSH0 PUSH0 PUSH1 0x40 DUP4 DUP6 SUB SLT ISZERO PUSH2 0x10BD JUMPI PUSH2 0x10BC PUSH2 0xB6C JUMP JUMPDEST JUMPDEST PUSH0 PUSH2 0x10CA DUP6 DUP3 DUP7 ADD PUSH2 0xB8A JUMP JUMPDEST SWAP3 POP POP PUSH1 0x20 PUSH2 0x10DB DUP6 DUP3 DUP7 ADD PUSH2 0xB8A JUMP JUMPDEST SWAP2 POP POP SWAP3 POP SWAP3 SWAP1 POP JUMP JUMPDEST PUSH32 0x4E487B7100000000000000000000000000000000000000000000000000000000 PUSH0 MSTORE PUSH1 0x22 PUSH1 0x4 MSTORE PUSH1 0x24 PUSH0 REVERT JUMPDEST PUSH0 PUSH1 0x2 DUP3 DIV SWAP1 POP PUSH1 0x1 DUP3 AND DUP1 PUSH2 0x1129 JUMPI PUSH1 0x7F DUP3 AND SWAP2 POP JUMPDEST PUSH1 0x20 DUP3 LT DUP2 SUB PUSH2 0x113C JUMPI PUSH2 0x113B PUSH2 0x10E5 JUMP JUMPDEST JUMPDEST POP SWAP2 SWAP1 POP JUMP JUMPDEST PUSH32 0x4E487B7100000000000000000000000000000000000000000000000000000000 PUSH0 MSTORE PUSH1 0x32 PUSH1 0x4 MSTORE PUSH1 0x24 PUSH0 REVERT JUMPDEST PUSH0 PUSH0 REVERT JUMPDEST PUSH0 PUSH0 REVERT JUMPDEST PUSH0 PUSH0 DUP6 DUP6 GT ISZERO PUSH2 0x118A JUMPI PUSH2 0x1189 PUSH2 0x116F JUMP JUMPDEST JUMPDEST DUP4 DUP7 GT ISZERO PUSH2 0x119B JUMPI PUSH2 0x119A PUSH2 0x1173 JUMP JUMPDEST JUMPDEST PUSH1 0x1 DUP6 MUL DUP4 ADD SWAP2 POP DUP5 DUP7 SUB SWAP1 POP SWAP5 POP SWAP5 SWAP3 POP POP POP JUMP INVALID LOG2 PUSH5 0x6970667358 0x22 SLT KECCAK256 CALLCODE 0xB4 PUSH13 0xAB253D0EF2EE1745A268815AAB TIMESTAMP 0xD6 XOR EOFCREATE 0xA5 0xD5 RETURNDATACOPY GASPRICE 0xBB INVALID 0xC3 SWAP2 0x28 BLOBHASH 0xAD 0x4D PUSH5 0x736F6C6343 STOP ADDMOD 0x1E STOP CALLER "
		},
		"gasEstimates": {
			"creation": {
				"codeDepositCost": "916600",
				"executionCost": "infinite",
				"totalCost": "infinite"
			},
			"external": {
				"_data()": "infinite",
				"a()": "2448",
				"arr(uint256)": "infinite",
				"arr2(uint256)": "infinite",
				"arr3(uint256)": "infinite",
				"bs()": "infinite",
				"element()": "2537",
				"multiArray(uint256,uint256)": "infinite",
				"readArr()": "infinite",
				"readArr2()": "infinite",
				"readArr3()": "infinite",
				"readBytesByIndex(uint256)": "7197",
				"readBytesIndexByByte1(bytes1)": "infinite",
				"readStaticArr()": "infinite",
				"readStaticArr2()": "infinite",
				"readStringByIndex(uint256)": "infinite",
				"staticArr(uint256)": "infinite",
				"staticArr2(uint256)": "infinite",
				"str0()": "infinite",
				"str1()": "infinite",
				"testSlice(bytes,uint256,uint256)": "infinite"
			}
		},
		"methodIdentifiers": {
			"_data()": "68beab3f",
			"a()": "0dbe671f",
			"arr(uint256)": "71e5ee5f",
			"arr2(uint256)": "edf0099b",
			"arr3(uint256)": "8732ded8",
			"bs()": "5478a4dc",
			"element()": "2884fd00",
			"multiArray(uint256,uint256)": "c5e8a794",
			"readArr()": "7521ace0",
			"readArr2()": "f9437098",
			"readArr3()": "7b554892",
			"readBytesByIndex(uint256)": "abd05e67",
			"readBytesIndexByByte1(bytes1)": "27e71b31",
			"readStaticArr()": "a542a833",
			"readStaticArr2()": "73ca6165",
			"readStringByIndex(uint256)": "14f08298",
			"staticArr(uint256)": "41232fc9",
			"staticArr2(uint256)": "24b25db2",
			"str0()": "c4ed0b31",
			"str1()": "d118d187",
			"testSlice(bytes,uint256,uint256)": "a5650466"
		}
	},
	"abi": [
		{
			"inputs": [],
			"name": "_data",
			"outputs": [
				{
					"internalType": "bytes",
					"name": "",
					"type": "bytes"
				}
			],
			"stateMutability": "view",
			"type": "function"
		},
		{
			"inputs": [],
			"name": "a",
			"outputs": [
				{
					"internalType": "uint256",
					"name": "",
					"type": "uint256"
				}
			],
			"stateMutability": "view",
			"type": "function"
		},
		{
			"inputs": [
				{
					"internalType": "uint256",
					"name": "",
					"type": "uint256"
				}
			],
			"name": "arr",
			"outputs": [
				{
					"internalType": "uint256",
					"name": "",
					"type": "uint256"
				}
			],
			"stateMutability": "view",
			"type": "function"
		},
		{
			"inputs": [
				{
					"internalType": "uint256",
					"name": "",
					"type": "uint256"
				}
			],
			"name": "arr2",
			"outputs": [
				{
					"internalType": "uint256",
					"name": "",
					"type": "uint256"
				}
			],
			"stateMutability": "view",
			"type": "function"
		},
		{
			"inputs": [
				{
					"internalType": "uint256",
					"name": "",
					"type": "uint256"
				}
			],
			"name": "arr3",
			"outputs": [
				{
					"internalType": "uint256",
					"name": "",
					"type": "uint256"
				}
			],
			"stateMutability": "view",
			"type": "function"
		},
		{
			"inputs": [],
			"name": "bs",
			"outputs": [
				{
					"internalType": "bytes",
					"name": "",
					"type": "bytes"
				}
			],
			"stateMutability": "view",
			"type": "function"
		},
		{
			"inputs": [],
			"name": "element",
			"outputs": [
				{
					"internalType": "uint256",
					"name": "",
					"type": "uint256"
				}
			],
			"stateMutability": "view",
			"type": "function"
		},
		{
			"inputs": [
				{
					"internalType": "uint256",
					"name": "",
					"type": "uint256"
				},
				{
					"internalType": "uint256",
					"name": "",
					"type": "uint256"
				}
			],
			"name": "multiArray",
			"outputs": [
				{
					"internalType": "uint256",
					"name": "",
					"type": "uint256"
				}
			],
			"stateMutability": "view",
			"type": "function"
		},
		{
			"inputs": [],
			"name": "readArr",
			"outputs": [
				{
					"internalType": "uint256[]",
					"name": "data",
					"type": "uint256[]"
				},
				{
					"internalType": "uint256",
					"name": "len",
					"type": "uint256"
				}
			],
			"stateMutability": "view",
			"type": "function"
		},
		{
			"inputs": [],
			"name": "readArr2",
			"outputs": [
				{
					"internalType": "uint256[]",
					"name": "data",
					"type": "uint256[]"
				},
				{
					"internalType": "uint256",
					"name": "len",
					"type": "uint256"
				}
			],
			"stateMutability": "view",
			"type": "function"
		},
		{
			"inputs": [],
			"name": "readArr3",
			"outputs": [
				{
					"internalType": "uint256[]",
					"name": "data",
					"type": "uint256[]"
				},
				{
					"internalType": "uint256",
					"name": "len",
					"type": "uint256"
				}
			],
			"stateMutability": "view",
			"type": "function"
		},
		{
			"inputs": [
				{
					"internalType": "uint256",
					"name": "i",
					"type": "uint256"
				}
			],
			"name": "readBytesByIndex",
			"outputs": [
				{
					"internalType": "bytes1",
					"name": "",
					"type": "bytes1"
				}
			],
			"stateMutability": "view",
			"type": "function"
		},
		{
			"inputs": [
				{
					"internalType": "bytes1",
					"name": "d",
					"type": "bytes1"
				}
			],
			"name": "readBytesIndexByByte1",
			"outputs": [
				{
					"internalType": "int256",
					"name": "",
					"type": "int256"
				}
			],
			"stateMutability": "view",
			"type": "function"
		},
		{
			"inputs": [],
			"name": "readStaticArr",
			"outputs": [
				{
					"internalType": "uint256[3]",
					"name": "data",
					"type": "uint256[3]"
				},
				{
					"internalType": "uint256",
					"name": "len",
					"type": "uint256"
				}
			],
			"stateMutability": "view",
			"type": "function"
		},
		{
			"inputs": [],
			"name": "readStaticArr2",
			"outputs": [
				{
					"internalType": "uint256[6]",
					"name": "data",
					"type": "uint256[6]"
				},
				{
					"internalType": "uint256",
					"name": "len",
					"type": "uint256"
				}
			],
			"stateMutability": "view",
			"type": "function"
		},
		{
			"inputs": [
				{
					"internalType": "uint256",
					"name": "i",
					"type": "uint256"
				}
			],
			"name": "readStringByIndex",
			"outputs": [
				{
					"internalType": "string",
					"name": "",
					"type": "string"
				}
			],
			"stateMutability": "view",
			"type": "function"
		},
		{
			"inputs": [
				{
					"internalType": "uint256",
					"name": "",
					"type": "uint256"
				}
			],
			"name": "staticArr",
			"outputs": [
				{
					"internalType": "uint256",
					"name": "",
					"type": "uint256"
				}
			],
			"stateMutability": "view",
			"type": "function"
		},
		{
			"inputs": [
				{
					"internalType": "uint256",
					"name": "",
					"type": "uint256"
				}
			],
			"name": "staticArr2",
			"outputs": [
				{
					"internalType": "uint256",
					"name": "",
					"type": "uint256"
				}
			],
			"stateMutability": "view",
			"type": "function"
		},
		{
			"inputs": [],
			"name": "str0",
			"outputs": [
				{
					"internalType": "string",
					"name": "",
					"type": "string"
				}
			],
			"stateMutability": "view",
			"type": "function"
		},
		{
			"inputs": [],
			"name": "str1",
			"outputs": [
				{
					"internalType": "string",
					"name": "",
					"type": "string"
				}
			],
			"stateMutability": "view",
			"type": "function"
		},
		{
			"inputs": [
				{
					"internalType": "bytes",
					"name": "data",
					"type": "bytes"
				},
				{
					"internalType": "uint256",
					"name": "start",
					"type": "uint256"
				},
				{
					"internalType": "uint256",
					"name": "end",
					"type": "uint256"
				}
			],
			"name": "testSlice",
			"outputs": [
				{
					"internalType": "bytes",
					"name": "",
					"type": "bytes"
				}
			],
			"stateMutability": "pure",
			"type": "function"
		}
	]
}