{
	"data": {
		"bytecode": {
			"linkReferences": {},
			"object": "6080604052348015600e575f5ffd5b5061069f8061001c5f395ff3fe608060405234801561000f575f5ffd5b5060043610610091575f3560e01c80636e0b3900116100645780636e0b390014610155578063a75af91f14610185578063ad0be11f146101b5578063bb2a1d3f146101e5578063ca3b39fd1461021557610091565b806319561b6314610095578063203b1fa1146100c55780632793c135146100f55780632b6c5ae714610125575b5f5ffd5b6100af60048036038101906100aa919061033c565b610245565b6040516100bc9190610392565b60405180910390f35b6100df60048036038101906100da919061033c565b61025b565b6040516100ec9190610392565b60405180910390f35b61010f600480360381019061010a919061033c565b61026a565b60405161011c9190610392565b60405180910390f35b61013f600480360381019061013a919061033c565b610279565b60405161014c9190610392565b60405180910390f35b61016f600480360381019061016a919061033c565b610291565b60405161017c9190610392565b60405180910390f35b61019f600480360381019061019a919061033c565b6102a0565b6040516101ac9190610392565b60405180910390f35b6101cf60048036038101906101ca919061033c565b6102b6565b6040516101dc9190610392565b60405180910390f35b6101ff60048036038101906101fa91906103e2565b6102ce565b60405161020c9190610392565b60405180910390f35b61022f600480360381019061022a919061033c565b6102ea565b60405161023c9190610392565b60405180910390f35b5f8160ff168360ff16901b60ff16905092915050565b5f81831860ff16905092915050565b5f81831660ff16905092915050565b5f8183610286919061044d565b60ff16905092915050565b5f81831760ff16905092915050565b5f8160ff168360ff16901c60ff16905092915050565b5f81836102c391906104aa565b60ff16905092915050565b5f818360ff166102de91906104da565b61ffff16905092915050565b5f81836102f7919061063e565b60ff16905092915050565b5f5ffd5b5f60ff82169050919050565b61031b81610306565b8114610325575f5ffd5b50565b5f8135905061033681610312565b92915050565b5f5f6040838503121561035257610351610302565b5b5f61035f85828601610328565b925050602061037085828601610328565b9150509250929050565b5f819050919050565b61038c8161037a565b82525050565b5f6020820190506103a55f830184610383565b92915050565b5f61ffff82169050919050565b6103c1816103ab565b81146103cb575f5ffd5b50565b5f813590506103dc816103b8565b92915050565b5f5f604083850312156103f8576103f7610302565b5b5f61040585828601610328565b9250506020610416858286016103ce565b9150509250929050565b7f4e487b71000000000000000000000000000000000000000000000000000000005f52601260045260245ffd5b5f61045782610306565b915061046283610306565b92508261047257610471610420565b5b828206905092915050565b7f4e487b71000000000000000000000000000000000000000000000000000000005f52601160045260245ffd5b5f6104b482610306565b91506104bf83610306565b9250826104cf576104ce610420565b5b828204905092915050565b5f6104e4826103ab565b91506104ef836103ab565b9250828201905061ffff8111156105095761050861047d565b5b92915050565b5f8160011c9050919050565b5f5f8291508390505b6001851115610564578086048111156105405761053f61047d565b5b600185161561054f5780820291505b808102905061055d8561050f565b9450610524565b94509492505050565b5f8261057c5760019050610637565b81610589575f9050610637565b816001811461059f57600281146105a9576105d8565b6001915050610637565b60ff8411156105bb576105ba61047d565b5b8360020a9150848211156105d2576105d161047d565b5b50610637565b5060208310610133831016604e8410600b841016171561060d5782820a9050838111156106085761060761047d565b5b610637565b61061a848484600161051b565b925090508184048111156106315761063061047d565b5b81810290505b9392505050565b5f61064882610306565b915061065383610306565b925061066160ff848461056d565b90509291505056fea26469706673582212205c535758ff833cd6425b9a4f76a5d720189e87be19b0fb1423e5906c0ae66b8264736f6c634300081e0033",
			"opcodes": "PUSH1 0x80 PUSH1 0x40 MSTORE CALLVALUE DUP1 ISZERO PUSH1 0xE JUMPI PUSH0 PUSH0 REVERT JUMPDEST POP PUSH2 0x69F DUP1 PUSH2 0x1C PUSH0 CODECOPY PUSH0 RETURN INVALID PUSH1 0x80 PUSH1 0x40 MSTORE CALLVALUE DUP1 ISZERO PUSH2 0xF JUMPI PUSH0 PUSH0 REVERT JUMPDEST POP PUSH1 0x4 CALLDATASIZE LT PUSH2 0x91 JUMPI PUSH0 CALLDATALOAD PUSH1 0xE0 SHR DUP1 PUSH4 0x6E0B3900 GT PUSH2 0x64 JUMPI DUP1 PUSH4 0x6E0B3900 EQ PUSH2 0x155 JUMPI DUP1 PUSH4 0xA75AF91F EQ PUSH2 0x185 JUMPI DUP1 PUSH4 0xAD0BE11F EQ PUSH2 0x1B5 JUMPI DUP1 PUSH4 0xBB2A1D3F EQ PUSH2 0x1E5 JUMPI DUP1 PUSH4 0xCA3B39FD EQ PUSH2 0x215 JUMPI PUSH2 0x91 JUMP JUMPDEST DUP1 PUSH4 0x19561B63 EQ PUSH2 0x95 JUMPI DUP1 PUSH4 0x203B1FA1 EQ PUSH2 0xC5 JUMPI DUP1 PUSH4 0x2793C135 EQ PUSH2 0xF5 JUMPI DUP1 PUSH4 0x2B6C5AE7 EQ PUSH2 0x125 JUMPI JUMPDEST PUSH0 PUSH0 REVERT JUMPDEST PUSH2 0xAF PUSH1 0x4 DUP1 CALLDATASIZE SUB DUP2 ADD SWAP1 PUSH2 0xAA SWAP2 SWAP1 PUSH2 0x33C JUMP JUMPDEST PUSH2 0x245 JUMP JUMPDEST PUSH1 0x40 MLOAD PUSH2 0xBC SWAP2 SWAP1 PUSH2 0x392 JUMP JUMPDEST PUSH1 0x40 MLOAD DUP1 SWAP2 SUB SWAP1 RETURN JUMPDEST PUSH2 0xDF PUSH1 0x4 DUP1 CALLDATASIZE SUB DUP2 ADD SWAP1 PUSH2 0xDA SWAP2 SWAP1 PUSH2 0x33C JUMP JUMPDEST PUSH2 0x25B JUMP JUMPDEST PUSH1 0x40 MLOAD PUSH2 0xEC SWAP2 SWAP1 PUSH2 0x392 JUMP JUMPDEST PUSH1 0x40 MLOAD DUP1 SWAP2 SUB SWAP1 RETURN JUMPDEST PUSH2 0x10F PUSH1 0x4 DUP1 CALLDATASIZE SUB DUP2 ADD SWAP1 PUSH2 0x10A SWAP2 SWAP1 PUSH2 0x33C JUMP JUMPDEST PUSH2 0x26A JUMP JUMPDEST PUSH1 0x40 MLOAD PUSH2 0x11C SWAP2 SWAP1 PUSH2 0x392 JUMP JUMPDEST PUSH1 0x40 MLOAD DUP1 SWAP2 SUB SWAP1 RETURN JUMPDEST PUSH2 0x13F PUSH1 0x4 DUP1 CALLDATASIZE SUB DUP2 ADD SWAP1 PUSH2 0x13A SWAP2 SWAP1 PUSH2 0x33C JUMP JUMPDEST PUSH2 0x279 JUMP JUMPDEST PUSH1 0x40 MLOAD PUSH2 0x14C SWAP2 SWAP1 PUSH2 0x392 JUMP JUMPDEST PUSH1 0x40 MLOAD DUP1 SWAP2 SUB SWAP1 RETURN JUMPDEST PUSH2 0x16F PUSH1 0x4 DUP1 CALLDATASIZE SUB DUP2 ADD SWAP1 PUSH2 0x16A SWAP2 SWAP1 PUSH2 0x33C JUMP JUMPDEST PUSH2 0x291 JUMP JUMPDEST PUSH1 0x40 MLOAD PUSH2 0x17C SWAP2 SWAP1 PUSH2 0x392 JUMP JUMPDEST PUSH1 0x40 MLOAD DUP1 SWAP2 SUB SWAP1 RETURN JUMPDEST PUSH2 0x19F PUSH1 0x4 DUP1 CALLDATASIZE SUB DUP2 ADD SWAP1 PUSH2 0x19A SWAP2 SWAP1 PUSH2 0x33C JUMP JUMPDEST PUSH2 0x2A0 JUMP JUMPDEST PUSH1 0x40 MLOAD PUSH2 0x1AC SWAP2 SWAP1 PUSH2 0x392 JUMP JUMPDEST PUSH1 0x40 MLOAD DUP1 SWAP2 SUB SWAP1 RETURN JUMPDEST PUSH2 0x1CF PUSH1 0x4 DUP1 CALLDATASIZE SUB DUP2 ADD SWAP1 PUSH2 0x1CA SWAP2 SWAP1 PUSH2 0x33C JUMP JUMPDEST PUSH2 0x2B6 JUMP JUMPDEST PUSH1 0x40 MLOAD PUSH2 0x1DC SWAP2 SWAP1 PUSH2 0x392 JUMP JUMPDEST PUSH1 0x40 MLOAD DUP1 SWAP2 SUB SWAP1 RETURN JUMPDEST PUSH2 0x1FF PUSH1 0x4 DUP1 CALLDATASIZE SUB DUP2 ADD SWAP1 PUSH2 0x1FA SWAP2 SWAP1 PUSH2 0x3E2 JUMP JUMPDEST PUSH2 0x2CE JUMP JUMPDEST PUSH1 0x40 MLOAD PUSH2 0x20C SWAP2 SWAP1 PUSH2 0x392 JUMP JUMPDEST PUSH1 0x40 MLOAD DUP1 SWAP2 SUB SWAP1 RETURN JUMPDEST PUSH2 0x22F PUSH1 0x4 DUP1 CALLDATASIZE SUB DUP2 ADD SWAP1 PUSH2 0x22A SWAP2 SWAP1 PUSH2 0x33C JUMP JUMPDEST PUSH2 0x2EA JUMP JUMPDEST PUSH1 0x40 MLOAD PUSH2 0x23C SWAP2 SWAP1 PUSH2 0x392 JUMP JUMPDEST PUSH1 0x40 MLOAD DUP1 SWAP2 SUB SWAP1 RETURN JUMPDEST PUSH0 DUP2 PUSH1 0xFF AND DUP4 PUSH1 0xFF AND SWAP1 SHL PUSH1 0xFF AND SWAP1 POP SWAP3 SWAP2 POP POP JUMP JUMPDEST PUSH0 DUP2 DUP4 XOR PUSH1 0xFF AND SWAP1 POP SWAP3 SWAP2 POP POP JUMP JUMPDEST PUSH0 DUP2 DUP4 AND PUSH1 0xFF AND SWAP1 POP SWAP3 SWAP2 POP POP JUMP JUMPDEST PUSH0 DUP2 DUP4 PUSH2 0x286 SWAP2 SWAP1 PUSH2 0x44D JUMP JUMPDEST PUSH1 0xFF AND SWAP1 POP SWAP3 SWAP2 POP POP JUMP JUMPDEST PUSH0 DUP2 DUP4 OR PUSH1 0xFF AND SWAP1 POP SWAP3 SWAP2 POP POP JUMP JUMPDEST PUSH0 DUP2 PUSH1 0xFF AND DUP4 PUSH1 0xFF AND SWAP1 SHR PUSH1 0xFF AND SWAP1 POP SWAP3 SWAP2 POP POP JUMP JUMPDEST PUSH0 DUP2 DUP4 PUSH2 0x2C3 SWAP2 SWAP1 PUSH2 0x4AA JUMP JUMPDEST PUSH1 0xFF AND SWAP1 POP SWAP3 SWAP2 POP POP JUMP JUMPDEST PUSH0 DUP2 DUP4 PUSH1 0xFF AND PUSH2 0x2DE SWAP2 SWAP1 PUSH2 0x4DA JUMP JUMPDEST PUSH2 0xFFFF AND SWAP1 POP SWAP3 SWAP2 POP POP JUMP JUMPDEST PUSH0 DUP2 DUP4 PUSH2 0x2F7 SWAP2 SWAP1 PUSH2 0x63E JUMP JUMPDEST PUSH1 0xFF AND SWAP1 POP SWAP3 SWAP2 POP POP JUMP JUMPDEST PUSH0 PUSH0 REVERT JUMPDEST PUSH0 PUSH1 0xFF DUP3 AND SWAP1 POP SWAP2 SWAP1 POP JUMP JUMPDEST PUSH2 0x31B DUP2 PUSH2 0x306 JUMP JUMPDEST DUP2 EQ PUSH2 0x325 JUMPI PUSH0 PUSH0 REVERT JUMPDEST POP JUMP JUMPDEST PUSH0 DUP2 CALLDATALOAD SWAP1 POP PUSH2 0x336 DUP2 PUSH2 0x312 JUMP JUMPDEST SWAP3 SWAP2 POP POP JUMP JUMPDEST PUSH0 PUSH0 PUSH1 0x40 DUP4 DUP6 SUB SLT ISZERO PUSH2 0x352 JUMPI PUSH2 0x351 PUSH2 0x302 JUMP JUMPDEST JUMPDEST PUSH0 PUSH2 0x35F DUP6 DUP3 DUP7 ADD PUSH2 0x328 JUMP JUMPDEST SWAP3 POP POP PUSH1 0x20 PUSH2 0x370 DUP6 DUP3 DUP7 ADD PUSH2 0x328 JUMP JUMPDEST SWAP2 POP POP SWAP3 POP SWAP3 SWAP1 POP JUMP JUMPDEST PUSH0 DUP2 SWAP1 POP SWAP2 SWAP1 POP JUMP JUMPDEST PUSH2 0x38C DUP2 PUSH2 0x37A JUMP JUMPDEST DUP3 MSTORE POP POP JUMP JUMPDEST PUSH0 PUSH1 0x20 DUP3 ADD SWAP1 POP PUSH2 0x3A5 PUSH0 DUP4 ADD DUP5 PUSH2 0x383 JUMP JUMPDEST SWAP3 SWAP2 POP POP JUMP JUMPDEST PUSH0 PUSH2 0xFFFF DUP3 AND SWAP1 POP SWAP2 SWAP1 POP JUMP JUMPDEST PUSH2 0x3C1 DUP2 PUSH2 0x3AB JUMP JUMPDEST DUP2 EQ PUSH2 0x3CB JUMPI PUSH0 PUSH0 REVERT JUMPDEST POP JUMP JUMPDEST PUSH0 DUP2 CALLDATALOAD SWAP1 POP PUSH2 0x3DC DUP2 PUSH2 0x3B8 JUMP JUMPDEST SWAP3 SWAP2 POP POP JUMP JUMPDEST PUSH0 PUSH0 PUSH1 0x40 DUP4 DUP6 SUB SLT ISZERO PUSH2 0x3F8 JUMPI PUSH2 0x3F7 PUSH2 0x302 JUMP JUMPDEST JUMPDEST PUSH0 PUSH2 0x405 DUP6 DUP3 DUP7 ADD PUSH2 0x328 JUMP JUMPDEST SWAP3 POP POP PUSH1 0x20 PUSH2 0x416 DUP6 DUP3 DUP7 ADD PUSH2 0x3CE JUMP JUMPDEST SWAP2 POP POP SWAP3 POP SWAP3 SWAP1 POP JUMP JUMPDEST PUSH32 0x4E487B7100000000000000000000000000000000000000000000000000000000 PUSH0 MSTORE PUSH1 0x12 PUSH1 0x4 MSTORE PUSH1 0x24 PUSH0 REVERT JUMPDEST PUSH0 PUSH2 0x457 DUP3 PUSH2 0x306 JUMP JUMPDEST SWAP2 POP PUSH2 0x462 DUP4 PUSH2 0x306 JUMP JUMPDEST SWAP3 POP DUP3 PUSH2 0x472 JUMPI PUSH2 0x471 PUSH2 0x420 JUMP JUMPDEST JUMPDEST DUP3 DUP3 MOD SWAP1 POP SWAP3 SWAP2 POP POP JUMP JUMPDEST PUSH32 0x4E487B7100000000000000000000000000000000000000000000000000000000 PUSH0 MSTORE PUSH1 0x11 PUSH1 0x4 MSTORE PUSH1 0x24 PUSH0 REVERT JUMPDEST PUSH0 PUSH2 0x4B4 DUP3 PUSH2 0x306 JUMP JUMPDEST SWAP2 POP PUSH2 0x4BF DUP4 PUSH2 0x306 JUMP JUMPDEST SWAP3 POP DUP3 PUSH2 0x4CF JUMPI PUSH2 0x4CE PUSH2 0x420 JUMP JUMPDEST JUMPDEST DUP3 DUP3 DIV SWAP1 POP SWAP3 SWAP2 POP POP JUMP JUMPDEST PUSH0 PUSH2 0x4E4 DUP3 PUSH2 0x3AB JUMP JUMPDEST SWAP2 POP PUSH2 0x4EF DUP4 PUSH2 0x3AB JUMP JUMPDEST SWAP3 POP DUP3 DUP3 ADD SWAP1 POP PUSH2 0xFFFF DUP2 GT ISZERO PUSH2 0x509 JUMPI PUSH2 0x508 PUSH2 0x47D JUMP JUMPDEST JUMPDEST SWAP3 SWAP2 POP POP JUMP JUMPDEST PUSH0 DUP2 PUSH1 0x1 SHR SWAP1 POP SWAP2 SWAP1 POP JUMP JUMPDEST PUSH0 PUSH0 DUP3 SWAP2 POP DUP4 SWAP1 POP JUMPDEST PUSH1 0x1 DUP6 GT ISZERO PUSH2 0x564 JUMPI DUP1 DUP7 DIV DUP2 GT ISZERO PUSH2 0x540 JUMPI PUSH2 0x53F PUSH2 0x47D JUMP JUMPDEST JUMPDEST PUSH1 0x1 DUP6 AND ISZERO PUSH2 0x54F JUMPI DUP1 DUP3 MUL SWAP2 POP JUMPDEST DUP1 DUP2 MUL SWAP1 POP PUSH2 0x55D DUP6 PUSH2 0x50F JUMP JUMPDEST SWAP5 POP PUSH2 0x524 JUMP JUMPDEST SWAP5 POP SWAP5 SWAP3 POP POP POP JUMP JUMPDEST PUSH0 DUP3 PUSH2 0x57C JUMPI PUSH1 0x1 SWAP1 POP PUSH2 0x637 JUMP JUMPDEST DUP2 PUSH2 0x589 JUMPI PUSH0 SWAP1 POP PUSH2 0x637 JUMP JUMPDEST DUP2 PUSH1 0x1 DUP2 EQ PUSH2 0x59F JUMPI PUSH1 0x2 DUP2 EQ PUSH2 0x5A9 JUMPI PUSH2 0x5D8 JUMP JUMPDEST PUSH1 0x1 SWAP2 POP POP PUSH2 0x637 JUMP JUMPDEST PUSH1 0xFF DUP5 GT ISZERO PUSH2 0x5BB JUMPI PUSH2 0x5BA PUSH2 0x47D JUMP JUMPDEST JUMPDEST DUP4 PUSH1 0x2 EXP SWAP2 POP DUP5 DUP3 GT ISZERO PUSH2 0x5D2 JUMPI PUSH2 0x5D1 PUSH2 0x47D JUMP JUMPDEST JUMPDEST POP PUSH2 0x637 JUMP JUMPDEST POP PUSH1 0x20 DUP4 LT PUSH2 0x133 DUP4 LT AND PUSH1 0x4E DUP5 LT PUSH1 0xB DUP5 LT AND OR ISZERO PUSH2 0x60D JUMPI DUP3 DUP3 EXP SWAP1 POP DUP4 DUP2 GT ISZERO PUSH2 0x608 JUMPI PUSH2 0x607 PUSH2 0x47D JUMP JUMPDEST JUMPDEST PUSH2 0x637 JUMP JUMPDEST PUSH2 0x61A DUP5 DUP5 DUP5 PUSH1 0x1 PUSH2 0x51B JUMP JUMPDEST SWAP3 POP SWAP1 POP DUP2 DUP5 DIV DUP2 GT ISZERO PUSH2 0x631 JUMPI PUSH2 0x630 PUSH2 0x47D JUMP JUMPDEST JUMPDEST DUP2 DUP2 MUL SWAP1 POP JUMPDEST SWAP4 SWAP3 POP POP POP JUMP JUMPDEST PUSH0 PUSH2 0x648 DUP3 PUSH2 0x306 JUMP JUMPDEST SWAP2 POP PUSH2 0x653 DUP4 PUSH2 0x306 JUMP JUMPDEST SWAP3 POP PUSH2 0x661 PUSH1 0xFF DUP5 DUP5 PUSH2 0x56D JUMP JUMPDEST SWAP1 POP SWAP3 SWAP2 POP POP JUMP INVALID LOG2 PUSH5 0x6970667358 0x22 SLT KECCAK256 TLOAD MSTORE8 JUMPI PC SELFDESTRUCT DUP4 EXTCODECOPY 0xD6 TIMESTAMP JUMPDEST SWAP11 0x4F PUSH23 0xA5D720189E87BE19B0FB1423E5906C0AE66B8264736F6C PUSH4 0x4300081E STOP CALLER "
		},
		"gasEstimates": {
			"creation": {
				"codeDepositCost": "339000",
				"executionCost": "372",
				"totalCost": "339372"
			},
			"external": {
				"add(uint8,uint16)": "infinite",
				"and(uint8,uint8)": "infinite",
				"devide(uint8,uint8)": "infinite",
				"exponentiation(uint8,uint8)": "infinite",
				"leftShift(uint8,uint8)": "infinite",
				"modulo(uint8,uint8)": "infinite",
				"or(uint8,uint8)": "infinite",
				"rightShift(uint8,uint8)": "infinite",
				"xor(uint8,uint8)": "infinite"
			}
		},
		"methodIdentifiers": {
			"add(uint8,uint16)": "bb2a1d3f",
			"and(uint8,uint8)": "2793c135",
			"devide(uint8,uint8)": "ad0be11f",
			"exponentiation(uint8,uint8)": "ca3b39fd",
			"leftShift(uint8,uint8)": "19561b63",
			"modulo(uint8,uint8)": "2b6c5ae7",
			"or(uint8,uint8)": "6e0b3900",
			"rightShift(uint8,uint8)": "a75af91f",
			"xor(uint8,uint8)": "203b1fa1"
		}
	},
	"abi": [
		{
			"inputs": [
				{
					"internalType": "uint8",
					"name": "x",
					"type": "uint8"
				},
				{
					"internalType": "uint16",
					"name": "y",
					"type": "uint16"
				}
			],
			"name": "add",
			"outputs": [
				{
					"internalType": "uint256",
					"name": "",
					"type": "uint256"
				}
			],
			"stateMutability": "pure",
			"type": "function"
		},
		{
			"inputs": [
				{
					"internalType": "uint8",
					"name": "x",
					"type": "uint8"
				},
				{
					"internalType": "uint8",
					"name": "y",
					"type": "uint8"
				}
			],
			"name": "and",
			"outputs": [
				{
					"internalType": "uint256",
					"name": "",
					"type": "uint256"
				}
			],
			"stateMutability": "pure",
			"type": "function"
		},
		{
			"inputs": [
				{
					"internalType": "uint8",
					"name": "x",
					"type": "uint8"
				},
				{
					"internalType": "uint8",
					"name": "y",
					"type": "uint8"
				}
			],
			"name": "devide",
			"outputs": [
				{
					"internalType": "uint256",
					"name": "",
					"type": "uint256"
				}
			],
			"stateMutability": "pure",
			"type": "function"
		},
		{
			"inputs": [
				{
					"internalType": "uint8",
					"name": "x",
					"type": "uint8"
				},
				{
					"internalType": "uint8",
					"name": "y",
					"type": "uint8"
				}
			],
			"name": "exponentiation",
			"outputs": [
				{
					"internalType": "uint256",
					"name": "",
					"type": "uint256"
				}
			],
			"stateMutability": "pure",
			"type": "function"
		},
		{
			"inputs": [
				{
					"internalType": "uint8",
					"name": "x",
					"type": "uint8"
				},
				{
					"internalType": "uint8",
					"name": "y",
					"type": "uint8"
				}
			],
			"name": "leftShift",
			"outputs": [
				{
					"internalType": "uint256",
					"name": "",
					"type": "uint256"
				}
			],
			"stateMutability": "pure",
			"type": "function"
		},
		{
			"inputs": [
				{
					"internalType": "uint8",
					"name": "x",
					"type": "uint8"
				},
				{
					"internalType": "uint8",
					"name": "y",
					"type": "uint8"
				}
			],
			"name": "modulo",
			"outputs": [
				{
					"internalType": "uint256",
					"name": "",
					"type": "uint256"
				}
			],
			"stateMutability": "pure",
			"type": "function"
		},
		{
			"inputs": [
				{
					"internalType": "uint8",
					"name": "x",
					"type": "uint8"
				},
				{
					"internalType": "uint8",
					"name": "y",
					"type": "uint8"
				}
			],
			"name": "or",
			"outputs": [
				{
					"internalType": "uint256",
					"name": "",
					"type": "uint256"
				}
			],
			"stateMutability": "pure",
			"type": "function"
		},
		{
			"inputs": [
				{
					"internalType": "uint8",
					"name": "x",
					"type": "uint8"
				},
				{
					"internalType": "uint8",
					"name": "y",
					"type": "uint8"
				}
			],
			"name": "rightShift",
			"outputs": [
				{
					"internalType": "uint256",
					"name": "",
					"type": "uint256"
				}
			],
			"stateMutability": "pure",
			"type": "function"
		},
		{
			"inputs": [
				{
					"internalType": "uint8",
					"name": "x",
					"type": "uint8"
				},
				{
					"internalType": "uint8",
					"name": "y",
					"type": "uint8"
				}
			],
			"name": "xor",
			"outputs": [
				{
					"internalType": "uint256",
					"name": "",
					"type": "uint256"
				}
			],
			"stateMutability": "pure",
			"type": "function"
		}
	]
}